:020000040800F2
:1000000000000120B5290608512A06086D190208CA
:10001000C5170208512A0608512A060800000000E8
:10002000000000000000000000000000512A060847
:10003000512A060800000000512A06089D090208FE
:10004000512A0608512A0608512A0608512A06088C
:10005000512A0608512A0608A9040208B104020818
:10006000B9040208C1040208C9040208F9A800087A
:1000700009A9000819A9000829A9000839A9000838
:100080004DA9000861A90008512A0608512A06084E
:10009000512A0608512A0608512A0608D1040208E6
:1000A00005C8000865C7000815C8000855C700083E
:1000B0008DC700089DC70008ADC70008E1A400086F
:1000C000D5A4000811A5000805A50008512A0608B6
:1000D000512A0608E9080208F50802080109020881
:1000E000D9040208512A0608512A060825C8000822
:1000F000DDC70008512A0608CDC7000875A9000809
:10010000512A0608ADE30008BDC70008512A0608B9
:100110000D09020819090208512A0608319105083B
:1001200089A900089DA90008B1A90008C5A900086F
:10013000D9A9000800000000000000000000000035
:10014000000000000000000000000000AD8605086F
:10015000EDA9000801AA000815AA0008250902084F
:1001600045A5000839A50008512A0608512A0608A5
:10017000512A0608512A060800000000000000006D
:10018000512A0608512A0608512A0608512A06084B
:10019000512A0608512A060800000000512A0608C4
:1001A000000000000000000000000000512A0608C6
:1001B000512A0608512A060800000000000000002D
:1001C000000000000000000000000000000000002F
:1001D000000000000000000000000000512A060896
:0801E0000025060001000000EB
:1001E8001402010005000000CC2A0120D82D0120AE
:1001F8000000000018BA07081F02080010000000DD
:10020800242A0120E02D0120000000005D5D010886
:100218000610010024000000F8210120F02D012023
:10022800000000007D5C0108FA01010003000000E5
:10023800F44501202845012000000000655C010804
:10024800FF21010005000000CC3901202C450120C8
:10025800000000004D5D0108052001000C000000B1
:100268004C400120344501200000000020BA070856
:1002780013020100040000009C3D012040450120BC
:10028800000000002CBA07081830010034000000F4
:10029800843901204445012000000000F161010873
:1002A8001E02010006000000743701207845012075
:1002B8000000000030BA07080D1201001400000009
:1002C80080380120804501200000000038BA070866
:1002D800030101000A00000034390120944501207F
:1002E80000000000B9B2040812200100110000004B
:1002F80094380120A0450120000000004CBA0708EE
:100308000B2201003D000000E02E0120B445012031
:10031800000000005EBA0708150010007000000019
:10032800B47001203C7701200000000000000000AC
:100338002A0008006000000054700120AC770120FA
:10034800000000007D3A030821020100F0000000CF
:10035800646F01200C780120000000001945040892
:100368002C00040010000000546F0120FC780120CC
:1003780000000000D53B030825201E002C010000CA
:10038800A86D01200C790120000000000000000089
:100398002B00120024000000606D0120387A012033
:1003A80000000000F13B03081610010006000000E1
:1003B800E86C01205C7A0120000000009CBA070864
:1003C8002700010004000000DC6C0120647A012091
:1003D80000000000A2BA070820520100080000002F
:1003E800EC6A0120687A012000000000493A0308FD
:1003F8000C400600E400000004660120707A012029
:100408000000000019E90208292014007800000003
:100418003C6A0120547B012000000000000000001D
:10042800012001000C000000306A0120CC7B012073
:1004380000000000A6BA07082320010010000000F1
:10044800206A0120D87B0120000000000143030836
:100458002830010016000000EC690120E87B01202B
:1004680000000000154303080B3001001A000000CB
:10047800D0690120007C012000000000B2BA070802
:100488000E300300BC010000E86601201C7C01203E
:1004980000000000E54A03081E00010009000000F2
:1004A80058690120D87D012000000000CCBA070857
:1004B8000D10010070000000E4680120E47D0120B7
:1004C800000000007B260208220201001C01000037
:1004D800606B0120547E012000000000016E0108BD
:1004E800160215003F000000B07F0120707F012038
:1004F80000000000A55D01081B02010010000000BB
:1005080000800120F07F012000000000155D010837
:10051800280204000400000014800120108001203B
:1005280000000000095D0108270204000400000023
:100538001C8001201880012000000000FD5C0108DB
:100548001C0202001C000000046A01202080012017
:100558000000000039610108010201000B000000E1
:10056800488001203C80012000000000555C010803
:10057800000201000B0000007C6C01205480012067
:10058800000000004D5C01081A0201003C00000058
:10059800647101206080012000000000856101086D
:1005A8000400080080000000D46E01209C80012017
:1005B8000000000000000000190201001000000007
:1005C800C86A01201C810120000000003D5D01086F
:1005D8000812040014000000A87301202C810120D7
:1005E80000000000E95B01080A0201001400000095
:1005F8000C740120408101200000000065E9020818
:100608000A90010024000000A46801205481012000
:1006180000000000F9C60308031201003D000000B5
:10062800247101207881012000000000D6BA070853
:100638000C02010004000000BC730120B8810120F5
:10064800000000006D5C01081300010004000000B8
:10065800D0680120BC8101200000000014BB0708FD
:10066800020201000300000034770120C08101204C
:100678000000000000000000F59101006C0000007F
:10068800F46A0120C481012000000000C15C040854
:10069800F62101000C000000E06A012030820120F0
:1006A8000000000018BB0708121201000400000037
:1006B800549B01203C8201200000000024BB070855
:1006C8001102010008000000589B0120408201200F
:1006D8000000000028BB07083400010010000000DB
:1006E800609B01204882012000000000613A030855
:1006F800F831010008000000C86801205882012074
:100708000000000030BB0708020001000C000000D8
:100718003874012060820120000000000000000001
:10072800FE01010014000000B46A01206C8201205F
:1007380000000000D15B0108061204001800000048
:10074800F47301208082012000000000B9600108D4
:10075800F701010006000000D86A012098820120F4
:100768000000000038BB0708FC0101000900000078
:10077800709B0120A082012000000000295D010873
:10078800FB010100010000007C9B0120AC820120DC
:1007980000000000355D01081A0001000E0000008D
:1007A80090730120B0820120000000003EBB0708C2
:1007B8001400010005000000DC680120C08201204F
:1007C800000000004CBB0708FD01010024000000E8
:1007D8006A730120C8820120000000008BD901083B
:1007E8001D0202000600000064730120EC82012053
:1007F8000000000000000000F901010004000000F2
:10080800809B0120F48201200000000045D90108E6
:100818000E02010002000000909D0120C49D0120ED
:100828000000000052BB07082F1001002200000042
:10083800C89D01204C9D01200000000054BB070802
:100848001F500100240000007CA10120C0A9012044
:100858000000000078BB0708381001000100000004
:10086800F89F0120E4A90120000000009CBB0708B4
:10087800261001000E000000DC9E0120E8A90120DE
:100888000000000035A804081B1001000C0000003F
:100898009CA90120F8A9012000000000993C040847
:1008A8001010010002000000B0A7012004AA0120D6
:1008B800000000009EBB070829020100400000005C
:1008C80090AC0120F8AC012000000000A0BB070894
:1008D800FD0701007C00000014AC012038AD0120A8
:1008E800000000007D44040801010100040000002C
:1008F80010AC0120B4AD0120000000000000000091
:1009080000010100040000000CAC0120B8AD01207A
:1009180000000000E0BB070802010100030000001E
:1009280008AC0120BCAD01200000000009E9020864
:100938002A0201000800000020AB0120C0AD012000
:1009480000000000E4BB07081900010005000000D2
:1009580018AB0120C8AD012000000000ECBB07085F
:100968003710010030000000E4AA0120D0AD0120BA
:1009780000000000F2BB070823220100100000005D
:1009880004B40120D0B601200000000024BC0708F0
:100998000300010001000000B0B40120E0B601200E
:1009A8000000000000000000050201000400000033
:1009B80058B40120E4B601200000000034BC070848
:1009C80010020100010000000411022000110220A1
:0809D8000000000038BC070814
:08280000082800080040000850
:10800000084A0346D0F8E4005268D3F8F010121A78
:1080100000209142B8BFC3F8F020012283F81C2150
:10802000704700BF001000E090F8DB30052B03D84C
:1080300090F81E31012B01D00020704790F82331B9
:1080400003F0FB03022B0CBF00200720704700BF8A
:10805000836930B45C6999682268096822F001027A
:1080600022601C8ACA6822EA0402CA60027D006893
:108070001F2A06D9203A082144689140214216D08F
:10808000FEE70821046891402142F9D1202101FA3C
:1080900002F28260204A12783AB11A7F012A0BD18B
:1080A000D3F804210132C3F8042130BC70472021E9
:1080B00001FA02F2C260EDE7D3F800210132C3F801
:1080C0000021EFF31181502282F312885868C9B25F
:1080D0009D6C0268DC6C22EA05022243026081F397
:1080E00011885A699968D3E90D4009681460506194
:1080F000D3E90F40546090605C6CB3F8B400D46076
:108100000124C8621068204310601A8A1C77CB686B
:10811000134330BCCB607047C000002070B50E4EDA
:108120007368002B16DD06F10804002503E0736870
:108130002034AB420EDD237F0135002BF7D0E06801
:1081400000220028F3D0217D203418F027FA73682C
:10815000AB42F0DC012070BDC0000020704700BFC2
:10816000024B03EB401090F825007047C000002040
:108170004368426D30B49A61EFF31182502383F368
:1081800012884168D2B2856C0B68046D23EA05033E
:1081900023430B6082F31188436981681A68096878
:1081A00022F00102D0E908541A60826A1D605C6105
:1081B0005A60D0E90B429C60DA600023B0F86C2072
:1081C00030BCCA62037770474FF400638381704705
:1081D000084A0346D0F8E4005268D3F8F010121AA7
:1081E00000208A42C8BFC3F8F020012283F81C2176
:1081F000704700BF001000E04FF4006383817047B8
:108200004FF4006383817047012380F81031704779
:108210004FF40063838170474FF40063838170479C
:108220004FF400638381704770470120704701203D
:1082300070472DE9F047DFF880810E460746D8F8F1
:108240000050B8F80420B8F80A90C2EB2513520089
:10825000C2EBE502B8F906506A4303FB03F5B8F92F
:1082600008302D135D43B8F90E30AD134FEAE37EAD
:1082700005EBE225A5F5FA31C8F81C5081FB010C8D
:1082800003FB0CF200FB0E22A3FB003E9644B8F960
:108290000C201B0A82FB014243EA0E63120342EAEE
:1082A000145224031B194FF0000442EB2E22A3FBAF
:1082B000093E02F5004209FB02EE4FEAEE734FEA77
:1082C0006E0253EA6E0E6BD0B8F914904FEAE97E55
:1082D00009FB0CFC00FB0ECCA9FB00908444B8F910
:1082E000120080FB01E148044FEA4E4140EADE30D3
:1082F00011EB0909D8F820104CEB0000C1F5801CE7
:1083000014EB0904B8F910100CF0004A40F6354996
:1083100000EBC1014AEA5C0A4FEACC7CBCEB0400EA
:108320006AEB010AA0FB090109FB0A115AF026F9C0
:10833000B8F91A404FEA613E8146430B04FB0EF246
:108340004FEAE47C43EAC14303FB0C2CA4FB034249
:10835000624404FB0EFE03FB02EEB8F91820A4FBF6
:1083600003439E44640E02FB01F344EACE1414EB73
:10837000000C4FEAE274A2FB092941EB6E6E04FB8C
:108380000031D40CB8F91630494444EA41341CEBAE
:1083900004044EEBE141240A44EA016404EB0314B3
:1083A0000FB1240A3C6026B105EB850580352D12FE
:1083B0003560BDE8F08700BFD01E0120704700BFC8
:1083C00001207047012070473122F42159F020B973
:1083D00008B5006855F09AFFD8B90F4A0F4992F8CE
:1083E000093192F808011B0143EA003392F80A01AF
:1083F00043EA101392F80B010B6292F80C3192F8D9
:108400000D211B0143EA0033012043EA12130B60E4
:1084100008BD0020FCE700BFC0000020D01E0120E6
:10842000036810B41A78012A1CD0184C184901208E
:1084300091F8122191F811C191F8153112041B0421
:1084400042EA0C2291F814C143EA0C2391F810C1BE
:1084500091F8131142EA0C020B43C4E969235DF859
:10846000044B704793F90430084C03EB430304EBCF
:10847000431393F87920202A03D000205DF8044BA1
:1084800070479B6B9B691B04F7D4CFE7D01E01207C
:10849000C00000202DE9F04FCC4C83B0B4F8AC31D3
:1084A000D4F8A821B4F8AE61A2EB032294F9B0513C
:1084B0000091A6FB02634FEAE57C9F04A2FB022326
:1084C00005FB03F347EA9637B60402FB0C33A5FB22
:1084D0000252AD191A4442EB0703002B02DA013DA8
:1084E00043F10003DF17C4E97237002800F01A8156
:1084F00003FB07FCD4F8A451A3FB032606EB4C06B0
:108500004FEA921E4FEAA6184EEA866E0EFB07FC53
:1085100003FB08CCAEFB03E81CEB080C00F1508118
:108520004FEA1E2E4FEA2C214EEA0C6E94F9B6C18A
:1085300001914FEAEC780CFB01FA0EFB08AAACFBA8
:108540000EC81AEB080A00F136814FEA5C1CB4F938
:10855000B3814CEACA6194F9B5C1A8F580484FEAE5
:10856000EC7B0CFB06F902FB0B99ACFB02CBD9446C
:10857000B4F9B1B14FEA8909ABF5804B49EA9C796E
:108580004FEA8B3B4FEA8C0C0BEB6A1A08FB07FB9C
:1085900011EB0C0C4AEB09094FEAE87A03FB0ABB22
:1085A000A8FB038ADA444FEA4A5A4AEAD82A4FEA31
:1085B00048581CEB080C49EB0A09B9F1000FC0F24E
:1085C000F3804FEA1C6B019994F9BCC14BEA092B6B
:1085D0000CFB01FA4FEAEC784FEA29690EFB08AA76
:1085E000ACFB0ECE1AEB0E0E00F1D9804FEA5C1CEC
:1085F0004CEACE6894F9BBC14FEAEC7A0CFB06F664
:1086000002FB0A66ACFB022CB444B4F8B7614FEA33
:108610000C1AF6034AEA127A120106EB6E1E18EBE8
:108620000202B4F8B981A8FB03C64EEB0A0A08FBA4
:1086300007684FEA885646EA9C264FEA8C5C12EBA4
:108640000C024AEB060ABAF1000FC0F2A28094F9BC
:10865000BFE14FEA920CABFB05864CEA8A7C0EFB2D
:1086600007F205FB09664FEAEE791CEB0808B4F93E
:10867000BDC103FB0922AEFB03E946EBAA064A444F
:108680004FEA0C491EEB090E42EBEC7CAEFB05E217
:1086900005FB0C22002A75DB4FEA5E3E4EEAC24E15
:1086A0005213AEFB05CE05FB02EEBEF1000F62DBFE
:1086B0004FEA5C2C94F9C0214CEACE5C18EB0C0C10
:1086C000A5FB054846EB6E264FEAE27E04FB0EFE54
:1086D00002FB08EEA4FB02421EEB020E45D4220C64
:1086E00042EA0E424FEA2E4EA2FB052405FB0E4E37
:1086F000BEF1000F35DBD20942EA4E6212EB0C02EA
:1087000046EBEE16941846EB060EA41846EB0E0E3A
:108710004FEACE0E4EEA547EE400A41846EB0E0655
:10872000360C0660009A9AB1DA1847EB0700D218A7
:1087300047EB0000C00040EA5270D200D31847EB6C
:108740000007002F07DB9B0B009A43EA8743136067
:1087500003B0BDE8F08F43F6FF729B1847F10007A6
:10876000F1E77F324EF1000EC5E74FF6FF72A41815
:108770004EF1000EB3E740F2FF121CEB020C4EF17B
:10878000000E95E741F6FF7C1EEB0C0E42F1000255
:1087900082E712F1030C62464AF1000A57E71CF126
:1087A0001F0C4EF1000E21E76FF07F4B1CEB0B0C02
:1087B00049F1000905E71CF11F0C4AF1000AC4E663
:1087C0001EF1FF0E4CF1000CAAE600BFD01E0120E6
:1087D0003B4BDFED3C3A93F8D11193F8D0010902FD
:1087E00093F8D22193F8D3C101EB004193F8D4015F
:1087F00093ED786A0A4409024FEA002093F8D511F4
:1088000048BF02F17F42B8EEC66A00EB0C4007EEAB
:10881000902AB3F9EC210144000205EE902AB3F945
:10882000E821F8EEE77A48BF01F17F4104EE902A93
:10883000B3F9EA21F8EEE55A07EE101A67EEA37ACB
:1088400006EE902AF8EEE44AB3F9E621F8EEE66A7D
:10885000012005EE102AB3F9E421E7EEA54AB8EEAF
:10886000C55A04EE102AB8EEC77AB3F9DA21B8EE89
:10887000C44AA7EEA65AD3ED776A27EE237A05EE0F
:10888000902AA4EEA76AB3F9D821F8EEE66AF8EECA
:10889000E55A04EE902AF6EE003AE7EE046AF8EEA6
:1088A000E44AA5EE076A67EE255AB0EE667AE4EE72
:1088B000A35AA7EE867AC3ED7D5A83ED7C7A704782
:1088C000D01E01200821843630B10A4BD3ED7C7ACA
:1088D000FDEEE77AC0ED007A51B1064B9FED067AC6
:1088E000D3ED7D7A67EE877AFDEEE77AC1ED007A07
:1088F000704700BFD01E01200000C842704700BF73
:108900000120704701207047704770470120704771
:1089100030B5002385B0E72105468DF807300DF10D
:1089200007020123154C16F0E3FB9DF8073013F006
:1089300003031FD0052302AAE821284616F0D8FB1E
:108940009DF80A209DF80910130412F0800F43EAE5
:1089500001239DF8081014BF4FF07F4200220B4303
:108960001343C4F8F831BDF80B300120A4F8FC31F2
:1089700005B030BDC4F8F831F7E700BFD01E0120C4
:108980000B4A642310B5D2F8F841634348BF03F69D
:10899000FF731B130360B2F8FC310A2253433022E9
:1089A000B3FBF2F303F584531A330B6010BD00BF21
:1089B000D01E012008B5006855F0A8FC78B9094A16
:1089C000012092F8193192F818111B0292F81A211D
:1089D00043EA01431343044AC2F8003208BD0020B1
:1089E000FCE700BFC0000020D01E012008B50068D1
:1089F00055F08CFC78B9094A012092F8193192F8A7
:108A000018111B0292F81A2143EA01431343044A46
:108A1000C2F8043208BD0020FCE700BFC0000020FF
:108A2000D01E01202DE9F74F544AB2F81232B2F8A5
:108A30000E621B02B2F81472CDE90001D2F80012E6
:108A4000C91AB2F810326EEB0E0EA3FB010403FB41
:108A50000E44C009B2F80C3240EA44601B04E41131
:108A6000C018A6FB013506FB0E554FEA1323B2F8DA
:108A70000A6244F1000443EA0563F6032D129B19D0
:108A8000A7FB012607FB0E664FEAD25245F100050F
:108A900042EA4622F61512F5FA6C46F1000BBCF5D7
:108AA000FA6F7BF100074CDAA2FB02784FF0050A5F
:108AB00002FB06F908EB4909A7FB0A780AFB0988BB
:108AC0004FEA5709BF0849EAC87947EA8877B0EB07
:108AD000090064EB6804DB1B294F65EBA805BC4566
:108AE0004FF0FF377BEB070720DA40F6AC57D2197F
:108AF00046F100065643A2FB027202EB4606FA005C
:108B00004FEAC608BA1A48EA577866EB0808101800
:108B100044EB08044FF00B08A7FB087208FB06267D
:108B20007F0847EAC677DB1B65EB660501FB0EFE97
:108B3000A1FB011202EB4E0EC90F41EA4E01BCEB44
:108B4000010C009A92B10D4AD2F80412A1FB032342
:108B500001FB0535520D009B42EAC5226D15121A24
:108B600065EB0404D20B42EA44421A60019B0BB14C
:108B7000C3F800C003B0BDE8F08F00BFD01E0120D5
:108B800024FAFFFF7047012070470120704708B5A5
:108B9000006855F0BBFBD8B90E4A0F4992F81D3159
:108BA00092F81C011B0243EA004392F81E010343A2
:108BB00092F81F01C1F8183292F8203192F8212161
:108BC0001B0243EA004301201343C1F81C3208BDD5
:108BD0000020FCE7C0000020D01E01202A4BD3F863
:108BE0001C2293ED8A6AA2F50002D3ED896AD3EDC7
:108BF000887A07EE102AD3ED8D5AD3ED8C4AB8EE61
:108C0000C77AD3F8182293ED914AA2F5000293EDAA
:108C10008F5AE7EE066A93ED8E6AE7EE267A06EE45
:108C2000902A93ED8B7AF8EEE66AE5EEA74AD3ED4B
:108C3000905AA4EE275A93ED924AA7EEA47AD3ED68
:108C4000934AA5EE276AE6EEA45AE4EE275AA5EE6B
:108C5000A66AA6EE867AB5EE407AF1EE10FA03D057
:108C6000BDEEC77A80ED007AF5EE407AF1EE10FAAB
:108C700008D0FDEEE77A17EE903A002BB8BFFF332D
:108C80001B120B60704700BFD01E0120134BD0F8A1
:108C9000D8105B68D0F8E02010B50446581A82421C
:108CA00000DC22B9D4F8E4200A44C4F8DC2094F8AB
:108CB000D020C4F8D830012A05D0D4F8D4300133FC
:108CC000C4F8D43010BD04F1E801201D16F04CF8B2
:108CD000D4F8D4300133C4F8D43010BD001000E013
:108CE00010B5104B04465868D4F8E410D4F8D830C6
:108CF00094F8D0200B44C4F8D800012AC4F8DC3022
:108D000005D0D4F8D4300133C4F8D43010BD04F108
:108D1000E801201D16F028F8D4F8D4300133C4F847
:108D2000D43010BD001000E070B5044690F8210169
:108D300000B970BD17F00CFC21460546A8B12622EB
:108D40000023C2800D4A41F80C2F1A4655F088F9CD
:108D5000AB884FF00042B3FA83F332FA03F3E8D062
:108D600007490A6813430B6070BD044C0346024672
:108D700041F80C4FBDE8704055F072B98D8C000879
:108D8000003C01400269C3682DE9F04712EA03097B
:108D90002AD005460E464FF000474FF00008B9FABA
:108DA00089F327FA03F21B3BD24309EA02092A613D
:108DB000042B16D8DFE803F0352C231A0300736A5E
:108DC000002B37D003F1FF3AC6F824801FFA8AFA45
:108DD000346A34B123682046514698476468002CB1
:108DE000F8D1B9F1000FDAD1BDE8F0873068696BCE
:108DF000036889B29847B9F1000FD0D1F4E77068E1
:108E0000A96B036889B29847B9F1000FC7D1EBE7A6
:108E1000B068E96B036889B29847B9F1000FBED119
:108E2000E2E7F068296C036889B29847B9F1000F4E
:108E3000B5D1D9E7E96A1FFA81FAC9E710B5044646
:108E400082B0806906236A463B21103016F05CF937
:108E500058B1BDF80010BDF80220BDF8043049BA81
:108E600052BA5BBAE1812282638202B010BD00BFB8
:108E700010B582B00446062343216A46103016F02E
:108E800043F970B1BDF80010BDF80220BDF8043000
:108E900049BA52BA5BBAA4F8D010A4F8D220A4F808
:108EA000D43002B010BD00BF10B5044682B0806956
:108EB00006236A462821103016F026F9BDF8001066
:108EC000BDF802200120BDF80430E18122826382D6
:108ED00002B010BD10B582B00446062322216A46B6
:108EE000103016F011F9BDF80010BDF80220012075
:108EF000BDF80430A4F8D010A4F8D220A4F8D430DF
:108F000002B010BD13B5002304460B488DF807309E
:108F100015F0C4FE0123A0800DF107020F212046A9
:108F200016F0F2F828B19DF807306C2B14BF002022
:108F3000102002B010BD00BF8096980000B583B02D
:108F40004FF0000C012311210DF1070298388DF824
:108F500007C016F0D9F803B05DF804FBF0B505467C
:108F600080698BB090F8DC30012B28D0023B012BBC
:108F700030D81030194C15F06BFEAB69BB22EC46B3
:108F8000D3F89C301A70AE69D6F8A0305F1C0FCCB5
:108F9000ACE80F00D6F89C30CDE900370FCCACE838
:108FA0000F0094E803008CE8030006F11000694606
:108FB00015F0DAFEA8690269136A002BFCD1D0F81B
:108FC000A0305A8852BAEA819A8852BA2A82DB883B
:108FD0005BBA6B8201200BB0F0BD00BFA85B060836
:108FE00070B5054680698AB090F8DC30012B27D037
:108FF000023B012B2CD81030174C15F029FEAB6921
:109000008C22EC46D3F89C301A70AE690FCCACE8D9
:109010000F00D6F89C300093D6F8A03001930FCC07
:10902000ACE80F0094E803008CE8030006F11000A0
:10903000694615F099FEA8690269136A002BFCD1F4
:10904000D0F8A0305A88EA819A882A82DB886B821D
:1090500001200AB070BD00BFD05B06082DE9F041C9
:1090600090F8DC308AB00446D0F8A060012B4ED0D6
:1090700016D8D0F89C304FF0FF3205211A605A60A4
:109080009A60DA60D0F8E030C0F8F010B3F57A7F7B
:109090004DD8032380F8DC3001200AB0BDE8F08110
:1090A000023B012BF8D800F11008344D404615F072
:1090B000CFFDD4F89C30C322EC461A70D4F8A0300F
:1090C0005F1C0FCDACE80F00D4F89C30CDE9003721
:1090D0000FCDACE80F0095E803008CE8030069466B
:1090E000404615F041FE2269136A002BFCD17388BB
:1090F00001205BBAA4F8D030B3885BBAA4F8D230B0
:10910000F3885BBAA4F8D4300AB0BDE8F081738963
:109110005BBAA0F8D030B3895BBAA0F8D230F3893B
:109120005BBAA0F8D43001200AB0BDE8F081036931
:109130001A7BF2B190F89820DAB1D0F89C10012295
:10914000BB205A73C4F8A44008700F200C49D4F80F
:10915000A030C4F804111344D4F89C1084F8002102
:10916000C4F8FC00C4F8F83084F8DC20C4F8F4102B
:1091700092E7022384F8DC308EE700BFA85B060884
:1091800001800008836910B5074C04EB8303D3F812
:1091900070024BF099FF0021B4F8900255F052F89C
:1091A000002384F8923210BDD01E012080699C30CB
:1091B0004BF08ABF10B5074C94F894320BB90020DD
:1091C00010BD17F049FDD4F89832C01AD0F5FA5006
:1091D000F6D5F4E7D01E012070B505460C46FFF722
:1091E000E9FF2B685D6808B117F064FD064B0022AB
:1091F0002846492183F89422224693F89532BDE807
:10920000704015F075BF00BFD01E01202DE9F04F52
:10921000C64C2DED028B237883B0009303BBD4F8AA
:109220002431002B16DD0026C14831464769D0F8AD
:10923000AC303D6803F1C00225F001053D60596086
:109240000C339A42FBD10136D4F8243100F58670F4
:10925000B342EBDC012003B0BDEC028BBDE8F08F24
:10926000B44BD3F89C3208EE103A17F0F5FCD4F862
:109270002831D4F82C211433801AB0EB430FC0F2FC
:10928000208104F5987904F5826A04F10806002526
:109290006368AB42C3DDB3690121DFF8B4E25F6903
:1092A000A54AD3E93D0C73689940FBB227F0FF074C
:1092B000103BAEFB033EA14B4FEA1E1E13F80E30CF
:1092C0001F4403467F68BFB2ACEB07073A4400EB8C
:1092D00042029A4217D9B3F800C01CEA010F00F00D
:1092E000EA80B3F802C01CEA010F00F0E680B3F890
:1092F00004C01CEA010F00F0E280B3F806C0083396
:109300001CEA010FE5D11A880A400192002A40F0B8
:109310009980181AA7EB6007452F28BF452703EB54
:109320004707BB4280F08E8096469046184694468A
:1093300016E0B3F802B00BEA010B5A4540F0A680E4
:10934000B3F804B00BEA010B5A4540F0A180DA886B
:1093500008330A40944506D19F4206D91A880A402C
:109360006245E6D002339F4276D8B8F1110F69D931
:10937000C8F11503002BC0F28D8000F0B5800EFA05
:1093800003FEC8F1140801236D4A03FA08F848EAFD
:109390000E0ECEF3C433CEF3441002EB830302EB84
:1093A0008000196D0EF01F0302EB83031B6D43EA6F
:1093B0000131CEF3842302EB8302036D126D41EA87
:1093C000031343EA022383EA132282EA121202F011
:1093D0000F020F2A5ED1B3F5803F5BD240F6FF71DA
:1093E0001A09B1EB131F78D0C2F308025B0B12FA13
:1093F00003F34FD0534A02EB5302B2FBF3F24FF6A2
:10940000FE7301929A421DD0D4F818340133C4F887
:1094100018344FF6FF739A4241D0BDF80430AAF8D1
:109420000C30032D4FF001038AF80E3004DC414B61
:1094300093F8A0322D2B4AD0009918EE102A4846F6
:1094400015F0A8FB013509F15C090AF1040A203680
:10945000082D7FF41DAFE2E6181A33F802CC421053
:1094600001EA0C0C501C384A82FB00B2A2EBE072FD
:109470000120012AB8BF01220EFA02FE9044013AEF
:1094800000FA02F2184642EA0E0E67E704336AE772
:10949000063368E7D4F818340133C4F81834D4F824
:1094A000143400210133C4F8143418EE102A48464D
:1094B00015F070FBC6E7023325E7043323E70633D4
:1094C00021E7002003B0BDEC028BBDE8F08F1F4BFD
:1094D000019A009923F81520E7E7D4F818340133EE
:1094E000C4F8183400239AE7154BCEF3C43203EBCB
:1094F0008202116D0EF01F0203EB8202126D42EA2E
:109500000132CEF34411CEF3842E03EB810103EB41
:109510008E03096D1B6D42EA011242EA032383EABE
:10952000132282EA121202F00F0252E7C00000205A
:1095300054050020D01E0120C7FFFF7F7C63060872
:10954000A85B0608C027090056555555742101200F
:10955000ABAAAAAAF8B5354C04EB401292F8243015
:1095600003B9F8BD00EB800C314B0026450104EB3C
:109570004C1C9CF8C6E88CF8C66882F80AE093F8A0
:10958000ACE293F8AD2296450DD002EB420C5600AA
:1095900003EBCC0C9CF8B0C20CF1FF37012F39D98A
:1095A000BCF1030F31D0234B254403EB401029813C
:1095B0005CF0F6FA23782A6A93B1E9680124D2F8BC
:1095C000AC308C4003F1C001420010F4004F90B267
:1095D00002D15A6822435A600C338B42F4D1F8BD51
:1095E000E9680124D2F8AC3001F1100203F1C001A6
:1095F0009440420010F4004F90B202D15A682243C6
:109600005A600C339942F4D1F8BD571C07F0030798
:109610007745C8D0324403EBC203034493F8BD122C
:109620000029C0D0631901229A72BCE7C000002053
:10963000D01E0120C8000020BCEEC00A10EE103A77
:1096400099B287E7214B2DE9F04193F8AC2293F8CA
:10965000AD329A4233D11E4ED6F82451002D12DD80
:109660000024377806F29440A046013417B1037FF6
:10967000012B1FD04269AC4200F58670136843F09D
:1096800001031360F1D117F0E7FAD6F8C44DC6F81C
:109690002C01002C0CDD0F4B03EBC40419680833BC
:1096A00033F8042CC8689C4242EA0002CA60F5D133
:1096B000BDE8F08180F8FC80FEF75AFDDAE752F051
:1096C00031FD0028C7D1BDE8F08100BFD01E0120C8
:1096D000C0000020880E0020F8B50546FFF724FBE7
:1096E00095F8D830072B5DD195F81D310226002B57
:1096F0005AD1374605F1100480226B21204615F01F
:109700009FFB642017F076FC07226821204615F0A5
:1097100097FB642017F06EFC00226B21204615F0A9
:109720008FFB642017F066FC01226B21204615F0A8
:1097300087FB0F2017F05EFC1B21FA00204615F076
:109740007FFB0F2017F056FC1C21F200204615F07D
:1097500077FB0F2017F04EFC2846FEF765FC1A2118
:109760000246204615F06CFB0F2017F043FC95F8DD
:1097700020211921204615F063FB642017F03AFCE4
:1097800010223721204615F05BFB0F2017F032FC2A
:1097900020460122382115F053FB0F20BDE8F84088
:1097A00017F028BC0326A4E70327A3E72DE9F3411C
:1097B000144698460DF10702012306460F4615F0A0
:1097C000A3FC88B1022017F075FA9DF807503946BE
:1097D000304625EA040444EA08028DF8072015F013
:1097E0002FFB089817F006FC02B0BDE8F081642357
:1097F00073B500F110050093012304461221284699
:109800001A460126FFF7D2FF02220D21284615F045
:1098100017FB012017F0EEFB02220E21284615F05F
:109820000FFB012017F0E6FB74221021284615F0EB
:1098300007FB012017F0DEFBAC221121284615F0B2
:10984000FFFA012017F0D6FB44237C221221284680
:109850000096FFF7ABFF0623132128461A46009611
:10986000FFF7A4FF00231722152128460096FFF7D3
:109870009DFF0223284618211A460096FFF796FFFF
:1098800094F82101A0B116F063FE054608B1262325
:10989000C3802146074B284641F80C3F00231A4657
:1098A00054F0DEFB284602B0BDE8704052F0EEBE38
:1098B00002B070BD098200087B22F42115F0C0BA05
:1098C0001D4B1E49D3F81033B1EB930F10B504466E
:1098D00082B02ED29A08022352085B008A429BB2C1
:1098E00001D9FF2BF8D9A268A3801AB19388126816
:1098F0001B049361012017F07DFBA36813B11A6864
:109900009B8893610A2017F075FB236800201B6A6F
:10991000ADF804005BB92046022301AA802115F0AE
:10992000C1FB9DF80530242B14BF00200F2002B08E
:1099300010BD0223D7E700BFD01E012080969800FB
:109940002DE9F04190F81E318AB00546012B58D020
:1099500090F8DC30D0F8A060012B00F0978017D889
:10996000D0F89C30002205211A605A609A609A81D2
:10997000D0F8E030C0F8F010B3F57A7F00F29480B0
:109980000323012480F8DC3020460AB0BDE8F081D2
:10999000023B012B30D800F11008544F404615F01F
:1099A00057F9D5F89C309222EC461A70D5F8A040B1
:1099B0000FCFACE80F000FCFACE80F0097E8030023
:1099C000D5F89C308CE8030040466946009301942A
:1099D00015F0CAF92A69136A002BFCD17388012497
:1099E000A5F8D0302046B388A5F8D230F388A5F882
:1099F000D4300AB0BDE8F081012420460AB0BDE8A9
:109A0000F0813B4E00F110070A218DF80C3006F171
:109A10000C028DF820300023384602910993CDE9DD
:109A20000062CDE90433CDE9063315F011F969463A
:109A3000384615F099F92A69146A002CFCD1F2898C
:109A4000052A18DD338AB6F91240B6F9141014F558
:109A5000004F08BFB3F5004F306914BF0123002346
:109A600011F5004418BF01241C4303D0C5F8D000F1
:109A7000A5F8D410063A002ABFD03846B0227E217D
:109A800015F0B4F920460AB0BDE8F08132891C46D1
:109A9000A0F8D0207389A0F8D230B389A0F8D430D0
:109AA00020460AB0BDE8F08103691A7BCAB190F87C
:109AB0009840B4B10122D0F89C105A738C23C5F899
:109AC000A4000B700E210B4B80F8002180F8DC20E5
:109AD000C0F80431C0F8FC10D0E92723C0E93D23C9
:109AE0008BE70223012485F8DC3086E7D05B06088B
:109AF00000000020D181000838B50446FFF714F9B2
:109B0000214804F1100515F0C9F801226B21A0824B
:109B1000284615F06BF90F2017F06CFA18221B215C
:109B2000284615F063F90F2017F064FA18221C215B
:109B3000284615F05BF90F2017F05CFA20461A2131
:109B4000FEF772FA0246284615F050F90F2017F07A
:109B500051FA94F820211921284615F047F964207C
:109B600017F048FA10223721284615F03FF90F2048
:109B700017F040FA01223821284615F037F903483A
:109B800015F08CF8A08238BD40420F0080969800F6
:109B900038B50446FFF7C8F8384804F1100515F049
:109BA0007DF803226B21A082284615F01FF90F20B3
:109BB00017F080F810226A21284615F017F90F20B7
:109BC00017F078F800226C21284615F00FF90F20C5
:109BD00017F070F894F820211921284615F006F99D
:109BE0000F2017F067F818221B21284615F0FEF801
:109BF0000F2017F05FF818221C21284615F0F6F800
:109C00000F2017F057F810223721284615F0EEF8EC
:109C10000F2017F04FF801223821284615F0E6F8FA
:109C20000F2017F047F8164815F038F8A0820120E9
:109C300017F040F8114815F031F8A08220461A219B
:109C4000FEF7F2F90246284615F0D0F8012017F089
:109C500031F80B4815F022F8A0822046FFF708F9EA
:109C600094F9D230013308D194F9D030013304D1C2
:109C70000620BDE8384017F0D7BA38BD40420F0083
:109C8000002D310110B504460D4815F007F8A082EB
:109C9000012017F00FF82046FFF71EFD10226A2161
:109CA000A01815F0A3F8642017F0A4F9054814F0E3
:109CB000F5FFA0820120BDE8104016F0FBBF00BFF9
:109CC00040420F00002D310170B500F11004B622A2
:109CD0007E21054690F81E61204615F087F8642025
:109CE00017F088F9AB691BB11A689B881B04936154
:109CF000012017F07FF9AB6913B11A689B88936153
:109D00000A2017F077F900227C21204615F06EF822
:109D1000012017F06FF900225921204615F066F84E
:109D2000012017F067F94FF4A473764A5E212046AC
:109D300015F076FC0A2017F05DF901225921204622
:109D400015F054F8012017F055F9012E60D0AB2220
:109D50004021204615F04AF8012017F04BF9032264
:109D60004121204615F042F8012017F043F9ED2279
:109D70004221204615F03AF8012017F03BF908225D
:109D80004321204615F032F8012017F033F9042260
:109D90005821204615F02AF8012017F02BF90A2245
:109DA0005321204615F022F8012017F023F9022252
:109DB0007C21204615F01AF8012017F01BF92046E7
:109DC0000E227D2115F012F8012017F013F995F8F5
:109DD000210100B970BD16F0BBFB294604460028DE
:109DE00000F0878026220023C280474A41F80C2FCA
:109DF0001A4654F035F9A3884FF00042B3FA83F3C2
:109E000032FA03F3E6D041490A6813430B6070BD90
:109E100000224821204614F0E9FF304617F0EAF806
:109E200080224921204614F0E1FF304617F0E2F885
:109E300000224521204614F0D9FF304617F0DAF809
:109E400006224621204614F0D1FF304617F0D2F802
:109E500000224721204614F0C9FF304617F0CAF807
:109E6000AB224021204614F0C1FF304617F0C2F863
:109E700003224121204614F0B9FF304617F0BAF80A
:109E8000ED224221204614F0B1FF304617F0B2F81F
:109E900008224321204614F0A9FF304617F0AAF803
:109EA00002225821204614F0A1FF304617F0A2F8F4
:109EB0000A225321204614F099FF304617F09AF8F1
:109EC00002227C21204614F091FF304617F092F8D0
:109ED0000E227D21204614F089FF304617F08AF8C3
:109EE0002046B0227E2114F081FF304617F082F820
:109EF0006DE7054D0346024641F80C5FBDE8704032
:109F000054F0AEB8785C0608E18C0008003C0140D3
:109F100038B51E4D044695F8143333B91C4814F077
:109F2000BDFE0123A08085F814331A4814F0B6FE54
:109F300080226B21A080204614F058FF642017F087
:109F400059F803226821204614F050FF642017F0CE
:109F500051F8F521204615F089FBAC2811D00BD81B
:109F6000122810D0982814BF00250B25084814F09B
:109F700095FEA080284638BDAF2814BF00250925CE
:109F8000F4E70725F2E70825F0E700BFD01E01201F
:109F90008096980040420F0038B504461B4814F0E4
:109FA0007DFE80226B21A080204614F01FFF6420DC
:109FB00017F020F807226821204614F017FF6420CC
:109FC00017F018F8F521204615F050FB0546012042
:109FD00016F070FE682D17D18C21204615F046FB37
:109FE000182809D8142834BF00250325084814F080
:109FF00055FEA080284638BDA0F15403DBB2072BE4
:10A0000034BF03250025F1E70025EFE740420F00AC
:10A01000002D310110B50446154814F03FFEF5211E
:10A02000A080204615F022FB702818D008D84228BE
:10A0300017D0472817D0122814BF0020082010BDC1
:10A04000AC2812D006D800F0FD00712814BF002003
:10A050000620F4E7AF2814BF00200920EFE7052011
:10A06000EDE70C20EBE70D20E9E70720E7E700BF6D
:10A07000002D310110B50446006854F047F938B995
:10A0800020460623034AF72157F020FA012010BD8D
:10A090000020FCE7C801002008B503681A78012AEF
:10A0A00006D006230B4A042157F010FA012008BD00
:10A0B00093F90430084A03EB430302EB431393F88C
:10A0C0007920202A01D0002008BD9B6B9B691B04CE
:10A0D000F9D4E6E7D0010020D01E012008B50368BE
:10A0E0001A78012A06D006230B4A002157F0EEF910
:10A0F000012008BD93F90430084A03EB430302EB47
:10A10000431393F87920202A01D0002008BD9B6BCF
:10A110009B691B04F9D4E6E7A0200120D01E012092
:10A1200010B50446006854F0F1F8014690B9236870
:10A130001A78022A08D1196A21B90323064A20464F
:10A1400014F0B0FF012006E00323034A204657F035
:10A15000BDF9F7E7002010BDD8010020E0E710B5F9
:10A160000446006854F0D2F838B920460623044A61
:10A17000F72157F0ABF9012010BD0020FCE700BF2C
:10A18000DC010020016803460A78012A04D0022A73
:10A1900001D10B6A63B1704707484FF0130C19796E
:10A1A0001B2280F815C31B6893F9040053F0C8BF45
:10A1B00013221B2114F01ABED01E0120582154F086
:10A1C000BFB8482154F0BCB8BFF34F8F0549064BC8
:10A1D000CA6802F4E0621343CB60BFF34F8F00BF45
:10A1E000FDE700BF00ED00E00400FA05014B53F865
:10A1F000200070475028004002692DE9F04317788D
:10A2000085B004460D46012F18D10B794FF0000997
:10A2100000F11008013B8DF8059013710DF1050256
:10A220004B7975214B4508BF682303753B46404673
:10A2300014F06AFF0646002834D122690223137005
:10A24000EB7823B90026304605B0BDE8F08304F171
:10A250001008A978404614F03BFD06460028F1D0CE
:10A26000E87816F075F9A0612B780133DBB210B1F4
:10A27000C371222383710D21434F16F0D5F9A069D4
:10A2800014F020FD414B02E057F8043F5BB3404619
:10A29000984703460028F7D0206984F8D83057F053
:10A2A00001F9D0E7206957F0FDF83B4649460DF12A
:10A2B0000602404614F028FF9DF8063003F07E03A6
:10A2C000682B8DF8063000D1A0B99DF8053003F059
:10A2D0007E03682B8DF805300FD0702BB3D104238B
:10A2E00084F8D830AFE7E8781E4616F031F916F05A
:10A2F000BAF9A8E784F8D870A5E7062302224046F9
:10A30000194684F8D82002AA14F0FEFE9DF80D30FC
:10A310009DF80B209B00520003F0040302F00202A0
:10A3200013439DF8092002F0010243EA020113439E
:10A330000CD058B1012B1FD0022B03D001F0030128
:10A3400003291DD1012384F8D9307CE70DF10702E0
:10A35000012340460C2114F0D7FE80F001009DF847
:10A360000720C0B202F00F0250B9B2FA82F35B09C3
:10A3700032B1042AE6D1E6E7002384F8D93062E757
:10A38000032016F051FF5EE7C05D0608999F0008A4
:10A3900030B490F8443000F10801474A012BC2F86C
:10A3A00018136ED083684549DC68454D24F4600479
:10A3B000AB42DC60DC6844F46004DC609C6B24F439
:10A3C00040149C639C6B44F480149C639C6B24F449
:10A3D000F8449C639C6B44F488449C639C6824F41C
:10A3E00070249C609C689C609C6824F440149C6071
:10A3F0009C689C605C6824F480645C605C6824F405
:10A4000080545C605C6901EA0401596159695961D1
:10A4100045D0DC68294924F0E064DC60DC6844F065
:10A42000E064DC609C6B24F440149C639C6B44F4FB
:10A4300080149C639C6B24F478249C639C6B44F490
:10A4400010249C639C6824F470249C609C689C602D
:10A450009C6824F440149C609C689C605C6824F4B4
:10A4600080645C605C6824F480545C609C6921407A
:10A47000134C9961A3429969996116D0002380F821
:10A4800044301048104B848DC18D408D091B93FBC7
:10A49000F1F3C2E9C704C2F8243330BC70470B4C57
:10A4A000616841F400016160B3E708494B6843F417
:10A4B00000034B60E2E700BFD01E012000F0FFFF69
:10A4C00000200140007AF01F803801000023014085
:10A4D000704700BF01484BF007B800BF081F0120BC
:10A4E000074810B4836BC46E99691A6824B1234677
:10A4F00038305DF8044B18475DF8044B704700BFD7
:10A50000D01E012001484AF0EFBF00BF681F0120A4
:10A51000084810B4D0F89830D0F8CC4099691A683F
:10A5200024B1234698305DF8044B18475DF8044B7E
:10A53000704700BFD01E012001484AF0D5BF00BFC0
:10A54000C81F0120084810B4D0F8F830D0F82C41CA
:10A5500099691A6824B12346F8305DF8044B18470E
:10A560005DF8044B704700BFD01E01202DE9F84F65
:10A57000D44F6023044603FB00735D6A002D00F096
:10A580009C81DE6A1EB1B379002B40F09681602376
:10A5900003FB0473D3F83090B9F1000F04D099F89D
:10A5A0000630002B40F08981631CDBB216B1152206
:10A5B000F371B271B9F1000F04D0162289F8073097
:10A5C00089F80620287C4FF0090852F0FDF8304643
:10A5D00014F078FB484614F075FB1121304616F054
:10A5E00023F81121484616F01FF84FF0330A02E015
:10A5F0000A2016F05FFB304615F072FF10B9BAF171
:10A60000010AF5D1304615F075FF052016F052FB12
:10A61000304614F057FB052016F04CFBB8F101084A
:10A62000E3D130464FF0600B15F064FF052016F0C3
:10A6300041FB484615F05EFF0BFB04FB052016F0BE
:10A6400039FB304614F03EFB07EB0B0A052016F0F1
:10A6500031FB484614F036FB9AF834303046042279
:10A66000002B994E14BF3E211E2115F0BDFF9AF814
:10A6700034305E444846002B4FF00402C14614BFFC
:10A680003E211E2115F0B0FF4C22414630465BF0C2
:10A690001BF9DAF824309FED8D7AB0EE084A5B683A
:10A6A000F7EE003ABAF836B0CAF83830884B9FED6A
:10A6B000895A9A68884BC2F38222134493F8302255
:10A6C000D7F81033D34007EE903AF8EE677AC7EE2A
:10A6D000275A07EE90BA9FED817AF8EEE77AC7EE37
:10A6E000274ADFED7F7AB0EE007AE5EE877AA5EEB5
:10A6F000875A25EE844A37EE856A74EEE72ABBF561
:10A70000C87F40F2145309F1010ED7BF1946322316
:10A7100064234FF49670C8BF782007EE90EAD4BF48
:10A720004FF4167C4FF4827C0344B8EEE77AC8BF3E
:10A730004FF4FA7107EE903A27EE257A01EB0C03FD
:10A74000F8EEE76A86EE873A73EE636AFCEEE67A25
:10A7500017EE902A07EE90CAB8EEE73A07EE903A65
:10A76000F8EEE77A23EE243AC3EE276A36EEC53ACE
:10A7700072EEE66AC3EE077A77EEE37AFCEEE77AEA
:10A7800017EE901AC6EE877A77EEE37AFCEEE77A58
:10A7900017EE903A03F1020C0CEB010AF0EE466A58
:10A7A00007EE90AAF8EE677AE7EE276AF4EEE64A3B
:10A7B000F1EE10FA00F383805FFA82FCBCF10F0F18
:10A7C00000F29480323807EE900AF8EEE77A77EEDE
:10A7D000C47AC7EE876AFCEEE67A17EE90CA5FFA93
:10A7E0008CF00F2800F2828088B2FF287ED898B2C1
:10A7F000FF287BD840EA097310054FEA0C4200F0AD
:10A800007F6002F47F0203431343364A02EA0121C8
:10A8100043EA01086020012300FB0474002730464E
:10A82000C4F83C80C4E91073C4E91277C4E9157711
:10A8300056F040F994F87930202BD9B219D194F818
:10A840007830012B15D0242384F87930A36B1A6853
:10A8500022F001021A601A6822F480521A601A6803
:10A860001A601A6842F001021A6084F8791084F8BC
:10A870007870002195F9120053F05EFB95F91230C3
:10A88000AA7C002B07DB02F01F0101225B098A4032
:10A89000154941F82320002195F9110053F04CFB94
:10A8A00095F911306A7C002B07DB02F01F010122B1
:10A8B0005B098A400C4941F82320BDE8F88F01313B
:10A8C0006AE700BFD01E0120081F0120286B6E4ED2
:10A8D0000038024000001643A85B060800247449B3
:10A8E0000000704200FFFF0000E100E0BEF10F0F2A
:10A8F00090D0F14603E700BF0248036903B118474F
:10A90000704700BF000001200248436B0BB12430A8
:10A9100018477047000001200248836D0BB1483092
:10A9200018477047000001200248C36F0BB16C301C
:10A9300018477047000001200348D0F8A0300BB141
:10A9400090301847704700BF000001200348D0F83E
:10A95000C4300BB1B4301847704700BF000001206D
:10A960000348D0F8E8300BB1D8301847704700BF23
:10A97000000001200348D0F80C310BB1FC3018471F
:10A98000704700BF000001200348D0F8303113B1F8
:10A9900000F5907018477047000001200348D0F878
:10A9A000543113B100F5A270184770470000012020
:10A9B0000348D0F8783113B100F5B47018477047E8
:10A9C000000001200348D0F89C3113B100F5C67097
:10A9D00018477047000001200348D0F8C03113B178
:10A9E00000F5D87018477047000001200348D0F8E0
:10A9F000E43113B100F5EA701847704700000120F8
:10AA00000348D0F8083213B100F5FC7018477047BE
:10AA1000000001200348D0F82C3213B100F5077074
:10AA200018477047000001200138064A064B00EB2A
:10AA3000C00052F8200098420CBF9520962051F09B
:10AA4000C3BE00BF0000012000600240013800EBDF
:10AA5000C000F8B54FEA800C104C1D46104B54F85E
:10AA60000C00174664440E4698420CBF9520962071
:10AA700051F0AAFE94F91500B9092661A56153F0B9
:10AA80005BFA94F91530002B07DB03F01F0001225D
:10AA90005B090449824041F82320F8BD00000120F1
:10AAA0000060024000E100E02DE9F04FB84B97B0A4
:10AAB000DFF8F482002593F83973A8F5F26BB54BF3
:10AAC0000093DFF8E892DFF8E8A24E46B30AA3F558
:10AAD0008013522B57D85B4493F838320D2B52D841
:10AAE0005B44012F93F98C4240F03E81012C41D10F
:10AAF0004FF000094946204616F0CCFC16F052FDF6
:10AB000090F800C0BCF1000F18BFBCF1540F14BF87
:10AB10004FF0010C4FF0000C40F0228109F10409C4
:10AB20001FFA89F9B9F1100FE4D1002D00F0DB8094
:10AB3000984A00210FE05B4493F838320D2B11D86E
:10AB40005B4493F98C32A3420FD0013102F5867237
:10AB5000A94280F2C480906803689B0AA3F5801321
:10AB6000522BE8D90023A342EFD143799AF805008C
:10AB70009842EAD1D04510D05AF8206FB30AA3F515
:10AB80008013522BA7D9012FF4D001230024022FC8
:10AB9000AED1002BACD0D045EED1009B013503F5F2
:10ABA0008673042D00938CD17B4B4FF00108DFF8A6
:10ABB00004B2009303F57073ABF1080A059308F132
:10ABC000FF33DAF804209A4240F38680DBF80C6009
:10ABD000002E00F006843168B78801F13F41B7FAD2
:10ABE00087F701F57E01C7F11F07890ADAF82451BA
:10ABF000002D40F3FB80674B002405E0013403F592
:10AC00008673AC4200F0F0801A688A42F6D14FF4A5
:10AC10008673604ACBF8047003FB04245FFA88F360
:10AC2000CBF8184016B1F3710323B3717B000322F4
:10AC3000012102FA03F0A26C01FA03F30243A264B9
:10AC4000226D134323659AF80030002B00F09180A9
:10AC5000636D01FA07F73B4363659EB13368B288C1
:10AC60009A614B4B3046002293F84E13490141F054
:10AC7000090101F0E90115F091FC9AF80030002B70
:10AC800000F09C80D4F8AC30BDB200203F0403F14A
:10AC9000C0011A680C3343F8080C3A4343F80C2CF3
:10ACA00053F8042C2A4343F8042C9942F1D120464E
:10ACB00008F10108FDF75CFA0123009AB8F1090FC9
:10ACC0008BF81C300BF1200B0BF8033C537402F192
:10ACD000180300937FF473AF17B0BDE8F08FBCF199
:10ACE000000F7FF447AF504615F0A2FB9AF80540DD
:10ACF000C3B2022B00F27D83431C284A5BB203EBF4
:10AD000043039800264B03F5727104E0994200F06A
:10AD1000708353F82C2FB242F8D11A79A242F5D1A0
:10AD20001A58002AF2D0944600231E4A5168013373
:10AD3000614512D0102B02F12402F7D14FF0FF33FE
:10AD400003EBC303174A02EB83031B7F002B7FF443
:10AD500011AF009BC3F808A01FE7DBB2013BEFE790
:10AD6000002D7FF4E5AE05E7B4F1080318BF012319
:10AD70000DE707F1100301FA03F2636D13436365F6
:10AD8000D6B1B38801FA07F732681B04936168E70C
:10AD9000D01E012054050020B01400200000014006
:10ADA000445E0608000001203863060800040140E4
:10ADB00038620608C800002001FA07F7D4F8AC3062
:10ADC000BDB200203F0403F1C0011A680C3343F800
:10ADD000080C2A4343F80C2C53F8042C3A4343F84C
:10ADE000042C9942F1D162E7032C6CDC4FF486739A
:10ADF00003FB05A3D3F89C04002800F0E882C3F805
:10AE000094140131CAB283F89D250292542283F82A
:10AE10009C256B1C0268CAF824314479019215F014
:10AE200007FBA74B864693F84D3303939BF81030EE
:10AE30000493C3B2022B00F2DC8200F1010CA149A1
:10AE4000A14800234FFA8CFC019A0CEB4C0C4FEA02
:10AE50008C0C05E00133172B00F0CB8251F82C0F3E
:10AE60009042F7D10879A042F4D151F80C000028A3
:10AE7000F0D02C210EEB4E0EDFF8549201FB03F3C1
:10AE800092494C4603EB8E030B44D3F8AC124FF4BB
:10AE9000867303FB05A3C3F8AC140021C3F8A80410
:10AEA000636898421ED0013124341029F8D1884BB0
:10AEB00013F8083C5BB9864A5423029902F8083C0F
:10AEC00002F8071C03E003237D4A82F84C33814BD0
:10AED00081488249824AC3E9B710C3F8E82217B013
:10AEE000BDE8F08F4B1C7A49DBB2013B03EBC30397
:10AEF00001EB8303197F06910029E8D10299597764
:10AF00004FF4867101FB05F08C210446542018771C
:10AF10002046A310734C0290504404FB03F33468A2
:10AF2000C0F88C15C0F8984403FB01F1059C03EBB5
:10AF3000430304EB4101C0F888156B4901EB83130F
:10AF4000C0F840353023C0F84435684B02981C18CF
:10AF50005B4BD3F81013039B062B00F03382072BB7
:10AF6000DFF898C1624B634814BF4FF0710C18466C
:10AF7000614B04BF63464FF01C0CCAF828C1B1FBFB
:10AF8000F3F3B1FBF0F110465A1E4FF4867301390A
:10AF900092B203FB05A3A3F84815A3F8002501937B
:10AFA000029B2266002203F15801504BA4F858205E
:10AFB00019446266E26555F015FA019BD3F89C24AA
:10AFC00010680192036843F08003036053790C2BEF
:10AFD00008D8DFE803F06C070707640707075B077B
:10AFE000070752004FF4867303FB05A3D3F8A014A0
:10AFF0004FF0600C026800234FF0020ECDF838C00D
:10B000004FF4807C22F001021093CDF850C04FF035
:10B01000010C1393CDF83CC04FF00A0C1593CDE909
:10B0200011CE02600EAA55F09BF84FF48672019B78
:10B0300002FB05A2D2F8A0141A680023012900F02F
:10B040008981042900F08681102900F0C5814029FA
:10B0500000F08081B1F5807F52D0B1F5806F4FD084
:10B06000B1F5805F00F0C181B1F5803F4FF03C0346
:10B070000CBF08214FF4006144E04FF486734FF495
:10B08000805103FB05A3C3F8A014B1E74FF4867306
:10B090004FF4807103FB05A3C3F8A014A8E74FF495
:10B0A0008673102103FB05A3C3F8A014A0E74FF497
:10B0B0008673012103FB05A3C3F8A01498E700BF22
:10B0C000D01E0120445E060800000140A85B06086F
:10B0D00000000120B811002065D9010861D90108DC
:10B0E0006DD901086B4CA407701500205405002091
:10B0F0001055220044950800D0DD060040771B0063
:10B100000821042302F1180050F803C041EA0C01A1
:10B11000C150019B1879002840F025814FF48672B8
:10B12000002302FB05A2D2F89C04D2F8A814006800
:10B13000026842F001020260D9F804200133914212
:10B1400000F00D81102B09F12409F5D14FF0FF33E8
:10B15000AB4A03EBC30352F82300AA4B98420CBF3F
:10B160009520962051F030FB4FF4867303FB05A326
:10B17000D3F89C2453790C2B00F2EE80A24901EB0A
:10B180004303B3F8B8C74FF4867310689F4903FBB5
:10B1900005A3A3F8A4C4002306E0904200F01F8199
:10B1A0000133042B00F0288151F83320002AF4D118
:10B1B000DAF8C42D0132CAF8C42D0AEBC302DB0051
:10B1C000C2F8C80D1944069823469022B1F804E04D
:10B1D000DFF850924CEA0E0CA1F804C08C49FFF73E
:10B1E00035FC60694FF486734FF4804C03FB05A572
:10B1F000036843F010030360036843F01403036023
:10B200000023C4E91F33C4E92833C4F8A830042359
:10B21000D5F8AC24C4F89C304FF48063C4F8942073
:10B220004FF44032C4F88430C4F898204022A2671A
:10B23000D5F84425C4F89020C2B2D5F8981420F06F
:10B24000FF00103A18312167A9FB0231029B4FF42D
:10B2500080520909C4F8882003F170026D4B1A442A
:10B26000D5F84035C4F88CC0636755F0F3F9D5F8CC
:10B27000A804029B4FF40031D0F800E04FF4006CBA
:10B2800003F1B802634BC4F820E0D0F814E01A448C
:10B290000023C4F824E0D0F804E0C4F828E0D0F893
:10B2A00008E0C4F82CE0D0F80CE0C4F8C830C4F8CA
:10B2B00030E0C4F8F030C4E93033C4E93A33D5F8AB
:10B2C000AC3401930423C4F8E4304FF48063C4F831
:10B2D000CC30019BC4E93731D5F88C35C4F8D8306F
:10B2E000C3B220F0FF00103BA9FB0331D5F898341E
:10B2F000C4F8D0C010330909C4F8B830D5F888357F
:10B3000001934FF48043C4F8D430019BC4F8BC309F
:10B3100055F0A0F9D5F8A8245FFA88F311686163A5
:10B320005169A1635168E16391682164D1686164E6
:10B33000116841F010011160116841F014011160B1
:10B34000049ACBF804708BF81020CBF80C60CBF883
:10B35000184068E40821D5E64FF0000C13E7DBB293
:10B360000693013BF4E6039215F0F2F8039A20B33A
:10B370000268254B02F13F42079002F57E0203EB83
:10B380009222019B92F8B0071A7A039251F01CFAAC
:10B39000079B039A99880D92002218680C920891D5
:10B3A00008A90393CDE90A220222099255F09EF8DA
:10B3B0005422039BDA80019B1A68536C43F40043C8
:10B3C0005364ABE614484FF0380C144BD5E5022318
:10B3D000134A82F84C337AE54FF4006192E6DB00C1
:10B3E000F0E64FF0FF37394600E44FF400610423E4
:10B3F00088E600235B68FFDE00239B88FFDE00BF3A
:10B400000000012000600240A85B0608880E0020B2
:10B410005180000854050020882A1100A0BB0D00AF
:10B42000D01E0120ABAAAAAA2DE9F041834DC0EBA2
:10B43000001605EBC606D6F85033002B00F0BC8092
:10B440000446070196F8C00351F0BEF996F8C033E0
:10B45000012203F01F015B09013B8A40032B0AD83C
:10B46000DFE813F0E0000400E600DA0074494B6AFC
:10B4700023EA02024A623B1B04F1010805EBC30305
:10B480005FFA88F893F8540315F062F818B11223A4
:10B4900080F8078083713B1B05EBC30393F85503CA
:10B4A00015F056F8064618B1132380F8078083710B
:10B4B0003B1B05EBC30393F8560315F049F818B18D
:10B4C000142380F8078083713C1B2E21304605EB46
:10B4D000C40494F8582315F087F894F8560315F02F
:10B4E00037F894F859230E2115F07EF894F8540398
:10B4F00015F02EF894F857232E2115F075F8D4F88E
:10B50000503350491A688B4222F040021A6055D0DD
:10B510004D4A934269D002F58062934258D1484A1D
:10B52000116A41F400411162116A21F40041116273
:10B530005A6842F480525A601A68520634D4434919
:10B540001E68D1F85442D1F86002D1E99025B0F5D7
:10B55000005F42EA0502D1F84C5242EA0502D1F8F6
:10B56000505242EA0502D1F8585242EA040242EA35
:10B570000502D1F85C5242EA0502354D42EA00026A
:10B5800005EA060542EA05021A60D1F848225D681C
:10B5900042EA14422F4C04EA050442EA04025A60CB
:10B5A00002D1B1F864221A61DA6922F40062DA6128
:10B5B0001A6842F040021A60BDE8F081204A516AE0
:10B5C00041F480515162516A21F480515162AFE7D8
:10B5D000214A934213D11A4A516A41F400515162EF
:10B5E000516A21F400515162A2E7154A116A41F4EF
:10B5F00080411162116A21F48041116298E7174A73
:10B60000934295D10E4A516A41F480115162516AB8
:10B6100021F4801151628BE709490B6923EA020288
:10B620000A6128E706494B6923EA02024A6122E7D8
:10B6300003490B6A23EA02020A621CE7D01E0120BA
:10B640000038024000300140003800400000012076
:10B650004000FFFFFBF0FFFF0034014000500140BD
:10B66000027A124B0168134493F8D43710B4CC58C3
:10B67000CA1824F00104CC501368DB07FCD4037D06
:10B680001F2B09D9203B20225DF8044B02FA03F35B
:10B6900043F01803CB60704720225DF8044B02FA98
:10B6A00003F343F018038B60704700BFA85B0608E4
:10B6B000F8B58368054607681BB19A8819681204B3
:10B6C0008A61D7E90464A561337D1F2B3ED9203BF5
:10B6D0002022306802FA03F343F01803C360237D8D
:10B6E0001F2B3DD92022203B02FA03F3226843F0AE
:10B6F0001803D3606368002271680A601A601A68D0
:10B7000042F010021A60BA69317A54F0A3FFFA6964
:10B71000217A206854F09EFF327A154B29681A442A
:10B720003668496892F8D4572068725942F001028D
:10B730007251227A134493F8D427835843F00103BB
:10B7400083504B6843F003034B60F8BD2022306800
:10B7500002FA03F343F018038360237D1F2BC1D843
:10B76000202202FA03F3226843F018039360C1E732
:10B77000A85B06082DE9F04F0746924B89B0924E20
:10B780003C68D4F80490994500F0FF80A3F5784315
:10B79000994500F0708103F58063994540F06D8113
:10B7A000022297F8888021620121D9F80030B888F8
:10B7B00023F0400384F82410C9F800302389834221
:10B7C00040F03C8197F80CA0A37A53453FD0C2EBE0
:10B7D00002127E4B03EBC20393F854030193BAF1B8
:10B7E000000F40F0F98014F0B3FE834608B3019BCC
:10B7F0000225774993F85723036801921944754B42
:10B8000003EB912393F8B00750F0DEFFBBF8043050
:10B81000DBF8000002A902930323019ACDF814A0DB
:10B820000792CDE903530123069354F05FFE97F886
:10B830000CA0D9F8003043F00103C9F80030D9F862
:10B84000003043F00203C9F8003084F80AA0D9F8A8
:10B85000003043F04003C9F80030226A9368EBB12E
:10B860000020844651689C441432013001EA060EDF
:10B870000B4321B1BEF1005F01D0D9060ED1936810
:10B88000002BEFD1237B4BB1B8F1000F06D001287C
:10B8900000F2F880BCF1080F00F2F480236A9B6884
:10B8A000002B5FD0BB681BB19A88196812048A61AB
:10B8B000256A6268216A206A5368D0F808E023F498
:10B8C00080532D68BEF1010F4868536014DD714646
:10B8D00093689B07FCD5002D37D035F8023B938148
:10B8E0009368DB07FCD5D36808B120F8023B023926
:10B8F0000129EDDC0EF0010E536843F480535360D0
:10B90000BEF1000F0CD093689907FCD5002D57D0DD
:10B910002B7813739368DB07FCD5D36800B10370F1
:10B92000236A1B7B002B44D1236A1B699BB1236ACA
:10B93000D7F894001B699847012809D002280AD13A
:10B940000023236209B0BDE8F08F4FF6FF73C6E70E
:10B95000236A143B2362236A14332362236A9B689D
:10B96000002B9FD1236A1B68002B00F08980216A7D
:10B97000226A0F68236A516800223C681A60D4F872
:10B980000490104B99457FF401AF002297F888800E
:10B9900021620121D9F8003084F8241023F04003FB
:10B9A0002189C9F80030BB8899423FF40BAF184693
:10B9B00046E0BB68002BB7D01A689B889361B3E759
:10B9C000FF23A6E7003001400000FFFFD01E01204A
:10B9D0000000FEBFA85B060814F0BAFD834600B362
:10B9E000019B2D4A93F857A303681A442B4B03EB92
:10B9F000922393F8B00750F0E7FEBBF80430DBF871
:10BA000000004FF0030C0293022302A9CDF81CA002
:10BA1000039306930023CDE904C354F067FD97F820
:10BA20000CA0D9F8003023F00103C9F80030D9F890
:10BA3000003023F00203C9F8003006E7C0F34F03DB
:10BA4000B3F5807FD9F80010A8BF4FF4807321F0C0
:10BA50003801022BB8BF0223002B93FAA3F3B3FAE9
:10BA600083F308BF4FF0FF33013B41EAC303C9F83A
:10BA700000302081A6E6012293E64FF0FF3285E7F1
:10BA800023625FE73868002156F004F8384609B0B1
:10BA9000BDE8F04F0CE600BF0000FEBFA85B060843
:10BAA000014B43F82010704750280040F0B5A24CDD
:10BAB000A5B0E368022B00F03A82A048A04AA14951
:10BAC000121A59F08DFEA048A04AA149121A59F045
:10BAD00087FEA368012B00F2C28003EB43039D4A5B
:10BAE0009D4D02EB430032F8132041888388C5E95D
:10BAF0009A21C5F87032994C994E9A4BB2FBF1F2EB
:10BB0000994901FB02F20021C6F81023D4F88820DD
:10BB100042F47002C4F888201A6842F001021A60E8
:10BB20009960924A1868024091481A60C0F3080769
:10BB3000904A5A601A6822F480221A60D96007B1CC
:10BB4000FEE78D49A0604FF6FF000A688B4B42F478
:10BB500000720A60E26802401343E36052F0D0FAD8
:10BB6000BFF34F8FBFF36F8FC4F85072BFF34F8F87
:10BB7000BFF36F8F636943F400336361BFF34F8F8B
:10BB8000BFF36F8FC4F88470BFF34F8FD4F8803049
:10BB900043F6E07CC3F3C90EC3F34E33580100EA09
:10BBA0000C01734641EA8372013B5F1CC4F86022BA
:10BBB000F8D1203810F1200FF1D1BFF34F8F636916
:10BBC00043F480336361BFF34F8FBFF36F8F6A49D4
:10BBD000644B0A6842F480720A60196C684A41F04A
:10BBE00080511964196C01F0805102910299116819
:10BBF00041F4404111601268D5F8680202F44042F5
:10BC0000D5F86C42D5F870120192019A9A6802F048
:10BC10000C02042A00F08D809A6802F00C02082AB7
:10BC200000F083804F4A136843F480331360D6F8E2
:10BC3000307504E0D6F83035DB1B642B74D81368FC
:10BC40009B03F7D5474A936803F00C03082B6BD08E
:10BC5000136823F080731360D6F8307508E03E4D0A
:10BC6000D5E99A2147E7D6F83035DB1B022B5BD8A4
:10BC700013689B01F7D40B06640843EA8013611E26
:10BC800043EA01433F491943364B5160116841F083
:10BC900080711160D6F8301504E0D6F83025521ABC
:10BCA000022A41D81A689201F7D5196C344A41F03A
:10BCB000805119641B6C03F080530393039B13683A
:10BCC00043F480331360D6F8301506E0D6F83035EB
:10BCD0005B1AB3F57A7F00F2CB805368DF03F5D5AA
:10BCE0001368274943F400331360D6F8302506E083
:10BCF000D6F830359B1AB3F57A7F00F2B9804B68DD
:10BD00009C03F5D54FF400124FF0006304A8049291
:10BD10004FF4C07221930723CDE9082303230A932C
:10BD200049F0A6FC80B3FEE7FEE75B685A027FF5A8
:10BD300079AF0C4B1B6885E75028004000000000DD
:10BD400028360000F083070800000020C000002013
:10BD500009DB0708846306080000012000ED00E00D
:10BD6000D01E01200038024040420F00FFFFF6FEC7
:10BD70000000000810300024003C02400003FA05D7
:10BD800000700040080040206C4A136803F00F0365
:10BD9000062B0AD8136823F00F0343F00703136040
:10BDA000136803F00F03072B63D1654B9A6842F4C5
:10BDB000E0529A609A6842F460429A609A6822F06F
:10BDC000F0029A601A68900153D59A6841F288315E
:10BDD00022F0030242F002029A60D6F8300504E035
:10BDE000D6F83025121A8A4243D89A6802F00C021B
:10BDF000082AF5D1514A136819070AD5136823F0A8
:10BE00000F0343F007031360136803F00F03072BBE
:10BE10002FD14B4C4B4FA36823F4E05343F4A05372
:10BE2000A360A36823F4604343F40043A36049F094
:10BE3000EBFBA368C3F303133B4493F8E837D84004
:10BE4000C6F8100352F05CF9002304A8CDE91333BF
:10BE5000CDE91533CDE91733CDE91933CDE91B33DE
:10BE6000CDE91D33384B049349F002FC10B1FEE7D5
:10BE7000FEE7FEE702234FF0007204A8CDE9063387
:10BE8000D823CDE9042301230B9349F0F1FB00B142
:10BE9000FEE7D4F88C3023F08073C4F88C30D4F8EB
:10BEA0008C3043F08073C4F88C30A36803F00C032B
:10BEB000042B36D0082B18D0244BC6F81033204A58
:10BEC000D5E99A31B3FBF1F39168D6F81023C1F3A9
:10BED00003110F4497F8E817CA401D4901FB03F30B
:10BEE000C6F81023934220D0FEE76368626813F41B
:10BEF000800F636802F03F0218BF1649C3F388132E
:10BF000008BF1249B1FBF2F202FB03F30C4A52687C
:10BF1000C2F3014201325200B3FBF2F3C6F8103310
:10BF2000CDE70C4BC6F81033C9E725B0F0BD0021B2
:10BF30000320FFF7B5FDFEF747F900BF003C0240C4
:10BF400000380240A85B0608C0FF03000024F4008C
:10BF500040420F0000127A001D4B1E48196C1E4A09
:10BF600041F0805130B4196482B0196CFF2401F0A3
:10BF7000805101910199016841F480710160CA20EA
:10BF8000196C41F480611964196C01F480610091AD
:10BF90005321009D5462506251625B6FDB000DD4EF
:10BFA0000E4B00220E490F485A609A60DA601A61FF
:10BFB0005A61C1F8500802B030BC7047084A094BBA
:10BFC000D2F850289A42EBD102B030BC704700BF83
:10BFD0000038024000700040002800405028004017
:10BFE0000020004031666542800AA0F5801052288A
:10BFF00009D8064B184490F838220D2A03D8134468
:10C0000093F98C0270470020704700BFA85B0608B8
:10C01000F0B50446D0F89400434B83B0A16804F116
:10C02000640204F118070E68C1B220F0FF0001920B
:10C030001039A3FB0131090954F056FB616D00234F
:10C04000019A012984F8583018D0042916D01029F3
:10C0500055D0402912D0B1F5807F53D0B1F5806F13
:10C0600050D0B1F5805F55D0B1F5803F4FF03C0323
:10C070000CBF6FF0080C6FF4006C01E06FF0080C5F
:10C0800006F118053046E95801EA0C01E950616DE6
:10C0900054F066F8636D012B16D0042B14D0102BCE
:10C0A0000FD0402B10D0B3F5807F2FD0B3F5806F29
:10C0B0002CD0B3F5805F31D0B3F5803F06F1540545
:10C0C00002D04FF4006100E008212B683A46D4F812
:10C0D00094000B4340212B602162C1B2124B20F02F
:10C0E000FF001039A3FB0131090954F0B3FAD4F869
:10C0F0009420136843F01003136003B0F0BD6FF495
:10C10000006CBDE76FF0080C0423B9E706F11C05CD
:10C110000821DAE76FF4006C0423B1E706F11C058F
:10C120004FF40061D1E700BFABAAAAAA2DE9F04FF6
:10C13000DFF88CA29AF800402DED028B87B034B95D
:10C140000124204607B0BDEC028BBDE8F08F954B73
:10C15000DFF870B2D3F89C3208EE103A14F07CFD90
:10C160009BF8443B0390002B00F018810AF6C407AB
:10C170000AF582630AF5987400263D4601930597F7
:10C18000DBF8C032039AD31A03D4EA6D9A4200F363
:10C19000EE8006EB86030AEB431393F81C3903F099
:10C1A000FF020292002B61D0D5F89410AB687E4854
:10C1B0001A68CBB221F0FF01103BA0FB03037B48C0
:10C1C0001B09C35C19444B68A9891FFA83FCD36817
:10C1D000CCF1160C23EA0103BCF1070FD36045D95B
:10C1E000DAF8183400220121013396468946CAF84C
:10C1F0001834D5F89C301F46049357F8048B4046FA
:10C200001CE0D7F80080BEF1140FA8EB00034046F5
:10C2100057DC13F1080848BF03F117084FEA281349
:10C220000EEB281E03F1FF38013102FA03F3043745
:10C2300009FA08F28C4542EA030242D38C45E0D861
:10C24000CEF1150338684FF0150EEBE7DAF8143429
:10C250000133CAF81434002E00F0908000230293BA
:10C26000029918EE102A204612F094FC019B2846F1
:10C2700001365C340433A0350193FFF7C9FE9BF807
:10C28000443BB3423FF77CAF0022059FCBF8C0226E
:10C29000002B3FF455AF03EB830307EB43133A7CCA
:10C2A000A03757F84C0C12F0020F57F8982C116871
:10C2B0000A6A14BF42EA80020243BB420A62EED11C
:10C2C0003EE7BEF1150FC1D13949C2F38423C2F351
:10C2D000441001EB830301EB8000D3F8F837D0F86A
:10C2E000F8071B0243EA001302F01F00C2F3C43236
:10C2F00001EB800001EB8202D0F8F817D2F8F827A2
:10C300000B4343EA023383EA132282EA121202F059
:10C310000F020F2A9AD140F6FF711A09B1EB131FD1
:10C3200039D0C2F308025B0B12FA03F38ED0214A14
:10C330004FF6FF7102EB5302B2FBF3F39AB28A425B
:10C3400084D00199032E8A814FF001028A7387DC21
:10C35000144A92F8A0222D2A82D1174A2046029927
:10C3600022F8163018EE102A12F014FC7EE7002492
:10C37000204607B0BDEC028BBDE8F08F049958222F
:10C380000E4859F02DFA0296029918EE102A20460E
:10C3900012F000FC6AE700231A46D2E7CBF8C0325D
:10C3A000CFE600BFD01E0120ABAAAAAA7C63060874
:10C3B000A85B0608C027090074210120FC040020A6
:10C3C000C0000020B8110020830AA3F58013522B6F
:10C3D00045D8F0B50446614885B0034493F8380267
:10C3E0000D283AD85E4D860105EB8013D3F83475DD
:10C3F000A74232D00139C3F8344589B2C3F8401599
:10C40000D5F81013B1FBF2F2013AC3F8382505F262
:10C41000345202EB80100022C3F84425C3F83C25B7
:10C42000C3F8482549F08AFB4E4B9C4218D0B4F122
:10C43000804F15D0A3F57C439C422CD003F580633C
:10C440009C4228D0484A03F57C439C4218BF944242
:10C4500060D003F570539C425CD005B0F0BD7047CE
:10C4600000234FF48051AA19CDE9001392F87015FA
:10C470000129CDE90233F0D00221D2F8340501249C
:10C4800082F87115394987683940816082F87145B1
:10C4900082F8703519E000224FF48051AB19CDE9D4
:10C4A000001293F870150129CDE90222D5D002219E
:10C4B000D3F83405012483F871152C498768394075
:10C4C000816083F8714583F870250023AA19CDE9AE
:10C4D0000033029392F87035012BBED0D2F8343578
:10C4E0000221204882F8711583425A68996832D037
:10C4F00000F5806083422ED022F0700221F080018E
:10C50000354401205A609960002385F8710585F84B
:10C510007035A2E700214FF48053CDE90031AB190B
:10C5200093F87025012ACDE9021196D0D3F834058D
:10C53000022283F871250D4A87683A4082600C4ACE
:10C5400083F870150121944283F87115BDD0064B14
:10C550009C4282D1B9E722F47002CDE7A85B0608BD
:10C56000D01E012000000140000C00408800FEFFAA
:10C570000004014070B504460068830AA3F58013E7
:10C58000522B05D82E4E334493F838520D2D00D936
:10C5900070BDFFF719FF2B4BA801022203EB851595
:10C5A000D5F8341585F87125274A8D682A40062A62
:10C5B00006D0B2F5803F03D00A6842F001020A605B
:10C5C000034401202168214A83F871050023204893
:10C5D00001E050F8332091420AD001330E2BF8D1FC
:10C5E0000121002051F0A8FC1A4B01221A6070BDF5
:10C5F00006EBC303012193F97D4893F87D6820463B
:10C6000051F09AFC002CC3DB06F01F0301216409E2
:10C61000104D01FA03F31B2E45F8243008D02E2EBE
:10C62000B6D12C2051F088FC4FF480536B6070BD64
:10C63000192051F081FC4FF000732B6070BD00BFDA
:10C64000A85B0608D01E0120070001000000014081
:10C650002064060800E100E003689B0AA3F580134C
:10C66000522B52D870B5384C234493F838420D2CD5
:10C670004AD840798308002948D04FEA900C3348C3
:10C6800004EB840503EB450300EB8415D5F8346512
:10C69000022505FA0CFCF5684CEA050500EB830C55
:10C6A000CCF8F418CCF80429F560A601A5002B19E4
:10C6B000D900274B01F1200C9C44EFF3118E50223E
:10C6C00082F3128801F110021A4420330B4452F80D
:10C6D000041B19B1CCF8001001F1040C9342F6D1FF
:10C6E00000235FFA8EFECCF800308EF311882C44C4
:10C6F00000EBC4043044D4F81439D0F83425F3B135
:10C70000D36843F00103D36070BD70470F48022522
:10C7100005FA03FC00EB8415D5F8346504EB8405B9
:10C7200003EB4503F56825EA0C05F56000EB83058E
:10C73000A601C5F8F418C5F80429A500B7E7D36821
:10C7400023F00103D36070BDA85B0608D01E012052
:10C75000C427012001490248FCF714BBC42701206B
:10C760000000014010B5064C064804F6F401FCF741
:10C7700009FB04F65C210448BDE81040FCF702BB4D
:10C78000D01E0120000001400044014002494FF04A
:10C790008040FCF7F7BA00BFEC27012001490248AE
:10C7A000FCF7F0BA142801200004004001490248B7
:10C7B000FCF7E8BA3C280120000800400149024883
:10C7C000FCF7E0BA64280120000C0040014902484F
:10C7D000FCF7D8BADC2801200004014010B5064C53
:10C7E000064804F60C21FCF7CDFA04F6D4210448DF
:10C7F000BDE81040FCF7C6BAD01E0120000401407D
:10C80000001C004001490248FCF7BCBA0429012081
:10C810000040014001490248FCF7B4BA5429012004
:10C820000048014001490248FCF7ACBA7C290120CC
:10C83000001800402DE9F04F4FF4167295B000211A
:10C84000814859F041F8814B814F4FF080415A6C3B
:10C8500007F12004B94642F0010207F51E65A24621
:10C86000DFF8F4815A64A7F170065A6C02F00102F5
:10C870000092009A1A6C42F001021A641A6C02F0DB
:10C8800001020192019A1A6C42F002021A641A6CB7
:10C8900002F002020292029A1A6C42F004021A6436
:10C8A0001A6C02F004020392039A1A6C42F0080216
:10C8B0001A641A6C02F008020492049A1A6C42F08C
:10C8C00010021A641A6C02F010020592059A1A6C92
:10C8D00042F020021A641A6C02F020020692069AB4
:10C8E0005A6C42F002025A645A6C02F00202079239
:10C8F000079A5A6C42F480325A645A6C02F48032BD
:10C900000892089A5A6C42F400325A645A6C02F443
:10C9100000320992099A5A6C42F480225A645A6C85
:10C9200002F480220A920A9A1A6C42F040021A64B7
:10C930001A6C02F040020B920B9A1A6C42F08002C1
:10C940001A641A6C02F080020C920C9A1A6C42F46F
:10C9500080721A641B6C03F480730D930D9B424626
:10C96000002301E056F833208A420CD001330E2B0D
:10C97000F8D10AF1200A00204FF026FF55450DD0CE
:10C980005AF8201CEBE7334A0AF1200A02EBC303F2
:10C9900093F87C084FF018FF5545F1D107F51C6757
:10C9A000DFF8B0B0DFF8B8A009F120094F4526D074
:10C9B00099F80630002BF7D099F8040013F0C8FD61
:10C9C00006460028F0D0036809F1200919F8188CF0
:10C9D00053440BEB932393F8B0074FF0F5FEB28866
:10C9E000306800230E9202220EA9CDF84C80CDE9CA
:10C9F0000F23CDE9113353F079FD4F45D8D14FF0D6
:10CA00008041154F154E3A46002301E056F8332079
:10CA10008A420BD001330E2BF8D1203400204FF086
:10CA2000D3FEAC420CD054F8201CECE7094A203469
:10CA300002EBC30393F87C084FF0C6FEAC42F2D180
:10CA400015B0BDE8F08F00BFC427012000380240B8
:10CA500090640608A85B06080000014020640608F0
:10CA60000000FEBF70B5032082B0FDF7BFFB0128B8
:10CA70004DD0334C0025334A0523C4F89850C4F8F0
:10CA80009C50C4F8A020C4F89430BFF34F8FBFF37C
:10CA90006F8F4FF6FF01E2682B4B0A402B4E13437A
:10CAA0002B4AE360536FC6F84C3B48F0ADFD294B71
:10CAB0002949A3FB0023D4F8FC209B0C42F0807290
:10CAC000C4F8FC20C6F8503BD6F81033234AA1FB2B
:10CAD000031323499B09C2F8B01F5560013B11683D
:10CAE000B3F1807F41F00101116008D24FF0E022E4
:10CAF000F0215361072384F82310956113614FF0EF
:10CB0000E022136943F00403136102B070BD0221F7
:10CB10000320FEF7C5FF0E4B12485A6C124942F42F
:10CB200080425A645B6C03F480430193019A02686B
:10CB30000B68026083F308884B689847FEE700BFE4
:10CB400000ED00E01B0000060005FA05D01E0120E4
:10CB50000038024083DE1B43D34D6210001000E01A
:10CB600055CEACC5003801400000F01FD0F82011B0
:10CB7000242200232DE9F041C0F8942104460A68DC
:10CB8000806804F5907522F001020A600B604B602A
:10CB90008B6094F805C0C4F89C314FEA8C22C4F82D
:10CBA000943184F8903102F48052C4F89831C4F87A
:10CBB0003831C4F828214FEA0C32C4F8403102F46D
:10CBC0000052C4F834312379C4F82C214FEA0C22E6
:10CBD000C4F8240113F0010002F48062C4F830218B
:10CBE00002D00422C4F8342113F0020305D0D4F893
:10CBF000342142F00802C4F834211CF0010F0DD09A
:10CC000048B1D4F8442142F00202C4F844214FF460
:10CC10008032C4F84C21002B40F0FF80A64B03F17A
:10CC2000200053F8042F944200F0BD809842F8D1C0
:10CC30001CF0080F40F0CD80D4F89431002B00F0A8
:10CC4000128124232846C4F894310B6823F0010391
:10CC50000B6049F061F8012815D0D4F84431002B5D
:10CC600040F01481D4F8203128465A6822F49042CA
:10CC70005A609A6822F02A029A601A6842F0010209
:10CC80001A6053F01FFE2379DA0761D5D4F8FC202F
:10CC9000002A00F0D5800023D4F8041104F13C06EA
:10CCA000E263A3644FF480623046E264C4E9101387
:10CCB000C4E91433C4E91833C4E91A334FF4803398
:10CCC000E3654FF48073A36553F042FF304648F0AC
:10CCD00015F9D4F89881C4F88C61B8F1200F656714
:10CCE00031D1E368626999B26AB3B1FA81F77F0919
:10CCF00049B394F89001012825D030460126C4F8A4
:10CD00009C710B4684F890612226A4F87811C4F82F
:10CD100098616A4ED4F82011A667694E2431C4F890
:10CD20007421E667674EC4F88C70C4F8886048F0D8
:10CD300083F9002800F0AE80102384F89071C4F8C5
:10CD40009C31C4F89481E26B23795268C4F81421B1
:10CD50009B0773D5D4F80021002A69D00023D4F8AA
:10CD6000081104F19C06C4F89C20C4F8A8304022A5
:10CD7000C4F8B8303046C4E92C33C4E93033C4E9D0
:10CD800032334FF48033C4F8BC304FF48063C4E9CD
:10CD90002812C4F8AC3053F0DBFE304648F0AEF851
:10CDA000002863D0FEE7002C3FF442AF94F8B8317E
:10CDB000002B3FF43DAFD4F844311CF0080F43F092
:10CDC0000803C4F844314FF40043C4F854313FF42D
:10CDD00033AFD4F89431002B51D024232846C4F823
:10CDE00094310B6823F001030B6048F095FF012894
:10CDF0003FF449AFD4F84431002B43D1D4F820316B
:10CE000028465A6822F490425A609A6822F0220218
:10CE10009A609A6842F008022EE7D4F8443143F051
:10CE20000103C4F844314FF40033C4F84831F5E647
:10CE3000D4F8A021136843F080031360BDE8F081AB
:10CE4000D4F8A021116841F480711160916841F01B
:10CE500001019160116841F020011160116841F0F9
:10CE60001001116074E784F89031EAE6D4F89C3040
:10CE7000C4F88861C4F8D4505860BDE8F08184F8E3
:10CE80009031AAE7284649F001F9B7E7284649F06A
:10CE9000FDF8E7E6D4F8203184F890011A6842F4EE
:10CEA00080721A609A6842F001029A609A6842F0B1
:10CEB00040029A6047E700BF041D00207D1B050863
:10CEC000AD1B0508B11B0508F8B5EFF3118550231C
:10CED00083F31288D0F800311B6813F0010303D0EC
:10CEE000EDB285F31188F8BDD0F894210446D0F84E
:10CEF00098110A4302F02102212AF1D0D0E9090158
:10CF0000884253D043D822691846531A9BB2D4F8AA
:10CF100094710022A062202F84F8A421E0D1A2699C
:10CF20005118DDD0B3FA83F67609002BD8D094F8E7
:10CF30009021012AD4D00122D4F88801A4F87231BA
:10CF400084F890212122C4F89C61C4F86C11A4F8E3
:10CF50007031C4F89421E8B1DFF858C0D4F820212A
:10CF6000C0F83CC0DFF850C028320665C0F840C0A9
:10CF7000DFF848C0C0F84CC048F05EF850B110234C
:10CF800084F89061C4F89C31C4F89471A8E7431AFE
:10CF90009BB2BCE7D4F8203100224021196284F80A
:10CFA00090219A6842F080029A6099E7012384F800
:10CFB000A43195E7551B0508791B0508B11B050829
:10CFC000F8B5D0F820310446DA69910615D5586ACB
:10CFD000E36AC0B2002B00F0D580216B9847D4F8EB
:10CFE00020311A6822F480721A609A6822F00102D5
:10CFF0009A609A6942F008029A61DA69D20701D50B
:10D0000001221A62DA69970701D502221A62DA69E7
:10D01000560701D504221A62DA69150701D50822DC
:10D020001A62D4F8002152B3D96949060AD4DA69E0
:10D03000D20606D5626B12B19047D4F82031102287
:10D040001A62F8BDD96904F590701E680F079D68D3
:10D050002DD18F0602D5B50600F1C8800F0602D586
:10D06000350600F1B380480602D5710600F1A380B1
:10D0700012B12046FFF728FFD4F82031D7E7D9694D
:10D080000806D1D5D4F894112129CDD0D4E90901CD
:10D09000814200F0A480A069405C0131C0B2986276
:10D0A0002069B1FBF0F500FB1511A162BCE705F0AA
:10D0B000010506F4907C5CEA0507CFD0CF0709D5BF
:10D0C000F70507D501271F62D4F89C7147F00107C7
:10D0D000C4F89C718F0761D44F0708D53DB1042770
:10D0E0001F62D4F89C7147F00207C4F89C710F07C7
