:020000040800F2
:100000000000012051230608ED2306085D140208B4
:10001000B5120208ED230608ED23060800000000D3
:10002000000000000000000000000000ED230608B2
:10003000ED23060800000000ED230608E1FA0108A0
:10004000ED230608ED230608ED230608ED23060838
:10005000ED230608ED23060809F601080DF6010850
:1000600011F6010815F6010819F6010825AA00087D
:1000700035AA000845AA000855AA000869AA000880
:100080007DAA000891AA0008ED230608ED230608C2
:10009000ED230608ED230608ED2306081DF60108EA
:1000A0000DC600086DC500081DC600085DC5000826
:1000B00095C50008A5C50008B5C500080DA600082F
:1000C00001A600083DA6000831A60008ED23060899
:1000D000ED2306082DFA010839FA010845FA01084E
:1000E00021F60108ED230608ED2306082DC60008B9
:1000F000E5C50008ED230608D5C50008A5AA000837
:10010000ED230608BDE10008C5C50008ED2306087B
:1001100051FA01085DFA0108ED230608CD820508B1
:10012000B9AA0008CDAA0008E1AA0008F5AA0008AB
:1001300009AB000800000000000000000000000003
:1001400000000000000000000000000021DC0508A5
:100150001DAB000831AB000845AB000869FA010887
:1001600071A6000865A60008ED230608ED23060821
:10017000ED230608ED230608000000000000000043
:10018000ED230608ED230608ED230608ED230608F7
:10019000ED230608ED23060800000000ED23060805
:1001A000000000000000000000000000ED23060831
:1001B000ED230608ED230608000000000000000003
:1001C000000000000000000000000000000000002F
:1001D000000000000000000000000000ED23060801
:0801E0009C1E06000100000056
:1001E800140201000500000060290120702C012084
:1001F8000000000020B107081F02080010000000DE
:10020800BC280120782C0120000000007D5A01083C
:10021800061001002400000094200120882C0120F1
:10022800000000009D590108FA01010003000000C8
:100238008C440120C04301200000000085590108BA
:10024800FF1101000500000064380120C4430120AB
:10025800000000006D5A0108052001000C00000094
:10026800E43E0120CC4301200000000028B107082B
:100278001302010004000000343C0120D84301208F
:100288000000000034B107081830010034000000F5
:100298001C380120DC43012000000000115F010828
:1002A8001E020100060000000C3601201044012047
:1002B8000000000038B107080D120100140000000A
:1002C80018370120184401200000000040B1070839
:1002D800030101000A000000CC3701202C44012052
:1002E8000000000039AF04081220010011000000CE
:1002F8002C370120384401200000000054B10708C1
:100308000B2201003D000000782D01204C44012003
:100318000000000066B1070815001000700000001A
:10032800406F0120C8750120000000000000000097
:100338002A00080060000000E06E012038760120E5
:1003480000000000693B030821020100F0000000E2
:10035800F06D012098760120000000000942040891
:100368002C00040010000000E06D012088770120B7
:1003780000000000E13C030825201E002C010000BD
:10038800346C012098770120000000000000000074
:100398002B00120024000000EC6B0120C47801201F
:1003A80000000000FD3C03081610010006000000D4
:1003B8007C6B0120E878012000000000A4B1070848
:1003C8002700010004000000706B0120F078012074
:1003D80000000000AAB10708205201000800000030
:1003E80084690120F478012000000000353B0308EF
:1003F8000C400600E40000009C640120FC78012009
:100408000000000075E502082920140078000000AB
:10041800D4680120E07901200000000000000000FD
:10042800012001000C000000C8680120587A012052
:1004380000000000AEB107082320010010000000F2
:10044800B8680120647A01200000000049440308CC
:10045800283001001600000084680120747A012009
:10046800000000006D4C03080B3001001A0000006A
:10047800686801208C7A012000000000BAB10708E2
:100488000E200300BC01000080650120A87A01202D
:1004980000000000093B03081E00010009000000DD
:1004A800F0670120647C012000000000D4B1070837
:1004B8000D100100700000007C670120707C012095
:1004C800000000002F230208220201001C01000086
:1004D800F8690120E07C012000000000216B010880
:1004E800160215003F0000003C7E0120FC7D012023
:1004F80000000000C55A01081B020100100000009E
:100508008C7E01207C7E012000000000355A010805
:100518002802040004000000A07E01209C7E012027
:1005280000000000295A0108270204000400000006
:10053800A87E0120A47E0120000000001D5A0108A9
:100548001C0202001C0000009C680120AC7E0120F7
:1005580000000000595E0108010201000B000000C4
:10056800D47E0120C87E01200000000075590108D2
:10057800000201000B000000146B0120E07E012046
:10058800000000006D5901081A0201003C0000003B
:10059800F06F0120EC7E012000000000A55E01083C
:1005A8000400080080000000606D0120287F012001
:1005B8000000000000000000190201001000000007
:1005C80060690120A87F0120000000005D5A010831
:1005D800081204001400000034720120B87F0120C2
:1005E80000000000095901080A0201001400000077
:1005F80098720120CC7F012000000000C1E50208AC
:100608000A900100240000003C670120E07F0120DF
:10061800000000005D440308031201003D000000D3
:10062800B06F01200480012000000000DEB107083F
:100638000C020100040000004872012044800120DF
:10064800000000008D59010813000100040000009B
:100658006867012048800120000000001CB20708DC
:100668000202010003000000C07501204C80012037
:100678000000000000000000F59101006C0000007F
:100688008C690120508001200000000021480408E6
:10069800F62101000C00000078690120BC800120CF
:1006A8000000000020B20708121201000400000038
:1006B800E0990120C8800120000000002CB2070842
:1006C8001102010008000000E4990120CC800120FB
:1006D8000000000030B207083400010010000000DC
:1006E800EC990120D4800120000000004D3B030854
:1006F800F83101000800000060670120E480012053
:100708000000000038B20708020001000C000000D9
:10071800C4720120EC8001200000000000000000ED
:10072800FE010100140000004C690120F88001203E
:1007380000000000F158010806120400180000002B
:10074800807201200C81012000000000D95D0108A1
:10075800F7010100060000007069012024810120D2
:100768000000000040B20708FC0101000900000079
:10077800FC9901202C81012000000000495A010841
:10078800FB01010001000000089A012038810120C6
:1007980000000000555A01081A0001000E00000070
:1007A8001C7201203C8101200000000046B20708AD
:1007B8001400010005000000746701204C8101202D
:1007C8000000000054B20708FD01010024000000E9
:1007D800F671012054810120000000007FD7010834
:1007E8001D02020006000000F0710120788101203E
:1007F8000000000000000000F901010004000000F2
:100808000C9A0120808101200000000039D70108DE
:100818000E02010002000000F89B0120509C0120FC
:10082800000000005AB207082F1001002200000043
:10083800549C0120FC9B0120000000005CB20708CA
:100848001F5001002400000008A0012024A8012056
:100858000000000080B20708381001000100000005
:10086800849E012048A8012000000000A4B20708C7
:10087800261001000E000000549D01204CA8012004
:1008880000000000ADA404081B1001000C000000CB
:1008980000A801205CA80120000000005D390408C0
:1008A800101001000200000014A6012068A8012011
:1008B80000000000A6B2070829020100400000005D
:1008C800F4AA012084AB012000000000A8B20708A8
:1008D800FD0701007C00000078AA0120C4AB0120BC
:1008E8000000000025410408010101000400000087
:1008F80074AA012040AC01200000000000000000A4
:10090800000101000400000070AA012044AC01208D
:1009180000000000E8B2070802010100030000001F
:100928006CAA012048AC01200000000065E502081F
:100938002A0201000800000084A901204CAC012013
:1009480000000000ECB207081900010005000000D3
:100958007CA9012054AC012000000000F4B2070873
:10096800371001003000000048A901205CAC0120CC
:1009780000000000FAB2070823220100100000005E
:1009880074B20120BCB50120000000002CB3070898
:10099800030001000100000020B30120CCB50120B4
:1009A8000000000000000000050201000400000033
:1009B800C8B20120D0B50120000000003CB30708F0
:1009C8001002010001000000880F0220840F02209D
:0809D8000000000040B3070815
:08280000082800080040000850
:10800000012380F8D030704790F8DB30052B03D87F
:1080100090F8DE30012B01D00020704790F8E3305B
:1080200003F0FB03022B0CBF00200720704700BFAA
:10803000836930B45C6999682268096822F001029A
:1080400022601C8ACA6822EA0402CA60027D0068B3
:108050001F2A06D9203A082144689140214216D0AF
:10806000FEE70821046891402142F9D1202101FA5C
:1080700002F28260204A12783AB11A7F012A0BD1AB
:10808000D3F804210132C3F8042130BC7047202109
:1080900001FA02F2C260EDE7D3F800210132C3F821
:1080A0000021EFF31181502282F312885868C9B27F
:1080B0009D6C0268DC6C22EA05022243026081F3B7
:1080C00011885A699968D3E90D40096814605061B4
:1080D000D3E90F40546090605C6CB3F8B400D46096
:1080E0000124C8621068204310601A8A1C77CB688C
:1080F000134330BCCB607047C400002070B50E4EF7
:108100007368002B16DD06F10804002503E0736890
:108110002034AB420EDD237F0135002BF7D0E06821
:1081200000220028F3D0217D203417F0D9FA73689B
:10813000AB42F0DC012070BDC4000020704700BFDE
:10814000024B03EB401090F825007047C40000205C
:108150004368426D30B49A61EFF31182502383F388
:1081600012884168D2B2856C0B68046D23EA05035E
:1081700023430B6082F31188436981681A68096898
:1081800022F00102D0E908541A60826A1D605C6125
:108190005A60D0E90B429C60DA600023B0F86C2092
:1081A00030BCCA62037770474FF400638381704725
:1081B000012380F8D03070474FF40063838170470B
:1081C0004FF4006383817047012380F8D0307047FB
:1081D0004FF40063838170474FF4006383817047DD
:1081E0004FF400638381704770470120704701207E
:1081F00070472DE9F047DFF880810E460746D8F832
:108200000050B8F80420B8F80A90C2EB25135200C9
:10821000C2EBE502B8F906506A4303FB03F5B8F96F
:1082200008302D135D43B8F90E30AD134FEAE37EED
:1082300005EBE225A5F5FA31C8F81C5081FB010CCD
:1082400003FB0CF200FB0E22A3FB003E9644B8F9A0
:108250000C201B0A82FB014243EA0E63120342EA2E
:10826000145224031B194FF0000442EB2E22A3FBEF
:10827000093E02F5004209FB02EE4FEAEE734FEAB7
:108280006E0253EA6E0E6BD0B8F914904FEAE97E95
:1082900009FB0CFC00FB0ECCA9FB00908444B8F950
:1082A000120080FB01E148044FEA4E4140EADE3013
:1082B00011EB0909D8F820104CEB0000C1F5801C27
:1082C00014EB0904B8F910100CF0004A40F63549D7
:1082D00000EBC1014AEA5C0A4FEACC7CBCEB04002B
:1082E0006AEB010AA0FB090109FB0A1159F014FE0F
:1082F000B8F91A404FEA613E8146430B04FB0EF287
:108300004FEAE47C43EAC14303FB0C2CA4FB034289
:10831000624404FB0EFE03FB02EEB8F91820A4FB36
:1083200003439E44640E02FB01F344EACE1414EBB3
:10833000000C4FEAE274A2FB092941EB6E6E04FBCC
:108340000031D40CB8F91630494444EA41341CEBEE
:1083500004044EEBE141240A44EA016404EB0314F3
:108360000FB1240A3C6026B105EB850580352D123E
:108370003560BDE8F08700BF681D0120704700BF71
:1083800001207047012070473122F42158F00EBEC1
:1083900008B5006854F0EAFED8B90F4A0F4992F8C0
:1083A000093192F808011B0143EA003392F80A01EF
:1083B00043EA101392F80B010B6292F80C3192F819
:1083C0000D211B0143EA0033012043EA12130B6025
:1083D00008BD0020FCE700BFC4000020681D01208C
:1083E000036810B41A78012A1CD0184C18490120CF
:1083F00091F8122191F811C191F8153112041B0462
:1084000042EA0C2291F814C143EA0C2391F810C1FE
:1084100091F8131142EA0C020B43C4E969235DF899
:10842000044B704793F90430084C03EB430304EB0F
:10843000431393F87920202A03D000205DF8044BE1
:1084400070479B6B9B691B04F7D4CFE7681D012025
:10845000C40000202DE9F04FCC4C83B0B4F8AC310F
:10846000D4F8A821B4F8AE61A2EB032294F9B0517C
:108470000091A6FB02634FEAE57C9F04A2FB022366
:1084800005FB03F347EA9637B60402FB0C33A5FB62
:108490000252AD191A4442EB0703002B02DA013DE8
:1084A00043F10003DF17C4E97237002800F01A8196
:1084B00003FB07FCD4F8A451A3FB032606EB4C06F0
:1084C0004FEA921E4FEAA6184EEA866E0EFB07FC94
:1084D00003FB08CCAEFB03E81CEB080C00F1508159
:1084E0004FEA1E2E4FEA2C214EEA0C6E94F9B6C1CB
:1084F00001914FEAEC780CFB01FA0EFB08AAACFBE9
:108500000EC81AEB080A00F136814FEA5C1CB4F978
:10851000B3814CEACA6194F9B5C1A8F580484FEA25
:10852000EC7B0CFB06F902FB0B99ACFB02CBD944AC
:10853000B4F9B1B14FEA8909ABF5804B49EA9C79AE
:108540004FEA8B3B4FEA8C0C0BEB6A1A08FB07FBDC
:1085500011EB0C0C4AEB09094FEAE87A03FB0ABB62
:10856000A8FB038ADA444FEA4A5A4AEAD82A4FEA71
:1085700048581CEB080C49EB0A09B9F1000FC0F28E
:10858000F3804FEA1C6B019994F9BCC14BEA092BAB
:108590000CFB01FA4FEAEC784FEA29690EFB08AAB6
:1085A000ACFB0ECE1AEB0E0E00F1D9804FEA5C1C2C
:1085B0004CEACE6894F9BBC14FEAEC7A0CFB06F6A4
:1085C00002FB0A66ACFB022CB444B4F8B7614FEA74
:1085D0000C1AF6034AEA127A120106EB6E1E18EB29
:1085E0000202B4F8B981A8FB03C64EEB0A0A08FBE5
:1085F00007684FEA885646EA9C264FEA8C5C12EBE5
:108600000C024AEB060ABAF1000FC0F2A28094F9FC
:10861000BFE14FEA920CABFB05864CEA8A7C0EFB6D
:1086200007F205FB09664FEAEE791CEB0808B4F97E
:10863000BDC103FB0922AEFB03E946EBAA064A448F
:108640004FEA0C491EEB090E42EBEC7CAEFB05E257
:1086500005FB0C22002A75DB4FEA5E3E4EEAC24E55
:108660005213AEFB05CE05FB02EEBEF1000F62DB3E
:108670004FEA5C2C94F9C0214CEACE5C18EB0C0C50
:10868000A5FB054846EB6E264FEAE27E04FB0EFE94
:1086900002FB08EEA4FB02421EEB020E45D4220CA4
:1086A00042EA0E424FEA2E4EA2FB052405FB0E4E77
:1086B000BEF1000F35DBD20942EA4E6212EB0C022A
:1086C00046EBEE16941846EB060EA41846EB0E0E7B
:1086D0004FEACE0E4EEA547EE400A41846EB0E0696
:1086E000360C0660009A9AB1DA1847EB0700D218E8
:1086F00047EB0000C00040EA5270D200D31847EBAD
:108700000007002F07DB9B0B009A43EA87431360A7
:1087100003B0BDE8F08F43F6FF729B1847F10007E6
:10872000F1E77F324EF1000EC5E74FF6FF72A41855
:108730004EF1000EB3E740F2FF121CEB020C4EF1BB
:10874000000E95E741F6FF7C1EEB0C0E42F1000295
:1087500082E712F1030C62464AF1000A57E71CF166
:108760001F0C4EF1000E21E76FF07F4B1CEB0B0C42
:1087700049F1000905E71CF11F0C4AF1000AC4E6A3
:108780001EF1FF0E4CF1000CAAE600BF681D01208F
:108790003B4BDFED3C3A93F8D11193F8D00109023D
:1087A00093F8D22193F8D3C101EB004193F8D4019F
:1087B00093ED786A0A4409024FEA002093F8D51134
:1087C00048BF02F17F42B8EEC66A00EB0C4007EEEC
:1087D000902AB3F9EC210144000205EE902AB3F986
:1087E000E821F8EEE77A48BF01F17F4104EE902AD4
:1087F000B3F9EA21F8EEE55A07EE101A67EEA37A0C
:1088000006EE902AF8EEE44AB3F9E621F8EEE66ABD
:10881000012005EE102AB3F9E421E7EEA54AB8EEEF
:10882000C55A04EE102AB8EEC77AB3F9DA21B8EEC9
:10883000C44AA7EEA65AD3ED776A27EE237A05EE4F
:10884000902AA4EEA76AB3F9D821F8EEE66AF8EE0A
:10885000E55A04EE902AF6EE003AE7EE046AF8EEE6
:10886000E44AA5EE076A67EE255AB0EE667AE4EEB2
:10887000A35AA7EE867AC3ED7D5A83ED7C7A7047C2
:10888000681D01200821843630B10A4BD3ED7C7A73
:10889000FDEEE77AC0ED007A51B1064B9FED067A06
:1088A000D3ED7D7A67EE877AFDEEE77AC1ED007A47
:1088B000704700BF681D01200000C842704700BF1C
:1088C00001207047012070477047704701207047B2
:1088D00030B5002385B0E72105468DF807300DF14E
:1088E00007020123154C16F057F99DF8073013F0D5
:1088F00003031FD0052302AAE821284616F04CF9ED
:108900009DF80A209DF80910130412F0800F43EA25
:1089100001239DF8081014BF4FF07F4200220B4343
:108920001343C4F8F831BDF80B300120A4F8FC3132
:1089300005B030BDC4F8F831F7E700BF681D01206D
:108940000B4A642310B5D2F8F841634348BF03F6DD
:10895000FF731B130360B2F8FC310A225343302229
:10896000B3FBF2F303F584531A330B6010BD00BF61
:10897000681D012008B5006854F0F8FB78B9094A71
:10898000012092F8193192F818111B0292F81A215D
:1089900043EA01431343044AC2F8003208BD0020F1
:1089A000FCE700BFC4000020681D012008B5006876
:1089B00054F0DCFB78B9094A012092F8193192F899
:1089C00018111B0292F81A2143EA01431343044A87
:1089D000C2F8043208BD0020FCE700BFC40000203C
:1089E000681D01202DE9F74F544AB2F81232B2F84F
:1089F0000E621B02B2F81472CDE90001D2F8001227
:108A0000C91AB2F810326EEB0E0EA3FB010403FB81
:108A10000E44C009B2F80C3240EA44601B04E41171
:108A2000C018A6FB013506FB0E554FEA1323B2F81A
:108A30000A6244F1000443EA0563F6032D129B1910
:108A4000A7FB012607FB0E664FEAD25245F100054F
:108A500042EA4622F61512F5FA6C46F1000BBCF517
:108A6000FA6F7BF100074CDAA2FB02784FF0050A9F
:108A700002FB06F908EB4909A7FB0A780AFB0988FB
:108A80004FEA5709BF0849EAC87947EA8877B0EB47
:108A9000090064EB6804DB1B294F65EBA805BC45A6
:108AA0004FF0FF377BEB070720DA40F6AC57D219BF
:108AB00046F100065643A2FB027202EB4606FA009C
:108AC0004FEAC608BA1A48EA577866EB0808101841
:108AD00044EB08044FF00B08A7FB087208FB0626BE
:108AE0007F0847EAC677DB1B65EB660501FB0EFED8
:108AF000A1FB011202EB4E0EC90F41EA4E01BCEB85
:108B0000010C009A92B10D4AD2F80412A1FB032382
:108B100001FB0535520D009B42EAC5226D15121A64
:108B200065EB0404D20B42EA44421A60019B0BB18C
:108B3000C3F800C003B0BDE8F08F00BF681D01207E
:108B400024FAFFFF7047012070470120704708B5E5
:108B5000006854F00BFBD8B90E4A0F4992F81D314A
:108B600092F81C011B0243EA004392F81E010343E2
:108B700092F81F01C1F8183292F8203192F82121A1
:108B80001B0243EA004301201343C1F81C3208BD15
:108B90000020FCE7C4000020681D01202A4BD3F808
:108BA0001C2293ED8A6AA2F50002D3ED896AD3ED07
:108BB000887A07EE102AD3ED8D5AD3ED8C4AB8EEA1
:108BC000C77AD3F8182293ED914AA2F5000293EDEB
:108BD0008F5AE7EE066A93ED8E6AE7EE267A06EE86
:108BE000902A93ED8B7AF8EEE66AE5EEA74AD3ED8C
:108BF000905AA4EE275A93ED924AA7EEA47AD3EDA9
:108C0000934AA5EE276AE6EEA45AE4EE275AA5EEAB
:108C1000A66AA6EE867AB5EE407AF1EE10FAF5EE87
:108C2000407A1CBFBDEEC77A80ED007AF1EE10FAF3
:108C300008D0FDEEE77A17EE903A002BB8BFFF336D
:108C40001B120B60704700BF681D0120B0F90000C7
:108C5000084B4143994208DBB1F5000F07DA0029C0
:108C6000B8BFFF31081200B270470348FBE747F670
:108C7000FF70F8E701FF7FFF0080FFFF70B504463B
:108C800090F8E10000B970BD16F004FD21460546DC
:108C9000A8B126220023C2800D4A41F80C2F1A46A3
:108CA00054F00EF9AB884FF00042B3FA83F332FA76
:108CB00003F3E8D007490A6813430B6070BD044C06
:108CC0000346024641F80C4FBDE8704054F0F8B836
:108CD00001800008003C01400269C3682DE9F047AB
:108CE00012EA03092AD005460E464FF000474FF01E
:108CF0000008B9FA89F327FA03F21B3BD24309EAC9
:108D000002092A61042B16D8DFE803F0352C231A58
:108D10000300736A002B37D003F1FF3AC6F82480B2
:108D20001FFA8AFA346A34B12368204651469847BC
:108D30006468002CF8D1B9F1000FDAD1BDE8F087F2
:108D40003068696B036889B29847B9F1000FD0D1D8
:108D5000F4E77068A96B036889B29847B9F1000F0E
:108D6000C7D1EBE7B068E96B036889B29847B9F1FE
:108D7000000FBED1E2E7F068296C036889B298471A
:108D8000B9F1000FB5D1D9E7E96A1FFA81FAC9E74D
:108D900010B5044682B0806906236A463B21103034
:108DA00015F006FF58B1BDF80010BDF80220BDF85F
:108DB000043049BA52BA5BBAE1812282638202B0BE
:108DC00010BD00BF10B582B00446062343216A4699
:108DD000103015F0EDFE70B1BDF80010BDF80220A6
:108DE000BDF8043049BA52BA5BBAA4F8D010A4F85E
:108DF000D220A4F8D43002B010BD00BF10B5044694
:108E000082B0806906236A462821103015F0D0FE12
:108E1000BDF80010BDF802200120BDF80430E1814A
:108E20002282638202B010BD10B582B004460623D0
:108E300022216A46103015F0BBFEBDF80010BDF8C7
:108E400002200120BDF80430A4F8D010A4F8D220EC
:108E5000A4F8D43002B010BD13B5002304460B486B
:108E60008DF8073016F080F90123A0800DF107027C
:108E70000F21204615F09CFE28B19DF807306C2B81
:108E800014BF0020102002B010BD00BF80969800D3
:108E900000B583B04FF0000C012311210DF1070242
:108EA00098388DF807C015F083FE03B05DF804FB19
:108EB000836910B5074C04EB8303D3F870024CF0C0
:108EC000EFF80021B4F8900254F0ECF8002384F895
:108ED000923210BD681D012080699C304CF0E0B8D2
:108EE00010B5074C94F894320BB9002010BD16F061
:108EF00055FFD4F89832C01AD0F5FA50F6D5F4E7F9
:108F0000681D012070B505460C46FFF7E9FF2B6888
:108F10005D6808B116F070FF064B00222846492113
:108F200083F89422224693F89532BDE8704015F0FC
:108F300033BE00BF681D01202DE9F04FC24C2DED5E
:108F4000028B237883B0009303BBD4F82431002B29
:108F500016DD0026BD4831464769D0F8AC303D6883
:108F600003F1C00225F001053D6059600C339A42BF
:108F7000FBD10136D4F8243100F58670B342EBDC26
:108F8000012003B0BDEC028BBDE8F08FB04BD3F8ED
:108F90009C3208EE103A16F001FFD4F82831D4F8CC
:108FA0002C211433801AB0EB430FC0F21C8104F55E
:108FB000987904F5826A04F1080600256368AB42DB
:108FC000C3DDB3690121DFF8A4E25F69A14AD3E9F7
:108FD0003D0C73689940FBB227F0FF07103BAEFBD6
:108FE000033E9D4B4FEA1E1E13F80E301F440346EE
:108FF0007F68BFB2ACEB07073A4400EB42029A42EB
:1090000017D9B3F800C01CEA010F00F0E680B3F8EE
:1090100002C01CEA010F00F0E280B3F804C01CEAB1
:10902000010F00F0DE80B3F806C008331CEA010F20
:10903000E5D11A880A400192002A40F09580181A5A
:10904000A7EB6007452F28BF452703EB4707BB4227
:1090500080F08A80964690461846944616E0B3F80B
:1090600002B00BEA010B5A4540F0A280B3F804B0FD
:109070000BEA010B5A4540F09D80DA8808330A401C
:10908000944506D19F4206D91A880A406245E6D027
:1090900002339F4272D8B8F1110F65D9C8F1150398
:1090A000002BC0F2898000F0B1800EFA03FEC8F1F7
:1090B00014080123694A03FA08F848EA0E0ECEF3B1
:1090C000C43352F823100EF01F0352F8233043EA42
:1090D0000133CEF34411CEF3842E52F8211052F80E
:1090E0002E2043EA011343EA022383EA132282EA91
:1090F000121202F00F020F2A5ED1B3F5803F5BD24D
:1091000040F6FF711A09B1EB131F78D0C2F30802C1
:109110005B0B12FA03F34FD0514A02EB5302B2FB3E
:10912000F3F24FF6FE7301929A421DD0D4F8183430
:109130000133C4F818344FF6FF739A4241D0BDF89A
:109140000430AAF80C30032D4FF001038AF80E30DA
:1091500004DC3F4B93F8A0322D2B4AD0009918EE37
:10916000102A484615F0F2FA013509F15C090AF1B6
:10917000040A2036082D7FF421AFE6E6181A33F8EA
:1091800002CC421001EA0C0C501C364A82FB00B2A1
:10919000A2EBE0720120012AB8BF01220EFA02FE02
:1091A0009044013A00FA02F2184642EA0E0E6BE7CA
:1091B00004336EE706336CE7D4F818340133C4F88F
:1091C0001834D4F8143400210133C4F8143418EEE0
:1091D000102A484615F0BAFAC6E7023329E70433E5
:1091E00027E7063325E7002003B0BDEC028BBDE87E
:1091F000F08F1D4B019A009923F81520E7E7D4F86A
:1092000018340133C4F8183400239AE7134BCEF313
:10921000C43253F822100EF01F0253F8222042EA03
:109220000132CEF34411CEF3842E53F8210053F8CB
:109230002E1042EA001343EA012383EA132282EA52
:10924000121202F00F0256E7C40000205805002059
:10925000681D0120C7FFFF7FC85C06082855060867
:10926000C0270900565555550C200120ABAAAAAAC3
:10927000F8B5394C04EB401292F8243003B9F8BD2C
:1092800000EB800C354B0026450104EB4C1C9CF890
:10929000C6E88CF8C66882F80AE093F8ACE293F866
:1092A000AD2296450DD002EB420C560003EBCC0CE0
:1092B0009CF8B0C20CF1FF37012F41D9BCF1030F6C
:1092C00039D0274B254403EB401029815CF024F969
:1092D00023782A6AB3B1E9680124D2F8AC308C4013
:1092E00003F1C00110F4004F4FEA400203F10C03F8
:1092F00090B202BF53F8082C224343F8082C8B424B
:10930000F0D1F8BDE9680124D2F8AC3001F11002C7
:1093100003F1C001944010F4004F4FEA400203F102
:109320000C0390B202BF53F8082C224343F8082CD8
:109330009942F0D1F8BD571C07F003077745C0D01C
:10934000324403EBC203034493F8BD120029B8D0A2
:10935000631901229A72B4E7C4000020681D01203D
:10936000CC000020BCEEC00A10EE103A99B27FE7A4
:10937000214B2DE9F04193F8AC2293F8AD329A429B
:1093800033D11E4ED6F82451002D12DD002437783B
:1093900006F29440A046013417B1037F012B1FD081
:1093A0004269AC4200F58670136843F00103136014
:1093B000F1D116F0F3FCD6F8C44DC6F82C01002C00
:1093C0000CDD0F4B03EBC4041968083333F8042C8D
:1093D000C8689C4242EA0002CA60F5D1BDE8F0814B
:1093E00080F8FC80FEF7B4FEDAE751F0E7FD0028D4
:1093F000C7D1BDE8F08100BF681D0120C400002076
:109400008C0E0020F8B50546FFF738FC95F8D830EB
:10941000072B5DD195F8DD300226002B5AD1374657
:1094200005F1100480226B21204615F05DFA6420BE
:1094300016F082FE07226821204615F055FA6420B6
:1094400016F07AFE00226B21204615F04DFA6420BA
:1094500016F072FE01226B21204615F045FA0F200E
:1094600016F06AFE1B21FA00204615F03DFA0F2087
:1094700016F062FE1C21F200204615F035FA0F208E
:1094800016F05AFE2846FEF7BFFD1A210246204676
:1094900015F02AFA0F2016F04FFE95F8E02019215A
:1094A000204615F021FA642016F046FE10223721DE
:1094B000204615F019FA0F2016F03EFE2046012234
:1094C000382115F011FA0F20BDE8F84016F034BE2F
:1094D0000326A4E70327A3E72DE9F34114469846A2
:1094E0000DF10702012306460F4615F061FB88B116
:1094F000022016F081FC9DF807503946304625EAD7
:10950000040444EA08028DF8072015F0EDF90898E4
:1095100016F012FE02B0BDE8F081642373B500F1CD
:109520001005009301230446122128461A460126FD
:10953000FFF7D2FF02220D21284615F0D5F90120B0
:1095400016F0FAFD02220E21284615F0CDF9012071
:1095500016F0F2FD74221021284615F0C5F90120FD
:1095600016F0EAFDAC221121284615F0BDF90120C4
:1095700016F0E2FD44237C22122128460096FFF7D4
:10958000ABFF0623132128461A460096FFF7A4FFD7
:1095900000231722152128460096FFF79DFF02237E
:1095A000284618211A460096FFF796FF94F8E10026
:1095B000A0B116F06FF8054608B12623C3802146F6
:1095C000074B284641F80C3F00231A4653F078FC1D
:1095D000284602B0BDE8704051F0A4BF02B070BD93
:1095E000C98100087B22F42115F07EB937B500F15E
:1095F0000C040546C06857F023FC00220A212046CF
:1096000015F072F9142016F097FD0F220A2120465A
:1096100015F06AF90A2016F08FFD01AA0323102124
:10962000204615F0C5FA0A2016F086FD9DF8043094
:1096300000220A2180332046A5F8F6309DF8053037
:109640008033A5F8F8309DF806308033A5F8FA305D
:1096500015F04AF90A2016F06FFD0DF103020123FF
:109660000221204615F0A4FA01230DF1030209217D
:10967000204615F09DFA11220A21204615F034F9F2
:10968000012003B030BDF0B500F10C0785B00446F1
:109690000E4601230DF107020221384615F088FA23
:1096A00018B90025284605B0F0BD9DF80730DB0746
:1096B000F7D5062302AA0321384615F079FA0123CB
:1096C0000DF107020921384615F072FA0546002807
:1096D000E7D011220A21384615F006F99DF8073027
:1096E00013F00C0FDDD1B4F9F61002A8FFF7AEFAB3
:1096F000404230800DF10A00B4F9F810FFF7A6FAE5
:109700004042708003A8B4F9FA10FFF79FFA404274
:10971000B080C7E71D4B1E49D3F81033B1EB930F50
:1097200010B5044682B02ED29A08022352085B007C
:109730008A429BB201D9FF2BF8D9A268A3801AB143
:10974000938812681B049361012016F0F5FCA3684E
:1097500013B11A689B8893610A2016F0EDFC236808
:1097600000201B6AADF804005BB92046022301AA61
:10977000802115F0EBF99DF80530242B14BF002053
:109780000F2002B010BD0223D7E700BF681D0120E3
:109790008096980038B50446FFF770FA214804F126
:1097A000100515F0E1FC01226B21A082284615F07E
:1097B00071F80F2016F0C0FC18221B21284615F066
:1097C00069F80F2016F0B8FC18221C21284615F065
:1097D00061F80F2016F0B0FC20461A21FEF714FCA9
:1097E0000246284615F056F80F2016F0A5FC94F80E
:1097F000E0201921284615F04DF8642016F09CFC55
:1098000010223721284615F045F80F2016F094FC59
:1098100001223821284615F03DF8034815F0A4FC34
:10982000A08238BD40420F008096980038B50446AB
:10983000FFF724FA384804F1100515F095FC0322CF
:109840006B21A082284615F025F80F2016F0D4FAD7
:1098500010226A21284615F01DF80F2016F0CCFAC8
:1098600000226C21284615F015F80F2016F0C4FAD6
:1098700094F8E0201921284615F00CF80F2016F076
:10988000BBFA18221B21284615F004F80F2016F009
:10989000B3FA18221C21284614F0FCFF0F2016F002
:1098A000ABFA10223721284614F0F4FF0F2016F0EF
:1098B000A3FA01223821284614F0ECFF0F2016F0FD
:1098C0009BFA164815F050FCA082012016F094FA7D
:1098D000114815F049FCA08220461A21FEF794FB9E
:1098E0000246284614F0D6FF012016F085FA0B48F0
:1098F00015F03AFCA0822046FFF764FA94F9D230C2
:10990000013308D194F9D030013304D10620BDE8E9
:10991000384016F02BBD38BD40420F00002D3101FC
:1099200010B504460D4815F01FFCA082012016F06A
:1099300063FA2046FFF766FD10226A21A01814F092
:10994000A9FF642016F0F8FB054815F00DFCA08275
:109950000120BDE8104016F04FBA00BF40420F0092
:10996000002D310170B500F11004B6227E210546AC
:1099700090F8DE60204614F08DFF642016F0DCFBCA
:10998000AB691BB11A689B881B049361012016F018
:10999000D3FBAB6913B11A689B8893610A2016F058
:1099A000CBFB00227C21204614F074FF012016F02E
:1099B000C3FB00225921204614F06CFF012016F051
:1099C000BBFB4FF4A473764A5E21204615F07CFB66
:1099D0000A2016F0B1FB01225921204614F05AFF4B
:1099E000012016F0A9FB012E60D0AB2240212046B9
:1099F00014F050FF012016F09FFB03224121204666
:109A000014F048FF012016F097FBED22422120467A
:109A100014F040FF012016F08FFB0822432120465E
:109A200014F038FF012016F087FB0422582120464D
:109A300014F030FF012016F07FFB0A22532120464C
:109A400014F028FF012016F077FB02227C2120462B
:109A500014F020FF012016F06FFB20460E227D211E
:109A600014F018FF012016F067FB95F8E10000B92B
:109A700070BD15F00FFE29460446002800F08780CF
:109A800026220023C280474A41F80C2F1A4653F081
:109A900017FAA3884FF00042B3FA83F332FA03F3C4
:109AA000E6D041490A6813430B6070BD002248218B
:109AB000204614F0EFFE304616F03EFB802249218E
:109AC000204614F0E7FE304616F036FB0022452112
:109AD000204614F0DFFE304616F02EFB062246210B
:109AE000204614F0D7FE304616F026FB0022472110
:109AF000204614F0CFFE304616F01EFBAB2240216C
:109B0000204614F0C7FE304616F016FB0322412112
:109B1000204614F0BFFE304616F00EFBED22422127
:109B2000204614F0B7FE304616F006FB082243210B
:109B3000204614F0AFFE304616F0FEFA02225821FD
:109B4000204614F0A7FE304616F0F6FA0A225321FA
:109B5000204614F09FFE304616F0EEFA02227C21D9
:109B6000204614F097FE304616F0E6FA0E227D21CC
:109B7000204614F08FFE304616F0DEFA2046B02262
:109B80007E2114F087FE304616F0D6FA6DE7054DBB
:109B90000346024641F80C5FBDE8704053F090B9AF
:109BA000A8550608B1810008003C014038B51E4D9B
:109BB000044695F8143333B91C4815F0D5FA01233F
:109BC000A08085F814331A4815F0CEFA80226B2154
:109BD000A080204614F05EFE642016F0ADFA032249
:109BE0006821204614F056FE642016F0A5FAF521EF
:109BF000204615F08FFAAC2811D00BD8122810D0BF
:109C0000982814BF00250B25084815F0ADFAA08050
:109C1000284638BDAF2814BF00250925F4E70725DD
:109C2000F2E70825F0E700BF681D01208096980044
:109C300040420F0038B504461B4815F095FA8022C3
:109C40006B21A080204614F025FE642016F074FAE3
:109C500007226821204614F01DFE642016F06CFADD
:109C6000F521204615F056FA0546012016F0C4F8F5
:109C7000682D17D18C21204615F04CFA182809D8E8
:109C8000142834BF00250325084815F06DFAA0807C
:109C9000284638BDA0F15403DBB2072B34BF03259F
:109CA0000025F1E70025EFE740420F00002D3101CC
:109CB00010B50446154815F057FAF521A080204646
:109CC00015F028FA702818D008D8422817D047284D
:109CD00017D0122814BF0020082010BDAC2812D0C5
:109CE00006D800F0FD00712814BF00200620F4E71C
:109CF000AF2814BF00200920EFE70520EDE70C2076
:109D0000EBE70D20E9E70720E7E700BF002D310171
:109D100010B50446006853F029FA38B920460623E6
:109D2000034AF72157F0A0F8012010BD0020FCE7FE
:109D3000CC01002008B503681A78012A06D0062352
:109D40000B4A042157F090F8012008BD93F9043024
:109D5000084A03EB430302EB431393F87920202ACC
:109D600001D0002008BD9B6B9B691B04F9D4E6E77A
:109D7000D4010020681D012008B503681A78012A63
:109D800006D006230B4A002157F06EF8012008BDCB
:109D900093F90430084A03EB430302EB431393F8AF
:109DA0007920202A01D0002008BD9B6B9B691B04F1
:109DB000F9D4E6E7381F0120681D012010B50446DC
:109DC000006853F0D3F9014690B923681A78022A43
:109DD00008D1196A21B90323064A204614F0B6FEB9
:109DE000012006E00323034A204657F03DF8F7E739
:109DF000002010BDDC010020E0E710B5044600683B
:109E000053F0B4F938B920460623044AF72157F035
:109E10002BF8012010BD0020FCE700BFE00100206E
:109E2000016803460A78012A04D0022A01D10B6A8C
:109E300063B1704707484FF0130C19791B2280F863
:109E400015C31B6893F9040053F0AAB813221B2111
:109E500014F020BD681D0120582153F0A1B94821FC
:109E600053F09EB9BFF34F8F0549064BCA6802F401
:109E7000E0621343CB60BFF34F8F00BFFDE700BF2D
:109E800000ED00E00400FA059E489F4A9F49121A1F
:109E9000F0B5A5B05BF060F99D489E4A9E49121A44
:109EA0005BF05AF99D4B9B68012B00F2BE8003EBDF
:109EB00043039B4A9B4D02EB430032F81320418839
:109EC0008388C5E90021AB60974C984E984BB2FB54
:109ED000F1F2984901FB02F20021C6F81023D4F8F0
:109EE000882042F47002C4F888201A6842F0010207
:109EF0001A609960904A1868024090481A60C0F34E
:109F000008078F4A5A601A6822F480221A60D960C2
:109F100007B1FEE78B49A0604FF6FF000A688A4B45
:109F200042F400720A60E26802401343E36053F0B7
:109F300017F8BFF34F8FBFF36F8FC4F85072BFF3A2
:109F40004F8FBFF36F8F636943F400336361BFF3D7
:109F50004F8FBFF36F8FC4F88470BFF34F8FD4F867
:109F6000803043F6E07CC3F3C90EC3F34E3358018F
:109F700000EA0C01734641EA8372013B5F1CC4F89E
:109F80006022F8D1203810F1200FF1D1BFF34F8FAC
:109F9000636943F480336361BFF34F8FBFF36F8F07
:109FA0006849634B0A6842F480720A60196C674A18
:109FB00041F080511964196C01F0805102910299AD
:109FC000116841F4404111601268286802F440426F
:109FD0006C68A9680192019A9A6802F00C02042A3E
:109FE00000F08D809A6802F00C02082A00F083804D
:109FF0004F4A136843F480331360D6F8187304E0B3
:10A00000D6F81833DB1B642B74D813689B03F7D581
:10A01000474A936803F00C03082B6BD0136823F0B6
:10A0200080731360D6F8187308E03E4DD5E900211F
:10A030004AE7D6F81833DB1B022B5BD813689B0169
:10A04000F7D40B06640843EA8013611E43EA014318
:10A050003F491943364B5160116841F080711160DE
:10A06000D6F8181304E0D6F81823521A022A41D859
:10A070001A689201F7D5196C344A41F0805119647D
:10A080001B6C03F080530393039B136843F48033EA
:10A090001360D6F8181306E0D6F818335B1AB3F538
:10A0A0007A7F00F2CB805368DF03F5D51368274928
:10A0B00043F400331360D6F8182306E0D6F81833BB
:10A0C0009B1AB3F57A7F00F2B9804B689C03F5D5F3
:10A0D0004FF400124FF0006304A804924FF4C072D2
:10A0E00021930723CDE9082303230A934BF0ACFA0D
:10A0F00080B3FEE7FEE75B685A027FF579AF0C4B51
:10A100001B6885E70000000058340000C87C070881
:10A1100000000020C4000020A5D0070850280040FF
:10A12000F05606080000012000ED00E0681D012047
:10A130000038024040420F00FFFFF6FE000000081A
:10A1400010300024003C02400003FA05007000407B
:10A1500008004020694A136803F00F03062B0AD851
:10A16000136823F00F0343F007031360136803F031
:10A170000F03072B63D1624B9A6842F4E0529A6056
:10A180009A6842F460429A609A6822F0F0029A60FB
:10A190001A68900153D59A6841F2883122F003027F
:10A1A00042F002029A60D6F8180304E0D6F81823A9
:10A1B000121A8A4243D89A6802F00C02082AF5D192
:10A1C0004E4A136819070AD5136823F00F0343F0AA
:10A1D00007031360136803F00F03072B2FD1484CBC
:10A1E000484FA36823F4E05343F4A053A360A3684B
:10A1F00023F4604343F40043A3604BF0F1F9A368F8
:10A20000C3F303133B4493F8D431D840C6F810038A
:10A2100052F0A6FE002304A8CDE91333CDE915338F
:10A22000CDE91733CDE91933CDE91B33CDE91D3322
:10A23000354B04934BF008FA10B1FEE7FEE7FEE75A
:10A2400002234FF0007204A8CDE90633D823CDE9EC
:10A25000042301230B934BF0F7F900B1FEE7D4F888
:10A260008C3023F08073C4F88C30D4F88C3043F0F9
:10A270008073C4F88C30A36803F00C03042B36D031
:10A28000082B18D0214BC6F810331D4AD5E90031F0
:10A29000B3FBF1F39168D6F81023C1F303110F4417
:10A2A00097F8D411CA401A4901FB03F3C6F81023EA
:10A2B000934220D0FEE76368626813F4800F6368FE
:10A2C00002F03F0218BF1349C3F3881308BF0F49B8
:10A2D000B1FBF2F202FB03F3094A5268C2F30142F6
:10A2E00001325200B3FBF2F3C6F81033CDE7094B4D
:10A2F000C6F81033C9E725B0F0BD00BF003C0240EE
:10A300000038024028550608C0FF03000024F4006E
:10A3100040420F0000127A00014B53F820007047B2
:10A320005028004002692DE9F043177885B00446B3
:10A330000D46012F18D10B794FF0000900F11008DC
:10A34000013B8DF8059013710DF105024B797521D4
:10A350004B4508BF682303753B46404614F028FC74
:10A360000646002834D1226902231370EB7823B902
:10A370000026304605B0BDE8F08304F11008A97846
:10A38000404614F00BFF06460028F1D0E87815F09F
:10A3900081F9A0612B780133DBB210B1C3712223A4
:10A3A00083710D21434F15F0E1F9A06914F0F0FE1F
:10A3B000414B02E057F8043F5BB3404698470346E1
:10A3C0000028F7D0206984F8D83056F039FDD0E75E
:10A3D000206956F035FD3B4649460DF106024046E0
:10A3E00014F0E6FB9DF8063003F07E03682B8DF831
:10A3F000063000D1A0B99DF8053003F07E03682B2C
:10A400008DF805300FD0702BB3D1042384F8D830E9
:10A41000AFE7E8781E4615F03DF915F0C5F9A8E755
:10A4200084F8D870A5E7062302224046194684F82E
:10A43000D82002AA14F0BCFB9DF80D309DF80B202B
:10A440009B00520003F0040302F0020213439DF844
:10A45000092002F0010243EA020113430CD058B173
:10A46000012B1FD0022B03D001F0030103291DD1C2
:10A47000012384F8D9307CE70DF10702012340461F
:10A480000C2114F095FB80F001009DF80720C0B26C
:10A4900002F00F0250B9B2FA82F35B0932B1042A1A
:10A4A000E6D1E6E7002384F8D93062E7032015F00F
:10A4B0005DFF5EE70C570608359C000830B490F845
:10A4C000443000F10801474A012BC2F81C136ED03A
:10A4D00083684549DC68454D24F46004AB42DC6088
:10A4E000DC6844F46004DC609C6B24F440149C63DE
:10A4F0009C6B44F480149C639C6B24F4F8449C6330
:10A500009C6B44F488449C639C6824F470249C6095
:10A510009C689C609C6824F440149C609C689C60CF
:10A520005C6824F480645C605C6824F480545C6043
:10A530005C6901EA040159615969596145D0DC68D7
:10A54000294924F0E064DC60DC6844F0E064DC600D
:10A550009C6B24F440149C639C6B44F480149C63B7
:10A560009C6B24F478249C639C6B44F410249C63BF
:10A570009C6824F470249C609C689C609C6824F413
:10A5800040149C609C689C605C6824F480645C60FF
:10A590005C6824F480545C609C692140134C996190
:10A5A000A3429969996116D0002380F8443010487D
:10A5B000104B848DC18D408D091B93FBF1F3C2E9D3
:10A5C000C804C2F8283330BC70470B4C616841F4B2
:10A5D00000016160B3E708494B6843F400034B6036
:10A5E000E2E700BF681D012000F0FFFF00200140EE
:10A5F000007AF01F8038010000230140704700BF3F
:10A6000001484AF05DBF00BFA01D0120074810B4FB
:10A61000836BC46E99691A6824B1234638305DF89B
:10A62000044B18475DF8044B704700BF681D0120BC
:10A6300001484AF045BF00BF001E0120084810B481
:10A64000D0F89830D0F8CC4099691A6824B12346E4
:10A6500098305DF8044B18475DF8044B704700BF15
:10A66000681D012001484AF02BBF00BF601E012079
:10A67000084810B4D0F8F830D0F82C4199691A681D
:10A6800024B12346F8305DF8044B18475DF8044BBD
:10A69000704700BF681D01202DE9F84FD44F60239B
:10A6A000044603FB00735D6A002D00F09C81DE6AA6
:10A6B0001EB1B379002B40F09681602303FB047335
:10A6C000D3F83090B9F1000F04D099F80630002B80
:10A6D00040F08981631CDBB216B11522F371B271AF
:10A6E000B9F1000F04D0162289F8073089F8062046
:10A6F000287C4FF0090850F025FF304614F048FD43
:10A70000484614F045FD1121304615F02FF811216F
:10A71000484615F02BF84FF0330A02E00A2015F0F6
:10A720006BFB304614F07EFF10B9BAF1010AF5D187
:10A73000304614F081FF052015F05EFB304614F022
:10A7400027FD052015F058FBB8F10108E3D130468C
:10A750004FF0600B14F070FF052015F04DFB4846DC
:10A7600014F06AFF0BFB04FB052015F045FB304697
:10A7700014F00EFD07EB0B0A052015F03DFB4846D3
:10A7800014F006FD9AF8343030460422002B994E1E
:10A7900014BF3E211E2114F0C9FF9AF834305E44E4
:10A7A0004846002B4FF00402C14614BF3E211E2133
:10A7B00014F0BCFF4C22414630465AF041FDDAF815
:10A7C00024309FED8D7AB0EE084A5B68F7EE003AD0
:10A7D000BAF836B0CAF83830884B9FED895A9A6873
:10A7E000884BC2F38222134493F8FC21D7F810332C
:10A7F000D34007EE903AF8EE677AC7EE275A07EE95
:10A8000090BA9FED817AF8EEE77AC7EE274ADFED3E
:10A810007F7AB0EE007AE5EE877AA5EE875A25EECC
:10A82000844A37EE856A74EEE72ABBF5C87F40F2AA
:10A83000145309F1010ED7BF1946322364234FF494
:10A840009670C8BF782007EE90EAD4BF4FF4167C0C
:10A850004FF4827C0344B8EEE77AC8BF4FF4FA7134
:10A8600007EE903A27EE257A01EB0C03F8EEE76A43
:10A8700086EE873A73EE636AFCEEE67A17EE902A6C
:10A8800007EE90CAB8EEE73A07EE903AF8EEE77AAC
:10A8900023EE243AC3EE276A36EEC53A72EEE66A34
:10A8A000C3EE077A77EEE37AFCEEE77A17EE901ABA
:10A8B000C6EE877A77EEE37AFCEEE77A17EE903A07
:10A8C00003F1020C0CEB010AF0EE466A07EE90AAC7
:10A8D000F8EE677AE7EE276AF4EEE64AF1EE10FA50
:10A8E00000F383805FFA82FCBCF10F0F00F29480CA
:10A8F000323807EE900AF8EEE77A77EEC47AC7EEC0
:10A90000876AFCEEE67A17EE90CA5FFA8CF00F28A1
:10A9100000F2828088B2FF287ED898B2FF287BD8C8
:10A9200040EA097310054FEA0C4200F07F6002F420
:10A930007F0203431343364A02EA012143EA010836
:10A940006020012300FB047400273046C4F83C80DB
:10A95000C4E91073C4E91277C4E9157755F084FD92
:10A9600094F87930202BD9B219D194F87830012B92
:10A9700015D0242384F87930A36B1A6822F00102E1
:10A980001A601A6822F480521A601A681A601A68EB
:10A9900042F001021A6084F8791084F8787000217E
:10A9A00095F9120052F0F8F995F91230AA7C002BB3
:10A9B00007DB02F01F0101225B098A40154941F8BB
:10A9C0002320002195F9110052F0E6F995F9113094
:10A9D0006A7C002B07DB02F01F0101225B098A4021
:10A9E0000C4941F82320BDE8F88F01316AE700BF28
:10A9F000681D0120A01D0120286B6E4E003802400A
:10AA000000001643285506080024744900007042CF
:10AA100000FFFF0000E100E0BEF10F0F90D0F14613
:10AA200003E700BF0248C3690BB10C3018477047F9
:10AA3000000001200248036C0BB13030184770470A
:10AA4000000001200248436E0BB154301847704794
:10AA5000000001200348D0F888300BB17830184747
:10AA6000704700BF000001200348D0F8AC300BB1A4
:10AA70009C301847704700BF000001200348D0F801
:10AA8000D0300BB1C0301847704700BF0000012024
:10AA90000348D0F8F4300BB1E4301847704700BFDA
:10AAA000000001200348D0F8183113B100F584707C
:10AAB00018477047000001200348D0F83C3113B11B
:10AAC00000F5967018477047000001200348D0F841
:10AAD000603113B100F5A8701847704700000120DD
:10AAE0000348D0F8843113B100F5BA7018477047A5
:10AAF000000001200348D0F8A83113B100F5CC7054
:10AB000018477047000001200348D0F8CC3113B13A
:10AB100000F5DE7018477047000001200348D0F8A8
:10AB2000F03113B100F5F0701847704700000120B4
:10AB30000348D0F8143213B100F50170184770477C
:10AB4000000001200348D0F8383213B100F50A7034
:10AB5000184770470000012001380A4B70B500EB20
:10AB6000C000094C0E46154604EB8004E06898428C
:10AB70000CBF9520962050F0E5FC84F8286084F8FE
:10AB8000295070BD006002400000012001382DE90D
:10AB9000E84100EBC000124D1E46124B05EB80054C
:10ABA00090460F46E86898420CBF9520962050F0DA
:10ABB000C9FC95F921004FEA9811EF616E6252F0DD
:10ABC000EBF895F92130002B07DB03F01F00012281
:10ABD0005B090549824041F82320BDE8E88100BFB8
:10ABE000000001200060024000E100E02DE9F04F8C
:10ABF000B94B97B0DFF8FC82002593F83D73A8F2BB
:10AC00005C7BB64B0193DFF8F092DFF8F0A24E4682
:10AC1000B30AA3F58013522B57D85B4493F8043240
:10AC20000D2B52D85B44012F93F9584240F04081DC
:10AC3000012C41D14FF000094946204616F0C8F9D1
:10AC400016F020FA90F800C0BCF1000F18BFBCF15C
:10AC5000540F14BF4FF0010C4FF0000C40F0248152
:10AC600009F104091FFA89F9B9F1100FE4D1002D97
:10AC700000F0DC80994A00210FE05B4493F8043235
:10AC80000D2B11D85B4493F95832A3420FD00131F8
:10AC900002F58672A94280F2C580906803689B0A1B
:10ACA000A3F58013522BE8D90023A342EFD14379B7
:10ACB0009AF805009842EAD1D04510D05AF8206F92
:10ACC000B30AA3F58013522BA7D9012FF4D0012387
:10ACD0000024022FAED1002BACD0D045EED1019B89
:10ACE000013503F58673042D01938CD17C4B4FF015
:10ACF0000109DFF80CB20193A3F29443ABF1080809
:10AD0000049309F1FF33D8F804209A4240F3878076
:10AD1000DBF80C60002E00F0BB833168B38801F1D2
:10AD20003F41B3FA83F301F57E01C3F11F0A890A9B
:10AD3000D8F82451002D40F30081684B002405E031
:10AD4000013403F58673AC4200F0F4801A688A423D
:10AD5000F6D14FF48673614ACBF804A003FB0424B8
:10AD60005FFA89F3CBF8184016B1F3710323B3717E
:10AD70004FEA4A030322012502FA03F1A26C05FA05
:10AD800003F30A43A264226D1343236598F800304D
:10AD9000002B00F09280636D05FA0AF52B43636582
:10ADA0009EB13368B2889A614B4B3046002293F8CB
:10ADB0005213490141F0090101F0E90114F090FC3E
:10ADC00098F80030002B00F09F80D4F8AC30AEB281
:10ADD00000202D0403F1C0011A680C3343F8080C5D
:10ADE0002A4343F80C2C53F8042C324343F8042C28
:10ADF0009942F1D1204609F10109FDF7A9F9012392
:10AE0000019AB9F1090F8BF81C300BF1200B0BF8EC
:10AE1000033C537402F1180301937FF472AF17B02F
:10AE2000BDE8F08FBCF1000F7FF446AF504614F040
:10AE3000AFFB9AF80540C3B2022B00F22D83431CEE
:10AE4000284A5BB203EB43039800274B03F572716A
:10AE500004E0994200F0208353F82C2FB242F8D13D
:10AE60001A79A242F5D11A58002AF2D0944600234A
:10AE70001E4A51680133614513D0102B02F12402A0
:10AE8000F7D14FF0FF3303EBC303194A02EB8303FF
:10AE900093F82830002B7FF40FAF019BC3F808A074
:10AEA0001DE7DBB2013BEEE7002D7FF4E3AE03E7E5
:10AEB000B4F1080318BF01230BE70AF1100305FAE8
:10AEC00003F2636D13436365E6B1B38805FA0AF5CF
:10AED00032681B04936167E7681D01205805002054
:10AEE000141C002000000140905706080C000120AF
:10AEF00000000120845C060800040140845B060811
:10AF0000CC00002005FA0AF5D4F8AC30AEB200202F
:10AF10002D0403F1C0011A680C3343F8080C3243C6
:10AF200043F80C2C53F8042C2A4343F8042C994280
:10AF3000F1D15FE7032C00F3C1804FF486738F4893
:10AF400003FB05F208EB020384180392D3F89C2458
:10AF5000002A00F091821068C3F894140131039A1A
:10AF600083F89D1592108649376801FB02F28C2107
:10AF7000C3F89874C3F88C15049F02FB01F102EB2F
:10AF8000420207EB4101C3F888157E4901EB8212AA
:10AF90009BF81010C3F840255422069183F89C2595
:10AFA0006A1CC8F824213022C3F84425764B93F854
:10AFB0005123D3F81033062A00F02782072A734F53
:10AFC000734A744914BF71271146734A04BF3A4645
:10AFD0001C27C8F828714FF48677B3FBF2F2B3FB55
:10AFE000F1F307FB0587591E039B013AA7F84815A3
:10AFF00003F15801614B92B219440023A7F80025D0
:10B000002266A4F858306366E36554F0C5FED7F8AD
:10B010009C2410680292036843F080030360537914
:10B020000C2B08D8DFE803F0750707076D07070743
:10B03000640707075B004FF4867303FB0583D3F8AF
:10B04000A0146022036800274FF0020E0E924FF406
:10B05000807223F0010310971492012213970F922C
:10B060000A221597CDE9112E0EAA036054F052FD65
:10B070004FF4867303FB0583D3F8A024029B012AB7
:10B080001B684ED0042A4CD0102A00F0F081402AD0
:10B0900047D0B2F5807F00F0F481B2F5806F00F008
:10B0A000F081B2F5805F00F0EF81B2F5803F4FF0A4
:10B0B0003C070CBF08224FF4006233E00323324AFE
:10B0C00082F85033354B36483649374AC3F8400A80
:10B0D000C3F83C1AC3F8482A17B0BDE8F08F4FF404
:10B0E00086734FF4805103FB0583C3F8A014A8E7CF
:10B0F0004FF486734FF4807103FB0583C3F8A014EB
:10B100009FE74FF48673102103FB0583C3F8A01457
:10B1100097E74FF48673012103FB0583C3F8A0145E
:10B120008FE7082203F11801C8590243CA51029A55
:10B130001079002840F06D814FF4867303FB05837E
:10B14000D3F89C341F68184602933B6843F0010310
:10B150003B6014F01DFA029B93F805E0C3B2022B8A
:10B1600000F29A8100F1010C104A114900234FFAB4
:10B170008CFC0CEB4C0C4FEA8C0C21E058050020A9
:10B180006B4CA40780140020681D012040771B0031
:10B190001055220044950800D0DD0600BC110020A7
:10B1A00059D7010855D7010861D7010890570608FB
:10B1B000000001400133172B00F06E8152F82C1F64
:10B1C000B942F7D111797145F4D152F80C10002928
:10B1D000F0D02C2200EB400002FB03F3B14A03EB5A
:10B1E0008003B1481344D3F878224FF4867303FBED
:10B1F0000583C3F8AC240022C3F8A81443680132C5
:10B200008B4200F03081102A00F12400F6D1002397
:10B210004FF0FF370793A54B07EBC707A44803EB95
:10B2200087074FF4867303FB0583FA6893F89D350F
:10B2300082420CBF95209620059350F083F9059B20
:10B2400087F82930542387F82830029B994F5B797F
:10B250000C2B97BF934A002102EB4303B3F88417EA
:10B26000029B18684FF4867303FB0583A3F8A414AC
:10B27000002306E0904200F0FD800133042B00F033
:10B280000E8157F83320002AF4D1D8F8C42D0132AA
:10B29000C8F8C42D08EBC302DB00C2F8C80D1F4478
:10B2A000079823469022B7F804C041EA0C01B98000
:10B2B00000278149FFF76AFC60694FF486734FF4F9
:10B2C00040324FF4804C03FB0585036843F01003C4
:10B2D0000360036843F014030360C4F8A870C4E972
:10B2E0001F77C4E92877D5F8AC34C4F898204022F9
:10B2F000C4F894300423A267C4F89C304FF48063F0
:10B30000C4F88430D5F844256C4BC4F89020C2B200
:10B31000D5F8981420F0FF00103A18312167A3FBEC
:10B3200002214FF48052664BC4F888200909039A21
:10B3300070321A44D5F84035C4F88CC0636754F0B5
:10B3400063FED5F8A804039A4FF4003E01684FF459
:10B35000006C5B4BB832216241691A444FF4806340
:10B3600061624168A1628168E162C168C4F8C87025
:10B37000C4F8F0702163C4E93077C4E93A77042750
:10B38000D5F8AC14C4F8CC30C4F8E470C4E9371E66
:10B39000D5F88C354949C4F8D830C3B220F0FF0045
:10B3A000103BA1FB0331D5F89834C4F8D0C010335A
:10B3B000F9404FF48047C4F8B830D5F88835C4F860
:10B3C000D470C4F8BC3054F01FFED5F8A8245FFA3E
:10B3D00089F3116861635169A1635168E163916800
:10B3E0002164D1686164116841F010011160116835
:10B3F00041F014011160069ACBF804A08BF81020DC
:10B40000CBF80C60CBF81840AFE42E4938272E4A11
:10B41000DFE5059314F03EF9059B0746F0B103689C
:10B420002A4A9A181F4B03EB922393F87C07029B3E
:10B430001B7A059350F086F8059B08A9BA880D93EE
:10B44000002338680C930892CDE90A33022309934C
:10B4500054F026FD5423FB80029B1B685A6C42F477
:10B4600000425A6468E6D3B25F1E0793D3E64FF4F6
:10B47000006257E6DB0012E70223154A82F85033D8
:10B4800020E6082204274DE64FF40062042749E62F
:10B490004FF0FF3A51464BE400235B68FFDE002388
:10B4A0009B88FFDE285506080C00012000000120C3
:10B4B000006002408C0E002031800008ABAAAAAACE
:10B4C00058050020882A1100A0BB0D000000FEBF17
:10B4D000681D0120064A002351680133243281424D
:10B4E00003D0102BF8D100207047D8B2704700BFAE
:10B4F0000C0001202DE9F041834DC0EB001605EB57
:10B50000C606D6F85433002B00F0BC800446070171
:10B5100096F8C40350F016F896F8C433012203F0ED
:10B520001F015B09013B8A40032B0AD8DFE813F0B7
:10B53000E0000400E600DA0074494B6A23EA0202E4
:10B540004A623B1B04F1010805EBC3035FFA88F86C
:10B5500093F8580314F09EF818B1122380F807806E
:10B5600083713B1B05EBC30393F8590314F092F866
:10B57000064618B1132380F8078083713B1B05EB47
:10B58000C30393F85A0314F085F818B1142380F814
:10B59000078083713C1B2E21304605EBC40494F8D0
:10B5A0005C2314F0C3F894F85A0314F073F894F879
:10B5B0005D230E2114F0BAF894F8580314F06AF8D9
:10B5C00094F85B232E2114F0B1F8D4F85433504989
:10B5D0001A688B4222F040021A6055D04D4A9342BD
:10B5E00069D002F58062934258D1484A116A41F409
:10B5F00000411162116A21F4004111625A6842F45B
:10B6000080525A601A68520634D443491E68D1F8F1
:10B610006042D1F86C02D1E99325B0F5005F42EAAF
:10B620000502D1F8585242EA0502D1F85C5242EACA
:10B630000502D1F8645242EA040242EA0502D1F856
:10B64000685242EA0502354D42EA000205EA060563
:10B6500042EA05021A60D1F854225D6842EA1442B7
:10B660002F4C04EA050442EA04025A6002D1B1F800
:10B6700070221A61DA6922F40062DA611A6842F013
:10B6800040021A60BDE8F081204A516A41F48051BD
:10B690005162516A21F480515162AFE7214A9342CD
:10B6A00013D11A4A516A41F400515162516A21F48E
:10B6B00000515162A2E7154A116A41F480411162BA
:10B6C000116A21F48041116298E7174A934295D19B
:10B6D0000E4A516A41F480115162516A21F480117D
:10B6E00051628BE709490B6923EA02020A6128E7E4
:10B6F00006494B6923EA02024A6122E703490B6AC1
:10B7000023EA02020A621CE7681D01200038024099
:10B710000030014000380040000001204000FFFFE1
:10B72000FBF0FFFF0034014000500140027A124B51
:10B730000168134493F8A03710B4CC58CA1824F009
:10B740000104CC501368DB07FCD4037D1F2B09D9FF
:10B75000203B20225DF8044B02FA03F343F0180368
:10B76000CB60704720225DF8044B02FA03F343F0EC
:10B7700018038B60704700BF28550608F8B583682A
:10B78000054607681BB19A88196812048A61D7E9CF
:10B790000464A561337D1F2B3ED9203B20223068F5
:10B7A00002FA03F343F01803C360237D1F2B3DD936
:10B7B0002022203B02FA03F3226843F01803D360EF
:10B7C0006368002271680A601A601A6842F0100209
:10B7D0001A60BA69317A54F017FCFA69217A206844
:10B7E00054F012FC327A154B29681A4436684968BD
:10B7F00092F8A0572068725942F001027251227AE1
:10B80000134493F8A027835843F0010383504B68F7
:10B8100043F003034B60F8BD2022306802FA03F3C3
:10B8200043F018038360237D1F2BC1D8202202FA26
:10B8300003F3226843F018039360C1E72855060814
:10B840002DE9F047056886B0A54B06466F689F4214
:10B8500000F03381A3F578439F4200F04B8103F55C
:10B8600080639F4240F04881022296F88840296216
:10B8700001213B68B08823F0400385F824103B6029
:10B880002B89834240F0F38096F80C80AB7A4345D5
:10B8900039D0C2EB0212934B03EBC20A9AF8580359
:10B8A000B8F1000F40F0B68013F0F4FE814600B30B
:10B8B00003688D4A9AF85BA31A448C4B03EB9223DE
:10B8C00093F87C074FF03EFEB9F804304FF0020CBD
:10B8D000D9F80000009303236946CDF80C80CDF819
:10B8E00014A0CDE901C30123049354F0D9FA96F8CA
:10B8F0000C803B6843F001033B603B6843F002036C
:10B900003B6085F80A803B6843F040033B602A6A4D
:10B910009368E3B10020764F844651689C4414320A
:10B92000013001EA070E0B4321B1BEF1005F01D0E7
:10B93000D9060CD19368002BEFD12B7B3BB134B1EE
:10B94000012800F2B180BCF1080F00F2AD802B6A33
:10B950009B68002B48D0B3681BB19A881968120401
:10B960008A612C6A6A68296A286A5368876823F49E
:10B9700080532468012F4868536014DD394693686A
:10B980009B07FCD5002C34D034F8023B938193689C
:10B99000DB07FCD5D36808B120F8023B0239012946
:10B9A000EDDC07F00107536843F48053536067B13F
:10B9B00093689907FCD5002C74D02378137393688F
:10B9C000DB07FCD5D36800B103702B6A1B7BD3B9AE
:10B9D0002B6A1B699BB12B6AD6F894001B699847A8
:10B9E000012809D002280AD100232B6206B0BDE845
:10B9F000F0874FF6FF73C9E72B6A143B2B622B6A63
:10BA000014332B62A3E7B368002BE1D01A689B883C
:10BA10009361DDE713F03EFE8146F8B10368324AD8
:10BA20009AF85B831A44314B03EB922393F87C071B
:10BA30004FF088FDB9F80430D9F800004FF0030E3C
:10BA4000009302236946CDF81480019304930023E8
:10BA5000CDE902E354F024FA96F80C803B6823F019
:10BA600001033B603B6823F002033B6049E7C0F3FE
:10BA70004F03B3F5807F3968A8BF4FF4807321F07E
:10BA80003801022BB8BF0223002B93FAA3F3B3FAB9
:10BA900083F308BF4FF0FF33013B41EAC3033B6030
:10BAA0002881F1E6FF2389E73068002155F0C0FCCA
:10BAB000304606B0BDE8F04760E6002296F88840C0
:10BAC000296201213B6885F8241023F0400329896D
:10BAD0003B60B38899423FF4D7AE1846C9E700BF30
:10BAE00000300140681D01200000FEBF28550608F7
:10BAF0000000FFFF0122B8E64FF0FF32DEE700BF93
:10BB000070B586698CB033691B6A13B100200CB024
:10BB100070BD174D04460B9306F11000029501907D
:10BB2000CDE90633CDE9083301238DF814308DF8C3
:10BB3000283005F1080303930723049312F064FEF1
:10BB400002A90198FFF77CFE3269136A002BFCD131
:10BB5000B5F809100120B5F80B20B5F80D3049BA39
:10BB600052BA5BBAE181228263820CB070BD00BF21
:10BB70000000002003691B6A0BB100207047194ABE
:10BB800010B502F108018CB0044610300292012277
:10BB9000039107218DF814208DF828200B93019034
:10BBA0000491CDE90633CDE9083312F02DFE02A948
:10BBB0000198FFF745FE2269136A002BFCD10A4B5E
:10BBC0000120B3F81910B3F81B20B3F81D3049BA9F
:10BBD00052BA5BBAA4F8D010A4F8D220A4F8D4309A
:10BBE0000CB010BD100000200000002030B5154939
:10BBF0008DB00446002301F108000291A5690821D7
:10BC000001220B93CDE9030105F110008DF81420FA
:10BC10008DF828200190CDE90633CDE9083312F0E4
:10BC2000F3FD02A90198FFF70BFE2A69136A002BA6
:10BC3000FCD1054B01205A8DDB6AE28123610DB0F6
:10BC400030BD00BF2000002000000020F0B590F8BB
:10BC5000DE308DB00446012B2ED03B49002301225B
:10BC6000103001F108050B938DF814208DF8282071
:10BC70000190CDE90633CDE908330823CDE902155B
:10BC8000049312F0C1FD02A90198FFF7D9FD2269C2
:10BC9000136A002BFCD12D4A0127B2F85200B2F8EA
:10BCA0005410B2F85620A4F8D000A4F8D210A4F88A
:10BCB000D42038460DB0F0BD254A00F110050A2009
:10BCC0008DF8143002F10C018DF828300023049017
:10BCD00028460B93CDE90221CDE90633CDE908339F
:10BCE00012F092FD02A92846FFF7AAFD2269176A01
:10BCF000002FFCD11549CA8F052A1ADDB1F8403052
:10BD0000063AB1F944000E6CB1F9421011F5004F3A
:10BD100008BFB3F5004F14BF0123002310F5004105
:10BD200018BF012151EA03071CBFC4F8D060A4F872
:10BD3000D400002ABDD02846B0227E2112F0AAFDF0
:10BD400038460DB0F0BD00BF4800002000000020C4
:10BD500030000020014B43F820107047502800406D
:10BD60001D4B1E48196C1E4A41F0805130B41964B5
:10BD700082B0196CFF2401F0805101910199016892
:10BD800041F480710160CA20196C41F4806119642A
:10BD9000196C01F4806100915321009D546250623E
:10BDA00051625B6FDB000DD40E4B00220E490F4831
:10BDB0005A609A60DA601A615A61C1F8500802B09C
:10BDC00030BC7047084A094BD2F850289A42EBD150
:10BDD00002B030BC704700BF003802400070004025
:10BDE0000028004050280040002000403166654295
:10BDF000800AA0F58010522809D8064B184490F804
:10BE000004220D2A03D8134493F9580270470020E6
:10BE1000704700BF28550608F0B50446D0F89400D6
:10BE2000434B83B0A16804F1640204F118070E6863
:10BE3000C1B220F0FF0001921039A3FB01310909C2
:10BE400054F02CF9616D0023019A012984F85830CF
:10BE500018D0042916D0102955D0402912D0B1F598
:10BE6000807F53D0B1F5806F50D0B1F5805F55D051
:10BE7000B1F5803F4FF03C030CBF6FF0080C6FF43E
:10BE8000006C01E06FF0080C06F118053046E95827
:10BE900001EA0C01E950616D53F03CFE636D012B2A
:10BEA00016D0042B14D0102B0FD0402B10D0B3F58C
:10BEB000807F2FD0B3F5806F2CD0B3F5805F31D069
:10BEC000B3F5803F06F1540502D04FF4006100E065
:10BED00008212B683A46D4F894000B4340212B608C
:10BEE0002162C1B2124B20F0FF001039A3FB0131D7
:10BEF000090954F089F8D4F89420136843F010032A
:10BF0000136003B0F0BD6FF4006CBDE76FF0080C78
:10BF10000423B9E706F11C050821DAE76FF4006C89
:10BF20000423B1E706F11C054FF40061D1E700BF1F
:10BF3000ABAAAAAA2DE9F04FDFF88CA29AF800402C
:10BF40002DED028B87B034B90124204607B0BDEC3B
:10BF5000028BBDE8F08F954BDFF870B2D3F89C32BE
:10BF600008EE103A13F01AFF9BF8443B0390002BA5
:10BF700000F018810AF6C4070AF582630AF598747E
:10BF800000263D4601930597DBF8C032039AD31A89
:10BF900003D4EA6D9A4200F3EE8006EB86030AEBC7
:10BFA000431393F81C3903F0FF020292002B61D077
:10BFB000D5F89410AB687E481A68CBB221F0FF0127
:10BFC000103BA0FB03037B481B09C35C19444B686F
:10BFD000A9891FFA83FCD368CCF1160C23EA01036C
:10BFE000BCF1070FD36045D9DAF8183400220121DB
:10BFF000013396468946CAF81834D5F89C301F4656
:10C00000049357F8048B40461CE0D7F80080BEF13B
:10C01000140FA8EB0003404657DC13F1080848BF93
:10C0200003F117084FEA28130EEB281E03F1FF381F
:10C03000013102FA03F3043709FA08F28C4542EAA7
:10C04000030242D38C45E0D8CEF1150338684FF097
:10C05000150EEBE7DAF814340133CAF81434002E65
:10C0600000F0908000230293029918EE102A2046D7
:10C0700012F06CFB019B284601365C340433A0357A
:10C080000193FFF7C9FE9BF8443BB3423FF77CAFF7
:10C090000022059FCBF8C022002B3FF455AF03EBE5
:10C0A000830307EB43133A7CA03757F84C0C12F08C
:10C0B000020F57F8982C11680A6A14BF42EA8002EE
:10C0C0000243BB420A62EED13EE7BEF1150FC1D179
:10C0D0003949C2F38423C2F3441001EB830301EB1B
:10C0E0008000D3F8A837D0F8A8071B0243EA001352
:10C0F00002F01F00C2F3C43201EB800001EB8202A8
:10C10000D0F8A817D2F8A8270B4343EA023383EAF2
:10C11000132282EA121202F00F020F2A9AD140F67D
:10C12000FF711A09B1EB131F39D0C2F308025B0B80
:10C1300012FA03F38ED0214A4FF6FF7102EB53023D
:10C14000B2FBF3F39AB28A4284D00199032E8A811A
:10C150004FF001028A7387DC144A92F8A0222D2A3C
:10C1600082D1174A2046029922F8163018EE102A7A
:10C1700012F0ECFA7EE70024204607B0BDEC028BFB
:10C18000BDE8F08F049958220E4858F0E5FF02965A
:10C19000029918EE102A204612F0D8FA6AE7002316
:10C1A0001A46D2E7CBF8C032CFE600BF681D0120A7
:10C1B000ABAAAAAAC85C060828550608C027090029
:10C1C0000C20012000050020C4000020BC1100202C
:10C1D000830AA3F58013522B45D8F0B50446614875
:10C1E00085B0034493F804020D283AD85E4D8601C9
:10C1F00005EB8013D3F83475A74232D00139C3F868
:10C20000344589B2C3F84015D5F81013B1FBF2F2EA
:10C21000013AC3F8382505F2345202EB80100022AF
:10C22000C3F84425C3F83C25C3F8482549F072FCFF
:10C230004E4B9C4218D0B4F1804F15D0A3F57C43EF
:10C240009C422CD003F580639C4228D0484A03F5D9
:10C250007C439C4218BF944260D003F570539C42CB
:10C260005CD005B0F0BD704700234FF48051AA198F
:10C27000CDE9001392F870150129CDE90233F0D011
:10C280000221D2F83405012482F8711539498768F2
:10C290003940816082F8714582F8703519E00022DA
:10C2A0004FF48051AB19CDE9001293F870150129B4
:10C2B000CDE90222D5D00221D3F83405012483F838
:10C2C00071152C4987683940816083F8714583F87E
:10C2D00070250023AA19CDE90033029392F8703536
:10C2E000012BBED0D2F834350221204882F87115D6
:10C2F00083425A68996832D000F5806083422ED01C
:10C3000022F0700221F08001354401205A609960CA
:10C31000002385F8710585F87035A2E700214FF4F8
:10C320008053CDE90031AB1993F87025012ACDE98E
:10C33000021196D0D3F83405022283F871250D4AF4
:10C3400087683A4082600C4A83F870150121944254
:10C3500083F87115BDD0064B9C4282D1B9E722F417
:10C360007002CDE728550608681D01200000014035
:10C37000000C00408800FEFF0004014070B5044638
:10C380000068830AA3F58013522B05D82E4E334440
:10C3900093F804520D2D00D970BDFFF719FF2B4BF8
:10C3A000A801022203EB8515D5F8341585F871250F
:10C3B000274A8D682A40062A06D0B2F5803F03D06E
:10C3C0000A6842F001020A60034401202168214A00
:10C3D00083F871050023204801E050F83320914292
:10C3E0000AD001330E2BF8D10121002050F0D4FCEB
:10C3F0001A4B01221A6070BD06EBC303012193F9A9
:10C400002D4893F82D68204650F0C6FC002CC3DB65
:10C4100006F01F0301216409104D01FA03F31B2EDE
:10C4200045F8243008D02E2EB6D12C2050F0B4FC84
:10C430004FF480536B6070BD192050F0ADFC4FF08D
:10C4400000732B6070BD00BF28550608681D0120D1
:10C450000700010000000140505D060800E100E017
:10C4600003689B0AA3F58013522B52D870B5384C41
:10C47000234493F804420D2C4AD8407983080029BC
:10C4800048D04FEA900C334804EB840503EB450396
:10C4900000EB8415D5F83465022505FA0CFCF56827
:10C4A0004CEA050500EB830CCCF8F418CCF8042911
:10C4B000F560A601A5002B19D900274B01F1200C2E
:10C4C0009C44EFF3118E502282F3128801F1100286
:10C4D0001A4420330B4452F8041B19B1CCF8001055
:10C4E00001F1040C9342F6D100235FFA8EFECCF8E2
:10C4F00000308EF311882C4400EBC4043044D4F88F
:10C500001439D0F83425F3B1D36843F00103D36074
:10C5100070BD70470F48022505FA03FC00EB841537
:10C52000D5F8346504EB840503EB4503F56825EA8B
:10C530000C05F56000EB8305A601C5F8F418C5F8F5
:10C540000429A500B7E7D36823F00103D36070BDC9
:10C5500028550608681D01205C2601200149024873
:10C56000FCF7BABB5C2601200000014010B5064C68
:10C57000064804F6F401FCF7AFFB04F65C2104481E
:10C58000BDE81040FCF7A8BB681D01200000014079
:10C590000044014002494FF08040FCF79DBB00BFC2
:10C5A0008426012001490248FCF796BBAC260120F5
:10C5B0000004004001490248FCF78EBBD42601204C
:10C5C0000008004001490248FCF786BBFC26012018
:10C5D000000C004001490248FCF77EBB7427012093
:10C5E0000004014010B5064C064804F60C21FCF787
:10C5F00073FB04F6D4210448BDE81040FCF76CBB83
:10C60000681D012000040140001C0040014902484F
:10C61000FCF762BB9C270120004001400149024811
:10C62000FCF75ABBEC2701200048014001490248B1
:10C63000FCF752BB14280120001800402DE9F04FF0
:10C640004FF4167295B00021814858F0F9FD814BE6
:10C65000814F4FF080415A6C07F12004B94642F0F7
:10C66000010207F51E65A246DFF8F4815A64A7F1BE
:10C6700070065A6C02F001020092009A1A6C42F0A5
:10C6800001021A641A6C02F001020192019A1A6CFA
:10C6900042F002021A641A6C02F002020292029A3A
:10C6A0001A6C42F004021A641A6C02F0040203923B
:10C6B000039A1A6C42F008021A641A6C02F008021B
:10C6C0000492049A1A6C42F010021A641A6C02F076
:10C6D00010020592059A1A6C42F020021A641A6C34
:10C6E00002F020020692069A5A6C42F002025A6444
:10C6F0005A6C02F002020792079A5A6C42F4803296
:10C700005A645A6C02F480320892089A5A6C42F4C5
:10C7100000325A645A6C02F400320992099A5A6C37
:10C7200042F480225A645A6C02F480220A920A9AD5
:10C730001A6C42F040021A641A6C02F040020B922A
:10C740000B9A1A6C42F080021A641A6C02F0800292
:10C750000C920C9A1A6C42F480721A641B6C03F4EB
:10C7600080730D930D9B4246002301E056F8332061
:10C770008A420CD001330E2BF8D10AF1200A002096
:10C780004EF0E0FE55450DD05AF8201CEBE7334A39
:10C790000AF1200A02EBC30393F82C084EF0D2FEF4
:10C7A0005545F1D107F51C67DFF8B0B0DFF8B8A048
:10C7B00009F120094F4526D099F80630002BF7D013
:10C7C00099F8040012F066FF06460028F0D00368CE
:10C7D00009F1200919F8188C53440BEB932393F8B3
:10C7E0007C074EF0AFFEB288306800230E92022222
:10C7F0000EA9CDF84C80CDE90F23CDE9113353F0CC
:10C800004FFB4F45D8D14FF08041154F154E3A465A
:10C81000002301E056F833208A420BD001330E2B5F
:10C82000F8D1203400204EF08DFEAC420CD054F8EC
:10C83000201CECE7094A203402EBC30393F82C08D0
:10C840004EF080FEAC42F2D115B0BDE8F08F00BFD3
:10C850005C26012000380240C05D06082855060805
:10C8600000000140505D06080000FEBF70B50320C7
:10C8700082B0FDF751FD01284DD0334C0025334ADD
:10C880000523C4F89850C4F89C50C4F8A020C4F8FC
:10C890009430BFF34F8FBFF36F8F4FF6FF01E26805
:10C8A0002B4B0A402B4E13432B4AE360536FC6F8C1
:10C8B0004C3B48F095FE294B2949A3FB0023D4F8B3
:10C8C000FC209B0C42F08072C4F8FC20C6F8503B60
:10C8D000D6F81033234AA1FB031323499B09C2F85E
:10C8E000B01F5560013B1168B3F1807F41F0010139
:10C8F000116008D24FF0E022F0215361072384F841
:10C900002310956113614FF0E022136943F0040393
:10C91000136102B070BD00210320FFF71BFA0E4B1C
:10C9200012485A6C124942F480425A645B6C03F418
:10C9300080430193019A02680B68026083F30888C0
:10C940004B689847FEE700BF00ED00E01B000006C3
:10C950000005FA05681D01200038024083DE1B43F4
:10C96000D34D6210001000E055CEACC50038014038
:10C970000000F01FD0F82011242200232DE9F041FF
:10C98000C0F8942104460A68806804F5907522F086
:10C9900001020A600B604B608B6094F805C0C4F81C
:10C9A00034314FEA8C22C4F89C3184F8903102F47F
:10C9B0008052C4F89431C4F83831C4F828214FEAC1
:10C9C0000C32C4F8983102F40052C4F84031237993
:10C9D000C4F82C214FEA0C22C4F8240113F0010002
:10C9E00002F48062C4F830211CBF0422C4F8342150
:10C9F00013F002031EBFD4F8342142F00802C4F839
:10CA000034211CF0010F0DD048B1D4F8442142F07C
:10CA10000202C4F844214FF48032C4F84C21002BA8
:10CA200040F0FF80A64B03F1200053F8042F9442FE
:10CA300000F0BD809842F8D11CF0080F40F0CD8086
:10CA4000D4F89431002B00F0128124232846C4F836
:10CA500094310B6823F001030B6049F049F9012878
:10CA600015D0D4F84431002B40F01481D4F8203193
:10CA700028465A6822F490425A609A6822F02A02A4
:10CA80009A601A6842F001021A6053F0F5FB2379AC
:10CA9000DA0761D5D4F8FC20002A00F0D580002305
:10CAA000D4F8041104F13C06E263A3644FF48062FD
:10CAB0003046E264C4E91013C4E91433C4E91833FE
:10CAC000C4E91A334FF48033E3654FF48073A365F0
:10CAD00053F018FD304648F0FDF9D4F89881C4F8B9
:10CAE0008C61B8F1200F656731D1E368626999B252
:10CAF0006AB3B1FA81F77F0949B394F8900101282C
:10CB000025D030460126C4F89C710B4684F890610C
:10CB10002226A4F87811C4F898616A4ED4F820113E
:10CB2000A667694E2431C4F87421E667674EC4F8DD
:10CB30008C70C4F8886048F06BFA002800F0AE8072
:10CB4000102384F89071C4F89C31C4F89481E26B8E
:10CB500023795268C4F814219B0773D5D4F80021B7
:10CB6000002A69D00023D4F8081104F19C06C4F807
:10CB70009C20C4F8A8304022C4F8B8303046C4E93C
:10CB80002C33C4E93033C4E932334FF48033C4F872
:10CB9000BC304FF48063C4E92812C4F8AC3053F0C1
:10CBA000B1FC304648F096F9002863D0FEE7002C2F
:10CBB0003FF442AF94F8B831002B3FF43DAFD4F8C6
:10CBC00044311CF0080F43F00803C4F844314FF41B
:10CBD0000043C4F854313FF433AFD4F89431002B00
:10CBE00051D024232846C4F894310B6823F0010364
:10CBF0000B6049F07DF801283FF449AFD4F8443187
:10CC0000002B43D1D4F8203128465A6822F49042B0
:10CC10005A609A6822F022029A609A6842F00802EA
:10CC20002EE7D4F8443143F00103C4F844314FF403
:10CC30000033C4F84831F5E6D4F8A021136843F076
:10CC400080031360BDE8F081D4F8A021116841F49D
:10CC500080711160916841F001019160116841F0AB
:10CC600020011160116841F01001116074E784F82F
:10CC70009031EAE6D4F89C30C4F88861C4F8D45006
:10CC80005860BDE8F08184F89031AAE7284649F061
:10CC9000E9F9B7E7284649F0E5F9E7E6D4F82031A5
:10CCA00084F890011A6842F480721A609A6842F01F
:10CCB00001029A609A6842F040029A6047E700BF1A
:10CCC000081D0020C91B0508F91B0508FD1B0508E8
:10CCD000F8B5EFF31185502383F31288D0F80031B3
:10CCE0001B6813F0010303D0EDB285F31188F8BD82
:10CCF000D0F894210446D0F898110A4302F021029A
:10CD0000212AF1D0D0E90901884252D09CBF226982
:10CD10001846D4F894718CBF431A531A0022202F5E
:10CD2000A0629BB284F8A421DED1A2695118DBD0A5
:10CD3000B3FA83F67609002BD6D094F89021012A15
:10CD4000D2D00122D4F88801A4F8723184F890215D
:10CD50002122C4F89C61C4F86C11A4F87031C4F8A5
:10CD60009421D0B1DFF854C0D4F82021C0F83CC0E1
:10CD7000DFF84CC028320665C0F840C0DFF844C078
:10CD8000C0F84CC048F044F938B1102384F89061E1
:10CD9000C4F89C31C4F89471A6E7D4F8203100227D
:10CDA0004021196284F890219A6842F080029A60CA
:10CDB0009AE7012384F8A43196E700BFA11B050878
:10CDC000C51B0508FD1B0508F8B5D0F82031044641
:10CDD000DA69910615D5586AE36AC0B2002B00F0F3
:10CDE000D580216B9847D4F820311A6822F48072DC
:10CDF0001A609A6822F001029A609A6942F0080269
:10CE00009A61DA69D20701D501221A62DA699707B5
:10CE100001D502221A62DA69560701D504221A6284
:10CE2000DA69150701D508221A62D4F8002152B335
:10CE3000D96949060AD4DA69D20606D5626B12B1FD
:10CE40009047D4F8203110221A62F8BDD96904F550
:10CE500090701E680F079D682DD18F0602D5B5060C
:10CE600000F1C8800F0602D5350600F1B3804806F0
:10CE700002D5710600F1A38012B12046FFF728FF0A
:10CE8000D4F82031D7E7D9690806D1D5D4F8941160
:10CE90002129CDD0D4E90901814200F0A480A06904
:10CEA000405C0131C0B298622069B1FBF0F500FB33
:10CEB0001511A162BCE705F0010506F4907C5CEA5F
:10CEC0000507CFD0CF0709D5F70507D501271F6282
:10CED000D4F89C7147F00107C4F89C718F0761D4A6
:10CEE0004F0708D53DB104271F62D4F89C7147F065
:10CEF0000207C4F89C710F070CD506F0200C5CEA01
:10CF0000050507D008251D62D4F89C5145F0080599
:10CF1000C4F89C51D4F89C51002DADD08D0607D596
:10CF2000B10605D5D4F8802112B19047D4F820314C
:10CF3000D4F89C119A6801F0080102F040021143F4
:10CF400068D01A682020002122F490721A609A6832
:10CF500022F001029A60C4F898019A68C4F880111E
:10CF6000520610D59A68D4F88C0122F040029A60DB
:10CF700048B190F835302A4A022B02653FD0802311
:10CF8000436544F06BFED4F8002175E7E3696269FC
:10CF9000D054E369E2680133B3FBF2F102FB1133D1
:10CFA000E36120E7002DA6D002271F62D4F89C7110
:10CFB00047F00407C4F89C714F079CD593E71968A4
:10CFC000202021F0400119600023C4F89401C4F826
:10CFD000843151E7D4F88431002B3FF44DAF9847AA
:10CFE000D4F8002148E7A4F87221196821F08001E3
:10CFF00019601DE7D4F88031002BF0D13CE70168BF
:10D00000052380F835300B68D4F8002123F00103A4
:10D010000B6031E7D4F80021C4F89C112CE700BF65
:10D020005D1C05082DE9F04FC44C89B004EB800469
:10D03000D4F8504B002C00F08A80D4F8A8511F4639
:10D04000DFF818B390466B680646DFF81493C4F80F
:10D05000A0316B6BA16063612B6BA3616B8FE3608D
:10D060000BF5B07323602B8F23612A7809EB420301
:10D0700093F9540B53000193C3B2012B6BD9D4F82D
:10D0800000317BB3AE4900209C464B68013024310F
:10D090009C4500F074811028F7D14FF0FF394FF014
:10D0A000000AA84909EBC909A748013201EB89091F
:10D0B0005FFA82FBD9F80C3083420CBF9520962092
:10D0C0004EF040FA0B2389F829B0504689F82830F1
:10D0D000234695F82B209D49FDF758FD6B682833B2
:10D0E000C4F81831D4F8FC00002840F089806B683F
