:020000040800F2
:10000000F0FF0010812907083D9C06081D660208C4
:10001000212A0708212A0708212A070800000000D2
:10002000000000000000000000000000419C0608E5
:10003000459C060800000000499C0608014D020886
:10004000212A0708212A0708212A0708212A070848
:10005000212A0708212A07089D360208DD360208F2
:100060001D3702085D3702089D370208EDE00008E1
:1000700001E1000815E1000829E100083DE1000860
:1000800051E1000865E10008212A0708212A070834
:10009000212A0708212A0708212A0708DD37020834
:1000A000CD6102082D610208DD6102081D610208B0
:1000B000556102086561020875610208B9CD000842
:1000C000DDD20008C1CD0008E1D20008212A0708CE
:1000D000212A07085148020809490208C1490208B3
:1000E0001D380208212A0708F1A20608ED6102085E
:1000F000A5610208FD6102089561020879E1000826
:10010000212A0708E10C010885610208212A070855
:10011000794A0208314B0208B9590308ED5903081E
:100120008DE10008A1E10008B5E10008C9E100087F
:10013000DDE10008212A0708212A0708212A0708EB
:10014000212A0708212A0708212A07084D9C0608AA
:10015000F1E1000805E2000819E20008E94B020895
:10016000C9CD0008E5D20008212A0708212A07087E
:10017000212A0708212A0708212A0708212A070817
:08018000212A0708212A0708C3
:0828000000C00F0800001008E1
:1080000082B01E4B002201920193019B1C4A043353
:108010000193019B1968936803F00C03042B06D0AD
:10802000082B08D0174B184A1A6002B07047154B3E
:10803000196002B070475368506813F4800F00F065
:108040003F00536812D1C3F388130F49B1FBF0F11D
:1080500001FB03F30A4A0B495268C2F301420132A1
:108060005200B3FBF2F30B6002B07047C3F3881306
:10807000B1FBF0F101FB03F3ECE700BF5028004037
:1080800000380240A01F00200024F400074B5B686A
:10809000D0F8E410D0F8F0205B1A9A42B8BFC0F8CC
:1080A000F030012380F8F43000207047001000E029
:1080B00090F8DB30052B03D890F8F630012B01D077
:1080C0000020704790F8FB3003F0FB03022B0CBF3D
:1080D00000200720704700BFB84B00EB800103EB86
:1080E000C10170B54A685268B2F814E01EF0010F81
:1080F0004FEA800C6ED15FFA8EF4A60742D5BFF32B
:108100005F8F91F82040012CE5B200F0D180118BF7
:10811000BFF35F8F0CEB000103EBC10191F820402E
:10812000022C00F0E7800CEB000103EBC10191F899
:108130002040032C07D191F8221021B193F87D1033
:10814000002940F0E780918889B241F480619180F4
:1081500093F97C100CEB000E03EBCE0E9EF820E0A2
:108160000EF1010E8E450CD1002183F87D1093F89D
:108170007E10002940F0B780604403EBC00300226A
:108180005A7770BD65075DD414F0400400F0CB80D1
:10819000148A93F97C508E6AE4B274555FFA85FEB6
:1081A0000EF1010464B291F8206083F87C40E51C74
:1081B000AE42214600F025810CEB000503EBC5051E
:1081C00095F82050AC42C5D10EF1020149B283F8B6
:1081D0007C10BFE7B2F800E02EF4006E4FEA0E4EBE
:1081E0004FEA1E4EA2F800E01488A4B244F4806462
:1081F000148091F82240002583F87C50002C48D050
:1082000093F87D40002C41D0012183F87D100CEBC8
:10821000000103EBC10191F82010022904D111885B
:1082200089B241F4006111800CEB000103EBC10144
:10823000897F41F001011182604403EBC00393F890
:10824000203070BD91F82240012583F87E50002C2B
:1082500070D093F87D40002C71D10CEB000103EB42
:10826000C10191F82110002900F0AA80118889B27B
:1082700041F40071118093F87C1001314CB283F805
:108280007C401188CE05FCD4214663E7C97FFF29D5
:10829000BAD00CEB000103EBC1018C7F04F0FE04AB
:1082A0001482CA7FFF2AC7D0FF2283F87C20C3E74D
:1082B00091F8221000293FF42AAF93F87D1000298D
:1082C0003FF425AF118821F480610904090C118065
:1082D000BFF35F8F118B118883F87E5089B241F410
:1082E000007111802FE7918821F440710904090C75
:1082F000918041E791F8221000293FF414AF93F8E0
:108300007D1000293FF40FAF118821F4806109042A
:10831000090C1180918821F480610904090C918075
:1083200093F97C1016E71FFA8EF52D062DD493F9DC
:108330007C100FE793F87D1000298ED096E791F816
:108340002040022C148846D924F480642404240C90
:108350001480158A8E6A93F97C40EDB235558E6A89
:10836000118889B241F400711180E4B2158A611C50
:1083700049B2EDB275549188023489B264B241F4C5
:10838000806183F87C4091807BE793F97C506E1C80
:108390003ED04C6A665D16826C1C91F8205064B227
:1083A000A54283F87C4021467FF4D4AE948824F41F
:1083B00080642404240C9480CCE600BFA01F00201D
:1083C000118893F97C4089B241F4807111800121B8
:1083D00083F87D1055E7A4B244F400741480158A24
:1083E0008E6A93F97C40EDB23555E4B28E6A158AF7
:1083F000611C49B20334EDB264B2755483F87C4019
:108400003FE7958825F480652D042D0C9580D3E6F3
:1084100083F87C40CC7F148291F8224024B991F8F3
:10842000201000297FF408AF918821F480610904AD
:10843000090C918000E700BF836930B41C6999681A
:108440002268096822F0010222608A899C8992B21E
:1084500022EA04028A81027D00681F2A06D9446844
:10846000203A08219140214216D0FEE704680821F5
:1084700091402142F9D1202101FA02F28260224A80
:1084800012783AB11A7E012A0BD1D3F8F8200132C2
:10849000C3F8F82030BC7047202101FA02F2C26014
:1084A000EDE7D3F8F4200132C3F8F420EFF31181A3
:1084B000502282F3128858685C6C026822EA040237
:1084C0009C6C2243C9B2026081F31188D3E90C404D
:1084D0001A6999681D6C096814605061D3E90E40EF
:1084E000546090600024B3F8A800D5604C62C86264
:1084F00010680124204310601C768A899B891343ED
:108500009BB230BC8B81704708000010F0B5444C22
:1085100004EB401C9CF8202002B9F0BD414B4FF009
:108520008C0E0EFB003E93F8E06493F8E1249EF875
:1085300082708CF8067096424FF0000C4FEA40159E
:108540008EF882C00ED002EB420C03EBCC0C57002D
:108550009CF8E4C40CF1FF3EBEF1010F54D9BCF10C
:10856000030F4BD060198180EFF31182902383F3C6
:1085700012888379818843EA41030021D2B29BB2F9
:10858000817182F311881A09217882EA13225A40F4
:10859000C9B1C4698168D4F8A040D2431B019BB221
:1085A00002F00F0201208840134304F1C0015A0079
:1085B00013F4004F93B202D16268024362600C343C
:1085C0008C42F4D1F0BDC1698068D1F8A0401B0194
:1085D00000F110019BB202F00F020120884013430A
:1085E00004F1C0015A0013F4004F93B202D1626843
:1085F000024362600C34A142F4D1F0BD02F1010CDF
:108600000CF0030CB445ADD03A4403EBC20213188E
:1086100093F8F1140029A5D0631901229A71A1E7FA
:1086200008000010A01F0020BCEEC00A10EE103A97
:1086300099B26BE7704700BF024B03EB401090F814
:1086400021007047080000104368B0F8502010B4B3
:108650001A83EFF31182502383F312884168446C2C
:108660000B6823EA0403C46C2343D2B20B6082F389
:108670001188D0E907418268036912681C6059615A
:10868000D0E909415C60C46A9960B0F86010DC60B0
:108690000023D1625DF8044B03767047037D1F2BE6
:1086A00030B54FF02002046816D9A3F120056168A7
:1086B000AA400A420FD00C4A002182F844154168B2
:1086C0000A681F2B22F001020A604FF0200206D92F
:1086D000203B9A40E26030BD21689A40E9E702FA07
:1086E00003F3A360F7E700BFA01F0020037D01682C
:1086F0001F2B10B54FF0200217D9A3F120044968B1
:10870000A2400A4210D00C4A002182F84515416867
:108710000A681F2B22F001020A6001684FF0200254
:1087200006D9203B9A40CA6010BD09689A40E8E724
:1087300002FA03F38B60F7E7A01F0020F0B4037D7B
:1087400085691F2B63D90168A3F120024E6820249C
:108750009440264249D010239340CC60CB604B68B4
:10876000D340DE0767D4EFF31183502282F31288DF
:108770002A6C1168C9072FD4516889B271B9D5E93B
:108780000964A64225D0AF692744D76058D9341B65
:10879000A4B25460AE62002185F86410116841F003
:1087A0000101DBB2116083F31188037D1F2B19D8FF
:1087B00002681946106808238B40184200D0936065
:1087C0001068042303FA01F1014200D09160F0BC6B
:1087D0007047012285F86420DBB283F31188037DA2
:1087E0001F2BE5D90168A3F120024C6808209040B6
:1087F000044200D0C8604C68042000FA02F2224211
:10880000E5D0203B00FA03F3F0BCCB607047026870
:10881000202416689C4026421946CBD0102199404E
:10882000946091601168D940CC079CD5012101FA70
:1088300003F3936097E7012303FA02F2CA6092E719
:108840002E69341BA4B25460A962A4E7437D13B11E
:10885000012B04D070474FF48063838170474FF43D
:108860000063FAE74FF4006383817047074B5B684E
:10887000D0F8E410D0F8F0205B1A9342C8BFC0F8DB
:10888000F030012380F8F43000207047001000E041
:108890004FF40063838170474FF400638381704716
:1088A000012380F8E830704713B5002304468DF8A3
:1088B000073065F033FB0123A0800DF107020F2183
:1088C000204619F059FE28B19DF807306C2B14BFD3
:1088D0000020102002B010BD4FF400638381704768
:1088E0004FF40063838170474FF4006383817047C6
:1088F000024B012283F84625704700BFA01F0020CD
:10890000344AF0B5B2F85635B2F84855B2F9604578
:10891000B2F94E65B2F95AC5B2F96C75ED1AB2F8F2
:1089200054356B43B2F95E5504EBE334ED0295FB2D
:10893000F4F505EBE335A5F57A6E0EFB0EF4231383
:10894000B2F95045C2F868550EFB06F60EFB04FE60
:10895000B2F958455C4303FB0CFCF612241406EBF9
:10896000EC2C04EB6E34B2F94C65B2F8523502349B
:108970000CEB860CA410D2F8706504F500440CFAD8
:1089800007FC63430CF1020C4CF25032DC0BA6EBFB
:10899000AC0642FA07F3734355BF5B00B3FBF4F335
:1089A000B3FBF4F35B0070B11A1240F6DE345243AD
:1089B0006243094C12145C4302EB244202F6CF627C
:1089C00003EB2213036021B10A235D4308352D1107
:1089D0000D60F0BDA01F002043E3FFFF70470120A2
:1089E0007047012070472DE9F047DFF88081D8F803
:1089F0007455B8F87825B8F87E95C2EB2513520067
:108A0000C2EBE502B8F97A556A4303FB03F5B8F9FE
:108A10007C352D135D43AD1305EBE225B8F98235A6
:108A2000C8F890550E46A5F5FA31074681FB010CB2
:108A30004FEAE37E03FB0CF200FB0E22A3FB003E99
:108A40009644B8F9802582FB01421B0A120343EACF
:108A50000E6342EA145224031B1942EB2E2202F544
:108A60000042A3FB093E09FB02EE4FEAEE734FEA18
:108A70006E0253EA6E0E4FF000046BD0B8F9889581
:108A80004FEAE97E09FB0CFC00FB0ECCA9FB009031
:108A90008444B8F9860580FB01E148044FEA4E4161
:108AA00011EB0909D8F8941540EADE304CEB0000D0
:108AB000C1F5801C0CF0004AB8F9841514EB0904C8
:108AC0004AEA5C0A4FEACC7C00EBC10140F635492A
:108AD000BCEB04006AEB010AA0FB090109FB0A11C7
:108AE00069F04AFDB8F98E454FEA613E430B43EA0F
:108AF000C14304FB0EF24FEAE47C03FB0C2CA4FB05
:108B00000342624404FB0EFE03FB02EEA4FB03439C
:108B1000B8F98C259E44640E44EACE1414EB000C84
:108B200002FB01F34FEAE274814641EB6E6EA2FB59
:108B3000092904FB00314944D40C44EA41341CEBBC
:108B40000404B8F98A354EEBE141240A44EA016491
:108B500004EB03140FB1240A3C6026B105EB850534
:108B600080352D123560BDE8F08700BFA01F0020C2
:108B700000B583B04FF0000C01230DF10702112165
:108B800098388DF807C019F0F7FC03B05DF804FBC6
:108B9000704700BF0120704701207047034B00223F
:108BA00083F84625F4212E2266F098BAA01F0020F3
:108BB000064BB3F86C2592010021343283F8461538
:108BC00002F0FC02F42166F089BA00BFA01F002069
:108BD0003122F42166F082BA08B5006866F044FAE2
:108BE00038B9054AB2F898355BBAA2F84835012081
:108BF00008BD0020FCE700BFA01F002008B50068EA
:108C000066F032FA98B90B4A92F8993592F89815AD
:108C10001B0243EA014392F89A150B43B2F96C1513
:108C2000C1F10801CB40C2F87035012008BD002019
:108C3000FCE700BFA01F002008B5006866F014FA2A
:108C4000E0B90F4B93F89C2593F89B15120142EA6B
:108C5000013293F89D1542EA1112C3F8942593F856
:108C60009F2593F89E15120142EA013293F8A01550
:108C700042EA1112C3F87425012008BD0020FCE768
:108C8000A01F002003681A78012A1CD0144B00B5DD
:108C900093F8AA1593F8A9C593F8A80593F8AD25FC
:108CA00093F8ACE5090441EA0C210143120493F85E
:108CB000AB05C3F8A41542EA0E220243C3F8B0255F
:108CC00001205DF804FB93F90420054B02EB8202BE
:108CD00003EBC202527F002AD9D00020704700BFA8
:108CE000A01F00202DE9F04FC94C83B0B4F8B43573
:108CF000D4F8B02594F9B855CDE90001B4F8B6150B
:108D0000A2EB0322A1FB02139E04A2FB0223EF1796
:108D100005FB03F302FB073346EA9136A5FB02523B
:108D200089046D181A4442EB0603002B02DA013D58
:108D300043F10003B74AC4F8D035DF175760009AF3
:108D4000002A00F0148103FB07F1A3FB032E0EEBB6
:108D5000410E4FEA921C4CEA8E6C0CFB07FB4FEA6B
:108D6000AE1103FB01BBACFB03C81BEB080BD4F833
:108D7000A45500F1488194F9BE154FEA1C2C4CEA29
:108D80000B6C4FEA2B2B4FEAE17801FB0BFA0CFB43
:108D900008AAA1FB0C181AEB080800F13081B4F9FD
:108DA000B965B4F9BB95490941EAC8610846A6F519
:108DB000804694F9BD15B60306EB681ACE1701FB81
:108DC0000EF802FB0688A1FB02164644B60046EAEE
:108DD00091768900A9F5804941184AEB060609FBFE
:108DE00007F84FEAE97A03FB0A88A9FB039AD04403
:108DF0004FEA485848EAD9284FEA495911EB090186
:108E000046EB0806002EC0F2F38094F9C49509FBE6
:108E10000BFB4FEAE9780CFB08BBA9FB0C98090E89
:108E20001BEB080841EA06214FEA266600F1DB80C9
:108E30004FEA591C94F9C395B4F8C1A509FB0EFE7D
:108E40004FEAE97B02FB0BEEA9FB0229CE444FEA75
:108E50000E1E4CEAC86C4EEA127E12011CEB020C8C
:108E6000B4F8BF254FEAC23202EB6818AAFB03929E
:108E70000AFB072A4FEA8A5A4AEA992A4FEA89598D
:108E800048EB0E081CEB090948EB0A08B8F1000F83
:108E9000C0F2A48094F9C7E5B4F9C5B54FEA9909C1
:108EA000A1FB051249EA887919EB010905FB0626A1
:108EB0004FEAEE710EFB07F24FEA0B4C03FB012267
:108EC000AEFB03E146EBA8060A441EEB0C0E42EB98
:108ED000EB7BAEFB05CE05FB0BEEBEF1000F76DBA8
:108EE0004FEA5C3C4CEACE4CACFB05C14FEA6E3E0F
:108EF00005FB0E1EBEF1000F62DB4FEA5C2C94F9FD
:108F0000C8254CEACE5C19EB0C0146EB6E264FEA05
:108F1000E27CA5FB054E04FB0CFC02FB0ECCA4FB83
:108F200002421CEB020C45D4220C42EA0C42A2FB8A
:108F300005244FEA2C4C05FB0C4CBCF1000F35DB33
:108F4000D20942EA4C62521846EBEC16941846EBF2
:108F5000060CA41846EB0C0C4FEACC0C4CEA547CE3
:108F6000E400A41846EB0C06009A360C1660019A31
:108F70009AB1DA1847EB0701D21847EB0101C90093
:108F800041EA5271D200D31847EB0107002F07DBEB
:108F9000019A9B0B43EA8743136003B0BDE8F08F4F
:108FA00043F6FF729B1847F10007F1E77F324CF15F
:108FB000000CC5E74FF6FF72A4184CF1000CB3E7A4
:108FC00040F2FF111CEB010C4EF1000E95E741F64B
:108FD000FF721CEB020C4EF1000E81E719F1030940
:108FE00048F1000856E719F11F0948F100081FE78A
:108FF0006FF07F4911EB090146F1000605E71F31CB
:1090000048F10008CBE61CF1FF0C4BF1000BB2E677
:10901000A01F0020702500203C4B9FED3D4A93F897
:10902000D92593F8D80593F8DA1593F8DBC5120221
:1090300002EB00421144120248BF01F17F4107EEEA
:10904000901AB3F9F41593F8DC0593F8DD2506EED4
:10905000101AB3F9F01506EE901AB3F9F21505EEF1
:10906000101AB3F9EE15B8EEE77A05EE901A000281
:10907000D3F8E81500EB0C4027EE047A024407EE23
:10908000901A0002B8EEC66AF8EEE66A48BF02F12E
:109090007F42E7EE066A0120B8EEE76A07EE902A03
:1090A000B3F9EC25B8EEC55A04EE902AF8EEE55A6D
:1090B000B3F9E225E7EE055A05EE102AD3F8E425C8
:1090C000B3F9E035A6EE876AF8EEE77A06EE902A65
:1090D00067EE847AF8EEE44AF8EEE66AA5EEA76A4F
:1090E000E7EEA46A05EE903AB8EEC55AF8EEE55AF6
:1090F00067EE857AB6EE005AE7EE066A054BE5EEB6
:10910000857AC3ED066AC3ED077A7047A01F002079
:10911000082184368025002030B10A4BD3ED067A31
:10912000FDEEE77AC0ED007A51B1064B9FED067A6D
:10913000D3ED077A67EE877AFDEEE77AC1ED007A24
:10914000704700BF802500200000C842704700BF64
:109150000120704701207047704770470120704719
:1091600030B585B000238DF807300DF107020123DB
:10917000E721054619F0F4F99DF80730134C13F078
:10918000030320D0052302AAE821284619F0E8F9B4
:109190009DF80A209DF80910130443EA01239DF865
:1091A000081012F0800F43EA010314BF4FF07F4212
:1091B00000221343C4F80036BDF80B30A4F804367F
:1091C000012005B030BDC4F80036F7E7A01F00202D
:1091D0000B4A10B5D2F800466423634348BF03F638
:1091E000FF731B130360B2F804360A225343302284
:1091F000B3FBF2F303F584531A330B6010BD00BFC9
:10920000A01F002008B5006865F02EFF70B9084A5D
:1092100092F80D3692F80C161B0243EA014392F8BD
:109220000E160B43C2F80836012008BD0020FCE7EB
:10923000A01F002010B50446006865F015FF70B946
:10924000084B93F80F2612B193F8460530B120462B
:10925000054A0223F62168F0B3F9012010BD002071
:10926000FCE700BFA01F00203825002010B50446F1
:10927000006865F0F9FE70B9084B93F80F2612B13B
:1092800093F8460530B12046054A0323F62168F0DD
:1092900097F9012010BD0020FCE700BFA01F0020AF
:1092A0003825002010B50446006865F0DDFE38B9A9
:1092B0002046044A0623F72168F082F9012010BDF8
:1092C0000020FCE73B25002008B503681A78012A36
:1092D00006D0094A0623042168F072F9012008BD6E
:1092E00093F90430054A03EB830302EBC3035B7F6E
:1092F000002BEED0002008BD48250020A01F002034
:1093000008B503681A78012A06D0094A0623002105
:1093100068F056F9012008BD93F90430054A03EBC3
:10932000830302EBC3035B7F002BEED0002008BD5C
:1093300078250020A01F002008B5006865F094FE85
:1093400070B9084A92F80D3692F80C161B0243EADF
:10935000014392F80E160B43C2F81036012008BDE7
:109360000020FCE7A01F00202DE9F74F564AB2F875
:109370001E36B2F81A66B2F82076CDE90001D2F8AE
:1093800008161B02C91AB2F81C366EEB0E0EA3FBB0
:10939000010403FB0E44B2F81836C00940EA4460E9
:1093A0001B04C018A6FB013506FB0E55B2F8166665
:1093B0004FEA132343EA05634FEAC6364FEAE41443
:1093C00044F100049B19A7FB012607FB0E664FEA38
:1093D000D25242EA46224FEA252545F10005F6150C
:1093E00012F5FA6C46F1000BBCF5FA6F7BF1000741
:1093F0004CDAA2FB02784FF0050A02FB06F908EBF3
:109400004909A7FB0A780AFB09884FEA570949EA84
:10941000C879BF08B0EB090047EA887764EB6804B5
:10942000DB1B2A4F65EBA805BC454FF0FF377BEBF4
:10943000070720DA40F6AC57D21946F1000656432A
:10944000A2FB027202EB46064FEAC608FA00BA1AFD
:1094500048EA577866EB0808101844EB08044FF008
:109460000B08A7FB087208FB06267F0847EAC677A9
:10947000DB1B65EB660501FB0EFEA1FB011202EB97
:109480004E0EC90F41EA4E01BCEB010C009A9AB195
:109490000D4AD2F81016A1FB032301FB0535520D2E
:1094A00042EAC522121A4FEA6555009B65EB040497
:1094B000D20B42EA44421A60019B0BB1C3F800C0D0
:1094C00003B0BDE8F08F00BFA01F002024FAFFFF0B
:1094D0007047012070470120704710B504460068AE
:1094E00065F0C2FD38B92046044A0623F72168F02A
:1094F00067F8012010BD0020FCE700BFC425002054
:1095000008B5006865F0B0FDD0B90E4B93F825267C
:1095100093F82416120242EA014293F826160A43EF
:10952000C3F82C2693F8282693F82716120242EA4D
:10953000014293F829160A43C3F83026012008BDDA
:109540000020FCE7A01F002010B52C4CD4F83026DA
:10955000A2F5000207EE102A04F23463B8EEC77ACF
:1095600093ED026AD3ED016AD3ED007AD3ED055A8B
:10957000D3ED044AD4F82C2693ED094A93ED075A0B
:10958000E7EE066AA2F5000293ED066AE7EE267A98
:1095900093ED037AE5EEA74A06EE902AA7EEA47AA9
:1095A000F8EEE66AD3ED085AD3ED0B4AA4EE275A3B
:1095B000E6EEA45A93ED0A4AA5EE276AE4EE275A8E
:1095C000A5EEA66AA6EE867AB5EE407AF1EE10FA1E
:1095D00018BFBDEEC77AF5EE407A18BF80ED007A6D
:1095E000F1EE10FA08D0FDEEE77A17EE903A002B74
:1095F000B8BFFF331B120B6010BD00BFA01F0020BF
:1096000010B5074C94F864360BB9002010BD1BF060
:10961000C3FBD4F86836C01AD0F5FA50F6D5F4E793
:10962000A01F002070B505460C46FFF7E9FF2B6828
:109630005D6808B11BF004FC064B002283F8642629
:109640002846224693F86536BDE87040492118F057
:1096500087BF00BFA01F00202DE9F04FB64BB74ACF
:109660001968B2EB910F83B0044680F05881B2EBD9
:10967000D10F80F05681B2EB111F80F05A81B2EB0E
:10968000511F80F05481B2EB911F80F04E81B2EBFC
:10969000D11F80F04881B2EB112F34BF4FF480729C
:1096A0008022A168A28011B10A6889885183A44AE6
:1096B0005268C2F30802002A40F00E81EFF31182D3
:1096C000002A40F009814FF0E025D3F86C16A86914
:1096D000D3F86C268A42F8D1D3F878168142F4D3B5
:1096E000D3F874664FF47A7505FB06F1091AB1FBDD
:1096F000F6F105FB0211924E4FF0E0204FF47A751F
:109700004FF0100C01277268C2F30802002A40F0E3
:109710009A80EFF31182002A40F09580D3F86C868E
:10972000D0F818E0D3F86C269045F7D1D3F8782616
:109730009645F3D8D3F8749605FB09F2A2EB0E0216
:10974000B2FBF9F205FB0822521AB2F57A7FDAD39E
:10975000A26812B1116892880A8379484FF00A0B07
:1097600010264FF0E0214FF47A7C4268C2F30802E1
:10977000002A40F08A80EFF31182002A40F08580B1
:10978000D3F86C26D1F81880D3F86C56AA42F7D1DA
:10979000D3F87856A845F3D8D3F874960CFB09FE95
:1097A000AEEB080EBEFBF9FE0CFB02EE4268C2F304
:1097B000080242BBEFF311822ABBD3F86C568F69C3
:1097C000D3F86C269542F8D1D3F878269742F4D88E
:1097D000D3F874A60CFB0AF2D21BB2FBFAF20CFB14
:1097E0000522A2EB0E02B2F57A7FDFD3BBF1010BAB
:1097F000BBD12368ADF804B01B6A002B5DD058467E
:1098000003B0BDE8F08FEFF3118986F312888F69FA
:109810000A69D20303D50122C3F870268F69D3F8F1
:109820006C26D3F870565FFA89F989F3118805EB35
:109830000208D3F874560CFB05F2D21BB2FBF5F20A
:109840000CFB0822CDE7EFF311828CF31288D0F8DD
:109850001880D0F810E01EF4803F03D0C3F8707673
:10986000D0F81880D3F86C96D3F870E6D2B282F3B1
:109870001188CE44D3F8749605FB09F2A2EB0802D6
:10988000B2FBF9F205FB0E225EE7EFF3118E86F3D1
:109890001288D1F818800A69D50304D50122C3F8CB
:1098A0007026D1F81880D3F86C96D3F870265FFA3A
:1098B0008EFE8EF311884A446EE72046022301AAE9
:1098C000802118F003FE9DF80530242B14BF0020E2
:1098D0000F2003B0BDE8F08FEFF31181102282F367
:1098E00012884FF0E02290691569EE0303D501203C
:1098F000C3F870069069D3F86C56D3F87026C9B2D5
:1099000081F31188D3F8746651194FF47A7505FB09
:1099100006F2121AB2FBF6F205FB0121EBE6022277
:10992000BFE60422BDE64022BBE62022B9E61022B3
:10993000B7E60822B5E600BFA01F00208096980079
:1099400000ED00E070B5104ED6F80431002B18DDA4
:10995000341D002505E0D6F80431AB4204F12004A3
:109960000FDD237F0135002BF5D0E0680028F2D011
:10997000217D1AF05BFAD6F80431AB4204F12004E1
:10998000EFDC012070BD00BF080000102DE9F04F92
:10999000C04C94F800B089B0BBF1000F1ED1D4F8D0
:1099A0007434002B16DD0026BB4831460769D0F819
:1099B000A0303D6825F0010503F1C0023D6059600B
:1099C0000C339A42FBD1D4F874340136B34200F51B
:1099D0008070EBDC012009B0BDE8F08FAF4ED6F807
:1099E0006C561BF0D9F9D4F80831D4F80C21143393
:1099F000801AB0EB430FC0F2A681D4F80431019372
:109A0000A74BA3FB0523A74A5B09A2FB032CD4F8B1
:109A1000182100924FEADC0C96F87C2606920CEB9B
:109A20008C0C06F5D062A3EB4C0C0792D4F81421F1
:109A3000049200235FFA8CF204F5CA7E0593039228
:109A40000EEB8C0C04F5887A261D02931F46019BB1
:109A5000BB4240F3F980B16973680A6998005368A2
:109A6000D1F8EC201FFA83F8A2EB0808D1F8E8300F
:109A700000F1085008F1806500EB4310393D00EB20
:109A8000851501468D4240F2D3800A6801F5807346
:109A9000002A00F04B810A6C002A00F04A81D1F8BC
:109AA0008020002A00F04881D1F8C0201946002A01
:109AB000E8D19D4240F2BC80181AA8EBA0104528BE
:109AC00028BF452003EB80110020994605468046BB
:109AD0000CE01A6C002A7BD1D3F88020002A40F0D9
:109AE000A380D3F8C02003F580732AB9994205D921
:109AF0001A68002AEDD0403399426CD840461128AC
:109B000040F29680C8F11503002BC0F2D18000F01E
:109B100024810121C8F1140201FA02F205FA03F3CB
:109B200013436148C3F3C43250F8221003F01F02FC
:109B300050F8222042EA0132C3F34411C3F38423D4
:109B400050F8211050F8233042EA011242EA032370
:109B500083EA132282EA121202F00F020F2A40F067
:109B6000A780B3F5803F80F0A38040F6FF71B1EB92
:109B7000131F4FEA131200F0EA80C2F308025B0BD6
:109B800012FA03F300F09480590801F5122101F54F
:109B9000F861B1FBF3F14FF6FE73994248D0009B98
:109BA000013300934FF6FF73994200F084808BB22B
:109BB000AAF80C30032F4FF001038AF80E3000F39F
:109BC0008080069B2D2B7CD1079B23F8171078E013
:109BD0008033994292D9A3EB09029211501C334A67
:109BE00082FB0092A2EBE072012AB8BF01229540ED
:109BF00001209044013A00FA02F215431846026827
:109C00007AB3026C002A00F09A80D0F88020002AF3
:109C100000F09780D0F8C02000F5807012B3814228
:109C2000EDD89946034661E7C03365E7CDF808B043
:109C30000137082F0EF15C0E0CF15C0C0AF1040ADE
:109C400006F120067FF403AF029B13B1009BC4F81A
:109C50001831059B002B3FF4A2AE049BC4F81431CD
:109C60009DE640308142DCD9C31A9B115A1C0F4B30
:109C700083FB0293A3EBE273012BB8BF01239D404A
:109C800098440122013B02FA03F31D43034699461F
:109C900003462BE70800001080040010A01F0020DE
:109CA0001F85EB51CDCCCCCC9C5E07085655555545
:109CB000009B01330093049B0133CDE9043B4FF635
:109CC000FF719EF858300398834214D0DCF80820C6
:109CD000DEF800309B1ACEF80030DCF83020DEF8D9
:109CE00004309B1ACEF804300023CCF80830CCF8AE
:109CF00030308EF85800DEF800300133CEF80030F6
:109D0000DCF808300133CCF808304FF6FF73994285
:109D10008CD1DEF80430CDF808B00133CEF8043031
:109D2000DCF830300133CCF8303081E701F140030A
:109D3000BFE601F18003BCE601F1C003B9E6803063
:109D400090E7C0308EE7002009B0BDE8F08F009B9F
:109D500001330093002319462AE70F49C5F3C433A2
:109D600051F8232005F01F0351F8233043EA023352
:109D7000C5F34412C5F3842551F8222043EA0213A7
:109D800051F8252043EA022383EA132282EA1212C1
:109D900002F00F02E2E600BF9C5E07082DE9F041E9
:109DA0001F4B93F8E02493F8E1349A4232D11D4ED0
:109DB000D6F87454002D12DD0024377806F58F6034
:109DC000A046013417B1037E012B1ED0026913682F
:109DD000AC4243F0010300F580701360F1D11AF03A
:109DE000DBFFD6F87848C6F80C01002C0BDD0E4AD4
:109DF00002EBC404116893888889083203439BB23C
:109E0000A2428B81F6D1BDE8F08180F8F080FEF7A8
:109E10001BFCDBE764F0BAFA0028C8D1BDE8F0818A
:109E2000A01F0020080000108408001010B57D4C11
:109E300094F8E02494F8E1349A4240F099817A4B06
:109E400093F89C28002A00F0EC8093F8A038002BAF
:109E500040F0EC80D4F88816088820F080000004D8
:109E6000000C0880B4F88C06C862088880B240F004
:109E7000800008804B62B1F80CC0B4F89C0640EA40
:109E80000C0080B2012A8881A4F89C3600F0C980B9
:109E9000D4F8A016088820F080000004000C088088
:109EA000B4F8A406C862088880B240F08000088038
:109EB0004B62B1F80CC0B4F8B40640EA0C0080B2B2
:109EC000022A8881A4F8B43600F0AB80D4F8B81622
:109ED000088820F080000004000C0880B4F8BC065C
:109EE000C862088880B240F0800008804B62B1F8F8
:109EF0000CC0B4F8CC0640EA0C0080B2032A88817A
:109F0000A4F8CC3600F08D80D4F8D016088820F064
:109F100080000004000C0880B4F8D406C8620888E9
:109F200080B240F0800008804B62B1F80CC0B4F8F9
:109F3000E40640EA0C0080B2042A8881A4F8E436E2
:109F40006FD0D4F8E816088820F080000004000CD8
:109F50000880B4F8EC06C862088880B240F080003F
:109F600008804B62B1F80CC0B4F8FC0640EA0C0063
:109F700080B2052A8881A4F8FC3652D0D4F80017A4
:109F8000088820F080000004000C0880B4F8040762
:109F9000C862088880B240F0800008804B62B1F847
:109FA0000CC0B4F8140740EA0C0080B2062A88817D
:109FB000A4F8143735D0D4F81817088820F080009A
:109FC0000004000C0880B4F81C07C862088880B23E
:109FD00040F0800008804B62B1F80CC0B4F82C0748
:109FE00040EA0C0080B2072A8881A4F82C3718D0E8
:109FF000D4F83027B4F83407118821F0800109041F
:10A00000090C1180D0621088B4F8441780B240F077
:10A010008000108053629089014389B29181A4F835
:10A02000443710BDA01F002008000010D4F890365F
:10A03000B4F8941659601968D4F8880641F0010103
:10A04000196040F20D33A0F84830818989B241F49B
:10A050008071012A8181E4D0D4F8A816B4F8AC0646
:10A060004860086840F001000860D4F8A006A0F835
:10A070004830818989B241F48071022A8181D0D02F
:10A08000D4F8C016B4F8C4064860086840F001006F
:10A090000860D4F8B806A0F84830818989B241F444
:10A0A0008071032A8181BCD0D4F8D816B4F8DC06BC
:10A0B0004860086840F001000860D4F8D006A0F8B5
:10A0C0004830818989B241F48071042A8181A8D005
:10A0D000D4F8F016B4F8F4064860086840F00100BF
:10A0E0000860D4F8E806A0F84830818989B241F4C4
:10A0F0008071052A818194D0D4F80817B4F80C0730
:10A100004860086840F001000860D4F80007A0F833
:10A110004830818989B241F48071062A818180D0DA
:10A12000D4F82017B4F824074860086840F001000C
:10A130000860D4F81807A0F84830818989B241F442
:10A140008071072A81813FF46CAFD4F83817B4F8D6
:10A150003C274A600868D4F8302740F001000860C6
:10A16000A2F8483093899BB243F48073938110BD69
:10A1700064F00CF900287FF462AE10BD2DE9F047C1
:10A18000037D01681F2B044608D94868A3F1200508
:10A190002022AA40024206D1BDE8F08708682022AA
:10A1A0009A400242F8D0604A604E5268C6F8A4282D
:10A1B00096F8A028A569DFF880910ABB8C2202FBE3
:10A1C0000592D2F88800D2F80071D0F80080386883
:10A1D000B2F88CC020F001003860B8F80C2092B2C0
:10A1E00022EA0C02A8F80C20327802BB1F2B40F2A6
:10A1F0009080A3F1200220239340CB60BDE8F0873C
:10A200008C2202FB0592D2F888205069D2F8008097
:10A21000026822F001020260B8F80C2022F4807279
:10A220001204120CA8F80C203278002ADED04FF06D
:10A230008C0A0AFB059ADAF8007138465DF0FAFBE1
:10A24000D6F8AC3801228AF8D420002B67D0B8F8B1
:10A25000003037499BB243F08003A8F800308C23CC
:10A2600003FB05F54FF0FF332944C8F82C30404676
:10A270005DF04AFE09EB05030022D3F8AC00C3F8F9
:10A28000A420D3F8982039680243D3F8B0000243E1
:10A29000D3F8B4000243D3F8B8000243D3F8BC00AB
:10A2A0000243D3F8C0000243D3F8CC000243D3F8F2
:10A2B000D00002431F48084002433A60D3E93120EE
:10A2C0007969024321F007010A437A61D3F8A82093
:10A2D0007A60D3F89C20BA60D3F8A020FA60D3F853
:10A2E000002116215160116841F001011160D3F87D
:10A2F0008820B3F88C30126891890B439BB20A49CD
:10A3000093814B68C6F8A838237D21681F2B3FF640
:10A3100070AF202202FA03F38B60BDE8F0871AF0D9
:10A320003BFDC6F8AC0892E7001000E00800001002
:10A33000942000203F801CF0A01F00202DE9F04F4A
:10A34000DFF814B19BF8004089B024B901242046FD
:10A3500009B0BDE8F08F3D4ED6F86C561AF01CFDE2
:10A360009BF8DC380590002B00F0ED82384AA2FB08
:10A370000532384B5209A3FB0213DB0803EB8303BE
:10A38000A2EB4303DAB206920BF5CA7202EB830327
:10A3900002930BF58873019206F1E00703934FF0E7
:10A3A000000ADBF8AC38059AD31A04D457F8082C05
:10A3B0009342C0F28582254A8C2303FB0A2393F83B
:10A3C000D43003F0FF02049257F8589C3C6AD9F845
:10A3D0000050002B40F0958120465DF02BFB1B4A7E
:10A3E0008C2303FB0A23002283F8D42099F805105C
:10A3F0000C2914D8DFE811F07701130013001300C3
:10A4000070011300130013007E01130013001300EA
:10A410000D00AB8B23F400631B041B0CAB833A468B
:10A4200028461BF07FFF99F805300C2B1ED8DFE87B
:10A4300013F04A011D001D001D0041011D001D00FB
:10A440001D0038011D001D001D001500A01F00206B
:10A450001F85EB51CDCCCCCC08000010AB8B23F486
:10A4600000631B041B0C43F40063AB83019B57F890
:10A47000342C57F8101C5C330193029B5C3302931D
:10A48000039B0433039357F8483C43F040031343C2
:10A4900057F8302C134357F82C2C134357F8282C1B
:10A4A000134357F8242C134357F8202C134340220E
:10A4B00047F83C2C57F8142C1343226822F07E6294
:10A4C00022F45F3222F470720B431343236057E986
:10A4D000073162690B4322F007021343636157F8A7
:10A4E000383C636057F8443CA36057F8403CE36055
:10A4F000236843F0100323609BF8DC380AF1010A5B
:10A500009A4507F18C07FFF64CAF0022CBF8AC2838
:10A51000002B3FF41BAF9C4991F89020920700F16B
:10A52000B881D1F8882010685479018C012289B251
:10A53000A24092B221EA02010184018C89B20A434D
:10A54000012B02843FF402AF8F4991F81C21970739
:10A5500000F1BB81D1F8142110685479018C0122DB
:10A5600089B2A24092B221EA02010184018C89B22F
:10A570000A43022B02843FF4E9AE834991F8A821F3
:10A58000960700F1AB81D1F8A02110685479018CB5
:10A59000012289B2A24092B221EA02010184018C17
:10A5A00089B20A43032B02843FF4D0AE764991F876
:10A5B0003422950700F19B81D1F82C221068547940
:10A5C000018C012289B2A24092B221EA02010184E7
:10A5D000018C89B20A43042B02843FF4B7AE6A4966
:10A5E00091F8C022940700F18B81D1F8B82210684D
:10A5F0005479018C012289B2A24092B221EA02016F
:10A600000184018C89B20A43052B02843FF49EAE7B
:10A610005D4991F84C23900700F17B81D1F84423E8
:10A6200010685479018C012289B2A24092B221EAC9
:10A6300002010184018C89B20A43062B02843FF493
:10A6400085AE514991F8D823920700F16E81D1F877
:10A65000D02310685479018C012289B2A24092B2B1
:10A6600021EA02010184018C89B20A43082B028489
:10A670007FF46CAE444A92F864349B0740F15E81EB
:10A68000D2F85C240423116850790A8C83409BB271
:10A6900092B222EA03020A840A8C92B213430B8418
:10A6A00054E6AB8B23F008031B041B0C43F0080398
:10A6B000AB83DBE62B8B23F400631B041B0C43F4FE
:10A6C00000632B83D2E62B8B23F008031B041B0CA7
:10A6D00043F008032B83C9E62B8B23F400631B0490
:10A6E0001B0C2B839BE62B8B23F008031B041B0CFA
:10A6F0002B8394E6AB8B23F008031B041B0CAB836A
:10A700008DE6636837F8542C1FFA83FEAB89CEF1CF
:10A71000160E9BB223EA0203BEF1070FAB817FF650
:10A720005BAEDBF818310133CBF81831BB6A079305
:10A730009C4600225CF8046B012190461BE0DCF88B
:10A740000000B8F1140FA0EB06031FDC13F108069C
:10A7500048BF03F11706331108EB26180646581EAA
:10A76000013102FA03F3012282408E4542EA0302DC
:10A770000CF1040C0AD38E45E1D8C8F11503DCF8BE
:10A7800000604FF01508EAE7A01F0020B8F1150F90
:10A7900074D16E48C2F38423C2F3441100EB8303E7
:10A7A00000EB8101D3F88030D1F880101B0243EA1E
:10A7B000011302F01F0100EB8101C2F3C43200EB70
:10A7C0008202D1F88010D2F880200B4343EA023392
:10A7D00083EA132282EA121202F00F020F2A4DD1ED
:10A7E00040F6FF71B1EB131F4FEA131200F09A808D
:10A7F000C2F308025B0B12FA03F33FD05A0802F5CA
:10A80000122202F5F8624FF6FF71B2FBF3F293B237
:10A810008B4233D00399BAF1030F8B814FF00103C0
:10A820008B7304DC4A4B93F87C362D2B3AD001997C
:10A83000069E91F85830B3420DD002980B6882689A
:10A840009B1A0B60026B4B689B1A4B600023836062
:10A85000036381F85860019A029913680133136009
:10A860008B6801338B60049B002B7FF4B5AD53687C
:10A87000013353600B6B01330B63ADE5DBF814312F
:10A880000133CBF81431BAF1000F0FD00023049339
:10A89000CDE72F4AD2F8882010685479018C042221
:10A8A00089B245E62B4B23F81A20C0E707992A48BE
:10A8B00058226BF03DFAD9F80050CDF810A0B6E759
:10A8C0000024204609B0BDE8F08F214AD2F81421B7
:10A8D00010685479018C042289B242E61C4AD2F8ED
:10A8E000A02110685479018C042289B252E6184ADA
:10A8F000D2F82C2210685479018C042289B262E6C5
:10A90000134AD2F8B82210685479018C042289B213
:10A9100072E60F4AD2F8442310685479018C04225D
:10A9200089B282E60022134674E7094AD2F8D0239E
:10A9300010685479018C042289B28FE6044BD3F855
:10A940005C2401239FE6CBF8AC3800E59C5E070849
:10A95000A01F002020260020440100102DE9F34113
:10A96000144698460DF10702012306460F4617F0DC
:10A9700003FE88B102201AF063FA9DF8075025EA19
:10A98000040444EA0802394630468DF8072017F0DF
:10A990006FFD08981AF044FC02B0BDE8F0817B22FC
:10A9A000F42117F065BDF7B5054690F8F9000028C9
:10A9B00036D00609013E052E00F00F0000F293800C
:10A9C0004C4F07EB4603B3F8002142FA00F414F0B1
:10A9D00001040FD0012303FA00F0013810403E4477
:10A9E00067F01AFE96F80C31434C184404EBC0048F
:10A9F0002623E3802946414B41F80C3F0023009376
:10AA0000F022204619F02EFC54B1A388B3FA83F249
:10AA10004FF00043D34003D039490A6813430B6019
:10AA200095F8D830072B60D195F8F5300226002B29
:10AA30005DD1374605F1100480226B21204617F0C6
:10AA400017FD64201AF0ECFB07226821204617F05E
:10AA50000FFD64201AF0E4FB00226B21204617F062
:10AA600007FD64201AF0DCFB01226B21204617F061
:10AA7000FFFC0F201AF0D4FBFA001B21204617F030
:10AA8000F7FC0F201AF0CCFBF2001C21204617F037
:10AA9000EFFC0F201AF0C4FB2846FDF709FB1A2132
:10AAA0000246204617F0E4FC0F201AF0B9FB95F897
:10AAB000F8201921204617F0DBFC64201AF0B0FBC7
:10AAC00010223721204617F0D3FC0F201AF0A8FBE4
:10AAD00001223821204617F0CBFC0F2003B0BDE83F
:10AAE000F0401AF09DBB002484E70326A1E703276A
:10AAF000A0E700BF9C5E0708E8260020B9DB00083D
:10AB0000003C0140F7B5054690F8F900A8B30609E6
:10AB1000013E052E00F00F0066D8344F07EB4603C8
:10AB2000B3F8002142FA00F414F001040FD001231D
:10AB300003FA00F0013810403E4467F06DFD96F8CE
:10AB40000C312B4C184404EBC0042623E380294627
:10AB5000284B41F80C3F00230093F022204619F0C7
:10AB600081FB54B1A388B3FA83F24FF00043D34082
:10AB700003D021490A6813430B6005F110048022B9
:10AB80006B21204617F074FC64201AF049FB032265
:10AB90006B21204617F06CFC95F8F820192120460F
:10ABA00017F066FC0F201AF03BFB2846FDF780FAF1
:10ABB0001A210246204617F05BFC18221B21204672
:10ABC00017F056FC18221C21204617F051FC0222D7
:10ABD0003721204617F04CFC01223821204603B0D3
:10ABE000BDE8F04017F044BC0024B0E79C5E0708C5
:10ABF000E8260020B9DB0008003C014073B564235F
:10AC000000F11005009301231A460446122128463C
:10AC1000FFF7A4FE02220D21284617F029FC01208F
:10AC20001AF0FEFA02220E21284617F021FC01201C
:10AC30001AF0F6FA74221021284617F019FC0120A8
:10AC40001AF0EEFAAC221121284617F011FC012669
:10AC500001201AF0E5FA44237C22122128460096AE
:10AC6000FFF77CFE06231A46132128460096FFF7BD
:10AC700075FE00231722152128460096FFF76EFE69
:10AC80000223284600961A461821FFF767FE94F81B
:10AC9000F900A8B119F086F8054608B12623C3804B
:10ACA0002146084B41F80C3F002328460093F02230
:10ACB00019F0D8FA284602B0BDE8704063F048BEEB
:10ACC00002B070BDA1880008F7B5054690F8F900FC
:10ACD000002835D00609013E052E00F00F0073D87C
:10ACE0003A4F07EB4603B3F8002142FA00F414F0A0
:10ACF00001040FD0012303FA00F0013810403E4454
:10AD000067F08AFC96F80C31314C184404EBC0040F
:10AD10002623E38029462F4B41F80C3F0023009364
:10AD2000F022204619F09EFA54B1A388B3FA83F2B8
:10AD30004FF00043D34003D027490A6813430B6008
:10AD4000264817F0DDFC05F11004A88201226B21D2
:10AD5000204617F03BFB0F201AF062FA18221B2145
:10AD6000204617F033FB0F201AF05AFA18221C2144
:10AD7000204617F02BFB0F201AF052FA2846FDF759
:10AD800097F91A210246204617F020FB0F201AF0EF
:10AD900047FA95F8F8201921204617F017FB642090
:10ADA0001AF03EFA10223721204617F00FFB0F2031
:10ADB0001AF036FA01223821204617F007FB63F01B
:10ADC000ADF8A88203B0F0BD0024A3E79C5E07089D
:10ADD000E8260020B9DB0008003C014040420F009B
:10ADE00010B504460D4817F08BFCA08201201AF024
:10ADF00027F82046FFF7D7FD1022A0186A2117F088
:10AE0000E5FA64201AF00CFA054817F079FCA082E4
:10AE1000BDE8104001201AF013B800BF40420F00F7
:10AE2000002D310101680B78012B024604D0022B62
:10AE300001D10B6A8BB170470A4B132183F8481A72
:10AE4000016891F90400411CF5D00328F3DC117965
:10AE500003F648231B2263F031BB13221B2117F09A
:10AE6000B5BA00BFA01F00202DE9F04F054685B000
:10AE700000F1100695F8F6300393B6227E21304695
:10AE800017F0A4FAC54CC64F07EE906A4FF0640A5B
:10AE90004FF010084FF0E0224FF47A7E4FF0010996
:10AEA0007B68C3F30803002B40F0F086EFF31183B7
:10AEB000002B40F0EB86D4F86C369069D4F86C1611
:10AEC0008B42F8D1D4F878168842F4D8D4F8746656
:10AED0000EFB06F1081AB0FBF6F00EFB03007B68D0
:10AEE000C3F30803002B40F08185EFF31183002B9F
:10AEF00040F07C85D4F86C669369D4F86C168E4269
:10AF0000F8D1D4F878168B42F4D8D4F874160EFB26
:10AF100001FCACEB0303B3FBF1F30EFB06331B1A8E
:10AF2000B3F57A7FDBD3BAF1010AB9D1AB6917EE79
:10AF3000906A13B11A689B885383994B5B68C3F37B
:10AF40000803002B41F0BE83EFF31183002B41F087
:10AF5000B9834FF0E027D4F86C26B869D4F86C3682
:10AF60009A42F8D1D4F878369842F4D8ACEB000382
:10AF7000B3FBF1F34FF47A7101FB0233884F4FF0CA
:10AF8000E0214FF47A704FF0100E4FF0010C7A6808
:10AF9000C2F30802002A40F03E85EFF31182002A36
:10AFA00040F03985D4F86C96D1F81880D4F86C2626
:10AFB0009145F7D1D4F878269045F3D8D4F874A603
:10AFC00000FB0AF2A2EB0802B2FBFAF200FB092234
:10AFD000D21AB2F57A7FDAD3AB6913B11A689B88BB
:10AFE0001383DFF8BC810A224FF010094FF0E021F3
:10AFF0004FF47A7C4FF0010AB346D8F80430C3F31B
:10B000000803002B40F06086EFF31183002B40F023
:10B010005B86D4F86C368F69D4F86C068342F8D11D
:10B02000D4F878068742F4D8D4F874660CFB06F09E
:10B03000C01BB0FBF6F00CFB0300D8F80430C3F3E0
:10B040000803002B40F0B184EFF31183002B40F094
:10B05000AC84D4F86C668F69D4F86C369E42F8D113
:10B06000D4F878369F42F4D8D4F874E60CFB0EF38B
:10B07000DB1BB3FBFEF30CFB06331B1AB3F57A7F25
:10B08000DBD3013AB9D17C21584617F09FF9444BE4
:10B090005B68C3F308035E46002B41F0EF82EFF3D9
:10B0A0001183002B41F0EA824FF0E020D4F86C3697
:10B0B0008169D4F86C269342F8D1D4F8782691426D
:10B0C000F4D8D4F874764FF47A7000FB07F2521A71
:10B0D000B2FBF7F200FB0322314F4FF0E0214FF4B7
:10B0E0007A704FF0100E4FF0010C7B68C3F3080329
:10B0F000002B40F05E85EFF31183002B40F0598563
:10B10000D4F86C96D1F81880D4F86C369945F7D1FC
:10B11000D4F878369845F3D8D4F874A600FB0AF32F
:10B12000A3EB0803B3FBFAF300FB09339B1AB3F557
:10B130007A7FDAD300225921304617F047F9184BAD
:10B140005B68C3F30803002B41F07482EFF31183B3
:10B15000002B41F06F824FF0E020D4F86C3681690B
:10B16000D4F86C269342F8D1D4F878269142F4D8DA
:10B17000D4F874764FF47A7000FB07F2521AB2FBDF
:10B18000F7F200FB0322064F4FF0E0214FF47A70F4
:10B190004FF0100E4FF0010C04E000BFA01F002084
:10B1A00000ED00E07B68C3F30803002B40F024852A
:10B1B000EFF31183002B40F01F85D4F86C96D1F883
:10B1C0001880D4F86C369945F7D1D4F8783698457C
:10B1D000F3D8D4F874A600FB0AF3A3EB0803B3FB7F
:10B1E000FAF300FB09339B1AB3F57A7FDAD3CC4A22
:10B1F0004FF4A4735E21304617F0E6F9DFF824E33C
:10B200004FF00A0A4FF010084FF0E0224FF47A771F
:10B210004FF00109B346DEF80430C3F30803002BF6
:10B2200040F00D85EFF31183002B40F00885D4F832
:10B230006C369069D4F86C168B42F8D1D4F8781635
:10B240008842F4D8D4F8746607FB06F1091AB1FBFA
:10B25000F6F107FB0311DEF80430C3F30803002BFB
:10B2600040F08383EFF31183002B40F07E83D4F80A
:10B270006C069669D4F86C369842F8D1D4F87836D2
:10B280009E42F4D8D4F874C607FB0CF39B1BB3FBA7
:10B29000FCF307FB00335B1AB3F57A7FDBD3BAF11B
:10B2A000010AB8D101225921584617F08FF89D4B59
:10B2B0005B68C3F308035E46002B41F09781EFF310
:10B2C0001183002B41F092814FF0E020D4F86C36CE
:10B2D0008169D4F86C269342F8D1D4F8782691424B
:10B2E000F4D8D4F874764FF47A7000FB07F2521A4F
:10B2F000B2FBF7F200FB03228A4F4FF0E0214FF43C
:10B300007A704FF0100E4FF0010C7B68C3F3080306
:10B31000002B40F02B84EFF31183002B40F02684A8
:10B32000D4F86C96D1F81880D4F86C369945F7D1DA
:10B33000D4F878369845F3D8D4F874A600FB0AF30D
:10B34000A3EB0803B3FBFAF300FB09339B1AB3F535
:10B350007A7FDAD3039B012B00F07287AB22402166
:10B36000304617F033F86F4B5B68C3F30803002BCC
:10B3700040F04287EFF31183002B40F03D874FF000
:10B38000E020D4F86C368169D4F86C269342F8D169
:10B39000D4F878269142F4D8D4F874764FF47A70C1
:10B3A00000FB07F2521AB2FBF7F200FB03225D4FDB
:10B3B0004FF0E0214FF47A704FF0100E4FF0010C77
:10B3C0007B68C3F30803002B40F0AE83EFF31183D7
:10B3D000002B40F0A983D4F86C96D1F81880D4F8EB
:10B3E0006C369945F7D1D4F878369845F3D8D4F827
:10B3F00074A600FB0AF3A3EB0803B3FBFAF300FB0C
:10B4000009339B1AB3F57A7FDAD303224121304600
:10B4100016F0DCFF434B5B68C3F30803002B40F0DE
:10B42000C786EFF31183002B40F0C2864FF0E02077
:10B43000D4F86C368169D4F86C269342F8D1D4F8EC
:10B4400078269142F4D8D4F874764FF47A7000FBE1
:10B4500007F2521AB2FBF7F200FB0322314F4FF012
:10B46000E0214FF47A704FF0100E4FF0010C7B6822
:10B47000C3F30803002B40F03583EFF31183002B57
:10B4800040F03083D4F86C96D1F81880D4F86C363C
:10B490009945F7D1D4F878369845F3D8D4F874A6FE
:10B4A00000FB0AF3A3EB0803B3FBFAF300FB093339
:10B4B0009B1AB3F57A7FDAD3ED224221304616F09B
:10B4C00085FF184B5B68C3F30803002B40F04C86E4
:10B4D000EFF31183002B40F047864FF0E020D4F8C3
:10B4E0006C368169D4F86C269342F8D1D4F878266A
:10B4F0009142F4D8D4F874764FF47A7000FB07F2D6
:10B50000521AB2FBF7F200FB0322064F4FF0E02184
:10B510004FF47A704FF0100E4FF0010C04E000BFB2
:10B52000B05F070800ED00E07B68C3F30803002B61
:10B5300040F0B682EFF31183002B40F0B182D4F8D3
:10B540006C96D1F81880D4F86C369945F7D1D4F8B8
:10B5500078369845F3D8D4F874A600FB0AF3A3EB29
:10B560000803B3FBFAF300FB09339B1AB3F57A7FA8
:10B57000DAD308224321304616F028FFCC4B5B6813
:10B58000C3F30803002B40F05C85EFF31183002B1D
:10B5900040F057854FF0E020D4F86C368169D4F83C
:10B5A0006C269342F8D1D4F878269142F4D8D4F896
:10B5B00074764FF47A7000FB07F2521AB2FBF7F27E
:10B5C00000FB0322BA4F4FF0E0214FF47A704FF0A6
:10B5D000100E4FF0010C7B68C3F30803002B40F002
:10B5E0003D82EFF31183002B40F03882D4F86C36A3
:10B5F000D1F81880D4F86C969945F7D1D4F87836FC
:10B600004345F3D3D4F874A600FB0AF3A3EB080375
:10B61000B3FBFAF300FB09339B1AB3F57A7FDAD355
:10B62000039B012B00F0908404225821304616F031
:10B63000CDFE9F4B5B68C3F30803002B40F0628391
:10B64000EFF31183002B40F05D834FF0E020D4F83E
:10B650006C368169D4F86C269342F8D1D4F87826F8
:10B660008A42F4D3D4F874764FF47A7000FB07F270
:10B67000521AB2FBF7F200FB0322DFF834E24FF07C
:10B68000E0204FF47A714FF0100C0127DEF80430FF
:10B69000C3F30803002B40F0BE83EFF31183002BAC
:10B6A00040F0B983D4F86C96D0F81880D4F86C3692
:10B6B0009945F7D1D4F878364345F3D3D4F874A636
:10B6C00001FB0AF3A3EB0803B3FBFAF301FB093315
:10B6D0009B1AB3F57A7FD9D30A225321304616F04C
:10B6E00075FE734B5B68C3F30803002B40F0F184D5
:10B6F000EFF31183002B40F0EC844FF0E020D4F8FE
:10B700006C268169D4F86C369342F8D1D4F8782647
:10B710009142F4D8D4F874764FF47A7000FB07F2B3
:10B72000521AB2FBF7F200FB0322614F4FF0E02107
:10B730004FF47A704FF0100E4FF0010C7B68C3F39A
:10B740000803002B40F04583EFF31183002B40F0FA
:10B750004083D4F86C96D1F81880D4F86C369945AB
:10B76000F7D1D4F878364345F3D3D4F874A600FB68
:10B770000AF3A3EB0803B3FBFAF300FB09339B1AAC
:10B78000B3F57A7FDAD302227C21304616F01EFE12
:10B79000474B5B68C3F30803002B40F07684EFF35C
:10B7A0001183002B40F071844FF0E020D4F86C2618
:10B7B0008169D4F86C369342F8D1D4F87826914256
:10B7C000F4D8D4F874764FF47A7000FB07F2521A6A
:10B7D000B2FBF7F200FB0322354F4FF0E0214FF4AC
:10B7E0007A704FF0100E4FF0010C7B68C3F3080322
:10B7F000002B40F0CC82EFF31183002B40F0C78286
:10B80000D4F86C36D1F81880D4F86C969945F7D1F5
:10B81000D4F878369845F3D8D4F874A600FB0AF328
:10B82000A3EB0803B3FBFAF300FB09339B1AB3F550
:10B830007A7FDAD30E227D21304616F0C7FD1C4BED
:10B840005B68C3F30803002B40F06784EFF31183B8
:10B85000002B40F062844FF0E020D4F86C36816910
:10B86000D4F86C269342F8D1D4F878268A42F4D3DF
:10B87000D4F874764FF47A7000FB07F2521AB2FBD8
:10B88000F7F200FB03220A4F4FF0E0214FF47A70E9
:10B890004FF0100E4FF0010C7B68C3F30803002B30
:10B8A00040F05382EFF31183002B40F04E8201E011
:10B8B00000ED00E0D4F86C96D1F81880D4F86C361E
:10B8C0009945F7D1D4F878369845F3D8D4F874A6CA
:10B8D00000FB0AF3A3EB0803B3FBFAF300FB093305
:10B8E0009B1AB3F57A7FD7D3039B012B00F0B58267
:10B8F00095F8F930002B35D01C09013C052C03F0DC
:10B900000F0300F2D687DD4E06EB4402B2F80001C9
:10B9100040FA03F2D20740F1CC87012202FA03F386
:10B92000013B1840264466F077FE96F80C31D44C63
:10B93000184404EBC0042946D24B2622E28041F889
:10B940000C3F00230093F022204618F08BFCA288C5
:10B950004FF00043B2FA82F2D34003D0CA490A68DA
:10B9600013430B6005B0BDE8F08FEFF3118688F349
:10B970001288D2F818C01369DB0344BFC4F870966C
:10B98000D2F818C0D4F86C36D4F87006F6B286F344
:10B990001188D4F87466184407FB06F3A3EB0C0374
:10B9A000B3FBF6F307FB003375E4EFF3118789F37C
:10B9B0001288D1F818E00B69DB0344BFC4F870A605
:10B9C000D1F818E0D4F86C36D4F87066FFB287F37B
:10B9D0001188D4F874761E440CFB07F3A3EB0E0316
:10B9E000B3FBF7F30CFB0633FFF747BBEFF3118113
:10B9F00088F3128893691669F60344BFC4F87096F9
:10BA00009369D4F86C66D4F870C6C9B281F3118812
:10BA10006644FFF77ABAEFF311828EF31288D1F8F9
:10BA20001890D1F8108018F4803F03D0C4F870C685
:10BA3000D1F81890D4F86C86D4F870A6D2B282F3FC
:10BA40001188D044D4F874A600FB0AF2A2EB0902D4
:10BA5000B2FBFAF200FB0822FFF7BABAEFF3118348
:10BA60008EF31288D1F81890D1F8108018F4803F26
:10BA700003D0C4F870C6D1F81890D4F86C86D4F806
:10BA800070A6DBB283F31188D044D4F874A600FB0F
:10BA90000AF3A3EB0903B3FBFAF300FB0833BBE59E
:10BAA000EFF311838EF31288D1F81890D1F810803B
:10BAB00018F4803F03D0C4F870C6D1F81890D4F8B9
:10BAC0006C86D4F870A6DBB283F31188D044D4F826
:10BAD00074A600FB0AF3A3EB0903B3FBFAF300FB24
:10BAE000083342E5EFF311838EF31288D1F81890F2
:10BAF000D1F8108018F4803F03D0C4F870C6D1F894
:10BB00001890D4F86C86D4F870A6DBB283F3118851
:10BB1000D044D4F874A600FB0AF3A3EB0903B3FBEB
:10BB2000FAF300FB0833C3E4EFF311838EF31288BA
:10BB3000D1F81890D1F8108018F4803F03D0C4F8E1
:10BB400070C6D1F81890D4F86C86D4F870A6DBB221
:10BB500083F31188D044D4F874A600FB0AF3A3EB56
:10BB60000903B3FBFAF300FB08334AE4EFF3118354
:10BB70008EF31288D1F81890D1F8108018F4803F15
:10BB800003D0C4F870C6D1F81890D4F86C86D4F8F5
:10BB900070A6DBB283F31188D044D4F874A600FBFE
:10BBA0000AF3A3EB0903B3FBFAF300FB0833FFF737
:10BBB000CDBBEFF311838EF31288D1F81890D1F832
:10BBC000108018F4803F03D0C4F870C6D1F81890E4
:10BBD000D4F86C86D4F870A6DBB283F31188D04415
:10BBE000D4F874A600FB0AF3A3EB0903B3FBFAF342
:10BBF00000FB0833FFF79ABAEFF311838EF3128834
:10BC0000D1F81890D1F8108018F4803F03D0C4F810
:10BC100070C6D1F81890D4F86C86D4F870A6DBB250
:10BC200083F31188D044D4F874A600FB0AF3A3EB85
:10BC30000903B3FBFAF300FB0833FFF7D4BAEFF3C1
:10BC4000118088F3128896691369D90344BFC4F838
:10BC500070969669D4F86C36D4F87016C0B280F33A
:10BC60001188D4F874060B4407FB00F1891BB1FB63
:10BC7000F0F107FB0311FFF7EEBA00BF9C5E070867
:10BC8000E82600202DDE0008003C0140EFF3118182
:10BC900088F3128896691369DB0344BFC4F8709671
:10BCA0009669D4F86C36D4F87006C9B281F311885D
:10BCB000D4F8741603440EFB01F0801BB0FBF1F0C6
:10BCC0000EFB0300FFF70BB9EFF3118789F312881E
:10BCD0008E690B69D80344BFC4F870A68E69D4F886
:10BCE0006C36D4F87006FFB287F31188D4F87476F6
:10BCF00003440CFB07F0801BB0FBF7F00CFB0300C8
:10BD0000FFF79BB9EFF31182102383F312884FF0F2
:10BD1000E02399691869C00303D50121C4F870169E
:10BD20009969D4F86C06D4F87036D2B282F31188CF
:10BD3000D4F874761A184FF47A7000FB07F35B1A84
:10BD4000B3FBF7F300FB023297E4EFF311838EF3BA
:10BD50001288D1F81890D1F8108018F4803F03D0E1
:10BD6000C4F870C6D1F81890D4F86C86D4F870A6D0
:10BD7000DBB283F31188D044D4F874A600FB0AF335
:10BD8000A3EB0903B3FBFAF300FB0833A8E5EFF3D9
:10BD900011838EF31288D1F81890D1F8108018F41E
:10BDA000803F03D0C4F870C6D1F81890D4F86C86E0
:10BDB000D4F870A6DBB283F31188D044D4F874A60B
:10BDC00000FB0AF3A3EB0903B3FBFAF300FB083310
:10BDD0002CE5EFF311838EF31288D1F81890D1F887
:10BDE000108018F4803F03D0C4F870C6D1F81890C2
:10BDF000D4F86C86D4F870A6DBB283F31188D044F3
:10BE0000D4F874A600FB0AF3A3EB0903B3FBFAF31F
:10BE100000FB0833B3E4EFF311838CF31288D0F8FE
:10BE20001890D0F8108018F4803F03D0C4F87076D2
:10BE3000D0F81890D4F86C86D4F870A6DBB283F3EF
:10BE40001188D044D4F874A601FB0AF3A3EB0903CC
:10BE5000B3FBFAF301FB08333AE4B0227E2130460B
:10BE600016F0B4FABF4B5B68C3F30803002B40F035
:10BE70002C85EFF31183002B40F027854FF0E02055
:10BE8000D4F86C368269D4F86C168B42F8D1D4F8A9
:10BE900078168A42F4D8D4F874064FF47A7101FB0C
:10BEA00000F6B61AB6FBF0F601FB0366DFF8B482C3
:10BEB000D8F80430C3F308034FF0E0214FF47A7749
:10BEC0004FF0100E4FF0010C0BBBEFF31183F3B9E1
:10BED000D4F86C368869D4F86C269342F8D1D4F83B
:10BEE00078268242F4D3D4F8749607FB09F2121A2A
:10BEF000B2FBF9F207FB03239B1BB3F57A7FBFF478
:10BF0000F7ACD8F80430C3F30803002BDDD0EFF30F
:10BF100011838EF3128888690A69D20302D5C4F8A6
:10BF200070C68869D4F86C96D4F87026DBB283F3B7
:10BF300011884A44D4F8749607FB09F31B1AB3FB23
:10BF4000F9F307FB0233D7E702225821304616F0F7
:10BF50003DFA844B5B68C3F30803002B40F04A842E
:10BF6000EFF31183002B40F045844FF0E020D4F82C
:10BF70006C268169D4F86C369342F8D1D4F87826CF
:10BF80009142F4D8D4F87476DFF8D8E14FF47A709F
:10BF900000FB07F2521AB2FBF7F200FB0322DEF8B5
:10BFA0000430C3F308034FF0E0214FF47A704FF0F0
:10BFB000100C01271BBBEFF3118303BBD4F86C36C5
:10BFC000D1F81880D4F86C969945F7D1D4F8783622
:10BFD0004345F3D3D4F874A600FB0AF3A3EB08039C
:10BFE000B3FBFAF300FB09339B1AB3F57A7FBFF476
:10BFF00073ABDEF80430C3F30803002BDBD0EFF3A0
:10C0000011838CF31288D1F81890D1F8108018F4AD
:10C01000803F03D0C4F87076D1F81890D4F86C86BD
:10C02000D4F870A6DBB283F31188D044D4F874A698
:10C0300000FB0AF3A3EB0903B3FBFAF300FB08339D
:10C04000D2E7EFF31182102383F312884FF0E0233D
:10C0500099691869C00303D50121C4F8701699695C
:10C06000D4F86C06D4F87036D2B282F31188D4F8C2
:10C0700074761A184FF47A7000FB07F35B1AB3FB5F
:10C08000F7F300FB0232FFF79DBAEFF311821023A2
:10C0900083F312884FF0E02399691869C00303D530
:10C0A0000121C4F870169969D4F86C06D4F870367A
:10C0B000D2B282F31188D4F874761A184FF47A70D9
:10C0C00000FB07F35B1AB3FBF7F300FB0232FFF749
:10C0D00083BBEFF31182102383F312884FF0E02328
:10C0E00099691869C70303D50121C4F870169969C5
:10C0F000D4F86C06D4F87036D2B282F31188D4F832
:10C1000074761A184FF47A7000FB07F35B1AB3FBCE
:10C11000F7F300FB0232FFF708BBEFF311821023A5
:10C1200083F312884FF0E02399691869C70303D598
:10C130000121C4F870169969D4F86C06D4F87036E9
:10C14000D2B282F31188D4F874761A184FF47A7048
:10C1500000FB07F35B1AB3FBF7F300FB0232FFF7B8
:10C1600092BB00BF00ED00E0EFF31182102383F3D8
:10C1700012884FF0E02399691869C70303D501219C
:10C18000C4F870169969D4F86C06D4F87036D2B237
:10C1900082F31188D4F874761A184FF47A7000FB81
:10C1A00007F35B1AB3FBF7F300FB0232FFF7ADB9FD
:10C1B000EFF31182102383F312884FF0E023996983
:10C1C0001869C00303D50121C4F870169969D4F821
:10C1D0006C06D4F87036D2B282F31188D4F8747633
:10C1E0001A184FF47A7000FB07F35B1AB3FBF7F3EE
:10C1F00000FB0232FFF732B9EFF31182102383F311
:10C2000012884FF0E02399691869C70303D501210B
:10C21000C4F870169969D4F86C06D4F87036D2B2A6
:10C2200082F31188D4F874761A184FF47A7000FBF0
:10C2300007F35B1AB3FBF7F300FB0232FFF7B7B863
:10C2400000224821304616F0C1F8C94B5B68C3F3A1
:10C250000803002B40F00A83EFF31183002B40F01A
:10C2600005834FF0E020D4F86C368269D4F86C1660
:10C270008B42F8D1D4F878168A42F4D8D4F87406F0
:10C280004FF47A7101FB00F7BF1AB7FBF0F701FB1F
:10C290000377DFF8DC924FF0E0214FF47A7C4FF027
:10C2A00010084FF0010ED9F80430C3F30803002B37
:10C2B00040F02C82EFF31183002B40F02782D4F85A
:10C2C0006C368869D4F86C269342F8D1D4F8782675
:10C2D0009042F4D8D4F874A60CFB0AF2121AB2FBFE
:10C2E000FAF20CFB0323DB1BB3F57A7FDBD380224E
:10C2F0004921304616F06AF89D4B5B68C3F308038A
:10C30000002B40F09082EFF31183002B40F08B82E2
:10C310004FF0E020D4F86C368269D4F86C168B426A
:10C32000F8D1D4F878168A42F4D8D4F874064FF4C9
:10C330007A7101FB00F7BF1AB7FBF0F701FB037737
:10C34000DFF82C924FF0E0214FF47A7C4FF0100888
:10C350004FF0010ED9F80430C3F30803002B40F06E
:10C360002C82EFF31183002B40F02782D4F86C3637
:10C370008869D4F86C269342F8D1D4F87826904294
:10C38000F4D8D4F874A60CFB0AF2121AB2FBFAF233
:10C390000CFB0323DB1BB3F57A7FDBD300224521A3
:10C3A000304616F013F8724B5B68C3F30803002B9A
:10C3B00040F0F582EFF31183002B40F0F0824FF054
:10C3C000E020D4F86C368269D4F86C168B42F8D130
:10C3D000D4F878168A42F4D8D4F874064FF47A71F7
:10C3E00001FB00F7BF1AB7FBF0F701FB0377DFF89B
:10C3F00080914FF0E0214FF47A7C4FF010084FF01D
:10C40000010ED9F80430C3F30803002B40F0B881C3
:10C41000EFF31183002B40F0B381D4F86C368869B8
:10C42000D4F86C269342F8D1D4F878269042F4D808
:10C43000D4F874A60CFB0AF2121AB2FBFAF20CFB47
:10C440000323DB1BB3F57A7FDBD30622462130467C
:10C4500015F0BCFF464B5B68C3F30803002B40F0AC
:10C460007B82EFF31183002B40F076824FF0E020C7
:10C47000D4F86C368269D4F86C168B42F8D1D4F8B3
:10C4800078168A42F4D8D4F874064FF47A7101FB16
:10C4900000F7BF1AB7FBF0F701FB0377DFF8D09086
:10C4A0004FF0E0214FF47A7C4FF010084FF0010E6E
:10C4B000D9F80430C3F30803002B40F04481EFF3B4
:10C4C0001183002B40F03F81D4F86C368869D4F892
:10C4D0006C269342F8D1D4F878269042F4D8D4F858
:10C4E00074A60CFB0AF2121AB2FBFAF20CFB03233D
:10C4F000DB1BB3F57A7FDBD300224721304615F0F2
:10C5000065FF1B4B5B68C3F30803002B40F00182FF
:10C51000EFF31183002B40F0FC814FF0E020D4F8C2
:10C520006C368269D4F86C168B42F8D1D4F8781640
:10C530008A42F4D8D4F874064FF47A7101FB00F7FC
:10C54000BF1AB7FBF0F701FB0377DFF82490D9F8A7
:10C550000430C3F308034FF0E0214FF47A7C4FF02E
:10C5600010084FF0010E23BBEFF311830BBB01E06A
:10C5700000ED00E0D4F86C368869D4F86C2693425C
:10C58000F8D1D4F878269042F4D8D4F874A60CFBED
:10C590000AF2121AB2FBFAF20CFB0323DB1BB3F50F
:10C5A0007A7FBEF4DBAED9F80430C3F30803002B66
:10C5B000DAD0EFF3118388F3128888690A69D2030D
:10C5C00002D5C4F870E68869D4F86C26D4F870A651
:10C5D000DBB283F311885244D4F874A60CFB0AF33F
:10C5E0001B1AB3FBFAF30CFB0233D7E7EFF311820C
:10C5F000102383F312884FF0E02399691869C70369
:10C6000003D50121C4F870169969D4F86C06D4F8E2
:10C610007036D2B282F31188D4F874761A184FF4B7
:10C620007A7000FB07F35B1AB3FBF7F300FB0232EF
:10C63000FEF762BEEFF31182102383F312884FF0EE
:10C64000E02399691869C00303D50121C4F8701665
:10C650009969D4F86C06D4F87036D2B282F3118896
:10C66000D4F874761A184FF47A7000FB07F35B1A4B
:10C67000B3FBF7F300FB0232FEF785BDEFF3118247
:10C68000102383F312884FF0E02399691869C703D8
:10C6900003D50121C4F870169969D4F86C06D4F852
:10C6A0007036D2B282F31188D4F874761A184FF427
:10C6B0007A7000FB07F35B1AB3FBF7F300FB02325F
:10C6C000FEF70ABDEFF31182102383F312884FF0B7
:10C6D000E02399691869C70303D50121C4F87016CE
:10C6E0009969D4F86C06D4F87036D2B282F3118806
:10C6F000D4F874761A184FF47A7000FB07F35B1ABB
:10C70000B3FBF7F300FB0233FEF738BCEFF3118302
:10C7100088F3128888690A69D20302D5C4F870E6E2
:10C720008869D4F86C26D4F870A6DBB283F311883C
:10C730005244D4F874A60CFB0AF31B1AB3FBFAF3A9
:10C740000CFB0233CFE5EFF3118388F3128888697D
:10C750000A69D20302D5C4F870E68869D4F86C2659
:10C76000D4F870A6DBB283F311885244D4F874A6CF
:10C770000CFB0AF31B1AB3FBFAF30CFB0233B7E60C
:10C78000EFF3118388F3128888690A69D20302D50E
:10C79000C4F870E68869D4F86C26D4F870A6DBB2C9
:10C7A00083F311885244D4F874A60CFB0AF31B1AC5
:10C7B000B3FBFAF30CFB023343E6EFF3118388F388
:10C7C000128888690A69D20302D5C4F870E68869BC
:10C7D000D4F86C26D4F870A6DBB283F311885244E7
:10C7E000D4F874A60CFB0AF31B1AB3FBFAF30CFB88
:10C7F0000233CFE5EFF31182102383F312884FF059
:10C80000E02399691869C70303D50121C4F870169C
:10C810009969D4F86C06D4F87036D2B282F31188D4
:10C820000344FFF7AFBBEFF31182102383F31288A9
:10C830004FF0E02399691869C00303D50121C4F8BA
:10C8400070169969D4F86C76D4F87036D2B282F347
:10C850001188D4F874064FF47A723B4402FB00F757
:10C860007F1AB7FBF0F702FB037769E5EFF311825C
:10C87000102383F312884FF0E02399691869C003ED
:10C8800003D50121C4F870169969D4F86C76D4F8F0
:10C890007036D2B282F31188D4F874064FF47A72EB
:10C8A0003B4402FB00F77F1AB7FBF0F702FB03776C
:10C8B000EFE429464B4B41F80C3F00230093F02254
:10C8C000184617F0CFFCFFF74DB8EFF31182102395
:10C8D00083F312884FF0E02399691869C00303D5E8
:10C8E0000121C4F870169969D4F86C66D4F87036D2
:10C8F000D2B282F31188D4F874064FF47A723344BA
:10C9000002FB00F6761AB6FBF0F602FB0366FFF7B1
:10C91000CDBAEFF31182102383F312884FF0E02396
:10C9200099691869C00303D50121C4F87016996983
:10C93000D4F86C76D4F87036D2B282F31188D4F879
:10C9400074064FF47A723B4402FB00F77F1AB7FB80
:10C95000F0F702FB0377F8E5EFF31182102383F37E
:10C9600012884FF0E02399691869C00303D50121AB
:10C97000C4F870169969D4F86C76D4F87036D2B2CF
:10C9800082F31188D4F874064FF47A723B4402FBA8
:10C9900000F77F1AB7FBF0F702FB03777EE5EFF3B2
:10C9A0001182102383F312884FF0E02399691869EC
:10C9B000C00303D50121C4F870169969D4F86C76C8
:10C9C000D4F87036D2B282F31188D4F874064FF4DA
:10C9D0007A723B4402FB00F77F1AB7FBF0F702FBC9
:10C9E000037704E52DDE000838B51D4D95F8493A6A
:10C9F00004462BB961F092FA0123A08085F8493AE8
:10CA0000184815F07DFE80226B21A080204615F08D
:10CA1000DDFC642018F004FC03226821204615F098
:10CA2000D5FC642018F0FCFBF521204615F016FE1D
:10CA3000AC2810D00AD812280FD0982814BF00258F
:10CA40000B2561F06BFAA080284638BDAF2814BFD3
:10CA500000250925F5E70725F3E70825F1E700BFDD
:10CA6000A01F002040420F0038B504461B4815F0B7
:10CA700047FE80226B21A080204615F0A7FC642091
:10CA800018F0CEFB07226821204615F09FFC642099
:10CA900018F0C6FBF521204615F0E0FD0546012003
:10CAA00018F0CEF9682D17D18C21204615F0D6FD4F
:10CAB000182809D8142834BF00250325084815F084
:10CAC0001FFEA080284638BDA0F15403DBB2072B1F
:10CAD00034BF03250025F1E70025EFE740420F00B2
:10CAE000002D310110B50446154815F009FEF52159
:10CAF000A080204615F0B2FD702818D008D8422832
:10CB000017D0472817D0122814BF0020082010BDC6
:10CB1000AC2812D006D800F0FD00712814BF002008
:10CB20000620F4E7AF2814BF00200920EFE7052016
:10CB3000EDE70C20EBE70D20E9E70720E7E700BF72
:10CB4000002D3101582162F0A1BA482162F09EBA4D
:10CB5000BFF34F8F0549064BCA6802F4E0621343E6
:10CB6000CB60BFF34F8F00BFFDE700BF00ED00E0DB
:10CB70000400FA051648174A174938B5174C184DDE
:10CB8000121A69F0D5F8D4F88820164B164842F4EA
:10CB90007002C4F888201A68002142F001021A606D
:10CBA00099601A6822F0847222F480321A60586008
:10CBB0001A6822F480221A600C4AD960521B284657
:10CBC0000B4969F0B5F8A560BDE83840FBF718BA25
:10CBD00000000010080000101FB5080800ED00E07C
:10CBE000000000200038024010300024880100209E
:10CBF000000000082DE9F04302691778012F85B085
:10CC000004460D4618D10B79013B13714B79002B6B
:10CC100008BF682300F1100803754FF000093B4678
:10CC20000DF10502752140468DF8059015F0A4FC24
:10CC30000646002835D1226902231370EB7823B908
:10CC40000026304605B0BDE8F08304F11009A9784C
:10CC5000484615F085FD06460028F1D0E87817F023
:10CC6000A1F8A0612B780133DBB210B1C37122238C
:10CC70008371092117F0B8FAA069DFF800813E4FEF
:10CC800015F068FD02E058F8047F5FB34846B847E6
:10CC900003460028F7D0206984F8D83064F03EF9C4
:10CCA000CFE7206964F03AF93B4649460DF10602A8
:10CCB000404615F061FC9DF8063003F07E038DF8C8
:10CCC000063008B1682B14D09DF8053003F07E03C0
:10CCD000682B8DF805300FD0702BB2D1042384F867
:10CCE000D830AEE7E87817F05DF817F09CFA3E46CA
:10CCF000A7E784F8D870A4E70222062384F8D82096
:10CD0000194602AA404615F037FCE0B19DF80D30F7
:10CD10009DF80B209B00520002F0020203F0040376
:10CD200013439DF8092002F0010213430BD0012B9D
:10CD30001DD0022B17D003F00303032B13D00320C5
:10CD400018F02AFC7DE701230DF1070240460C2173
:10CD500015F012FC0028F2D09DF8073013F00F03F5
:10CD6000EDD0042B03D0012384F8D93069E70023E8
:10CD700084F8D93065E700BF69CA0008F860070881
:10CD800043680B4A23F0407323F4807343F48073A9
:10CD9000436083681A4042F002028260C36A01392C
:10CDA000CAB223F4700141EA0251C162704700BF68
:10CDB000FDF7FFC0704700BF0020FBF78DB900BF33
:10CDC0000120FBF789B900BF0220FBF785B900BF3E
:10CDD000431C00F044812DE9F04FDFF8CCA300EBB9
:10CDE00080030AEBC30287B0D2F8048081000546B5
:10CDF0000191DB00B8F1000F05D0D468002C00F0E1
:10CE0000FD80A17911B107B0BDE8F08FD2F8109084
:10CE1000B9F1000F00F03B8199F80620002AF2D109
:10CE200018330AF10406F018D8F80470F250691C9F
:10CE3000C0E901221523C260C9B2A3711623E171B2
:10CE400089F8071089F8063098F8180061F090FB0F
:10CE5000BB882268A18823F440731B041B0CBB8091
:10CE6000D9F800301183B9F804201A831121204623
:10CE700016F0DCFF1121484616F0D8FF09264FF0C6
:10CE8000330B05E0BBF1010B00F0E38017F0D8FF96
:10CE90000A20002CF6D02268A18813691942F1D02B
:10CEA0005183052017F0CCFF2368A2881A83052040
:10CEB00017F0C6FF013EE2D1002C00F00D8123687F
:10CEC000A2885A83052017F0BBFFB9F1000F00F0CC
:10CED0002B81D9F80030B9F804205A83052017F0C7
:10CEE000AFFF2368A2881A83052017F0A9FFD9F89D
:10CEF0000030B9F804201A83019B20465C190AEB24
:10CF0000C404A37D227D002B14BF3221122114F012
:10CF1000BDFFA37D627D002B14BF32211221484644
:10CF200014F0B4FF9A4B9F4200F0E880994B9F4267
:10CF300000F0EF80984B9F4200F00081019B2B4452
:10CF40000AEBC30A4FF47A73BAF8184003FB04F4EF
:10CF5000BB8823F440731B041B0CBB803B889BB233
:10CF600043F001033B80BD8802A85AF0FFFC25F086
:10CF70003F050498894B2D04A3FB00232D0C45EAA3
:10CF80009345BD803A8822F001021204120C3A80C7
:10CF9000834A990C94420B4662DC6200B0FBF2F2C9
:10CFA00092B20133042A38BF04223B84BA833B88FF
:10CFB0009BB243F001033B803B8823F4816323F061
:10CFC00002031B041B0C4FF4804143F480633B803D
:10CFD00039813B8823F080031B041B0C00223B801B
:10CFE00098F81A0011465FF0FDFD002298F819002C
:10CFF000114607B0BDE8F04F5FF0F4BDD2F81090D5
:10D00000B9F1000F00F0A58099F80620002A7FF4FE
:10D01000FAAE18330AF10401CA18D8F80470CC50DB
:10D02000C2E901441623D46089F806306B1C89F8E4
:10D03000073098F8180061F09BFABB88B9F8042013
:10D0400023F440731B041B0CBB80D9F800301A83F7
:10D0500010E7002C3DD1052017F0F2FE27E77047BE
:10D0600004EB4404B0FBF4F082B2C0F30B0008B947
:10D0700042F001024FF4967301FB03F34949A1FB0F
:10D0800003139B09013342F400423B848EE70AF10B
:10D0900004011833CA18D8F8047041F80390C2E9A3
:10D0A00001991523C2F80C90A371431CE37198F801
:10D0B000180061F05DFABB88A28823F440731B045A
:10D0C0001B0CBB80236811211A83204616F0AEFE8C
:10D0D000D4E62268A188E3E6052017F0B1FEB9F195
:10D0E000000F4DD0D9F80030B9F804205A8305203C
:10D0F00017F0A6FE052017F0A3FEF8E603F5F233BD
:10D100001A6A42F400121A621A6A22F400121A62AF
:10D1100014E703F5F0331A6A42F480021A621A6ABD
:10D1200022F480021A6209E7052017F089FE2368BD
:10D13000A2881A83052017F083FEDDE603F5EE339F
:10D140001A6A42F400021A621A6A22F400021A628F
:10D15000F4E618330AF10401CA18D8F8047041F84B
:10D160000390C2E90199C2F80C9098F8180061F098
:10D17000FFF9BB8823F440731B041B0CBB807DE6C6
:10D18000052017F05DFE052017F05AFEB4E600BF3B
:10D190000054004000580040005C004083DE1B4308
:10D1A000A0860100D34D6210A01F00202DE9F84396
:10D1B000074617F0C5FDDFF84C8007EB87090446EA
:10D1C00008EBC90542F20F7604E017F0B9FD031B26
:10D1D000B3420ADC6B7F002BF7D108EBC90898F843
:10D1E0001C0080F00100BDE8F883B8F84A3A01332A
:10D1F00038469BB2A8F84A3AFFF7EAFD0020BDE89E
:10D20000F88300BFA01F002010B582B08DF8073052
:10D21000431C0CD00328044609DC0DF1070361F020
:10D220004DF920B12046FFF7C1FF02B010BD00202C
:10D2300002B010BD70B5284D00EB800305EBC303B1
:10D2400084B05A685468A28A92B20392039A12F484
:10D25000706F1CBF01221A77039B13F4E06F4FEA33
:10D2600080060CD1A38A304423F4706305EBC0051B
:10D270001B041B0C0022A3826A7704B070BD238BB1
:10D28000A38823F480631B041B0CA380039B9A05D3
:10D29000E8D423889B05E5D42388D9050FD52388B6
:10D2A000DA05FCD423889BB243F4007323802388DF
:10D2B0009B05FCD40190FFF78BFD0198D2E72388F2
:10D2C0009BB243F400732380A38823F440731B04B0
:10D2D0001B0CA380C6E700BFA01F00200020A9E709
:10D2E0000120A7E70220A5E72DE9F84F304F00EB1A
:10D2F000800407EBC404D4F80880B8F1000F04D010
:10D300009A46637F03F0FF0923B14FF000094846B6
:10D31000BDE8F88F0E469346054617F011FD0A9BAF
:10D320007600F6B2C4E909330123A67784F81FB06A
:10D3300084F8219084F8223084F820A0637784F860
:10D340001C90B8F804209105064622D4B8F80030A5
:10D35000DA0512D442F20F7404E017F0F1FC831BDB
:10D36000A3421ADCB8F800309B05F6D4B8F80030B8
:10D370009BB243F48073A8F80030B8F804309BB235
:10D380004FF0010943F44073A8F804304846BDE863
:10D39000F88F99464846BDE8F88FB7F84A3A013306
:10D3A0009BB22846A7F84A3AFFF712FDAFE700BF45
:10D3B000A01F002030B50446806902691378012B54
:10D3C00085B006D0022B01D1136A33B3002005B01B
:10D3D00030BD92F904506B1CF8D0032DF6DC02AB83
:10D3E000017D00933B2206232846FFF77DFF00289E
:10D3F000ECD02846FFF7DAFE0028E7D0BDF8081089
:10D40000BDF80A20BDF80C3049BA52BA5BBA012007
:10D41000E1812282638205B030BD062302AABB21CE
:10D42000103015F053F8E9E730B502691378012B95
:10D4300085B0044606D0022B01D1136A4BB30020FD
:10D4400005B030BD92F904506B1CF8D0032DF6DC0A
:10D4500002AB017D0093432206232846FFF744FFD9
:10D460000028ECD02846FFF7A1FE0028E7D0BDF841
:10D470000810BDF80A20BDF80C3049BA52BA5BBAA0
:10D480000120A4F8D010A4F8D220A4F8D43005B01C
:10D4900030BD062302AAC321103015F017F8E6E7C5
:10D4A000F7B5044690F8F900002836D00609013E89
:10D4B000052E00F00F0000F2A280534F07EB460349
:10D4C000B3F8002142FA00F515F001050FD0012351
:10D4D00003FA00F0013810403E4465F09DF896F8DC
:10D4E0000C314A4D184405EBC0052623EB8021463C
:10D4F000474B41F80C3F00230093F022284616F0DA
:10D50000B1FE55B1AB88B3FA83F24FF00043D3407C
:10D5100003D040490A6813430B603F4815F0F0F808
:10D5200004F1100503226B21A082284614F04EFF5F
:10D530000F2017F085FC10226A21284614F046FFC0
:10D540000F2017F07DFC00226C21284614F03EFFCE
:10D550000F2017F075FC94F8F8201921284614F0D4
:10D5600035FF0F2017F06CFC18221B21284614F001
:10D570002DFF0F2017F064FC18221C21284614F000
:10D5800025FF0F2017F05CFC10223721284614F0ED
:10D590001DFF0F2017F054FC01223821284614F0FB
:10D5A00015FF0F2017F04CFC1C4815F0A9F8A082BD
:10D5B000012017F045FC184815F0A2F8A08220467B
:10D5C000FAF776FD1A210246284614F0FFFE0120E4
:10D5D00017F036FC114815F093F8A0822046FFF7AB
:10D5E00023FF94F9D23001330BD194F9D0300133B9
:10D5F00007D1062003B0BDE8F04017F0CDBF0025ED
:10D6000075E703B0F0BD00BF9C5E0708E826002068
:10D61000B9DB0008003C014040420F00002D310101
:10D6200030B50446806902691378012B85B00CD0AF
:10D63000022B01D1136AE3B1029ABDF80C30C4F891
:10D640000E200120638205B030BD92F904506B1C9E
:10D65000F2D0032DF0DC02AB017D009328220623DB
:10D660002846FFF741FE0028E6D02846FFF79EFD3A
:10D67000E2E7062302AAA821103014F027FFDBE717
:10D6800030B502691378012B85B004460DD0022B0A
:10D6900001D1136AEBB1029ABDF80C30C4F8D02066
:10D6A0000120A4F8D43005B030BD92F904506B1CB1
:10D6B000F1D0032DEFDC02AB017D00932222062383
:10D6C0002846FFF711FE0028E5D02846FFF76EFD3B
:10D6D000E1E7062302AAA221103014F0F7FEDAE7F0
:10D6E00037B50546006861F0BFFC0246E8B92B6813
:10D6F0001C78022C08D1196A21B90D4A0323284647
:10D7000014F0E4FE01240DE0012CFBD193F9040098
:10D71000431C07D0032805DC054B0093297903231C
:10D72000FFF7E2FD204603B030BD0024FAE700BF5A
:10D73000AC250020D4E700BFF8B5724C04EB00160E
:10D74000D6F84C3A002B00F08A800546070196F87F
:10D75000540A60F00DFF96F8543A590903F01F027D
:10D7600003294FF0010303FA02F300F08E8004292D
:10D770007BD0022974D0E319013593F8500A16F0D2
:10D7800011FBEDB2064610B112238371C571E31986
:10D7900093F8510A16F006FB10B11323C57183717B
:10D7A000E31993F8520A16F0FDFA10B11423C5716B
:10D7B00083713C444A2194F8532A304614F066FBA6
:10D7C00094F8510A16F0EEFA94F8532A2A2114F02C
:10D7D0005DFB94F8520A16F0E5FA94F8532A0A21F0
:10D7E00014F054FBD4F84C2A474B9A4252D0474B82
:10D7F0009A423FD0464B9A4257D0464B9A425FD00E
:10D80000454B9A4267D0454B9A426FD04449908825
:10D810004C880B884D8923438C882343CC8820F087
:10D82000030023430C890004000C23438C8990805F
:10D830002B4310882343CC89098A00F441502343A9
:10D8400003439BB21380938B23F400631B041B0CD4
:10D850009383118213889BB243F040031380F8BD79
:10D86000304A516A0B43536285E72E4A11690B43D4
:10D87000136180E703F50033196A41F480411962AE
:10D88000196A21F480411962C0E7264A116A0B43E4
:10D89000136270E703F58433596A41F48051596289
:10D8A000596A21F480515962B0E703F5FE33196AD1
:10D8B00041F400411962196A21F400411962A5E797
:10D8C00003F58233596A41F400515962596A21F4CF
:10D8D000005159629AE703F56843596A41F480118F
:10D8E0005962596A21F4801159628FE703F5644344
:10D8F000596A41F400115962596A21F400115962C0
:10D9000084E700BFA01F0020003001400038004025
:10D91000003C0040003401400050014000540140F0
:10D920008801002000380240436800221A60037D0D
:10D930001F2B08D9203B2022016802FA03F343F091
