:020000040800F2
:1000000000000120E926060885270608DD160208FB
:100010003515020885270608852706080000000018
:100020000000000000000000000000008527060816
:1000300085270608000000008527060861FD0108E5
:1000400085270608852706088527060885270608C8
:10005000852706088527060889F801088DF8010814
:1000600091F8010895F8010899F801080DA9000810
:100070001DA900082DA900083DA9000851A90008E4
:1000800065A9000879A900088527060885270608BC
:100090008527060885270608852706089DF8010894
:1000A000F9C6000859C6000809C7000849C6000873
:1000B00081C6000891C60008A1C60008F5A4000882
:1000C000E9A4000825A5000819A500088527060849
:1000D00085270608ADFC0108B9FC0108C5FC01082C
:1000E000A1F80108852706088527060819C7000812
:1000F000D1C6000885270608C1C600088DA90008DA
:10010000852706083DE20008B1C6000885270608D5
:10011000D1FC0108DDFC010885270608A98E050829
:10012000A1A90008B5A90008C9A90008DDA900080F
:10013000F1A900080000000000000000000000001D
:1001400000000000000000000000000025840508F9
:1001500005AA000819AA00082DAA0008E9FC010850
:1001600059A500084DA5000885270608852706081B
:10017000852706088527060800000000000000000B
:100180008527060885270608852706088527060887
:100190008527060885270608000000008527060831
:1001A0000000000000000000000000008527060895
:1001B00085270608852706080000000000000000CB
:1001C000000000000000000000000000000000002F
:1001D0000000000000000000000000008527060865
:0801E0003422060001000000BA
:1001E8001402010005000000102B0120202E012020
:1001F80000000000A8B707081F0208001000000050
:100208006C2A0120282E012000000000355C01081E
:10021800061001002400000044220120382E01208D
:1002280000000000555B0108FA010100030000000E
:100238003C46012070450120000000003D5B01089C
:10024800FF11010005000000143A01207445012047
:1002580000000000255C0108052001000C000000DA
:10026800944001207C45012000000000B0B7070839
:100278001302010004000000E43D0120884501202C
:1002880000000000BCB70708183001003400000067
:10029800CC3901208C45012000000000C96001080C
:1002A8001E02010006000000BC370120C0450120E5
:1002B80000000000C0B707080D120100140000007C
:1002C800C8380120C845012000000000C8B7070849
:1002D800030101000A0000007C390120DC450120EF
:1002E8000000000069B0040812200100110000009D
:1002F800DC380120E845012000000000DCB70708D1
:100308000B2201003D000000282F0120FC450120A0
:1003180000000000EEB7070815001000700000008C
:10032800F870012080770120000000000000000024
:100338002A0008006000000098700120F077012072
:1003480000000000D937030821020100F000000076
:10035800A86F01205078012000000000C542040861
:100368002C00040010000000986F01204079012043
:10037800000000005139030825201E002C01000050
:10038800EC6D012050790120000000000000000001
:100398002B00120024000000A46D01207C7A0120AB
:1003A800000000006D390308161001000600000067
:1003B8002C6D0120A07A0120000000002CB807084D
:1003C8002700010004000000206D0120A87A012008
:1003D8000000000032B807082052010008000000A1
:1003E800346B0120AC7A012000000000A537030817
:1003F8000C400600E40000004C660120B47A01209D
:10040800000000006DE602082920140078000000B2
:10041800846A0120987B0120000000000000000091
:10042800012001000C000000786A0120107C0120E6
:100438000000000036B80708232001001000000063
:10044800686A01201C7C012000000000B9400308F4
:100458002830010016000000346A01202C7C01209D
:1004680000000000CD4003080B3001001A00000016
:10047800186A0120447C01200000000042B80708E7
:100488000E200300BC01000030670120607C0120C1
:1004980000000000793703081E0001000900000071
:1004A800A06901201C7E0120000000005CB807083C
:1004B8000D100100700000002C690120287E012029
:1004C80000000000EB230208220201001C010000CA
:1004D800A86B0120987E012000000000D96C01085B
:1004E800160215003F000000F47F0120B47F0120B0
:1004F800000000007D5C01081B02010010000000E4
:10050800448001203480012000000000ED5B0108D8
:1005180028020400040000005880012054800120B3
:1005280000000000E15B010827020400040000004D
:10053800608001205C80012000000000D55B01087C
:100548001C0202001C0000004C6A0120648001208B
:100558000000000011600108010201000B0000000A
:100568008C80012080800120000000002D5B0108A4
:10057800000201000B000000C46C012098800120DB
:1005880000000000255B01081A0201003C00000081
:10059800A8710120A4800120000000005D6001080E
:1005A8000400080080000000186F0120E08001208E
:1005B8000000000000000000190201001000000007
:1005C800106B01206081012000000000155C01080B
:1005D8000812040014000000EC730120708101204F
:1005E80000000000C15A01080A02010014000000BE
:1005F800507401208481012000000000B9E602083F
:100608000A90010024000000EC6801209881012074
:10061800000000009DC40308031201003D00000013
:1006280068710120BC8101200000000066B807083D
:100638000C0201000400000000740120FC8101206C
:1006480000000000455B01081300010004000000E1
:10065800186901200082012000000000A4B80708E2
:1006680002020100030000007877012004820120C3
:100678000000000000000000F59101006C0000007F
:100688003C6B01200882012000000000DD480408BE
:10069800F62101000C000000286B01207482012063
:1006A80000000000A8B807081212010004000000AA
:1006B800989B01208082012000000000B4B8070840
:1006C80011020100080000009C9B01208482012087
:1006D80000000000B8B8070834000100100000004E
:1006E800A49B01208C82012000000000BD37030874
:1006F800F831010008000000106901209C820120E7
:1007080000000000C0B80708020001000C0000004B
:100718007C740120A4820120000000000000000079
:10072800FE01010014000000FC6A0120B0820120D3
:1007380000000000A95A0108061204001800000071
:1007480038740120C482012000000000915F010874
:10075800F701010006000000206B0120DC82012067
:1007680000000000C8B80708FC01010009000000EB
:10077800B49B0120E482012000000000015C010814
:10078800FB01010001000000C09B0120F082012054
:10079800000000000D5C01081A0001000E000000B6
:1007A800D4730120F482012000000000CEB80708AD
:1007B80014000100050000002469012004830120C1
:1007C80000000000DCB80708FD010100240000005B
:1007D800AE7301200C83012000000000FFD901083E
:1007E8001D02020006000000A873012030830120CA
:1007F8000000000000000000F901010004000000F2
:10080800C49B01203883012000000000B9D90108E9
:100818000E02010002000000B09D0120089E012088
:1008280000000000E2B807082F10010022000000B5
:100838000C9E0120B49D012000000000E4B80708C8
:100848001F50010024000000C0A1012004AA0120BB
:100858000000000008B90708381001000100000076
:100868003CA0012028AA0120000000002CB907089C
:10087800261001000E000000209F01202CAA012054
:1008880000000000E5A504081B1001000C00000092
:10089800E0A901203CAA012000000000453A040814
:1008A8001010010002000000F4A7012048AA01204E
:1008B800000000002EB907082902010040000000CE
:1008C800D4AC01203CAD01200000000030B907087D
:1008D800FD0701007C00000058AC01207CAD012020
:1008E8000000000029420408010101000400000082
:1008F80054AC0120F8AD0120000000000000000009
:10090800000101000400000050AC0120FCAD0120F2
:100918000000000070B90708020101000300000090
:100928004CAC012000AE0120000000005DE602088A
:100938002A0201000800000064AB012004AE012077
:100948000000000074B90708190001000500000044
:100958005CAB01200CAE0120000000007CB9070848
:10096800371001003000000028AB012014AE012030
:100978000000000082B907082322010010000000CF
:1009880048B4012010B7012000000000B4B90708DE
:100998000300010001000000F4B4012020B7012089
:1009A8000000000000000000050201000400000033
:1009B8009CB4012024B7012000000000C4B9070836
:1009C80010020100010000007411022070110220C1
:0809D80000000000C8B9070887
:08280000082800080040000850
:10800000084A03465268D0F8E400D3F8F010121A78
:10801000914201DAC3F8F0200122002083F8F42015
:10802000704700BF001000E090F8DB30052B03D84C
:1080300090F8F630012B01D00020704790F8FB300B
:1080400003F0FB03022B0CBF00200720704700BF8A
:10805000836930B45C6999682268096822F001027A
:1080600022601C8ACA6822EA0402CA60027D006893
:108070001F2A06D9203A082144689140214216D08F
:10808000FEE70821046891402142F9D1202101FA3C
:1080900002F28260204A12783AB11A7F012A0BD18B
:1080A000D3F804210132C3F8042130BC70472021E9
:1080B00001FA02F2C260EDE7D3F800210132C3F801
:1080C0000021EFF31181502282F312885868C9B25F
:1080D0009D6C0268DC6C22EA05022243026081F397
:1080E00011885A699968D3E90D4009681460506194
:1080F000D3E90F40546090605C6CB3F8B400D46076
:108100000124C8621068204310601A8A1C77CB686B
:10811000134330BCCB607047C000002070B50E4EDA
:108120007368002B16DD06F10804002503E0736870
:108130002034AB420EDD237F0135002BF7D0E06801
:1081400000220028F3D0217D203417F009FC736849
:10815000AB42F0DC012070BDC0000020704700BFC2
:10816000024B03EB401090F825007047C000002040
:108170004368426D30B49A61EFF31182502383F368
:1081800012884168D2B2856C0B68046D23EA05033E
:1081900023430B6082F31188436981681A68096878
:1081A00022F00102D0E908541A60826A1D605C6105
:1081B0005A60D0E90B429C60DA600023B0F86C2072
:1081C00030BCCA62037770474FF400638381704705
:1081D000084A03465268D0F8E400D3F8F010121AA7
:1081E0008A4201DDC3F8F0200122002083F8F42048
:1081F000704700BF001000E04FF4006383817047B8
:108200004FF4006383817047012380F8E8307047A2
:108210004FF40063838170474FF40063838170479C
:108220004FF400638381704770470120704701203D
:1082300070472DE9F047DFF880810E460746D8F8F1
:108240000050B8F80420B8F80A90C2EB2513520089
:10825000C2EBE502B8F906506A4303FB03F5B8F92F
:1082600008302D135D43B8F90E30AD134FEAE37EAD
:1082700005EBE225A5F5FA31C8F81C5081FB010C8D
:1082800003FB0CF200FB0E22A3FB003E9644B8F960
:108290000C201B0A82FB014243EA0E63120342EAEE
:1082A000145224031B194FF0000442EB2E22A3FBAF
:1082B000093E02F5004209FB02EE4FEAEE734FEA77
:1082C0006E0253EA6E0E6BD0B8F914904FEAE97E55
:1082D00009FB0CFC00FB0ECCA9FB00908444B8F910
:1082E000120080FB01E148044FEA4E4140EADE30D3
:1082F00011EB0909D8F820104CEB0000C1F5801CE7
:1083000014EB0904B8F910100CF0004A40F6354996
:1083100000EBC1014AEA5C0A4FEACC7CBCEB0400EA
:108320006AEB010AA0FB090109FB0A1159F0C0FF21
:10833000B8F91A404FEA613E8146430B04FB0EF246
:108340004FEAE47C43EAC14303FB0C2CA4FB034249
:10835000624404FB0EFE03FB02EEB8F91820A4FBF6
:1083600003439E44640E02FB01F344EACE1414EB73
:10837000000C4FEAE274A2FB092941EB6E6E04FB8C
:108380000031D40CB8F91630494444EA41341CEBAE
:1083900004044EEBE141240A44EA016404EB0314B3
:1083A0000FB1240A3C6026B105EB850580352D12FE
:1083B0003560BDE8F08700BF181F0120704700BF7F
:1083C00001207047012070473122F42158F0BABFD4
:1083D00008B5006855F030FED8B90F4A0F4992F839
:1083E000093192F808011B0143EA003392F80A01AF
:1083F00043EA101392F80B010B6292F80C3192F8D9
:108400000D211B0143EA0033012043EA12130B60E4
:1084100008BD0020FCE700BFC0000020181F01209D
:10842000036810B41A78012A1CD0184C184901208E
:1084300091F8122191F811C191F8153112041B0421
:1084400042EA0C2291F814C143EA0C2391F810C1BE
:1084500091F8131142EA0C020B43C4E969235DF859
:10846000044B704793F90430084C03EB430304EBCF
:10847000431393F87920202A03D000205DF8044BA1
:1084800070479B6B9B691B04F7D4CFE7181F012033
:10849000C00000202DE9F04FCC4C83B0B4F8AC31D3
:1084A000D4F8A821B4F8AE61A2EB032294F9B0513C
:1084B0000091A6FB02634FEAE57C9F04A2FB022326
:1084C00005FB03F347EA9637B60402FB0C33A5FB22
:1084D0000252AD191A4442EB0703002B02DA013DA8
:1084E00043F10003DF17C4E97237002800F01A8156
:1084F00003FB07FCD4F8A451A3FB032606EB4C06B0
:108500004FEA921E4FEAA6184EEA866E0EFB07FC53
:1085100003FB08CCAEFB03E81CEB080C00F1508118
:108520004FEA1E2E4FEA2C214EEA0C6E94F9B6C18A
:1085300001914FEAEC780CFB01FA0EFB08AAACFBA8
:108540000EC81AEB080A00F136814FEA5C1CB4F938
:10855000B3814CEACA6194F9B5C1A8F580484FEAE5
:10856000EC7B0CFB06F902FB0B99ACFB02CBD9446C
:10857000B4F9B1B14FEA8909ABF5804B49EA9C796E
:108580004FEA8B3B4FEA8C0C0BEB6A1A08FB07FB9C
:1085900011EB0C0C4AEB09094FEAE87A03FB0ABB22
:1085A000A8FB038ADA444FEA4A5A4AEAD82A4FEA31
:1085B00048581CEB080C49EB0A09B9F1000FC0F24E
:1085C000F3804FEA1C6B019994F9BCC14BEA092B6B
:1085D0000CFB01FA4FEAEC784FEA29690EFB08AA76
:1085E000ACFB0ECE1AEB0E0E00F1D9804FEA5C1CEC
:1085F0004CEACE6894F9BBC14FEAEC7A0CFB06F664
:1086000002FB0A66ACFB022CB444B4F8B7614FEA33
:108610000C1AF6034AEA127A120106EB6E1E18EBE8
:108620000202B4F8B981A8FB03C64EEB0A0A08FBA4
:1086300007684FEA885646EA9C264FEA8C5C12EBA4
:108640000C024AEB060ABAF1000FC0F2A28094F9BC
:10865000BFE14FEA920CABFB05864CEA8A7C0EFB2D
:1086600007F205FB09664FEAEE791CEB0808B4F93E
:10867000BDC103FB0922AEFB03E946EBAA064A444F
:108680004FEA0C491EEB090E42EBEC7CAEFB05E217
:1086900005FB0C22002A75DB4FEA5E3E4EEAC24E15
:1086A0005213AEFB05CE05FB02EEBEF1000F62DBFE
:1086B0004FEA5C2C94F9C0214CEACE5C18EB0C0C10
:1086C000A5FB054846EB6E264FEAE27E04FB0EFE54
:1086D00002FB08EEA4FB02421EEB020E45D4220C64
:1086E00042EA0E424FEA2E4EA2FB052405FB0E4E37
:1086F000BEF1000F35DBD20942EA4E6212EB0C02EA
:1087000046EBEE16941846EB060EA41846EB0E0E3A
:108710004FEACE0E4EEA547EE400A41846EB0E0655
:10872000360C0660009A9AB1DA1847EB0700D218A7
:1087300047EB0000C00040EA5270D200D31847EB6C
:108740000007002F07DB9B0B009A43EA8743136067
:1087500003B0BDE8F08F43F6FF729B1847F10007A6
:10876000F1E77F324EF1000EC5E74FF6FF72A41815
:108770004EF1000EB3E740F2FF121CEB020C4EF17B
:10878000000E95E741F6FF7C1EEB0C0E42F1000255
:1087900082E712F1030C62464AF1000A57E71CF126
:1087A0001F0C4EF1000E21E76FF07F4B1CEB0B0C02
:1087B00049F1000905E71CF11F0C4AF1000AC4E663
:1087C0001EF1FF0E4CF1000CAAE600BF181F01209D
:1087D0003B4BDFED3C3A93F8D11193F8D0010902FD
:1087E00093F8D22193F8D3C101EB004193F8D4015F
:1087F00093ED786A0A4409024FEA002093F8D511F4
:1088000048BF02F17F42B8EEC66A00EB0C4007EEAB
:10881000902AB3F9EC210144000205EE902AB3F945
:10882000E821F8EEE77A48BF01F17F4104EE902A93
:10883000B3F9EA21F8EEE55A07EE101A67EEA37ACB
:1088400006EE902AF8EEE44AB3F9E621F8EEE66A7D
:10885000012005EE102AB3F9E421E7EEA54AB8EEAF
:10886000C55A04EE102AB8EEC77AB3F9DA21B8EE89
:10887000C44AA7EEA65AD3ED776A27EE237A05EE0F
:10888000902AA4EEA76AB3F9D821F8EEE66AF8EECA
:10889000E55A04EE902AF6EE003AE7EE046AF8EEA6
:1088A000E44AA5EE076A67EE255AB0EE667AE4EE72
:1088B000A35AA7EE867AC3ED7D5A83ED7C7A704782
:1088C000181F01200821843630B10A4BD3ED7C7A81
:1088D000FDEEE77AC0ED007A51B1064B9FED067AC6
:1088E000D3ED7D7A67EE877AFDEEE77AC1ED007A07
:1088F000704700BF181F01200000C842704700BF2A
:108900000120704701207047704770470120704771
:1089100030B5002385B0E72105468DF807300DF10D
:1089200007020123154C16F077FA9DF8073013F073
:1089300003031FD0052302AAE821284616F06CFA8B
:108940009DF80A209DF80910130412F0800F43EAE5
:1089500001239DF8081014BF4FF07F4200220B4303
:108960001343C4F8F831BDF80B300120A4F8FC31F2
:1089700005B030BDC4F8F831F7E700BF181F01207B
:108980000B4A642310B5D2F8F841634348BF03F69D
:10899000FF731B130360B2F8FC310A2253433022E9
:1089A000B3FBF2F303F584531A330B6010BD00BF21
:1089B000181F012008B5006855F03EFB78B9094A38
:1089C000012092F8193192F818111B0292F81A211D
:1089D00043EA01431343044AC2F8003208BD0020B1
:1089E000FCE700BFC0000020181F012008B5006888
:1089F00055F022FB78B9094A012092F8193192F812
:108A000018111B0292F81A2143EA01431343044A46
:108A1000C2F8043208BD0020FCE700BFC0000020FF
:108A2000181F01202DE9F74F544AB2F81232B2F85C
:108A30000E621B02B2F81472CDE90001D2F80012E6
:108A4000C91AB2F810326EEB0E0EA3FB010403FB41
:108A50000E44C009B2F80C3240EA44601B04E41131
:108A6000C018A6FB013506FB0E554FEA1323B2F8DA
:108A70000A6244F1000443EA0563F6032D129B19D0
:108A8000A7FB012607FB0E664FEAD25245F100050F
:108A900042EA4622F61512F5FA6C46F1000BBCF5D7
:108AA000FA6F7BF100074CDAA2FB02784FF0050A5F
:108AB00002FB06F908EB4909A7FB0A780AFB0988BB
:108AC0004FEA5709BF0849EAC87947EA8877B0EB07
:108AD000090064EB6804DB1B294F65EBA805BC4566
:108AE0004FF0FF377BEB070720DA40F6AC57D2197F
:108AF00046F100065643A2FB027202EB4606FA005C
:108B00004FEAC608BA1A48EA577866EB0808101800
:108B100044EB08044FF00B08A7FB087208FB06267D
:108B20007F0847EAC677DB1B65EB660501FB0EFE97
:108B3000A1FB011202EB4E0EC90F41EA4E01BCEB44
:108B4000010C009A92B10D4AD2F80412A1FB032342
:108B500001FB0535520D009B42EAC5226D15121A24
:108B600065EB0404D20B42EA44421A60019B0BB14C
:108B7000C3F800C003B0BDE8F08F00BF181F01208C
:108B800024FAFFFF7047012070470120704708B5A5
:108B9000006855F051FAD8B90E4A0F4992F81D31C4
:108BA00092F81C011B0243EA004392F81E010343A2
:108BB00092F81F01C1F8183292F8203192F8212161
:108BC0001B0243EA004301201343C1F81C3208BDD5
:108BD0000020FCE7C0000020181F01202A4BD3F81A
:108BE0001C2293ED8A6AA2F50002D3ED896AD3EDC7
:108BF000887A07EE102AD3ED8D5AD3ED8C4AB8EE61
:108C0000C77AD3F8182293ED914AA2F5000293EDAA
:108C10008F5AE7EE066A93ED8E6AE7EE267A06EE45
:108C2000902A93ED8B7AF8EEE66AE5EEA74AD3ED4B
:108C3000905AA4EE275A93ED924AA7EEA47AD3ED68
:108C4000934AA5EE276AE6EEA45AE4EE275AA5EE6B
:108C5000A66AA6EE867AB5EE407AF1EE10FAF5EE47
:108C6000407A1CBFBDEEC77A80ED007AF1EE10FAB3
:108C700008D0FDEEE77A17EE903A002BB8BFFF332D
:108C80001B120B60704700BF181F012070B504460F
:108C900090F8F90000B970BD16F03CFE214605467B
:108CA000A8B126220023C2800D4A41F80C2F1A4693
:108CB00055F06CF8AB884FF00042B3FA83F332FA08
:108CC00003F3E8D007490A6813430B6070BD044CF6
:108CD0000346024641F80C4FBDE8704055F056B8C7
:108CE000E9B90008003C01400269C3682DE9F0477A
:108CF00012EA03092AD005460E464FF000474FF00E
:108D00000008B9FA89F327FA03F21B3BD24309EAB8
:108D100002092A61042B16D8DFE803F0352C231A48
:108D20000300736A002B37D003F1FF3AC6F82480A2
:108D30001FFA8AFA346A34B12368204651469847AC
:108D40006468002CF8D1B9F1000FDAD1BDE8F087E2
:108D50003068696B036889B29847B9F1000FD0D1C8
:108D6000F4E77068A96B036889B29847B9F1000FFE
:108D7000C7D1EBE7B068E96B036889B29847B9F1EE
:108D8000000FBED1E2E7F068296C036889B298470A
:108D9000B9F1000FB5D1D9E7E96A1FFA81FAC9E73D
:108DA00010B5044682B0806906236A463B21103024
:108DB00016F03EF858B1BDF80010BDF80220BDF81D
:108DC000043049BA52BA5BBAE1812282638202B0AE
:108DD00010BD00BF10B582B00446062343216A4689
:108DE000103016F025F870B1BDF80010BDF8022063
:108DF000BDF8043049BA52BA5BBAA4F8D010A4F84E
:108E0000D220A4F8D43002B010BD00BF10B5044683
:108E100082B0806906236A462821103016F008F8CF
:108E2000BDF80010BDF802200120BDF80430E1813A
:108E30002282638202B010BD10B582B004460623C0
:108E400022216A46103015F0F3FFBDF80010BDF87E
:108E500002200120BDF80430A4F8D010A4F8D220DC
:108E6000A4F8D43002B010BD13B5002304460B485B
:108E70008DF8073016F0B8FA0123A0800DF1070233
:108E80000F21204615F0D4FF28B19DF807306C2B38
:108E900014BF0020102002B010BD00BF80969800C3
:108EA00000B583B04FF0000C012311210DF1070232
:108EB00098388DF807C015F0BBFF03B05DF804FBD0
:108EC000836910B5074C04EB8303D3F870024BF0B1
:108ED000D9FF0021B4F8900255F04AF8002384F835
:108EE000923210BD181F012080699C304BF0CABF20
:108EF00010B5074C94F894320BB9002010BD17F050
:108F00008DF8D4F89832C01AD0F5FA50F6D5F4E7B7
:108F1000181F012070B505460C46FFF7E9FF2B68C6
:108F20005D6808B117F0A8F8064B002228464921D1
:108F300083F89422224693F89532BDE8704015F0EC
:108F40006BBF00BF181F01202DE9F04FC24C2DED63
:108F5000028B237883B0009303BBD4F82431002B19
:108F600016DD0026BD4831464769D0F8AC303D6873
:108F700003F1C00225F001053D6059600C339A42AF
:108F8000FBD10136D4F8243100F58670B342EBDC16
:108F9000012003B0BDEC028BBDE8F08FB04BD3F8DD
:108FA0009C3208EE103A17F039F8D4F82831D4F88A
:108FB0002C211433801AB0EB430FC0F21C8104F54E
:108FC000987904F5826A04F1080600256368AB42CB
:108FD000C3DDB3690121DFF8A4E25F69A14AD3E9E7
:108FE0003D0C73689940FBB227F0FF07103BAEFBC6
:108FF000033E9D4B4FEA1E1E13F80E301F440346DE
:109000007F68BFB2ACEB07073A4400EB42029A42DA
:1090100017D9B3F800C01CEA010F00F0E680B3F8DE
:1090200002C01CEA010F00F0E280B3F804C01CEAA1
:10903000010F00F0DE80B3F806C008331CEA010F10
:10904000E5D11A880A400192002A40F09580181A4A
:10905000A7EB6007452F28BF452703EB4707BB4217
:1090600080F08A80964690461846944616E0B3F8FB
:1090700002B00BEA010B5A4540F0A280B3F804B0ED
:109080000BEA010B5A4540F09D80DA8808330A400C
:10909000944506D19F4206D91A880A406245E6D017
:1090A00002339F4272D8B8F1110F65D9C8F1150388
:1090B000002BC0F2898000F0B1800EFA03FEC8F1E7
:1090C00014080123694A03FA08F848EA0E0ECEF3A1
:1090D000C43352F823100EF01F0352F8233043EA32
:1090E0000133CEF34411CEF3842E52F8211052F8FE
:1090F0002E2043EA011343EA022383EA132282EA81
:10910000121202F00F020F2A5ED1B3F5803F5BD23C
:1091100040F6FF711A09B1EB131F78D0C2F30802B1
:109120005B0B12FA03F34FD0514A02EB5302B2FB2E
:10913000F3F24FF6FE7301929A421DD0D4F8183420
:109140000133C4F818344FF6FF739A4241D0BDF88A
:109150000430AAF80C30032D4FF001038AF80E30CA
:1091600004DC3F4B93F8A0322D2B4AD0009918EE27
:10917000102A484615F02AFC013509F15C090AF16C
:10918000040A2036082D7FF421AFE6E6181A33F8DA
:1091900002CC421001EA0C0C501C364A82FB00B291
:1091A000A2EBE0720120012AB8BF01220EFA02FEF2
:1091B0009044013A00FA02F2184642EA0E0E6BE7BA
:1091C00004336EE706336CE7D4F818340133C4F87F
:1091D0001834D4F8143400210133C4F8143418EED0
:1091E000102A484615F0F2FBC6E7023329E704339C
:1091F00027E7063325E7002003B0BDEC028BBDE86E
:10920000F08F1D4B019A009923F81520E7E7D4F859
:1092100018340133C4F8183400239AE7134BCEF303
:10922000C43253F822100EF01F0253F8222042EAF3
:109230000132CEF34411CEF3842E53F8210053F8BB
:109240002E1042EA001343EA012383EA132282EA42
:10925000121202F00F0256E7C00000205405002051
:10926000181F0120C7FFFF7F2860060888580608DE
:10927000C027090056555555BC210120ABAAAAAA02
:10928000F8B5394C04EB401292F8243003B9F8BD1C
:1092900000EB800C354B0026450104EB4C1C9CF880
:1092A000C6E88CF8C66882F80AE093F8ACE293F856
:1092B000AD2296450DD002EB420C560003EBCC0CD0
:1092C0009CF8B0C20CF1FF37012F41D9BCF1030F5C
:1092D00039D0274B254403EB401029815CF0CCFAB0
:1092E00023782A6AB3B1E9680124D2F8AC308C4003
:1092F00003F1C00110F4004F4FEA400203F10C03E8
:1093000090B202BF53F8082C224343F8082C8B423A
:10931000F0D1F8BDE9680124D2F8AC3001F11002B7
:1093200003F1C001944010F4004F4FEA400203F1F2
:109330000C0390B202BF53F8082C224343F8082CC8
:109340009942F0D1F8BD571C07F003077745C0D00C
:10935000324403EBC203034493F8BD120029B8D092
:10936000631901229A72B4E7C0000020181F01207F
:10937000C8000020BCEEC00A10EE103A99B27FE798
:10938000214B2DE9F04193F8AC2293F8AD329A428B
:1093900033D11E4ED6F82451002D12DD002437782B
:1093A00006F29440A046013417B1037F012B1FD071
:1093B0004269AC4200F58670136843F00103136004
:1093C000F1D116F02BFED6F8C44DC6F82C01002CB6
:1093D0000CDD0F4B03EBC4041968083333F8042C7D
:1093E000C8689C4242EA0002CA60F5D1BDE8F0813B
:1093F00080F8FC80FEF7BCFEDAE752F045FD00285D
:10940000C7D1BDE8F08100BF181F0120C0000020B7
:10941000880E0020F8B50546FFF738FC95F8D830DF
:10942000072B5DD195F8F5300226002B5AD137462F
:1094300005F1100480226B21204615F095FB642075
:1094400016F0BAFF07226821204615F08DFB642034
:1094500016F0B2FF00226B21204615F085FB642038
:1094600016F0AAFF01226B21204615F07DFB0F208C
:1094700016F0A2FF1B21FA00204615F075FB0F2005
:1094800016F09AFF1C21F200204615F06DFB0F200C
:1094900016F092FF2846FEF7C7FD1A210246204625
:1094A00015F062FB0F2016F087FF95F8F8201921C0
:1094B000204615F059FB642016F07EFF102237215C
:1094C000204615F051FB0F2016F076FF20460122B2
:1094D000382115F049FB0F20BDE8F84016F06CBFAD
:1094E0000326A4E70327A3E72DE9F3411446984692
:1094F0000DF10702012306460F4615F099FC88B1CD
:10950000022016F0B9FD9DF807503946304625EA8D
:10951000040444EA08028DF8072015F025FB08989A
:1095200016F04AFF02B0BDE8F081642373B500F184
:109530001005009301230446122128461A460126ED
:10954000FFF7D2FF02220D21284615F00DFB012066
:1095500016F032FF02220E21284615F005FB0120ED
:1095600016F02AFF74221021284615F0FDFA01207A
:1095700016F022FFAC221121284615F0F5FA012041
:1095800016F01AFF44237C22122128460096FFF78A
:10959000ABFF0623132128461A460096FFF7A4FFC7
:1095A00000231722152128460096FFF79DFF02236E
:1095B000284618211A460096FFF796FF94F8F900FE
:1095C000A0B116F0A7F9054608B12623C3802146AD
:1095D000074B284641F80C3F00231A4654F0D6FBAF
:1095E000284602B0BDE8704052F002BF02B070BD24
:1095F000098200087B22F42115F0B6BA1D4B1E49E2
:10960000D3F81033B1EB930F10B5044682B02ED2CD
:109610009A08022352085B008A429BB201D9FF2BB1
:10962000F8D9A268A3801AB1938812681B049361C9
:10963000012016F0C1FEA36813B11A689B889361DC
:109640000A2016F0B9FE236800201B6AADF804005A
:109650005BB92046022301AA802115F0B7FB9DF8D3
:109660000530242B14BF00200F2002B010BD0223B0
:10967000D7E700BF181F01208096980038B5044630
:10968000FFF704FB214804F1100515F0ADFE01229F
:109690006B21A082284615F03DFA0F2016F08CFEB3
:1096A00018221B21284615F035FA0F2016F084FEEB
:1096B00018221C21284615F02DFA0F2016F07CFEEA
:1096C00020461A21FEF7B0FC0246284615F022FA81
:1096D0000F2016F071FE94F8F8201921284615F095
:1096E00019FA642016F068FE10223721284615F07A
:1096F00011FA0F2016F060FE01223821284615F0DD
:1097000009FA034815F070FEA08238BD40420F00F0
:109710008096980038B50446FFF7B8FA384804F147
:10972000100515F061FE03226B21A082284615F07A
:10973000F1F90F2016F0A0FC10226A21284615F03E
:10974000E9F90F2016F098FC00226C21284615F04C
:10975000E1F90F2016F090FC94F8F8201921284622
:1097600015F0D8F90F2016F087FC18221B21284687
:1097700015F0D0F90F2016F07FFC18221C21284686
:1097800015F0C8F90F2016F077FC10223721284673
:1097900015F0C0F90F2016F06FFC01223821284681
:1097A00015F0B8F90F2016F067FC164815F01CFEEE
:1097B000A082012016F060FC114815F015FEA08271
:1097C00020461A21FEF730FC0246284615F0A2F981
:1097D000012016F051FC0B4815F006FEA082204631
:1097E000FFF7F8FA94F9D230013308D194F9D03068
:1097F000013304D10620BDE8384016F0F7BE38BD6D
:1098000040420F00002D310110B504460D4815F0FF
:10981000EBFDA082012016F02FFC2046FFF7FAFD99
:1098200010226A21A01815F075F9642016F0C4FD05
:10983000054815F0D9FDA0820120BDE8104016F0C2
:109840001BBC00BF40420F00002D310170B500F17C
:109850001004B6227E21054690F8F660204615F0E9
:1098600059F9642016F0A8FDAB691BB11A689B88F2
:109870001B049361012016F09FFDAB6913B11A68B8
:109880009B8893610A2016F097FD00227C212046D8
:1098900015F040F9012016F08FFD002259212046D5
:1098A00015F038F9012016F087FD4FF4A473764ABD
:1098B0005E21204615F048FD0A2016F07DFD0122AC
:1098C0005921204615F026F9012016F075FD012ECC
:1098D00060D0AB224021204615F01CF9012016F083
:1098E0006BFD03224121204615F014F9012016F0EA
:1098F00063FDED224221204615F00CF9012016F0FF
:109900005BFD08224321204615F004F9012016F0E2
:1099100053FD04225821204615F0FCF8012016F0D2
:109920004BFD0A225321204615F0F4F8012016F0D1
:1099300043FD02227C21204615F0ECF8012016F0B0
:109940003BFD20460E227D2115F0E4F8012016F0A3
:1099500033FD95F8F90000B970BD15F0DBFF29461D
:109960000446002800F0878026220023C280474A50
:1099700041F80C2F1A4654F009FAA3884FF0004220
:10998000B3FA83F332FA03F3E6D041490A6813438A
:109990000B6070BD00224821204615F0BBF8304610
:1099A00016F00AFD80224921204615F0B3F8304612
:1099B00016F002FD00224521204615F0ABF8304696
:1099C00016F0FAFC06224621204615F0A3F8304690
:1099D00016F0F2FC00224721204615F09BF8304695
:1099E00016F0EAFCAB224021204615F093F83046F1
:1099F00016F0E2FC03224121204615F08BF8304698
:109A000016F0DAFCED224221204615F083F83046AC
:109A100016F0D2FC08224321204615F07BF8304690
:109A200016F0CAFC02225821204615F073F8304681
:109A300016F0C2FC0A225321204615F06BF830467E
:109A400016F0BAFC02227C21204615F063F830465D
:109A500016F0B2FC0E227D21204615F05BF8304650
:109A600016F0AAFC2046B0227E2115F053F83046AD
:109A700016F0A2FC6DE7054D0346024641F80C5F67
:109A8000BDE8704054F082B908590608D5BB0008FB
:109A9000003C014038B51E4D044695F8143333B9E7
:109AA0001C4815F0A1FC0123A08085F814331A4846
:109AB00015F09AFC80226B21A080204615F02AF830
:109AC000642016F079FC03226821204615F022F864
:109AD000642016F071FCF521204615F05BFCAC28E3
:109AE00011D00BD8122810D0982814BF00250B25B0
:109AF000084815F079FCA080284638BDAF2814BF6F
:109B000000250925F4E70725F2E70825F0E700BF5F
:109B1000181F01208096980040420F0038B5044677
:109B20001B4815F061FC80226B21A080204614F0B8
:109B3000F1FF642016F040FC07226821204614F053
:109B4000E9FF642016F038FCF521204615F022FCD0
:109B50000546012016F090FA682D17D18C21204679
:109B600015F018FC182809D8142834BF002503253F
:109B7000084815F039FCA080284638BDA0F15403F0
:109B8000DBB2072B34BF03250025F1E70025EFE703
:109B900040420F00002D310110B50446154815F064
:109BA00023FCF521A080204615F0F4FB702818D086
:109BB00008D8422817D0472817D0122814BF0020F1
:109BC000082010BDAC2812D006D800F0FD00712886
:109BD00014BF00200620F4E7AF2814BF002009209E
:109BE000EFE70520EDE70C20EBE70D20E9E7072084
:109BF000E7E700BF002D310110B50446006854F0BE
:109C00001BFA38B920460623034AF72157F0F8FA21
:109C1000012010BD0020FCE7C801002008B5036842
:109C20001A78012A06D006230B4A042157F0E8FAD5
:109C3000012008BD93F90430084A03EB430302EB0B
:109C4000431393F87920202A01D0002008BD9B6B94
:109C50009B691B04F9D4E6E7D0010020181F0120FE
:109C600008B503681A78012A06D006230B4A00219A
:109C700057F0C6FA012008BD93F90430084A03EBF7
:109C8000430302EB431393F87920202A01D00020EC
:109C900008BD9B6B9B691B04F9D4E6E7E820012013
:109CA000181F012010B50446006854F0C5F901469C
:109CB00090B923681A78022A08D1196A21B90323B6
:109CC000064A204615F082F8012006E00323034AE5
:109CD000204657F095FAF7E7002010BDD801002084
:109CE000E0E710B50446006854F0A6F938B92046FC
:109CF0000623044AF72157F083FA012010BD002003
:109D0000FCE700BFDC010020016803460A78012A55
:109D100004D0022A01D10B6A63B1704707484FF0A3
:109D2000130C19791B2280F815C31B6893F90400E2
:109D300054F09CB813221B2114F0ECBE181F012014
:109D4000582154F093B9482154F090B9BFF34F8F84
:109D50000549064BCA6802F4E0621343CB60BFF3C7
:109D60004F8F00BFFDE700BF00ED00E00400FA05E3
:109D70009E489F4A9F49121AF0B5A5B05BF09CFB24
:109D80009D489E4A9E49121A5BF096FB9D4B9B682C
:109D9000012B00F2BE8003EB43039B4A9B4D02EB79
:109DA000430032F8132041888388C5E90021AB6065
:109DB000974C984E984BB2FBF1F2984901FB02F296
:109DC0000021C6F81023D4F8882042F47002C4F8A9
:109DD00088201A6842F001021A609960904A186857
:109DE000024090481A60C0F308078F4A5A601A6808
:109DF00022F480221A60D96007B1FEE78B49A06087
:109E00004FF6FF000A688A4B42F400720A60E2686B
:109E100002401343E36054F009F8BFF34F8FBFF3E0
:109E20006F8FC4F85072BFF34F8FBFF36F8F6369AA
:109E300043F400336361BFF34F8FBFF36F8FC4F8F8
:109E40008470BFF34F8FD4F8803043F6E07CC3F3C7
:109E5000C90EC3F34E33580100EA0C01734641EAC0
:109E60008372013B5F1CC4F86022F8D1203810F1E6
:109E7000200FF1D1BFF34F8F636943F480336361E7
:109E8000BFF34F8FBFF36F8F6849634B0A6842F48B
:109E900080720A60196C674A41F080511964196C2C
:109EA00001F0805102910299116841F44041116022
:109EB0001268286802F440426C68A9680192019A0D
:109EC0009A6802F00C02042A00F08D809A6802F071
:109ED0000C02082A00F083804F4A136843F4803351
:109EE0001360D6F8187304E0D6F81833DB1B642B24
:109EF00074D813689B03F7D5474A936803F00C03A3
:109F0000082B6BD0136823F080731360D6F8187396
:109F100008E03E4DD5E900214AE7D6F81833DB1BAF
:109F2000022B5BD813689B01F7D40B06640843EA45
:109F30008013611E43EA01433F491943364B516088
:109F4000116841F080711160D6F8181304E0D6F85A
:109F50001823521A022A41D81A689201F7D5196CAF
:109F6000344A41F0805119641B6C03F08053039311
:109F7000039B136843F480331360D6F8181306E08C
:109F8000D6F818335B1AB3F57A7F00F2CB805368AA
:109F9000DF03F5D51368274943F400331360D6F87F
:109FA000182306E0D6F818339B1AB3F57A7F00F22F
:109FB000B9804B689C03F5D54FF400124FF0006355
:109FC00004A804924FF4C07221930723CDE908231B
:109FD00003230A934BF02AFA80B3FEE7FEE75B689F
:109FE0005A027FF579AF0C4B1B6885E70000000033
:109FF000C8360000E080070800000020C0000020F4
:10A00000DDD8070850280040505A060800000120FB
:10A0100000ED00E0181F01200038024040420F0010
:10A02000FFFFF6FE0000000810300024003C024054
:10A030000003FA050070004008004020694A1368D8
:10A0400003F00F03062B0AD8136823F00F0343F025
:10A0500007031360136803F00F03072B63D1624BF0
:10A060009A6842F4E0529A609A6842F460429A60B8
:10A070009A6822F0F0029A601A68900153D59A68A3
:10A0800041F2883122F0030242F002029A60D6F8CF
:10A09000180304E0D6F81823121A8A4243D89A68A3
:10A0A00002F00C02082AF5D14E4A136819070AD5A6
:10A0B000136823F00F0343F007031360136803F0E2
:10A0C0000F03072B2FD1484C484FA36823F4E053CC
:10A0D00043F4A053A360A36823F4604343F4004314
:10A0E000A3604BF06FF9A368C3F303133B4493F8E9
:10A0F000D431D840C6F8100353F098FE002304A8CA
:10A10000CDE91333CDE91533CDE91733CDE9193353
:10A11000CDE91B33CDE91D33354B04934BF086F964
:10A1200010B1FEE7FEE7FEE702234FF0007204A83D
:10A13000CDE90633D823CDE9042301230B934BF05B
:10A1400075F900B1FEE7D4F88C3023F08073C4F8C1
:10A150008C30D4F88C3043F08073C4F88C30A36812
:10A1600003F00C03042B36D0082B18D0214BC6F873
:10A1700010331D4AD5E90031B3FBF1F39168D6F8ED
:10A180001023C1F303110F4497F8D411CA401A49A0
:10A1900001FB03F3C6F81023934220D0FEE7636867
:10A1A000626813F4800F636802F03F0218BF13491E
:10A1B000C3F3881308BF0F49B1FBF2F202FB03F3AC
:10A1C000094A5268C2F3014201325200B3FBF2F372
:10A1D000C6F81033CDE7094BC6F81033C9E725B0F0
:10A1E000F0BD00BF003C024000380240885806081D
:10A1F000C0FF03000024F40040420F0000127A0068
:10A20000014B53F8200070475028004002692DE9A7
:10A21000F043177885B004460D46012F18D10B790D
:10A220004FF0000900F11008013B8DF80590137103
:10A230000DF105024B7975214B4508BF6823037565
:10A240003B46404614F0F4FD0646002834D122690E
:10A2500002231370EB7823B90026304605B0BDE821
:10A26000F08304F11008A978404615F0D7F80646A7
:10A270000028F1D0E87815F04DFBA0612B78013370
:10A28000DBB210B1C371222383710D21434F15F04E
:10A29000ADFBA06915F0BCF8414B02E057F8043F54
:10A2A0005BB34046984703460028F7D0206984F8FE
:10A2B000D83056F091FFD0E7206956F08DFF3B462D
:10A2C00049460DF10602404614F0B2FD9DF80630F5
:10A2D00003F07E03682B8DF8063000D1A0B99DF8FD
:10A2E000053003F07E03682B8DF805300FD0702BFE
:10A2F000B3D1042384F8D830AFE7E8781E4615F0D0
:10A3000009FB15F091FBA8E784F8D870A5E70623B0
:10A3100002224046194684F8D82002AA14F088FD8B
:10A320009DF80D309DF80B209B00520003F00403B4
:10A3300002F0020213439DF8092002F0010243EAF1
:10A34000020113430CD058B1012B1FD0022B03D0B4
:10A3500001F0030103291DD1012384F8D9307CE7E2
:10A360000DF10702012340460C2114F061FD80F03D
:10A3700001009DF80720C0B202F00F0250B9B2FAF6
:10A3800082F35B0932B1042AE6D1E6E7002384F8C0
:10A39000D93062E7032016F029F95EE76C5A060807
:10A3A0001D9B000830B490F8443000F10801474A82
:10A3B000012BC2F81C136ED083684549DC68454DFB
:10A3C00024F46004AB42DC60DC6844F46004DC60CC
:10A3D0009C6B24F440149C639C6B44F480149C6339
:10A3E0009C6B24F4F8449C639C6B44F488449C6309
:10A3F0009C6824F470249C609C689C609C6824F495
:10A4000040149C609C689C605C6824F480645C6080
:10A410005C6824F480545C605C6901EA0401596161
:10A420005969596145D0DC68294924F0E064DC6051
:10A43000DC6844F0E064DC609C6B24F440149C63B2
:10A440009C6B44F480149C639C6B24F478249C6380
:10A450009C6B44F410249C639C6824F470249C60DE
:10A460009C689C609C6824F440149C609C689C6080
:10A470005C6824F480645C605C6824F480545C60F4
:10A480009C692140134C9961A3429969996116D046
:10A49000002380F844301048104B848DC18D408DCE
:10A4A000091B93FBF1F3C2E9C804C2F8283330BC9E
:10A4B00070470B4C616841F400016160B3E70849E3
:10A4C0004B6843F400034B60E2E700BF181F012014
:10A4D00000F0FFFF00200140007AF01F80380100EB
:10A4E00000230140704700BF01484AF0DBBE00BFB7
:10A4F000501F0120074810B4836BC46E99691A6815
:10A5000024B1234638305DF8044B18475DF8044BFE
:10A51000704700BF181F012001484AF0C3BE00BFAA
:10A52000B01F0120084810B4D0F89830D0F8CC40C3
:10A5300099691A6824B1234698305DF8044B18478E
:10A540005DF8044B704700BF181F012001484AF016
:10A55000A9BE00BF10200120084810B4D0F8F83080
:10A56000D0F82C4199691A6824B12346F8305DF877
:10A57000044B18475DF8044B704700BF181F0120BB
:10A580002DE9F84FD44F6023044603FB00735D6A46
:10A59000002D00F09C81DE6A1EB1B379002B40F0E3
:10A5A0009681602303FB0473D3F83090B9F1000F58
:10A5B00004D099F80630002B40F08981631CDBB28F
:10A5C00016B11522F371B271B9F1000F04D0162241
:10A5D00089F8073089F80620287C4FF0090851F0E7
:10A5E00017FF304614F014FF484614F011FF1121F4
:10A5F000304615F0FBF91121484615F0F7F94FF0F8
:10A60000330A02E00A2015F037FD304615F04AF90A
:10A6100010B9BAF1010AF5D1304615F04DF905200F
:10A6200015F02AFD304614F0F3FE052015F024FD48
:10A63000B8F10108E3D130464FF0600B15F03CF95A
:10A64000052015F019FD484615F036F90BFB04FB03
:10A65000052015F011FD304614F0DAFE07EB0B0A69
:10A66000052015F009FD484614F0D2FE9AF8343062
:10A6700030460422002B994E14BF3E211E2115F0B6
:10A6800095F99AF834305E444846002B4FF00402A6
:10A69000C14614BF3E211E2115F088F94C224146C7
:10A6A00030465AF07DFFDAF824309FED8D7AB0EE17
:10A6B000084A5B68F7EE003ABAF836B0CAF83830A4
:10A6C000884B9FED895A9A68884BC2F382221344C3
:10A6D00093F8FC21D7F81033D34007EE903AF8EE08
:10A6E000677AC7EE275A07EE90BA9FED817AF8EEA7
:10A6F000E77AC7EE274ADFED7F7AB0EE007AE5EE23
:10A70000877AA5EE875A25EE844A37EE856A74EE7D
:10A71000E72ABBF5C87F40F2145309F1010ED7BFF9
:10A720001946322364234FF49670C8BF782007EE91
:10A7300090EAD4BF4FF4167C4FF4827C0344B8EE09
:10A74000E77AC8BF4FF4FA7107EE903A27EE257A00
:10A7500001EB0C03F8EEE76A86EE873A73EE636A64
:10A76000FCEEE67A17EE902A07EE90CAB8EEE73ACA
:10A7700007EE903AF8EEE77A23EE243AC3EE276A22
:10A7800036EEC53A72EEE66AC3EE077A77EEE37A02
:10A79000FCEEE77A17EE901AC6EE877A77EEE37A48
:10A7A000FCEEE77A17EE903A03F1020C0CEB010A8B
:10A7B000F0EE466A07EE90AAF8EE677AE7EE276AAF
:10A7C000F4EEE64AF1EE10FA00F383805FFA82FCC1
:10A7D000BCF10F0F00F29480323807EE900AF8EEC9
:10A7E000E77A77EEC47AC7EE876AFCEEE67A17EE70
:10A7F00090CA5FFA8CF00F2800F2828088B2FF289E
:10A800007ED898B2FF287BD840EA097310054FEA3A
:10A810000C4200F07F6002F47F0203431343364A88
:10A8200002EA012143EA01086020012300FB0474CD
:10A8300000273046C4F83C80C4E91073C4E912779D
:10A84000C4E9157755F0D0FF94F87930202BD9B2B0
:10A8500019D194F87830012B15D0242384F879305D
:10A86000A36B1A6822F001021A601A6822F480525F
:10A870001A601A681A601A6842F001021A6084F8B5
:10A88000791084F87870002195F9120053F0EAF9F4
:10A8900095F91230AA7C002B07DB02F01F01012280
:10A8A0005B098A40154941F82320002195F91100E0
:10A8B00053F0D8F995F911306A7C002B07DB02F0D0
:10A8C0001F0101225B098A400C4941F82320BDE8A1
:10A8D000F88F01316AE700BF181F0120501F0120C7
:10A8E000286B6E4E00380240000016438858060858
:10A8F000002474490000704200FFFF0000E100E006
:10A90000BEF10F0F90D0F14603E700BF0248C369C4
:10A910000BB10C3018477047000001200248036C4F
:10A920000BB1303018477047000001200248436ED9
:10A930000BB1543018477047000001200348D0F88D
:10A9400088300BB178301847704700BF00000120F5
:10A950000348D0F8AC300BB19C301847704700BFAB
:10A96000000001200348D0F8D0300BB1C0301847A8
:10A97000704700BF000001200348D0F8F4300BB14D
:10A98000E4301847704700BF000001200348D0F8AA
:10A99000183113B100F5847018477047000001208A
:10A9A0000348D0F83C3113B100F596701847704752
:10A9B000000001200348D0F8603113B100F5A87001
:10A9C00018477047000001200348D0F8843113B1C4
:10A9D00000F5BA7018477047000001200348D0F80E
:10A9E000A83113B100F5CC70184770470000012062
:10A9F0000348D0F8CC3113B100F5DE70184770472A
:10AA0000000001200348D0F8F03113B100F5F070D8
:10AA100018477047000001200348D0F8143213B1E2
:10AA200000F5017018477047000001200348D0F876
:10AA3000383213B100F50A70184770470000012042
:10AA400001380A4B70B500EBC000094C0E461546A4
:10AA500004EB8004E06898420CBF9520962051F0EA
:10AA6000D7FC84F8286084F8295070BD006002404B
:10AA70000000012001382DE9E84100EBC000124D33
:10AA80001E46124B05EB800590460F46E86898423B
:10AA90000CBF9520962051F0BBFC95F921004FEAA0
:10AAA0009811EF616E6253F0DDF895F92130002BBB
:10AAB00007DB03F01F0001225B090549824041F8D2
:10AAC0002320BDE8E88100BF0000012000600240B3
:10AAD00000E100E02DE9F04FB94B97B0DFF8FC82C0
:10AAE000002593F83D73A8F25C7BB64B0193DFF829
:10AAF000F092DFF8F0A24E46B30AA3F58013522B72
:10AB000057D85B4493F804320D2B52D85B44012F85
:10AB100093F9584240F04081012C41D14FF0000997
:10AB20004946204616F094FB16F0ECFB90F800C066
:10AB3000BCF1000F18BFBCF1540F14BF4FF0010C53
:10AB40004FF0000C40F0248109F104091FFA89F943
:10AB5000B9F1100FE4D1002D00F0DC80994A0021FA
:10AB60000FE05B4493F804320D2B11D85B4493F94A
:10AB70005832A3420FD0013102F58672A94280F209
:10AB8000C580906803689B0AA3F58013522BE8D90F
:10AB90000023A342EFD143799AF805009842EAD105
:10ABA000D04510D05AF8206FB30AA3F58013522B6A
:10ABB000A7D9012FF4D001230024022FAED1002BFE
:10ABC000ACD0D045EED1019B013503F58673042D41
:10ABD00001938CD17C4B4FF00109DFF80CB201934B
:10ABE000A3F29443ABF10808049309F1FF33D8F8BA
:10ABF00004209A4240F38780DBF80C60002E00F0BE
:10AC0000BB833168B38801F13F41B3FA83F301F5A7
:10AC10007E01C3F11F0A890AD8F82451002D40F3A0
:10AC20000081684B002405E0013403F58673AC42D3
:10AC300000F0F4801A688A42F6D14FF48673614AB4
:10AC4000CBF804A003FB04245FFA89F3CBF8184087
:10AC500016B1F3710323B3714FEA4A0303220125AE
:10AC600002FA03F1A26C05FA03F30A43A264226D0F
:10AC70001343236598F80030002B00F09280636D39
:10AC800005FA0AF52B4363659EB13368B2889A6171
:10AC90004B4B3046002293F85213490141F0090111
:10ACA00001F0E90114F05CFE98F80030002B00F090
:10ACB0009F80D4F8AC30AEB200202D0403F1C00167
:10ACC0001A680C3343F8080C2A4343F80C2C53F849
:10ACD000042C324343F8042C9942F1D1204609F167
:10ACE0000109FDF745FA0123019AB9F1090F8BF823
:10ACF0001C300BF1200B0BF8033C537402F11803CA
:10AD000001937FF472AF17B0BDE8F08FBCF1000F74
:10AD10007FF446AF504614F07BFD9AF80540C3B26D
:10AD2000022B00F22D83431C284A5BB203EB430342
:10AD30009800274B03F5727104E0994200F02083DC
:10AD400053F82C2FB242F8D11A79A242F5D11A58F1
:10AD5000002AF2D0944600231E4A5168013361450F
:10AD600013D0102B02F12402F7D14FF0FF3303EB85
:10AD7000C303194A02EB830393F82830002B7FF4B6
:10AD80000FAF019BC3F808A01DE7DBB2013BEEE764
:10AD9000002D7FF4E3AE03E7B4F1080318BF0123ED
:10ADA0000BE70AF1100305FA03F2636D13436365C1
:10ADB000E6B1B38805FA0AF532681B04936167E7C8
:10ADC000181F012054050020101C00200000014025
:10ADD000F05A06080C00012000000120E45F06087C
:10ADE00000040140E45E0608C800002005FA0AF5E8
:10ADF000D4F8AC30AEB200202D0403F1C0011A68C3
:10AE00000C3343F8080C324343F80C2C53F8042C51
:10AE10002A4343F8042C9942F1D15FE7032C00F355
:10AE2000C1804FF486738F4803FB05F208EB0203E1
:10AE300084180392D3F89C24002A00F091821068B1
:10AE4000C3F894140131039A83F89D159210864932
:10AE5000376801FB02F28C21C3F89874C3F88C1593
:10AE6000049F02FB01F102EB420207EB4101C3F830
:10AE700088157E4901EB82129BF81010C3F840251B
:10AE80005422069183F89C256A1CC8F8242130229C
:10AE9000C3F84425764B93F85123D3F81033062A90
:10AEA00000F02782072A734F734A744914BF712731
:10AEB0001146734A04BF3A461C27C8F828714FF45C
:10AEC0008677B3FBF2F2B3FBF1F307FB0587591E5C
:10AED000039B013AA7F8481503F15801614B92B260
:10AEE00019440023A7F800252266A4F858306366A9
:10AEF000E36555F011F9D7F89C24106802920368B5
:10AF000043F08003036053790C2B08D8DFE803F08B
:10AF1000750707076D070707640707075B004FF40E
:10AF2000867303FB0583D3F8A0146022036800270F
:10AF30004FF0020E0E924FF4807223F0010310972F
:10AF40001492012213970F920A221597CDE9112E20
:10AF50000EAA036054F09EFF4FF4867303FB058333
:10AF6000D3F8A024029B012A1B684ED0042A4CD09F
:10AF7000102A00F0F081402A47D0B2F5807F00F01F
:10AF8000F481B2F5806F00F0F081B2F5805F00F0DF
:10AF9000EF81B2F5803F4FF03C070CBF08224FF421
:10AFA000006233E00323324A82F85033354B36488F
:10AFB0003649374AC3F8400AC3F83C1AC3F8482A4E
:10AFC00017B0BDE8F08F4FF486734FF4805103FB48
:10AFD0000583C3F8A014A8E74FF486734FF480717B
:10AFE00003FB0583C3F8A0149FE74FF48673102179
:10AFF00003FB0583C3F8A01497E74FF48673012180
:10B0000003FB0583C3F8A0148FE7082203F118019E
:10B01000C8590243CA51029A1079002840F06D8144
:10B020004FF4867303FB0583D3F89C341F681846DE
:10B0300002933B6843F001033B6014F0E9FB029B81
:10B0400093F805E0C3B2022B00F29A8100F1010CE3
:10B05000104A114900234FFA8CFC0CEB4C0C4FEAC0
:10B060008C0C21E0540500206B4CA4077C140020BC
:10B07000181F012040771B0010552200449508003E
:10B08000D0DD0600B8110020D9D90108D5D90108B2
:10B09000E1D90108F05A0608000001400133172BDE
:10B0A00000F06E8152F82C1FB942F7D11179714529
:10B0B000F4D152F80C100029F0D02C2200EB400003
:10B0C00002FB03F3B14A03EB8003B1481344D3F806
:10B0D00078224FF4867303FB0583C3F8AC24002267
:10B0E000C3F8A814436801328B4200F03081102A63
:10B0F00000F12400F6D100234FF0FF370793A54B52
:10B1000007EBC707A44803EB87074FF4867303FBDD
:10B110000583FA6893F89D3582420CBF95209620EE
:10B12000059351F075F9059B87F82930542387F86A
:10B130002830029B994F5B790C2B97BF934A0021D3
:10B1400002EB4303B3F88417029B18684FF486732D
:10B1500003FB0583A3F8A414002306E0904200F04B
:10B16000FD800133042B00F00E8157F83320002AB4
:10B17000F4D1D8F8C42D0132C8F8C42D08EBC302AD
:10B18000DB00C2F8C80D1F44079823469022B7F889
:10B1900004C041EA0C01B98000278149FFF76AFC2D
:10B1A00060694FF486734FF440324FF4804C03FBD8
:10B1B0000585036843F010030360036843F014033C
:10B1C0000360C4F8A870C4E91F77C4E92877D5F8EC
:10B1D000AC34C4F898204022C4F894300423A26709
:10B1E000C4F89C304FF48063C4F88430D5F844250B
:10B1F0006C4BC4F89020C2B2D5F8981420F0FF0030
:10B20000103A18312167A3FB02214FF48052664B9C
:10B21000C4F888200909039A70321A44D5F84035D9
:10B22000C4F88CC0636755F0AFF8D5F8A804039A4A
:10B230004FF4003E01684FF4006C5B4BB832216262
:10B2400041691A444FF4806361624168A162816878
:10B25000E162C168C4F8C870C4F8F0702163C4E941
:10B260003077C4E93A770427D5F8AC14C4F8CC3069
:10B27000C4F8E470C4E9371ED5F88C354949C4F8E0
:10B28000D830C3B220F0FF00103BA1FB0331D5F84A
:10B290009834C4F8D0C01033F9404FF48047C4F854
:10B2A000B830D5F88835C4F8D470C4F8BC3055F03F
:10B2B0006BF8D5F8A8245FFA89F3116861635169C6
:10B2C000A1635168E16391682164D1686164116888
:10B2D00041F010011160116841F014011160069AEB
:10B2E000CBF804A08BF81020CBF80C60CBF81840FA
:10B2F000AFE42E4938272E4ADFE5059314F00AFB08
:10B30000059B0746F0B103682A4A9A181F4B03EBC6
:10B31000922393F87C07029B1B7A059351F078F8EF
:10B32000059B08A9BA880D93002338680C930892EE
:10B33000CDE90A330223099354F072FF5423FB80B2
:10B34000029B1B685A6C42F400425A6468E6D3B20E
:10B350005F1E0793D3E64FF4006257E6DB0012E767
:10B360000223154A82F8503320E6082204274DE6CE
:10B370004FF40062042749E64FF0FF3A51464BE490
:10B3800000235B68FFDE00239B88FFDE88580608E9
:10B390000C0001200000012000600240880E002007
:10B3A00051800008ABAAAAAA54050020882A1100DF
:10B3B000A0BB0D000000FEBF181F0120064A00239D
:10B3C000516801332432814203D0102BF8D1002080
:10B3D0007047D8B2704700BF0C0001202DE9F04142
:10B3E000834DC0EB001605EBC606D6F85433002B90
:10B3F00000F0BC800446070196F8C40351F008F839
:10B4000096F8C433012203F01F015B09013B8A4017
:10B41000032B0AD8DFE813F0E0000400E600DA00AE
:10B4200074494B6A23EA02024A623B1B04F1010899
:10B4300005EBC3035FFA88F893F8580314F06AFA2F
:10B4400018B1122380F8078083713B1B05EBC303FF
:10B4500093F8590314F05EFA064618B1132380F8E6
:10B46000078083713B1B05EBC30393F85A0314F069
:10B4700051FA18B1142380F8078083713C1B2E21E8
:10B48000304605EBC40494F85C2314F08FFA94F86A
:10B490005A0314F03FFA94F85D230E2114F086FA53
:10B4A00094F8580314F036FA94F85B232E2114F024
:10B4B0007DFAD4F8543350491A688B4222F0400286
:10B4C0001A6055D04D4A934269D002F5806293428A
:10B4D00058D1484A116A41F400411162116A21F4BD
:10B4E000004111625A6842F480525A601A6852064A
:10B4F00034D443491E68D1F86042D1F86C02D1E9D6
:10B500009325B0F5005F42EA0502D1F8585242EAAD
:10B510000502D1F85C5242EA0502D1F8645242EACF
:10B52000040242EA0502D1F8685242EA0502354DAA
:10B5300042EA000205EA060542EA05021A60D1F86D
:10B5400054225D6842EA14422F4C04EA050442EAA0
:10B5500004025A6002D1B1F870221A61DA6922F449
:10B560000062DA611A6842F040021A60BDE8F081B8
:10B57000204A516A41F480515162516A21F480514C
:10B580005162AFE7214A934213D11A4A516A41F4FA
:10B5900000515162516A21F400515162A2E7154AEB
:10B5A000116A41F480411162116A21F480411162F3
:10B5B00098E7174A934295D10E4A516A41F4801197
:10B5C0005162516A21F4801151628BE709490B697C
:10B5D00023EA02020A6128E706494B6923EA0202CC
:10B5E0004A6122E703490B6A23EA02020A621CE766
:10B5F000181F012000380240003001400038004090
:10B60000000001204000FFFFFBF0FFFF003401407D
:10B6100000500140027A124B0168134493F8A0379E
:10B6200010B4CC58CA1824F00104CC501368DB07BE
:10B63000FCD4037D1F2B09D9203B20225DF8044B4D
:10B6400002FA03F343F01803CB60704720225DF841
:10B65000044B02FA03F343F018038B60704700BFFA
:10B6600088580608F8B58368054607681BB19A88AC
:10B67000196812048A61D7E90464A561337D1F2B20
:10B680003ED9203B2022306802FA03F343F018032E
:10B69000C360237D1F2B3DD92022203B02FA03F3F8
:10B6A000226843F01803D3606368002271680A605F
:10B6B0001A601A6842F010021A60BA69317A54F0BE
:10B6C00063FEFA69217A206854F05EFE327A154BE7
:10B6D00029681A443668496892F8A0572068725958
:10B6E00042F001027251227A134493F8A027835842
:10B6F00043F0010383504B6843F003034B60F8BDF4
:10B700002022306802FA03F343F018038360237D9C
:10B710001F2BC1D8202202FA03F3226843F018033A
:10B720009360C1E7885806082DE9F047056886B0A0
:10B73000A54B06466F689F4200F03381A3F578431E
:10B740009F4200F04B8103F580639F4240F04881A7
:10B75000022296F88840296201213B68B08823F0D4
:10B76000400385F824103B602B89834240F0F3802E
:10B7700096F80C80AB7A434539D0C2EB0212934B5A
:10B7800003EBC20A9AF85803B8F1000F40F0B680F4
:10B7900014F0C0F8814600B303688D4A9AF85BA3A1
:10B7A0001A448C4B03EB922393F87C0750F030FE45
:10B7B000B9F804304FF0020CD9F8000000930323CD
:10B7C0006946CDF80C80CDF814A0CDE901C3012362
:10B7D000049354F025FD96F80C803B6843F0010378
:10B7E0003B603B6843F002033B6085F80A803B689E
:10B7F00043F040033B602A6A9368E3B10020764F30
:10B80000844651689C441432013001EA070E0B4310
:10B8100021B1BEF1005F01D0D9060CD19368002B95
:10B82000EFD12B7B3BB134B1012800F2B180BCF1E8
:10B83000080F00F2AD802B6A9B68002B48D0B368DC
:10B840001BB19A88196812048A612C6A6A68296A8D
:10B85000286A5368876823F480532468012F486856
:10B86000536014DD394693689B07FCD5002C34D017
:10B8700034F8023B93819368DB07FCD5D36808B1A9
:10B8800020F8023B02390129EDDC07F0010753687B
:10B8900043F48053536067B193689907FCD5002C3B
:10B8A00074D0237813739368DB07FCD5D36800B199
:10B8B00003702B6A1B7BD3B92B6A1B699BB12B6A64
:10B8C000D6F894001B699847012809D002280AD1AC
:10B8D00000232B6206B0BDE8F0874FF6FF73C9E77F
:10B8E0002B6A143B2B622B6A14332B62A3E7B368D9
:10B8F000002BE1D01A689B889361DDE714F00AF809
:10B900008146F8B10368324A9AF85B831A44314B96
:10B9100003EB922393F87C0750F07AFDB9F80430DA
:10B92000D9F800004FF0030E009302236946CDF8CA
:10B930001480019304930023CDE902E354F070FCDA
:10B9400096F80C803B6823F001033B603B6823F0D2
:10B9500002033B6049E7C0F34F03B3F5807F3968CA
:10B96000A8BF4FF4807321F03801022BB8BF022327
:10B97000002B93FAA3F3B3FA83F308BF4FF0FF331E
:10B98000013B41EAC3033B602881F1E6FF2389E7DD
:10B990003068002155F018FF304606B0BDE8F0478A
:10B9A00060E6002296F88840296201213B6885F80C
:10B9B000241023F0400329893B60B38899423FF467
:10B9C000D7AE1846C9E700BF00300140181F01205C
:10B9D0000000FEBF885806080000FFFF0122B8E6FD
:10B9E0004FF0FF32DEE700BF174BD0F8D8105B688E
:10B9F000D0F8E02010B50446581A824200DC22B983
:10BA0000D4F8E4200A44C4F8DC2094F8D020C4F828
:10BA1000D830012A05D0D4F8D4300133C4F8D4305A
:10BA200010BD6268D4F894300849D4F8900001330E
:10BA3000126AC1E99D03002AEDD101F51D71201D97
:10BA4000FFF772FEE7E700BF001000E000000120F2
:10BA5000F0B5054680698BB090F8DC30012B28D01A
:10BA6000023B012B30D81030194C13F00DF8AB69A4
:10BA7000BB22EC46D3F89C301A70AE69D6F8A030E1
:10BA80005F1C0FCCACE80F00D6F89C30CDE9003736
:10BA90000FCCACE80F0094E803008CE8030006F13B
:10BAA00010006946FFF740FEA8690269136A002B7F
:10BAB000FCD1D0F8A0305A8852BAEA819A8852BA9A
:10BAC0002A82DB885BBA6B8201200BB0F0BD00BF1D
:10BAD000306006082DE9F04190F8DC308AB0044669
:10BAE000D0F8A060012B4ED016D8D0F89C304FF083
:10BAF000FF3205211A605A609A60DA60D0F8E030AF
:10BB0000C0F8F010B3F57A7F4DD8032380F8DC300D
:10BB100001200AB0BDE8F081023B012BF8D800F10A
:10BB200010082B4D404612F0AFFFD4F89C30C322D2
:10BB3000EC461A70D4F8A0305F1C0FCDACE80F00B3
:10BB4000D4F89C30CDE900370FCDACE80F0095E874
:10BB500003008CE8030069464046FFF7E5FD2269D3
:10BB6000136A002BFCD1738801205BBAA4F8D03093
:10BB7000B3885BBAA4F8D230F3885BBAA4F8D430A7
:10BB80000AB0BDE8F08173895BBAA0F8D030B38900
:10BB90005BBAA0F8D230F3895BBAA0F8D4300120A8
:10BBA0000AB0BDE8F08103691A7B6AB190F8982069
:10BBB00052B1D0F89C100122BB205A7384F8DC20CB
:10BBC000C4F8A4400870A3E7022384F8DC309FE7A0
:10BBD0003060060810B5124B04465868D4F8E410DB
:10BBE000D4F8D83094F8D0200B44C4F8D800012AF7
:10BBF000C4F8DC3005D0D4F8D4300133C4F8D430E4
:10BC000010BD636807491B6AD4E92402C1E9A70291
:10BC1000002BF0D101F52771201DFFF785FDEAE724
:10BC2000001000E00000012070B5054680698AB070
:10BC300090F8DC30012B27D0023B012B2CD81030A0
:10BC4000174C12F021FFAB698C22EC46D3F89C30E4
:10BC50001A70AE690FCCACE80F00D6F89C30009398
:10BC6000D6F8A03001930FCCACE80F0094E80300A5
:10BC70008CE8030006F110006946FFF755FDA8693E
:10BC80000269136A002BFCD1D0F8A0305A88EA81EF
:10BC90009A882A82DB886B8201200AB070BD00BFBF
:10BCA000586006082DE9F04190F8F6308AB0054654
:10BCB000012B58D090F8DC30D0F8A060012B00F0B8
:10BCC000978017D8D0F89C30002205211A605A605E
:10BCD0009A609A81D0F8E030C0F8F010B3F57A7F1E
:10BCE00000F294800323012480F8DC3020460AB05F
:10BCF000BDE8F081023B012B30D800F110084E4F17
:10BD0000404612F0C1FED5F89C309222EC461A70E3
:10BD1000D5F8A0400FCFACE80F000FCFACE80F0074
:10BD200097E80300D5F89C308CE80300404669464C
:10BD300000930194FFF7F8FC2A69136A002BFCD1E9
:10BD400073880124A5F8D0302046B388A5F8D230F6
:10BD5000F388A5F8D4300AB0BDE8F081012420466C
:10BD60000AB0BDE8F081354E00F110070A218DF8C8
:10BD70000C3006F10C028DF8203000233846029179
:10BD80000993CDE90062CDE90433CDE9063312F021
:10BD90007BFE69463846FFF7C7FC2A69146A002C07
:10BDA000FCD1F289052A18DD338A063AB6F9124029
:10BDB000B6F9141014F5004F08BFB3F5004F306901
:10BDC00014BF0123002311F5004418BF01241C43B4
:10BDD0001CBFC5F8D000A5F8D410002ABFD0384643
:10BDE000B0227E2112F096FE20460AB0BDE8F08116
:10BDF00032891C46A0F8D0207389A0F8D230B389CC
:10BE0000A0F8D43020460AB0BDE8F08103691A7B5F
:10BE10006AB190F8984054B10122D0F89C105A733E
:10BE20008C2380F8DC20C5F8A4000B7097E7022370
:10BE3000012485F8DC3092E75860060800000020F5
:10BE4000014B43F820107047502800401D4B1E48FE
:10BE5000196C1E4A41F0805130B4196482B0196CDB
:10BE6000FF2401F0805101910199016841F4807132
:10BE70000160CA20196C41F480611964196C01F4E5
:10BE8000806100915321009D5462506251625B6F4A
:10BE9000DB000DD40E4B00220E490F485A609A6009
:10BEA000DA601A615A61C1F8500802B030BC7047BC
:10BEB000084A094BD2F850289A42EBD102B030BC64
:10BEC000704700BF0038024000700040002800406A
:10BED000502800400020004031666542800AA0F5ED
:10BEE0008010522809D8064B184490F804220D2AD5
:10BEF00003D8134493F9580270470020704700BFDD
:10BF000088580608F0B50446D0F89400434B83B037
:10BF1000A16804F1640204F118070E68C1B220F0B0
:10BF2000FF0001921039A3FB0131090954F076FAA0
:10BF3000616D0023019A012984F8583018D0042932
:10BF400016D0102955D0402912D0B1F5807F53D09A
:10BF5000B1F5806F50D0B1F5805F55D0B1F5803F1D
:10BF60004FF03C030CBF6FF0080C6FF4006C01E065
:10BF70006FF0080C06F118053046E95801EA0C018B
:10BF8000E950616D53F086FF636D012B16D0042BD1
:10BF900014D0102B0FD0402B10D0B3F5807F2FD0B2
:10BFA000B3F5806F2CD0B3F5805F31D0B3F5803F0F
:10BFB00006F1540502D04FF4006100E008212B681F
:10BFC0003A46D4F894000B4340212B602162C1B261
:10BFD000124B20F0FF001039A3FB0131090954F086
:10BFE000D3F9D4F89420136843F01003136003B01E
:10BFF000F0BD6FF4006CBDE76FF0080C0423B9E7E7
:10C0000006F11C050821DAE76FF4006C0423B1E7A0
:10C0100006F11C054FF40061D1E700BFABAAAAAA44
:10C020002DE9F04FDFF88CA29AF800402DED028B3D
:10C0300087B034B90124204607B0BDEC028BBDE8BF
:10C04000F08F954BDFF870B2D3F89C3208EE103ABF
:10C0500013F0E4FF9BF8443B0390002B00F01881A1
:10C060000AF6C4070AF582630AF5987400263D466D
:10C0700001930597DBF8C032039AD31A03D4EA6D13
:10C080009A4200F3EE8006EB86030AEB431393F823
:10C090001C3903F0FF020292002B61D0D5F89410F6
:10C0A000AB687E481A68CBB221F0FF01103BA0FBC1
:10C0B00003037B481B09C35C19444B68A9891FFA19
:10C0C00083FCD368CCF1160C23EA0103BCF1070F03
:10C0D000D36045D9DAF8183400220121013396469D
:10C0E0008946CAF81834D5F89C301F46049357F88F
:10C0F000048B40461CE0D7F80080BEF1140FA8EB7B
:10C100000003404657DC13F1080848BF03F1170845
:10C110004FEA28130EEB281E03F1FF38013102FA13
:10C1200003F3043709FA08F28C4542EA030242D3CA
:10C130008C45E0D8CEF1150338684FF0150EEBE7CB
:10C14000DAF814340133CAF81434002E00F0908069
:10C1500000230293029918EE102A204612F036FCB2
:10C16000019B284601365C340433A0350193FFF768
:10C17000C9FE9BF8443BB3423FF77CAF0022059FCA
:10C18000CBF8C022002B3FF455AF03EB830307EB42
:10C1900043133A7CA03757F84C0C12F0020F57F8B3
:10C1A000982C11680A6A14BF42EA80020243BB421B
:10C1B0000A62EED13EE7BEF1150FC1D13949C2F393
:10C1C0008423C2F3441001EB830301EB8000D3F816
:10C1D000F837D0F8F8071B0243EA001302F01F00FB
:10C1E000C2F3C43201EB800001EB8202D0F8F817F1
:10C1F000D2F8F8270B4343EA023383EA132282EA98
:10C20000121202F00F020F2A9AD140F6FF711A099A
:10C21000B1EB131F39D0C2F308025B0B12FA03F320
:10C220008ED0214A4FF6FF7102EB5302B2FBF3F3BB
:10C230009AB28A4284D00199032E8A814FF001027A
:10C240008A7387DC144A92F8A0222D2A82D1174AD9
:10C250002046029922F8163018EE102A12F0B6FB8A
:10C260007EE70024204607B0BDEC028BBDE8F08FCE
:10C27000049958220E4859F01FF90296029918EEB7
:10C28000102A204612F0A2FB6AE700231A46D2E7E2
:10C29000CBF8C032CFE600BF181F0120ABAAAAAA74
:10C2A0002860060888580608C0270900BC2101201C
:10C2B000FC040020C0000020B8110020830AA3F570
:10C2C0008013522B45D8F0B50446614885B003442D
:10C2D00093F804020D283AD85E4D860105EB8013D1
:10C2E000D3F83475A74232D00139C3F8344589B246
:10C2F000C3F84015D5F81013B1FBF2F2013AC3F8B8
:10C30000382505F2345202EB80100022C3F8442590
:10C31000C3F83C25C3F8482549F0EEFA4E4B9C4241
:10C3200018D0B4F1804F15D0A3F57C439C422CD09B
:10C3300003F580639C4228D0484A03F57C439C4225
:10C3400018BF944260D003F570539C425CD005B096
:10C35000F0BD704700234FF48051AA19CDE90013B6
:10C3600092F870150129CDE90233F0D00221D2F8FC
:10C370003405012482F87115394987683940816094
:10C3800082F8714582F8703519E000224FF480512F
:10C39000AB19CDE9001293F870150129CDE90222FD
:10C3A000D5D00221D3F83405012483F871152C4926
:10C3B00087683940816083F8714583F870250023D0
:10C3C000AA19CDE90033029392F87035012BBED043
:10C3D000D2F834350221204882F8711583425A6818
:10C3E000996832D000F5806083422ED022F070022E
:10C3F00021F08001354401205A609960002385F8BE
:10C40000710585F87035A2E700214FF48053CDE91E
:10C410000031AB1993F87025012ACDE9021196D0AD
:10C42000D3F83405022283F871250D4A87683A4013
:10C4300082600C4A83F870150121944283F87115CB
:10C44000BDD0064B9C4282D1B9E722F47002CDE701
:10C4500088580608181F012000000140000C004009
:10C460008800FEFF0004014070B504460068830A9E
:10C47000A3F58013522B05D82E4E334493F8045263
:10C480000D2D00D970BDFFF719FF2B4BA80102221B
:10C4900003EB8515D5F8341585F87125274A8D6885
:10C4A0002A40062A06D0B2F5803F03D00A6842F03F
:10C4B00001020A60034401202168214A83F87105C2
:10C4C0000023204801E050F8332091420AD0013384
:10C4D0000E2BF8D10121002051F0C4FB1A4B012290
:10C4E0001A6070BD06EBC303012193F97D4893F8F0
:10C4F0007D68204651F0B6FB002CC3DB06F01F031D
:10C5000001216409104D01FA03F31B2E45F8243074
:10C5100008D02E2EB6D12C2051F0A4FB4FF480531E
:10C520006B6070BD192051F09DFB4FF000732B60C4
:10C5300070BD00BF88580608181F012007000100C1
:10C54000000001400061060800E100E003689B0A6A
:10C55000A3F58013522B52D870B5384C234493F86E
:10C5600004420D2C4AD840798308002948D04FEA6C
:10C57000900C334804EB840503EB450300EB841572
:10C58000D5F83465022505FA0CFCF5684CEA05057A
:10C5900000EB830CCCF8F418CCF80429F560A60164
:10C5A000A5002B19D900274B01F1200C9C44EFF377
:10C5B000118E502282F3128801F110021A442033A6
:10C5C0000B4452F8041B19B1CCF8001001F1040C13
:10C5D0009342F6D100235FFA8EFECCF800308EF342
:10C5E00011882C4400EBC4043044D4F81439D0F83A
:10C5F0003425F3B1D36843F00103D36070BD7047B5
:10C600000F48022505FA03FC00EB8415D5F83465C4
:10C6100004EB840503EB4503F56825EA0C05F5609A
:10C6200000EB8305A601C5F8F418C5F80429A50098
:10C63000B7E7D36823F00103D36070BD88580608BC
:10C64000181F01200C28012001490248FCF74CBBAF
:10C650000C2801200000014010B5064C064804F6E5
:10C66000F401FCF741FB04F65C210448BDE81040EE
:10C67000FCF73ABB181F01200000014000440140B4
:10C6800002494FF08040FCF72FBB00BF3428012047
:10C6900001490248FCF728BB5C2801200004004047
:10C6A00001490248FCF720BB842801200008004013
:10C6B00001490248FCF718BBAC280120000C0040DF
:10C6C00001490248FCF710BB242901200004014065
:10C6D00010B5064C064804F60C21FCF705FB04F6E1
:10C6E000D4210448BDE81040FCF7FEBA181F012011
:10C6F00000040140001C004001490248FCF7F4BA64
:10C700004C2901200040014001490248FCF7ECBAE5
:10C710009C2901200048014001490248FCF7E4BA85
:10C72000C4290120001800402DE9F04F4FF4167283
:10C7300095B00021814858F033FF814B814F4FF075
:10C7400080415A6C07F12004B94642F0010207F516
:10C750001E65A246DFF8F4815A64A7F170065A6C90
:10C7600002F001020092009A1A6C42F001021A646F
:10C770001A6C02F001020192019A1A6C42F0020254
:10C780001A641A6C02F002020292029A1A6C42F0C7
:10C7900004021A641A6C02F004020392039A1A6CDF
:10C7A00042F008021A641A6C02F008020492049A19
:10C7B0001A6C42F010021A641A6C02F01002059210
:10C7C000059A1A6C42F020021A641A6C02F02002D8
:10C7D0000692069A5A6C42F002025A645A6C02F0AF
:10C7E00002020792079A5A6C42F480325A645A6CD9
:10C7F00002F480320892089A5A6C42F400325A6469
:10C800005A6C02F400320992099A5A6C42F480225E
:10C810005A645A6C02F480220A920A9A1A6C42F004
:10C8200040021A641A6C02F040020B920B9A1A6CC6
:10C8300042F080021A641A6C02F080020C920C9A88
:10C840001A6C42F480721A641B6C03F480730D93AB
:10C850000D9B4246002301E056F833208A420CD05B
:10C8600001330E2BF8D10AF1200A00204FF0D0FD41
:10C8700055450DD05AF8201CEBE7334A0AF1200A3F
:10C8800002EBC30393F87C084FF0C2FD5545F1D18C
:10C8900007F51C67DFF8B0B0DFF8B8A009F1200990
:10C8A0004F4526D099F80630002BF7D099F80400B0
:10C8B00013F030F806460028F0D0036809F120098B
:10C8C00019F8188C53440BEB932393F87C074FF023
:10C8D0009FFDB288306800230E9202220EA9CDF887
:10C8E0004C80CDE90F23CDE9113353F099FC4F452E
:10C8F000D8D14FF08041154F154E3A46002301E044
:10C9000056F833208A420BD001330E2BF8D1203455
:10C9100000204FF07DFDAC420CD054F8201CECE719
:10C92000094A203402EBC30393F87C084FF070FDF2
:10C93000AC42F2D115B0BDE8F08F00BF0C28012049
:10C94000003802407061060888580608000001405F
:10C95000006106080000FEBF70B5032082B0FDF73D
:10C960004FFC01284FD0344C0025344A0523C4F82D
:10C970009850C4F89C50C4F8A020C4F89430BFF379
:10C980004F8FBFF36F8F4FF6FF01E2682C4B0A40C9
:10C990002C4E13432C4AE360536FC6F84C3B48F0CF
:10C9A00011FD2A4B4FF06041A3FB0023D4F8FC207B
:10C9B000274842F080729B0CC4F8FC20C6F8503B1C
:10C9C000244AD6F81033C1F8B00FA2FB0323224A41
:10C9D0009B0955601168013B41F00101B3F1807F73
:10C9E000116008D24FF0E022F0215361072384F850
:10C9F0002310956113614FF0E022136943F00403A3
:10CA0000136102B070BD00210320FFF719FA0E4B2D
:10CA100012485A6C124942F480425A645B6C03F427
:10CA200080430193019A02680B68026083F30888CF
:10CA30004B689847FEE700BF00ED00E01B000006D2
:10CA40000005FA05181F01200038024083DE1B4351
:10CA500055CEACC5D34D6210001000E00038014047
:10CA60000000F01FD0F82021242100232DE9F041FF
:10CA7000C0F8941104461168806804F5907521F09F
:10CA8000010111601360536093606179C4F824015F
:10CA90008802C4F83431C4F89C3100F48050C4F8E2
:10CAA000943184F89031C4F828010803C4F898310F
:10CAB00000F40050C4F83831C4F84031C4F82C01F7
:10CAC0000802237900F4806013F00106C4F83001F5
:10CAD0001CBF0420C4F8340113F002031EBFD4F8B5
:10CAE000340140F00800C4F83401CF0715D54EB129
:10CAF000D4F8440140F00200C4F844014FF48030FF
:10CB0000C4F84C016BB3D4F8443143F00103C4F8CA
:10CB100044314FF40033C4F84831090723D52423A6
:10CB2000D4F894112846C4F89431136823F0010313
:10CB3000136048F0CFFF012839D0D4F84431002BDE
:10CB400040F0E680D4F8203128465A6822F490421A
:10CB50005A609A6822F022029A609A6842F00802AB
:10CB60001EE00B07DBD42423D4F894112846C4F824
:10CB70009431136823F00103136048F0ABFF0128E0
:10CB800015D0D4F84431002B40F0C680D4F82031C1
:10CB900028465A6822F490425A609A6822F02A0283
:10CBA0009A601A6842F001021A6053F025FD237959
:10CBB000DE0760D5D4F8FC20002A00F08D80002329
:10CBC000D4F8041104F13C06E263A3644FF48062DC
:10CBD0003046E264C4E91013C4E91433C4E91833DD
:10CBE000C4E91A334FF48033E3654FF48073A365CF
:10CBF00053F048FE304648F05FF8D4F89881C4F806
:10CC00008C61B8F1200F656730D1E368626999B231
:10CC100062B3B1FA81F77F0941B394F8900101281A
:10CC200024D030460126C4F89C710B4684F89061EC
:10CC30002226A4F87811C4F89861424ED4F8201145
:10CC4000A667414E2431C4F87421E6673F4EC4F80C
:10CC50008C70C4F8886048F0CDF8002860D01023AC
:10CC600084F89071C4F89C31C4F89481E26B237904
:10CC70005268C4F8142198072CD5D4F800211AB3AF
:10CC80000023D4F8081104F19C06C4F89C20C4F8D1
:10CC9000A8304022C4F8B8303046C4E92C33C4E987
:10CCA0003033C4E932334FF48033C4F8BC304FF42E
:10CCB0008063C4E92812C4F8AC3053F0E3FD304679
:10CCC00047F0FAFFD8B1FEE7D4F8A021136843F08B
:10CCD00080031360BDE8F081D4F8A021116841F40D
:10CCE00080711160916841F001019160116841F01B
:10CCF00020011160116841F010011160BBE7D4F808
:10CD00009C30C4F88861C4F8D4505860BDE8F08104
:10CD1000284649F099F815E7284649F095F835E78F
:10CD2000D4F8203184F890011A6842F480721A60B5
:10CD30009A6842F001029A609A6842F040029A6052
:10CD400094E700BF2D1905085D190508611905084C
:10CD5000F8B5EFF31185502383F31288D0F8003132
:10CD60001B6813F0010303D0EDB285F31188F8BD01
:10CD7000D0F894210446D0F898110A4302F0210219
:10CD8000212AF1D0D0E90901884252D09CBF226902
:10CD90001846D4F894718CBF431A531A0022202FDE
:10CDA000A0629BB284F8A421DED1A2695118DBD025
:10CDB000B3FA83F67609002BD6D094F89021012A95
:10CDC000D2D00122D4F88801A4F8723184F89021DD
:10CDD0002122C4F89C61C4F86C11A4F87031C4F825
:10CDE0009421D0B1DFF854C0D4F82021C0F83CC061
:10CDF000DFF84CC028320665C0F840C0DFF844C0F8
:10CE0000C0F84CC047F0F6FF38B1102384F89061A9
:10CE1000C4F89C31C4F89471A6E7D4F820310022FC
:10CE20004021196284F890219A6842F080029A6049
:10CE30009AE7012384F8A43196E700BF0519050895
:10CE40002919050861190508F8B5D0F820310446FC
:10CE5000DA69910615D5586AE36AC0B2002B00F072
:10CE6000D580216B9847D4F820311A6822F480725B
:10CE70001A609A6822F001029A609A6942F00802E8
:10CE80009A61DA69D20701D501221A62DA69970735
:10CE900001D502221A62DA69560701D504221A6204
:10CEA000DA69150701D508221A62D4F8002152B3B5
:10CEB000D96949060AD4DA69D20606D5626B12B17D
:10CEC0009047D4F8203110221A62F8BDD96904F5D0
:10CED00090701E680F079D682DD18F0602D5B5068C
:10CEE00000F1C8800F0602D5350600F1B380480670
:10CEF00002D5710600F1A38012B12046FFF728FF8A
:10CF0000D4F82031D7E7D9690806D1D5D4F89411DF
:10CF10002129CDD0D4E90901814200F0A480A06983
:10CF2000405C0131C0B298622069B1FBF0F500FBB2
:10CF30001511A162BCE705F0010506F4907C5CEADE
:10CF40000507CFD0CF0709D5F70507D501271F6201
:10CF5000D4F89C7147F00107C4F89C718F0761D425
:10CF60004F0708D53DB104271F62D4F89C7147F0E4
:10CF70000207C4F89C710F070CD506F0200C5CEA80
:10CF8000050507D008251D62D4F89C5145F0080519
:10CF9000C4F89C51D4F89C51002DADD08D0607D516
:10CFA000B10605D5D4F8802112B19047D4F82031CC
:10CFB000D4F89C119A6801F0080102F04002114374
:10CFC00068D01A682020002122F490721A609A68B2
:10CFD00022F001029A60C4F898019A68C4F880119E
:10CFE000520610D59A68D4F88C0122F040029A605B
:10CFF00048B190F835302A4A022B02653FD0802391
:10D00000436544F0DDFCD4F8002175E7E36962690B
:10D01000D054E369E2680133B3FBF2F102FB113350
:10D02000E36120E7002DA6D002271F62D4F89C718F
:10D0300047F00407C4F89C714F079CD593E7196823
:10D04000202021F0400119600023C4F89401C4F8A5
:10D05000843151E7D4F88431002B3FF44DAF984729
:10D06000D4F8002148E7A4F87221196821F0800162
:10D0700019601DE7D4F88031002BF0D13CE701683E
:10D08000052380F835300B68D4F8002123F0010324
:10D090000B6031E7D4F80021C4F89C112CE700BFE5
:10D0A000C11905082DE9F04FC44C89B004EB800488
:10D0B000D4F8504B002C00F08A80D4F8A8511F46B9
:10D0C000DFF818B390466B680646DFF81493C4F88F
:10D0D000A0316B6BA16063612B6BA3616B8FE3600D
:10D0E0000BF5D87323602B8F23612A7809EB420359
