:020000040800F2
:1000000000000120B5290608512A06080119020836
:1000100059170208512A0608512A06080000000054
:10002000000000000000000000000000512A060847
:10003000512A060800000000512A060839FF01086D
:10004000512A0608512A0608512A0608512A06088C
:10005000512A0608512A060845FA01084DFA0108F6
:1000600055FA01085DFA010865FA010885AD000836
:1000700095AD0008A5AD0008B9AD0008CDAD0008EC
:10008000E1AD0008F5AD0008512A0608512A06081E
:10009000512A0608512A0608512A06086DFA010855
:1000A00001C8000861C7000811C8000851C700084E
:1000B00089C7000899C70008A9C700086DA90008EA
:1000C00061A900089DA9000891A90008512A060805
:1000D000512A060885FE010891FE01089DFE0108CF
:1000E00075FA0108512A0608512A060821C8000895
:1000F000D9C70008512A0608C9C7000809AE000878
:10010000512A0608B9E30008B9C70008512A0608B1
:10011000A9FE0108B5FE0108512A06080D9105083F
:100120001DAE000831AE000845AE000859AE00080B
:100130006DAE00080000000000000000000000009C
:100140000000000000000000000000008986050893
:1001500081AE000895AE0008A9AE0008C1FE0108F6
:10016000D1A90008C5A90008512A0608512A060885
:10017000512A0608512A060800000000000000006D
:10018000512A0608512A0608512A0608512A06084B
:10019000512A0608512A060800000000512A0608C4
:1001A000000000000000000000000000512A0608C6
:1001B000512A0608512A060800000000000000002D
:1001C000000000000000000000000000000000002F
:1001D000000000000000000000000000512A060896
:0801E0000025060001000000EB
:1001E8001402010005000000F42A0120002E01205D
:1001F8000000000058BA07081F020800100000009D
:100208004C2A0120082E012000000000695D010829
:10021800061001002400000024220120182E0120CD
:1002280000000000895C0108FA01010003000000D9
:100238001C4601205045012000000000715C0108A7
:10024800FF21010005000000F43901205445012078
:1002580000000000595D0108052001000C000000A5
:10026800744001205C4501200000000060BA0708C6
:100278001302010004000000C43D0120684501206C
:10028800000000006CBA07081830010034000000B4
:10029800AC3901206C45012000000000FD61010817
:1002A8001E020100060000009C370120A045012025
:1002B8000000000070BA07080D12010014000000C9
:1002C800A8380120A84501200000000078BA0708D6
:1002D800030101000A0000005C390120BC4501202F
:1002E8000000000079B2040812200100110000008B
:1002F800BC380120C8450120000000008CBA07085E
:100308000B2201003D000000082F0120DC450120E0
:10031800000000009EBA07081500100070000000D9
:10032800DC7001206477012000000000000000005C
:100338002A000800600000007C700120D4770120AA
:10034800000000000D3A030821020100F00000003F
:100358008C6F01203478012000000000D544040887
:100368002C000400100000007C6F0120247901207B
:1003780000000000653B030825201E002C0100003A
:10038800D06D012034790120000000000000000039
:100398002B00120024000000886D0120607A0120E3
:1003A80000000000813B0308161001000600000051
:1003B800106D0120847A012000000000DCBA0708D3
:1003C8002700010004000000046D01208C7A012040
:1003D80000000000E2BA07082052010008000000EF
:1003E800146B0120907A012000000000D93903081D
:1003F8000C400600E40000002C660120987A0120D9
:1004080000000000A9E80208292014007800000074
:10041800646A01207C7B01200000000000000000CD
:10042800012001000C000000586A0120F47B012023
:1004380000000000E6BA07082320010010000000B1
:10044800486A0120007C0120000000009142030856
:100458002830010016000000146A0120107C0120D9
:1004680000000000A54203080B3001001A0000003C
:10047800F8690120287C012000000000F2BA070872
:100488000E300300BC01000010670120447C0120ED
:1004980000000000754A03081E0001000900000062
:1004A80080690120007E0120000000000CBB0708C5
:1004B8000D100100700000000C6901200C7E012065
:1004C800000000000F260208220201001C010000A3
:1004D800886B01207C7E0120000000000D6E010861
:1004E800160215003F000000D87F0120987F0120E8
:1004F80000000000B15D01081B02010010000000AF
:10050800288001201880012000000000215D0108DA
:1005180028020400040000003C80012038800120EB
:1005280000000000155D0108270204000400000017
:10053800448001204080012000000000095D01087E
:100548001C0202001C0000002C6A012048800120C7
:100558000000000045610108010201000B000000D5
:10056800708001206480012000000000615C0108A7
:10057800000201000B000000A46C01207C80012017
:1005880000000000595C01081A0201003C0000004C
:100598008C71012088800120000000009161010811
:1005A8000400080080000000FC6E0120C4800120C7
:1005B8000000000000000000190201001000000007
:1005C800F06A01204481012000000000495D010813
:1005D8000812040014000000D07301205481012087
:1005E80000000000F55B01080A0201001400000089
:1005F800347401206881012000000000F5E8020839
:100608000A90010024000000CC6801207C810120B0
:100618000000000089C60308031201003D00000025
:100628004C710120A08101200000000016BB0708C2
:100638000C02010004000000E4730120E0810120A5
:1006480000000000795C01081300010004000000AC
:10065800F8680120E48101200000000054BB07086D
:1006680002020100030000005C770120E8810120FC
:100678000000000000000000F59101006C0000007F
:100688001C6B0120EC81012000000000ED4A0408E9
:10069800F62101000C000000086B0120588201209F
:1006A8000000000058BB07081212010004000000F7
:1006B8007C9B0120648201200000000064BB0708C5
:1006C8001102010008000000809B012068820120BF
:1006D8000000000068BB070834000100100000009B
:1006E800889B01207082012000000000F139030876
:1006F800F831010008000000F06801208082012024
:100708000000000070BB0708020001000C00000098
:1007180060740120888201200000000000000000B1
:10072800FE01010014000000DC6A0120948201200F
:1007380000000000DD5B010806120400180000003C
:100748001C740120A882012000000000C560010877
:10075800F701010006000000006B0120C0820120A3
:100768000000000078BB0708FC0101000900000038
:10077800989B0120C882012000000000355D010817
:10078800FB01010001000000A49B0120D48201208C
:1007980000000000415D01081A0001000E00000081
:1007A800B8730120D8820120000000007EBB070832
:1007B800140001000500000004690120E8820120FE
:1007C800000000008CBB0708FD01010024000000A8
:1007D80092730120F08201200000000037DB01083D
:1007E8001D020200060000008C7301201483012002
:1007F8000000000000000000F901010004000000F2
:10080800A89B01201C83012000000000F1DA0108E8
:100818000E02010002000000949D0120EC9D0120C1
:100828000000000092BB07082F1001002200000002
:10083800F09D0120989D01200000000094BB07084E
:100848001F50010024000000A4A10120E8A90120F4
:1008580000000000B8BB07083810010001000000C4
:1008680020A001200CAA012000000000DCBB070822
:10087800261001000E000000049F012010AA01208C
:1008880000000000F5A704081B1001000C00000080
:10089800C4A9012020AA012000000000553C04083A
:1008A8001010010002000000D8A701202CAA012086
:1008B80000000000DEBB070829020100400000001C
:1008C800B8AC012020AD012000000000E0BB070803
:1008D800FD0701007C0000003CAC012060AD012058
:1008E8000000000039440408010101000400000070
:1008F80038AC0120DCAD0120000000000000000041
:10090800000101000400000034AC0120E0AD01202A
:100918000000000020BC07080201010003000000DD
:1009280030AC0120E4AD01200000000099E8020885
:100938002A0201000800000048AB0120E8AD0120B0
:100948000000000024BC0708190001000500000091
:1009580040AB0120F0AD0120000000002CBC0708CE
:1009680037100100300000000CAB0120F8AD012069
:100978000000000032BC070823220100100000001C
:100988002CB40120F8B601200000000064BC070860
:100998000300010001000000D8B4012008B70120BD
:1009A8000000000000000000050201000400000033
:1009B80080B401200CB701200000000074BC0708B7
:1009C80010020100010000002C1102202811022051
:0809D8000000000078BC0708D4
:08280000082800080040000850
:10800000084A03465268D0F8E400D3F8F010121A78
:10801000914201DAC3F8F0200122002083F81C21EC
:10802000704700BF001000E090F8DB30052B03D84C
:1080300090F81E31012B01D00020704790F82331B9
:1080400003F0FB03022B0CBF00200720704700BF8A
:10805000836930B45C6999682268096822F001027A
:1080600022601C8ACA6822EA0402CA60027D006893
:108070001F2A06D9203A082144689140214216D08F
:10808000FEE70821046891402142F9D1202101FA3C
:1080900002F28260204A12783AB11A7F012A0BD18B
:1080A000D3F804210132C3F8042130BC70472021E9
:1080B00001FA02F2C260EDE7D3F800210132C3F801
:1080C0000021EFF31181502282F312885868C9B25F
:1080D0009D6C0268DC6C22EA05022243026081F397
:1080E00011885A699968D3E90D4009681460506194
:1080F000D3E90F40546090605C6CB3F8B400D46076
:108100000124C8621068204310601A8A1C77CB686B
:10811000134330BCCB607047C000002070B50E4EDA
:108120007368002B16DD06F10804002503E0736870
:108130002034AB420EDD237F0135002BF7D0E06801
:1081400000220028F3D0217D203417F0F5FC73685D
:10815000AB42F0DC012070BDC0000020704700BFC2
:10816000024B03EB401090F825007047C000002040
:108170004368426D30B49A61EFF31182502383F368
:1081800012884168D2B2856C0B68046D23EA05033E
:1081900023430B6082F31188436981681A68096878
:1081A00022F00102D0E908541A60826A1D605C6105
:1081B0005A60D0E90B429C60DA600023B0F86C2072
:1081C00030BCCA62037770474FF400638381704705
:1081D000084A03465268D0F8E400D3F8F010121AA7
:1081E0008A4201DDC3F8F0200122002083F81C211F
:1081F000704700BF001000E04FF4006383817047B8
:108200004FF4006383817047012380F81031704779
:108210004FF40063838170474FF40063838170479C
:108220004FF400638381704770470120704701203D
:1082300070472DE9F047DFF880810E460746D8F8F1
:108240000050B8F80420B8F80A90C2EB2513520089
:10825000C2EBE502B8F906506A4303FB03F5B8F92F
:1082600008302D135D43B8F90E30AD134FEAE37EAD
:1082700005EBE225A5F5FA31C8F81C5081FB010C8D
:1082800003FB0CF200FB0E22A3FB003E9644B8F960
:108290000C201B0A82FB014243EA0E63120342EAEE
:1082A000145224031B194FF0000442EB2E22A3FBAF
:1082B000093E02F5004209FB02EE4FEAEE734FEA77
:1082C0006E0253EA6E0E6BD0B8F914904FEAE97E55
:1082D00009FB0CFC00FB0ECCA9FB00908444B8F910
:1082E000120080FB01E148044FEA4E4140EADE30D3
:1082F00011EB0909D8F820104CEB0000C1F5801CE7
:1083000014EB0904B8F910100CF0004A40F6354996
:1083100000EBC1014AEA5C0A4FEACC7CBCEB0400EA
:108320006AEB010AA0FB090109FB0A115AF026F9C0
:10833000B8F91A404FEA613E8146430B04FB0EF246
:108340004FEAE47C43EAC14303FB0C2CA4FB034249
:10835000624404FB0EFE03FB02EEB8F91820A4FBF6
:1083600003439E44640E02FB01F344EACE1414EB73
:10837000000C4FEAE274A2FB092941EB6E6E04FB8C
:108380000031D40CB8F91630494444EA41341CEBAE
:1083900004044EEBE141240A44EA016404EB0314B3
:1083A0000FB1240A3C6026B105EB850580352D12FE
:1083B0003560BDE8F08700BFF81E0120704700BFA0
:1083C00001207047012070473122F42159F020B973
:1083D00008B5006855F096FFD8B90F4A0F4992F8D2
:1083E000093192F808011B0143EA003392F80A01AF
:1083F00043EA101392F80B010B6292F80C3192F8D9
:108400000D211B0143EA0033012043EA12130B60E4
:1084100008BD0020FCE700BFC0000020F81E0120BE
:10842000036810B41A78012A1CD0184C184901208E
:1084300091F8122191F811C191F8153112041B0421
:1084400042EA0C2291F814C143EA0C2391F810C1BE
:1084500091F8131142EA0C020B43C4E969235DF859
:10846000044B704793F90430084C03EB430304EBCF
:10847000431393F87920202A03D000205DF8044BA1
:1084800070479B6B9B691B04F7D4CFE7F81E012054
:10849000C00000202DE9F04FCC4C83B0B4F8AC31D3
:1084A000D4F8A821B4F8AE61A2EB032294F9B0513C
:1084B0000091A6FB02634FEAE57C9F04A2FB022326
:1084C00005FB03F347EA9637B60402FB0C33A5FB22
:1084D0000252AD191A4442EB0703002B02DA013DA8
:1084E00043F10003DF17C4E97237002800F01A8156
:1084F00003FB07FCD4F8A451A3FB032606EB4C06B0
:108500004FEA921E4FEAA6184EEA866E0EFB07FC53
:1085100003FB08CCAEFB03E81CEB080C00F1508118
:108520004FEA1E2E4FEA2C214EEA0C6E94F9B6C18A
:1085300001914FEAEC780CFB01FA0EFB08AAACFBA8
:108540000EC81AEB080A00F136814FEA5C1CB4F938
:10855000B3814CEACA6194F9B5C1A8F580484FEAE5
:10856000EC7B0CFB06F902FB0B99ACFB02CBD9446C
:10857000B4F9B1B14FEA8909ABF5804B49EA9C796E
:108580004FEA8B3B4FEA8C0C0BEB6A1A08FB07FB9C
:1085900011EB0C0C4AEB09094FEAE87A03FB0ABB22
:1085A000A8FB038ADA444FEA4A5A4AEAD82A4FEA31
:1085B00048581CEB080C49EB0A09B9F1000FC0F24E
:1085C000F3804FEA1C6B019994F9BCC14BEA092B6B
:1085D0000CFB01FA4FEAEC784FEA29690EFB08AA76
:1085E000ACFB0ECE1AEB0E0E00F1D9804FEA5C1CEC
:1085F0004CEACE6894F9BBC14FEAEC7A0CFB06F664
:1086000002FB0A66ACFB022CB444B4F8B7614FEA33
:108610000C1AF6034AEA127A120106EB6E1E18EBE8
:108620000202B4F8B981A8FB03C64EEB0A0A08FBA4
:1086300007684FEA885646EA9C264FEA8C5C12EBA4
:108640000C024AEB060ABAF1000FC0F2A28094F9BC
:10865000BFE14FEA920CABFB05864CEA8A7C0EFB2D
:1086600007F205FB09664FEAEE791CEB0808B4F93E
:10867000BDC103FB0922AEFB03E946EBAA064A444F
:108680004FEA0C491EEB090E42EBEC7CAEFB05E217
:1086900005FB0C22002A75DB4FEA5E3E4EEAC24E15
:1086A0005213AEFB05CE05FB02EEBEF1000F62DBFE
:1086B0004FEA5C2C94F9C0214CEACE5C18EB0C0C10
:1086C000A5FB054846EB6E264FEAE27E04FB0EFE54
:1086D00002FB08EEA4FB02421EEB020E45D4220C64
:1086E00042EA0E424FEA2E4EA2FB052405FB0E4E37
:1086F000BEF1000F35DBD20942EA4E6212EB0C02EA
:1087000046EBEE16941846EB060EA41846EB0E0E3A
:108710004FEACE0E4EEA547EE400A41846EB0E0655
:10872000360C0660009A9AB1DA1847EB0700D218A7
:1087300047EB0000C00040EA5270D200D31847EB6C
:108740000007002F07DB9B0B009A43EA8743136067
:1087500003B0BDE8F08F43F6FF729B1847F10007A6
:10876000F1E77F324EF1000EC5E74FF6FF72A41815
:108770004EF1000EB3E740F2FF121CEB020C4EF17B
:10878000000E95E741F6FF7C1EEB0C0E42F1000255
:1087900082E712F1030C62464AF1000A57E71CF126
:1087A0001F0C4EF1000E21E76FF07F4B1CEB0B0C02
:1087B00049F1000905E71CF11F0C4AF1000AC4E663
:1087C0001EF1FF0E4CF1000CAAE600BFF81E0120BE
:1087D0003B4BDFED3C3A93F8D11193F8D0010902FD
:1087E00093F8D22193F8D3C101EB004193F8D4015F
:1087F00093ED786A0A4409024FEA002093F8D511F4
:1088000048BF02F17F42B8EEC66A00EB0C4007EEAB
:10881000902AB3F9EC210144000205EE902AB3F945
:10882000E821F8EEE77A48BF01F17F4104EE902A93
:10883000B3F9EA21F8EEE55A07EE101A67EEA37ACB
:1088400006EE902AF8EEE44AB3F9E621F8EEE66A7D
:10885000012005EE102AB3F9E421E7EEA54AB8EEAF
:10886000C55A04EE102AB8EEC77AB3F9DA21B8EE89
:10887000C44AA7EEA65AD3ED776A27EE237A05EE0F
:10888000902AA4EEA76AB3F9D821F8EEE66AF8EECA
:10889000E55A04EE902AF6EE003AE7EE046AF8EEA6
:1088A000E44AA5EE076A67EE255AB0EE667AE4EE72
:1088B000A35AA7EE867AC3ED7D5A83ED7C7A704782
:1088C000F81E01200821843630B10A4BD3ED7C7AA2
:1088D000FDEEE77AC0ED007A51B1064B9FED067AC6
:1088E000D3ED7D7A67EE877AFDEEE77AC1ED007A07
:1088F000704700BFF81E01200000C842704700BF4B
:108900000120704701207047704770470120704771
:1089100030B5002385B0E72105468DF807300DF10D
:1089200007020123154C16F09FFB9DF8073013F04A
:1089300003031FD0052302AAE821284616F094FB62
:108940009DF80A209DF80910130412F0800F43EAE5
:1089500001239DF8081014BF4FF07F4200220B4303
:108960001343C4F8F831BDF80B300120A4F8FC31F2
:1089700005B030BDC4F8F831F7E700BFF81E01209C
:108980000B4A642310B5D2F8F841634348BF03F69D
:10899000FF731B130360B2F8FC310A2253433022E9
:1089A000B3FBF2F303F584531A330B6010BD00BF21
:1089B000F81E012008B5006855F0A4FC78B9094AF2
:1089C000012092F8193192F818111B0292F81A211D
:1089D00043EA01431343044AC2F8003208BD0020B1
:1089E000FCE700BFC0000020F81E012008B50068A9
:1089F00055F088FC78B9094A012092F8193192F8AB
:108A000018111B0292F81A2143EA01431343044A46
:108A1000C2F8043208BD0020FCE700BFC0000020FF
:108A2000F81E01202DE9F74F544AB2F81232B2F87D
:108A30000E621B02B2F81472CDE90001D2F80012E6
:108A4000C91AB2F810326EEB0E0EA3FB010403FB41
:108A50000E44C009B2F80C3240EA44601B04E41131
:108A6000C018A6FB013506FB0E554FEA1323B2F8DA
:108A70000A6244F1000443EA0563F6032D129B19D0
:108A8000A7FB012607FB0E664FEAD25245F100050F
:108A900042EA4622F61512F5FA6C46F1000BBCF5D7
:108AA000FA6F7BF100074CDAA2FB02784FF0050A5F
:108AB00002FB06F908EB4909A7FB0A780AFB0988BB
:108AC0004FEA5709BF0849EAC87947EA8877B0EB07
:108AD000090064EB6804DB1B294F65EBA805BC4566
:108AE0004FF0FF377BEB070720DA40F6AC57D2197F
:108AF00046F100065643A2FB027202EB4606FA005C
:108B00004FEAC608BA1A48EA577866EB0808101800
:108B100044EB08044FF00B08A7FB087208FB06267D
:108B20007F0847EAC677DB1B65EB660501FB0EFE97
:108B3000A1FB011202EB4E0EC90F41EA4E01BCEB44
:108B4000010C009A92B10D4AD2F80412A1FB032342
:108B500001FB0535520D009B42EAC5226D15121A24
:108B600065EB0404D20B42EA44421A60019B0BB14C
:108B7000C3F800C003B0BDE8F08F00BFF81E0120AD
:108B800024FAFFFF7047012070470120704708B5A5
:108B9000006855F0B7FBD8B90E4A0F4992F81D315D
:108BA00092F81C011B0243EA004392F81E010343A2
:108BB00092F81F01C1F8183292F8203192F8212161
:108BC0001B0243EA004301201343C1F81C3208BDD5
:108BD0000020FCE7C0000020F81E01202A4BD3F83B
:108BE0001C2293ED8A6AA2F50002D3ED896AD3EDC7
:108BF000887A07EE102AD3ED8D5AD3ED8C4AB8EE61
:108C0000C77AD3F8182293ED914AA2F5000293EDAA
:108C10008F5AE7EE066A93ED8E6AE7EE267A06EE45
:108C2000902A93ED8B7AF8EEE66AE5EEA74AD3ED4B
:108C3000905AA4EE275A93ED924AA7EEA47AD3ED68
:108C4000934AA5EE276AE6EEA45AE4EE275AA5EE6B
:108C5000A66AA6EE867AB5EE407AF1EE10FAF5EE47
:108C6000407A1CBFBDEEC77A80ED007AF1EE10FAB3
:108C700008D0FDEEE77A17EE903A002BB8BFFF332D
:108C80001B120B60704700BFF81E0120134BD0F879
:108C9000D8105B68D0F8E02010B50446581A82421C
:108CA00000DC22B9D4F8E4200A44C4F8DC2094F8AB
:108CB000D020C4F8D830012A05D0D4F8D4300133FC
:108CC000C4F8D43010BD04F1E801201D16F008F8F6
:108CD000D4F8D4300133C4F8D43010BD001000E013
:108CE00010B5114B04465868D4F8E410D4F8D830C5
:108CF00094F8D0200B44C4F8D800012AC4F8DC3022
:108D000005D0D4F8D4300133C4F8D43010BD636832
:108D100006491B6AD4E92402C1E90002002BF0D104
:108D2000201D15F0DDFFECE7001000E00000012041
:108D300070B5044690F8210100B970BD16F0D6FE5A
:108D400021460546A8B126220023C2800D4A41F8DB
:108D50000C2F1A4655F080F9AB884FF00042B3FA59
:108D600083F332FA03F3E8D007490A6813430B6030
:108D700070BD044C0346024641F80C4FBDE87040FC
:108D800055F06AB98D8C0008003C01400269C36847
:108D90002DE9F04712EA03092AD005460E464FF0A6
:108DA00000474FF00008B9FA89F327FA03F21B3B9A
:108DB000D24309EA02092A61042B16D8DFE803F03E
:108DC000352C231A0300736A002B37D003F1FF3AC6
:108DD000C6F824801FFA8AFA346A34B12368204620
:108DE000514698476468002CF8D1B9F1000FDAD1E8
:108DF000BDE8F0873068696B036889B29847B9F1BC
:108E0000000FD0D1F4E77068A96B036889B2984766
:108E1000B9F1000FC7D1EBE7B068E96B036889B21D
:108E20009847B9F1000FBED1E2E7F068296C0368FA
:108E300089B29847B9F1000FB5D1D9E7E96A1FFAAD
:108E400081FAC9E710B5044682B0806906236A46F4
:108E50003B21103016F014F958B1BDF80010BDF8E0
:108E60000220BDF8043049BA52BA5BBAE1812282CD
:108E7000638202B010BD00BF10B582B00446062365
:108E800043216A46103016F0FBF870B1BDF80010AF
:108E9000BDF80220BDF8043049BA52BA5BBAA4F852
:108EA000D010A4F8D220A4F8D43002B010BD00BF76
:108EB00010B5044682B0806906236A462821103026
:108EC00016F0DEF8BDF80010BDF802200120BDF854
:108ED0000430E1812282638202B010BD10B582B0FD
:108EE0000446062322216A46103016F0C9F8BDF860
:108EF0000010BDF802200120BDF80430A4F8D01005
:108F0000A4F8D220A4F8D43002B010BD13B50023C9
:108F100004460B488DF8073015F07CFE0123A08035
:108F20000DF107020F21204616F0AAF828B19DF88E
:108F300007306C2B14BF0020102002B010BD00BF02
:108F40008096980000B583B04FF0000C01231121EA
:108F50000DF1070298388DF807C016F091F803B0AC
:108F60005DF804FBF0B5054680698BB090F8DC3005
:108F7000012B28D0023B012B30D81030194C15F0B2
:108F800023FEAB69BB22EC46D3F89C301A70AE6965
:108F9000D6F8A0305F1C0FCCACE80F00D6F89C30A0
:108FA000CDE900370FCCACE80F0094E803008CE863
:108FB000030006F11000694615F092FEA8690269E7
:108FC000136A002BFCD1D0F8A0305A8852BAEA813B
:108FD0009A8852BA2A82DB885BBA6B8201200BB076
:108FE000F0BD00BF905B060870B5054680698AB089
:108FF00090F8DC30012B27D0023B012B2CD810300D
:10900000174C15F0E1FDAB698C22EC46D3F89C308F
:109010001A70AE690FCCACE80F00D6F89C30009304
:10902000D6F8A03001930FCCACE80F0094E8030011
:109030008CE8030006F11000694615F051FEA8699E
:109040000269136A002BFCD1D0F8A0305A88EA815B
:109050009A882A82DB886B8201200AB070BD00BF2B
:10906000B85B06082DE9F04190F8DC308AB0044680
:10907000D0F8A060012B4ED016D8D0F89C304FF01D
:10908000FF3205211A605A609A60DA60D0F8E03049
:10909000C0F8F010B3F57A7F4DD8032380F8DC30A8
:1090A00001200AB0BDE8F081023B012BF8D800F1A5
:1090B0001008344D404615F087FDD4F89C30C3228B
:1090C000EC461A70D4F8A0305F1C0FCDACE80F004E
:1090D000D4F89C30CDE900370FCDACE80F0095E80F
:1090E00003008CE803006946404615F0F9FD22694B
:1090F000136A002BFCD1738801205BBAA4F8D0302E
:10910000B3885BBAA4F8D230F3885BBAA4F8D43041
:109110000AB0BDE8F08173895BBAA0F8D030B3899A
:109120005BBAA0F8D230F3895BBAA0F8D430012042
:109130000AB0BDE8F08103691A7BF2B190F898207B
:10914000DAB1D0F89C100122BB205A73C4F8A440B5
:1091500008700F200C49D4F8A030C4F8041113444F
:10916000D4F89C1084F80021C4F8FC00C4F8F8304E
:1091700084F8DC20C4F8F41092E7022384F8DC3091
:109180008EE700BF905B060801800008836910B578
:10919000074C04EB8303D3F870024BF07BFF0021F4
:1091A000B4F8900255F04AF8002384F8923210BDCA
:1091B000F81E012080699C304BF06CBF10B5074C45
:1091C00094F894320BB9002010BD17F013F8D4F8BE
:1091D0009832C01AD0F5FA50F6D5F4E7F81E0120FF
:1091E00070B505460C46FFF7E9FF2B685D6808B1CE
:1091F00017F02EF8064B00222846492183F89422C6
:10920000224693F89532BDE8704015F02DBF00BF9F
:10921000F81E01202DE9F04FC64C2DED028B23786E
:1092200083B0009303BBD4F82431002B16DD002655
:10923000C14831464769D0F8AC303D6803F1C002FF
:1092400025F001053D6059600C339A42FBD101368F
:10925000D4F8243100F58670B342EBDC012003B072
:10926000BDEC028BBDE8F08FB44BD3F89C3208EE16
:10927000103A16F0BFFFD4F82831D4F82C2114335B
:10928000801AB0EB430FC0F2208104F5987904F501
:10929000826A04F1080600256368AB42C3DDB36946
:1092A0000121DFF8B4E25F69A54AD3E93D0C736898
:1092B0009940FBB227F0FF07103BAEFB033EA14BEA
:1092C0004FEA1E1E13F80E301F4403467F68BFB2DC
:1092D000ACEB07073A4400EB42029A4217D9B3F8C5
:1092E00000C01CEA010F00F0EA80B3F802C01CEADB
:1092F000010F00F0E680B3F804C01CEA010F00F093
:10930000E280B3F806C008331CEA010FE5D11A88E1
:109310000A400192002A40F09980181AA7EB6007D2
:10932000452F28BF452703EB4707BB4280F08E80BF
:10933000964690461846944616E0B3F802B00BEAFB
:10934000010B5A4540F0A680B3F804B00BEA010BBC
:109350005A4540F0A180DA8808330A40944506D186
:109360009F4206D91A880A406245E6D002339F42DE
:1093700076D8B8F1110F69D9C8F11503002BC0F2E6
:109380008D8000F0B5800EFA03FEC8F114080123A9
:109390006D4A03FA08F848EA0E0ECEF3C433CEF352
:1093A000441002EB830302EB8000196D0EF01F03E3
:1093B00002EB83031B6D43EA0131CEF3842302EBFE
:1093C0008302036D126D41EA031343EA022383EA29
:1093D000132282EA121202F00F020F2A5ED1B3F5B5
:1093E000803F5BD240F6FF711A09B1EB131F78D0B2
:1093F000C2F308025B0B12FA03F34FD0534A02EB9D
:109400005302B2FBF3F24FF6FE7301929A421DD063
:10941000D4F818340133C4F818344FF6FF739A4265
:1094200041D0BDF80430AAF80C30032D4FF00103F1
:109430008AF80E3004DC414B93F8A0322D2B4AD031
:10944000009918EE102A484615F060FB013509F125
:109450005C090AF1040A2036082D7FF41DAFE2E60C
:10946000181A33F802CC421001EA0C0C501C384A8E
:1094700082FB00B2A2EBE0720120012AB8BF0122F8
:109480000EFA02FE9044013A00FA02F2184642EA4D
:109490000E0E67E704336AE7063368E7D4F818343A
:1094A0000133C4F81834D4F8143400210133C4F85B
:1094B000143418EE102A484615F028FBC6E702338C
:1094C00025E7043323E7063321E7002003B0BDEC92
:1094D000028BBDE8F08F1F4B019A009923F81520ED
:1094E000E7E7D4F818340133C4F8183400239AE7B6
:1094F000154BCEF3C43203EB8202116D0EF01F0246
:1095000003EB8202126D42EA0132CEF34411CEF334
:10951000842E03EB810103EB8E03096D1B6D42EA80
:10952000011242EA032383EA132282EA121202F0B2
:109530000F0252E7C000002054050020F81E012051
:10954000C7FFFF7F80630608905B0608C0270900FD
:10955000565555559C210120ABAAAAAAF8B5394CFD
:1095600004EB401292F8243003B9F8BD00EB800CF4
:10957000354B0026450104EB4C1C9CF8C6E88CF8E2
:10958000C66882F80AE093F8ACE293F8AD229645FB
:109590000DD002EB420C560003EBCC0C9CF8B0C291
:1095A0000CF1FF37012F41D9BCF1030F39D0274B04
:1095B000254403EB401029815CF0E6FA23782A6AFF
:1095C000B3B1E9680124D2F8AC308C4003F1C0019A
:1095D00010F4004F4FEA400203F10C0390B202BFB7
:1095E00053F8082C224343F8082C8B42F0D1F8BDE5
:1095F000E9680124D2F8AC3001F1100203F1C00196
:10960000944010F4004F4FEA400203F10C0390B273
:1096100002BF53F8082C224343F8082C9942F0D19A
:10962000F8BD571C07F003077745C0D0324403EB61
:10963000C203034493F8BD120029B8D06319012274
:109640009A72B4E7C0000020F81E0120C800002074
:10965000BCEEC00A10EE103A99B27FE7214B2DE91B
:10966000F04193F8AC2293F8AD329A4233D11E4EBA
:10967000D6F82451002D12DD0024377806F29440EC
:10968000A046013417B1037F012B1FD04269AC42C1
:1096900000F58670136843F001031360F1D116F0F2
:1096A000A9FDD6F8C44DC6F82C01002C0CDD0F4BDB
:1096B00003EBC4041968083333F8042CC8689C42CF
:1096C00042EA0002CA60F5D1BDE8F08180F8FC8072
:1096D000FEF74EFDDAE752F013FD0028C7D1BDE8D2
:1096E000F08100BFF81E0120C0000020880E00207D
:1096F000F8B50546FFF71CFB95F8D830072B5DD170
:1097000095F81D310226002B5AD1374605F1100479
:1097100080226B21204615F04FFB642016F038FFA5
:1097200007226821204615F047FB642016F030FF21
:1097300000226B21204615F03FFB642016F028FF25
:1097400001226B21204615F037FB0F2016F020FF79
:109750001B21FA00204615F02FFB0F2016F018FFF2
:109760001C21F200204615F027FB0F2016F010FFF9
:109770002846FEF759FC1A210246204615F01CFB2C
:109780000F2016F005FF95F820211921204615F02D
:1097900013FB642016F0FCFE10223721204615F042
:1097A0000BFB0F2016F0F4FE20460122382115F0A5
:1097B00003FB0F20BDE8F84016F0EABE0326A4E73D
:1097C0000327A3E72DE9F341144698460DF107025C
:1097D000012306460F4615F053FC88B1022016F00F
:1097E00037FD9DF807503946304625EA040444EA1F
:1097F00008028DF8072015F0DFFA089816F0C8FE69
:1098000002B0BDE8F081642373B500F11005009348
:1098100001230446122128461A460126FFF7D2FFEB
:1098200002220D21284615F0C7FA012016F0B0FEDD
:1098300002220E21284615F0BFFA012016F0A8FEDC
:1098400074221021284615F0B7FA012016F0A0FE68
:10985000AC221121284615F0AFFA012016F098FE2F
:1098600044237C22122128460096FFF7ABFF0623F3
:10987000132128461A460096FFF7A4FF002317225B
:10988000152128460096FFF79DFF02232846182140
:109890001A460096FFF796FF94F82101A0B116F042
:1098A00025F9054608B12623C3802146074B2846E3
:1098B00041F80C3F00231A4654F0CEFB284602B074
:1098C000BDE8704052F0D0BE02B070BD0982000801
:1098D0007B22F42115F070BA1D4B1E49D3F81033CA
:1098E000B1EB930F10B5044682B02ED29A08022332
:1098F00052085B008A429BB201D9FF2BF8D9A268BB
:10990000A3801AB1938812681B049361012016F09A
:109910003FFEA36813B11A689B8893610A2016F072
:1099200037FE236800201B6AADF804005BB92046AF
:10993000022301AA802115F071FB9DF80530242B2C
:1099400014BF00200F2002B010BD0223D7E700BFD4
:10995000F81E0120809698002DE9F04190F81E3104
:109960008AB00546012B58D090F8DC30D0F8A060C2
:10997000012B00F0978017D8D0F89C3000220521E9
:109980001A605A609A609A81D0F8E030C0F8F010FE
:10999000B3F57A7F00F294800323012480F8DC3051
:1099A00020460AB0BDE8F081023B012B30D800F11F
:1099B00010084E4F404615F007F9D5F89C3092221A
:1099C000EC461A70D5F8A0400FCFACE80F000FCFCF
:1099D000ACE80F0097E80300D5F89C308CE8030052
:1099E000404669460093019415F07AF92A69136A92
:1099F000002BFCD173880124A5F8D0302046B38811
:109A0000A5F8D230F388A5F8D4300AB0BDE8F081CB
:109A1000012420460AB0BDE8F081354E00F1100760
:109A20000A218DF80C3006F10C028DF8203000234D
:109A3000384602910993CDE90062CDE90433CDE9BE
:109A4000063315F0C1F86946384615F049F92A6918
:109A5000146A002CFCD1F289052A18DD338A063AF3
:109A6000B6F91240B6F9141014F5004F08BFB3F55B
:109A7000004F306914BF0123002311F5004418BFC3
:109A800001241C431CBFC5F8D000A5F8D410002A3F
:109A9000BFD03846B0227E2115F064F920460AB0C6
:109AA000BDE8F08132891C46A0F8D0207389A0F867
:109AB000D230B389A0F8D43020460AB0BDE8F08196
:109AC00003691A7B6AB190F8984054B10122D0F82A
:109AD0009C105A738C2380F8DC20C5F8A4000B700E
:109AE00097E70223012485F8DC3092E7B85B06088B
:109AF0000000002038B50446FFF71AF9214804F1A8
:109B0000100515F087F801226B21A082284615F078
:109B100029F90F2016F03CFD18221B21284615F0CC
:109B200021F90F2016F034FD18221C21284615F0CB
:109B300019F90F2016F02CFD20461A21FEF774FAB1
:109B40000246284615F00EF90F2016F021FD94F874
:109B500020211921284615F005F9642016F018FD7A
:109B600010223721284615F0FDF80F2016F010FDC1
:109B700001223821284615F0F5F8034815F04AF877
:109B8000A08238BD40420F008096980038B5044648
:109B9000FFF7CEF8384804F1100515F03BF8032222
:109BA0006B21A082284615F0DDF80F2016F050FB3F
:109BB00010226A21284615F0D5F80F2016F048FB30
:109BC00000226C21284615F0CDF80F2016F040FB3E
:109BD00094F820211921284615F0C4F80F2016F01A
:109BE00037FB18221B21284615F0BCF80F2016F071
:109BF0002FFB18221C21284615F0B4F80F2016F070
:109C000027FB10223721284615F0ACF80F2016F05C
:109C10001FFB01223821284615F0A4F80F2016F06A
:109C200017FB164814F0F6FFA082012016F010FB77
:109C3000114814F0EFFFA08220461A21FEF7F4F934
:109C40000246284615F08EF8012016F001FB0B485D
:109C500014F0E0FFA0822046FFF70EF994F9D2300D
:109C6000013308D194F9D030013304D10620BDE886
:109C7000384016F0A7BD38BD40420F00002D31011D
:109C800010B504460D4814F0C5FFA082012016F05F
:109C9000DFFA2046FFF72CFD10226A21A01815F0EC
:109CA00061F8642016F074FC054814F0B3FFA0823C
:109CB0000120BDE8104016F0CBBA00BF40420F00B3
:109CC000002D310170B500F11004B6227E21054649
:109CD00090F81E61204615F045F8642016F058FCF7
:109CE000AB691BB11A689B881B049361012016F0B5
:109CF0004FFCAB6913B11A689B8893610A2016F078
:109D000047FC00227C21204615F02CF8012016F09B
:109D10003FFC00225921204615F024F8012016F0BE
:109D200037FC4FF4A473764A5E21204615F034FCCC
:109D30000A2016F02DFC01225921204615F012F8B8
:109D4000012016F025FC012E60D0AB2240212046D8
:109D500015F008F8012016F01BFC032241212046D3
:109D600015F000F8012016F013FCED2242212046E8
:109D700014F0F8FF012016F00BFC082243212046C6
:109D800014F0F0FF012016F003FC042258212046B5
:109D900014F0E8FF012016F0FBFB0A2253212046B5
:109DA00014F0E0FF012016F0F3FB02227C21204694
:109DB00014F0D8FF012016F0EBFB20460E227D2187
:109DC00014F0D0FF012016F0E3FB95F8210100B953
:109DD00070BD15F08BFE29460446002800F08780F0
:109DE00026220023C280474A41F80C2F1A4654F01D
:109DF00033F9A3884FF00042B3FA83F332FA03F346
:109E0000E6D041490A6813430B6070BD0022482127
:109E1000204614F0A7FF304616F0BAFB80224921F5
:109E2000204614F09FFF304616F0B2FB0022452179
:109E3000204614F097FF304616F0AAFB0622462172
:109E4000204614F08FFF304616F0A2FB0022472177
:109E5000204614F087FF304616F09AFBAB224021D3
:109E6000204614F07FFF304616F092FB032241217A
:109E7000204614F077FF304616F08AFBED2242218F
:109E8000204614F06FFF304616F082FB0822432173
:109E9000204614F067FF304616F07AFB0222582164
:109EA000204614F05FFF304616F072FB0A22532161
:109EB000204614F057FF304616F06AFB02227C2140
:109EC000204614F04FFF304616F062FB0E227D2133
:109ED000204614F047FF304616F05AFB2046B022C9
:109EE0007E2114F03FFF304616F052FB6DE7054D22
:109EF0000346024641F80C5FBDE8704054F0ACB830
:109F0000605C0608E18C0008003C014038B51E4D3D
:109F1000044695F8143333B91C4814F07BFE012332
:109F2000A08085F814331A4814F074FE80226B2147
:109F3000A080204614F016FF642016F029FB0322AF
:109F40006821204614F00EFF642016F021FBF52155
:109F5000204615F047FBAC2811D00BD8122810D0A2
:109F6000982814BF00250B25084814F053FEA08044
:109F7000284638BDAF2814BF00250925F4E707257A
:109F8000F2E70825F0E700BFF81E01208096980050
:109F900040420F0038B504461B4814F03BFE8022B7
:109FA0006B21A080204614F0DDFE642016F0F0FA4C
:109FB00007226821204614F0D5FE642016F0E8FA46
:109FC000F521204615F00EFB0546012016F040F95C
:109FD000682D17D18C21204615F004FB182809D8CC
:109FE000142834BF00250325084814F013FEA08070
:109FF000284638BDA0F15403DBB2072B34BF03253C
:10A000000025F1E70025EFE740420F00002D310168
:10A0100010B50446154814F0FDFDF521A08020463A
:10A0200015F0E0FA702818D008D8422817D0472831
:10A0300017D0122814BF0020082010BDAC2812D061
:10A0400006D800F0FD00712814BF00200620F4E7B8
:10A05000AF2814BF00200920EFE70520EDE70C2012
:10A06000EBE70D20E9E70720E7E700BF002D31010E
:10A0700010B50446006854F045F938B92046062367
:10A08000034AF72157F022FA012010BD0020FCE717
:10A09000C801002008B503681A78012A06D00623F3
:10A0A0000B4A042157F012FA012008BD93F904303D
:10A0B000084A03EB430302EB431393F87920202A69
:10A0C00001D0002008BD9B6B9B691B04F9D4E6E717
:10A0D000D0010020F81E012008B503681A78012A73
:10A0E00006D006230B4A002157F0F0F9012008BDE5
:10A0F00093F90430084A03EB430302EB431393F84C
:10A100007920202A01D0002008BD9B6B9B691B048D
:10A11000F9D4E6E7C8200120F81E012010B5044656
:10A12000006854F0EFF8014690B923681A78022AC3
:10A1300008D1196A21B90323064A204614F06EFF9C
:10A14000012006E00323034A204657F0BFF9F7E752
:10A15000002010BDD8010020E0E710B504460068DB
:10A1600054F0D0F838B920460623044AF72157F0B6
:10A17000ADF9012010BD0020FCE700BFDC0100208C
:10A18000016803460A78012A04D0022A01D10B6A29
:10A1900063B1704707484FF0130C19791B2280F800
:10A1A00015C31B6893F9040053F0C6BF13221B218B
:10A1B00014F0D8BDF81E0120582154F0BDB8482134
:10A1C00054F0BAB8BFF34F8F0549064BCA6802F482
:10A1D000E0621343CB60BFF34F8F00BFFDE700BFCA
:10A1E00000ED00E00400FA059E489F4A9F49121ABC
:10A1F000F0B5A5B05BF0E8FA9D489E4A9E49121A58
:10A200005BF0E2FA9D4B9B68012B00F2BE8003EBF2
:10A2100043039B4A9B4D02EB430032F813204188D5
:10A220008388C5E90A212B63974C984E984BB2FB63
:10A23000F1F2984901FB02F20021C6F81023D4F88C
:10A24000882042F47002C4F888201A6842F00102A3
:10A250001A609960904A1868024090481A60C0F3EA
:10A2600008078F4A5A601A6822F480221A60D9605F
:10A2700007B1FEE78B49A0604FF6FF000A688A4BE2
:10A2800042F400720A60E26802401343E36053F054
:10A2900033FFBFF34F8FBFF36F8FC4F85072BFF31C
:10A2A0004F8FBFF36F8F636943F400336361BFF374
:10A2B0004F8FBFF36F8FC4F88470BFF34F8FD4F804
:10A2C000803043F6E07CC3F3C90EC3F34E3358012C
:10A2D00000EA0C01734641EA8372013B5F1CC4F83B
:10A2E0006022F8D1203810F1200FF1D1BFF34F8F49
:10A2F000636943F480336361BFF34F8FBFF36F8FA4
:10A300006849634B0A6842F480720A60196C674AB4
:10A3100041F080511964196C01F080510291029949
:10A32000116841F4404111601268A86A02F4404289
:10A33000EC6A296B0192019A9A6802F00C02042AD5
:10A3400000F08D809A6802F00C02082A00F08380E9
:10A350004F4A136843F480331360D6F8187304E04F
:10A36000D6F81833DB1B642B74D813689B03F7D51E
:10A37000474A936803F00C03082B6BD0136823F053
:10A3800080731360D6F8187308E03E4DD5E90A21B2
:10A390004AE7D6F81833DB1B022B5BD813689B0106
:10A3A000F7D40B06640843EA8013611E43EA0143B5
:10A3B0003F491943364B5160116841F0807111607B
:10A3C000D6F8181304E0D6F81823521A022A41D8F6
:10A3D0001A689201F7D5196C344A41F0805119641A
:10A3E0001B6C03F080530393039B136843F4803387
:10A3F0001360D6F8181306E0D6F818335B1AB3F5D5
:10A400007A7F00F2CB805368DF03F5D513682749C4
:10A4100043F400331360D6F8182306E0D6F8183357
:10A420009B1AB3F57A7F00F2B9804B689C03F5D58F
:10A430004FF400124FF0006304A804924FF4C0726E
:10A4400021930723CDE9082303230A934BF0F6F861
:10A4500080B3FEE7FEE75B685A027FF579AF0C4BED
:10A460001B6885E7000000002036000038840708DC
:10A4700000000020C000002071DB070850280040C9
:10A48000A85D06080000012000ED00E0F81E012094
:10A490000038024040420F00FFFFF6FE00000008B7
:10A4A00010300024003C02400003FA050070004018
:10A4B00008004020694A136803F00F03062B0AD8EE
:10A4C000136823F00F0343F007031360136803F0CE
:10A4D0000F03072B63D1624B9A6842F4E0529A60F3
:10A4E0009A6842F460429A609A6822F0F0029A6098
:10A4F0001A68900153D59A6841F2883122F003021C
:10A5000042F002029A60D6F8180304E0D6F8182345
:10A51000121A8A4243D89A6802F00C02082AF5D12E
:10A520004E4A136819070AD5136823F00F0343F046
:10A5300007031360136803F00F03072B2FD1484C58
:10A54000484FA36823F4E05343F4A053A360A368E7
:10A5500023F4604343F40043A3604BF03BF8A3684B
:10A56000C3F303133B4493F82432D840C6F81003D6
:10A5700053F0C2FD002304A8CDE91333CDE9153310
:10A58000CDE91733CDE91933CDE91B33CDE91D33BF
:10A59000354B04934BF052F810B1FEE7FEE7FEE7AF
:10A5A00002234FF0007204A8CDE90633D823CDE989
:10A5B000042301230B934BF041F800B1FEE7D4F8DC
:10A5C0008C3023F08073C4F88C30D4F88C3043F096
:10A5D0008073C4F88C30A36803F00C03042B36D0CE
:10A5E000082B18D0214BC6F810331D4AD5E90A3183
:10A5F000B3FBF1F39168D6F81023C1F303110F44B4
:10A6000097F82412CA401A4901FB03F3C6F8102335
:10A61000934220D0FEE76368626813F4800F63689A
:10A6200002F03F0218BF1349C3F3881308BF0F4954
:10A63000B1FBF2F202FB03F3094A5268C2F3014292
:10A6400001325200B3FBF2F3C6F81033CDE7094BE9
:10A65000C6F81033C9E725B0F0BD00BF003C02408A
:10A6600000380240905B0608C0FF03000024F4009D
:10A6700040420F0000127A00014B53F8200070474F
:10A680005028004002692DE9F043177885B0044650
:10A690000D46012F18D10B794FF0000900F1100879
:10A6A000013B8DF8059013710DF105024B79752171
:10A6B0004B4508BF682303753B46404614F0E0FC59
:10A6C0000646002834D1226902231370EB7823B99F
:10A6D0000026304605B0BDE8F08304F11008A978E3
:10A6E000404614F0B1FA06460028F1D0E87815F09B
:10A6F000FDF9A0612B780133DBB210B1C3712223C5
:10A7000083710D21434F15F05DFAA06914F096FA9C
:10A71000414B02E057F8043F5BB34046984703467D
:10A720000028F7D0206984F8D83056F0BBFED0E777
:10A73000206956F0B7FE3B4649460DF106024046F9
:10A7400014F09EFC9DF8063003F07E03682B8DF814
:10A75000063000D1A0B99DF8053003F07E03682BC8
:10A760008DF805300FD0702BB3D1042384F8D83086
:10A77000AFE7E8781E4615F0B9F915F042FAA8E7F8
:10A7800084F8D870A5E7062302224046194684F8CB
:10A79000D82002AA14F074FC9DF80D309DF80B200F
:10A7A0009B00520003F0040302F0020213439DF8E1
:10A7B000092002F0010243EA020113430CD058B110
:10A7C000012B1FD0022B03D001F0030103291DD15F
:10A7D000012384F8D9307CE70DF1070201234046BC
:10A7E0000C2114F04DFC80F001009DF80720C0B250
:10A7F00002F00F0250B9B2FA82F35B0932B1042AB7
:10A80000E6D1E6E7002384F8D93062E7032015F0AB
:10A81000D9FF5EE7C45D0608959F000830B490F844
:10A82000443000F10801474A012BC2F81C136ED0D6
:10A8300083684549DC68454D24F46004AB42DC6024
:10A84000DC6844F46004DC609C6B24F440149C637A
:10A850009C6B44F480149C639C6B24F4F8449C63CC
:10A860009C6B44F488449C639C6824F470249C6032
:10A870009C689C609C6824F440149C609C689C606C
:10A880005C6824F480645C605C6824F480545C60E0
:10A890005C6901EA040159615969596145D0DC6874
:10A8A000294924F0E064DC60DC6844F0E064DC60AA
:10A8B0009C6B24F440149C639C6B44F480149C6354
:10A8C0009C6B24F478249C639C6B44F410249C635C
:10A8D0009C6824F470249C609C689C609C6824F4B0
:10A8E00040149C609C689C605C6824F480645C609C
:10A8F0005C6824F480545C609C692140134C99612D
:10A90000A3429969996116D0002380F84430104819
:10A91000104B848DC18D408D091B93FBF1F3C2E96F
:10A92000C804C2F8283330BC70470B4C616841F44E
:10A9300000016160B3E708494B6843F400034B60D2
:10A94000E2E700BFF81E012000F0FFFF00200140F9
:10A95000007AF01F8038010000230140704700BFDB
:10A9600001484AF0A7BD00BF301F0120074810B4BE
:10A97000836BC46E99691A6824B1234638305DF838
:10A98000044B18475DF8044B704700BFF81E0120C8
:10A9900001484AF08FBD00BF901F0120084810B445
:10A9A000D0F89830D0F8CC4099691A6824B1234681
:10A9B00098305DF8044B18475DF8044B704700BFB2
:10A9C000F81E012001484AF075BD00BFF01F0120AC
:10A9D000084810B4D0F8F830D0F82C4199691A68BA
:10A9E00024B12346F8305DF8044B18475DF8044B5A
:10A9F000704700BFF81E01202DE9F84FD44F6023A7
:10AA0000044603FB00735D6A002D00F09C81DE6A42
:10AA10001EB1B379002B40F09681602303FB0473D1
:10AA2000D3F83090B9F1000F04D099F80630002B1C
:10AA300040F08981631CDBB216B11522F371B2714B
:10AA4000B9F1000F04D0162289F8073089F80620E2
:10AA5000287C4FF0090851F0A5FE304614F0EEF8BE
:10AA6000484614F0EBF81121304615F0ABF81121EF
:10AA7000484615F0A7F84FF0330A02E00A2015F017
:10AA8000E7FB304614F0FAFF10B9BAF1010AF5D12C
:10AA9000304614F0FDFF052015F0DAFB304614F0C7
:10AAA000CDF8052015F0D4FBB8F10108E3D130460C
:10AAB0004FF0600B14F0ECFF052015F0C9FB484681
:10AAC00014F0E6FF0BFB04FB052015F0C1FB30463C
:10AAD00014F0B4F807EB0B0A052015F0B9FB484653
:10AAE00014F0ACF89AF8343030460422002B994E1A
:10AAF00014BF3E211E2115F045F89AF834305E440B
:10AB00004846002B4FF00402C14614BF3E211E21CF
:10AB100015F038F84C22414630465AF0C9FEDAF8B2
:10AB200024309FED8D7AB0EE084A5B68F7EE003A6C
:10AB3000BAF836B0CAF83830884B9FED895A9A680F
:10AB4000884BC2F38222134493F84C22D7F8103377
:10AB5000D34007EE903AF8EE677AC7EE275A07EE31
:10AB600090BA9FED817AF8EEE77AC7EE274ADFEDDB
:10AB70007F7AB0EE007AE5EE877AA5EE875A25EE69
:10AB8000844A37EE856A74EEE72ABBF5C87F40F247
:10AB9000145309F1010ED7BF1946322364234FF431
:10ABA0009670C8BF782007EE90EAD4BF4FF4167CA9
:10ABB0004FF4827C0344B8EEE77AC8BF4FF4FA71D1
:10ABC00007EE903A27EE257A01EB0C03F8EEE76AE0
:10ABD00086EE873A73EE636AFCEEE67A17EE902A09
:10ABE00007EE90CAB8EEE73A07EE903AF8EEE77A49
:10ABF00023EE243AC3EE276A36EEC53A72EEE66AD1
:10AC0000C3EE077A77EEE37AFCEEE77A17EE901A56
:10AC1000C6EE877A77EEE37AFCEEE77A17EE903AA3
:10AC200003F1020C0CEB010AF0EE466A07EE90AA63
:10AC3000F8EE677AE7EE276AF4EEE64AF1EE10FAEC
:10AC400000F383805FFA82FCBCF10F0F00F2948066
:10AC5000323807EE900AF8EEE77A77EEC47AC7EE5C
:10AC6000876AFCEEE67A17EE90CA5FFA8CF00F283E
:10AC700000F2828088B2FF287ED898B2FF287BD865
:10AC800040EA097310054FEA0C4200F07F6002F4BD
:10AC90007F0203431343364A02EA012143EA0108D3
:10ACA0006020012300FB047400273046C4F83C8078
:10ACB000C4E91073C4E91277C4E9157755F0FAFEB8
:10ACC00094F87930202BD9B219D194F87830012B2F
:10ACD00015D0242384F87930A36B1A6822F001027E
:10ACE0001A601A6822F480521A601A681A601A6888
:10ACF00042F001021A6084F8791084F8787000211B
:10AD000095F9120053F014F995F91230AA7C002B32
:10AD100007DB02F01F0101225B098A40154941F857
:10AD20002320002195F9110053F002F995F9113013
:10AD30006A7C002B07DB02F01F0101225B098A40BD
:10AD40000C4941F82320BDE8F88F01316AE700BFC4
:10AD5000F81E0120301F0120286B6E4E0038024083
:10AD600000001643905B06080024744900007042FE
:10AD700000FFFF0000E100E0BEF10F0F90D0F146B0
:10AD800003E700BF0248436C0BB1343018477047EB
:10AD9000000001200248836E0BB1583018477047FD
:10ADA000000001200348D0F88C300BB17C301847EC
:10ADB000704700BF000001200348D0F8B0300BB14D
:10ADC000A0301847704700BF000001200348D0F8AA
:10ADD000D4300BB1C4301847704700BF00000120C9
:10ADE0000348D0F8F8300BB1E8301847704700BF7F
:10ADF000000001200348D0F81C3113B100F5867023
:10AE000018477047000001200348D0F8403113B1C3
:10AE100000F5987018477047000001200348D0F8EB
:10AE2000643113B100F5AA70184770470000012083
:10AE30000348D0F8883113B100F5BC70184770474B
:10AE4000000001200348D0F8AC3113B100F5CE70FA
:10AE500018477047000001200348D0F8D03113B1E3
:10AE600000F5E07018477047000001200348D0F853
:10AE7000F43113B100F5F27018477047000001205B
:10AE80000348D0F8183213B100F502701847704724
:10AE9000000001200348D0F83C3213B100F50B70DC
:10AEA00018477047000001200348D0F8603213B102
:10AEB00000F5147018477047000001200138064B58
:10AEC000064A00EBC00003EB8000406B90420CBFD1
:10AED0009520962051F066BC0000012000600240E1
:10AEE00001382DE9E84100EBC000124D1E46124B1F
:10AEF00005EB800590460F46686B98420CBF952085
:10AF0000962051F04FFC95F949004FEA98116F6473
:10AF1000EE6453F00DF895F94930002B07DB03F090
:10AF20001F0001225B090549824041F82320BDE84A
:10AF3000E88100BF000001200060024000E100E065
:10AF40002DE9F04FB94B97B0DFF8FC82002593F85C
:10AF50003D73A8F2AC7BB64B0093DFF8F092DFF8BC
:10AF6000F0A24E46B30AA3F58013522B57D85B4488
:10AF700093F854320D2B52D85B44012F93F9A84219
:10AF800040F03F81012C41D14FF000094946204655
:10AF900016F04AFA16F0D0FA90F800C0BCF1000F93
:10AFA00018BFBCF1540F14BF4FF0010C4FF0000C50
:10AFB00040F0238109F104091FFA89F9B9F1100F52
:10AFC000E4D1002D00F0DB80994A00210FE05B44C2
:10AFD00093F854320D2B11D85B4493F9A832A34255
:10AFE0000FD0013102F58672A94280F2C4809068C8
:10AFF00003689B0AA3F58013522BE8D90023A342D0
:10B00000EFD143799AF805009842EAD1D04510D0A3
:10B010005AF8206FB30AA3F58013522BA7D9012F3A
:10B02000F4D001230024022FAED1002BACD0D045A8
:10B03000EED1009B013503F58673042D00938CD16E
:10B040007C4B4FF00108DFF80CB2009303F57073EE
:10B05000ABF1080A059308F1FF33DAF804209A42AD
:10B0600040F38680DBF80C60002E00F00E8431681F
:10B07000B78801F13F41B7FA87F701F57E01C7F1C3
:10B080001F07890ADAF82451002D40F3FF80684B2E
:10B09000002405E0013403F58673AC4200F0F4802F
:10B0A0001A688A42F6D14FF48673614ACBF804706D
:10B0B00003FB04245FFA88F3CBF8184016B1F37150
:10B0C0000323B3717B000322012102FA03F0A26C77
:10B0D00001FA03F30243A264226D134323659AF835
:10B0E0000030002B00F09280636D01FA07F73B43BC
:10B0F00063659EB13368B2889A614C4B304600223A
:10B1000093F85213490141F0090101F0E90114F0EB
:10B1100013FD9AF80030002B00F0A080D4F8AC307A
:10B12000BDB200203F0403F1C0011A680C3343F89C
:10B13000080C3A4343F80C2C53F8042C2A4343F8E8
:10B14000042C9942F1D1204608F10108FDF710F8CE
:10B150000123009AB8F1090F8BF81C300BF1200B7A
:10B160000BF8033C537402F1180300937FF473AFA0
:10B1700017B0BDE8F08FBCF1000F7FF447AF504629
:10B1800014F024FC9AF80540C3B2022B00F2868327
:10B19000431C294A5BB203EB43039800274B03F59A
:10B1A000727104E0994200F0798353F82C2FB24277
:10B1B000F8D11A79A242F5D11A58002AF2D0944651
:10B1C00000231F4A51680133614513D0102B02F14F
:10B1D0002402F7D14FF0FF3303EBC303194A02EB0C
:10B1E000830393F85030002B7FF410AF009BC3F81B
:10B1F00008A01EE7DBB2013BEEE7002D7FF4E4AED2
:10B2000004E7B4F1080318BF01230CE707F11003AA
:10B2100001FA03F2636D13436365EEB1B38801FA7B
:10B2200007F732681B04936167E700BFF81E01202F
:10B2300054050020B014002000000140485E0608BC
:10B2400034000120000001203C6306080004014096
:10B250003C620608C800002001FA07F7D4F8AC30B9
:10B26000BDB200203F0403F1C0011A680C3343F85B
:10B27000080C2A4343F80C2C53F8042C3A4343F8A7
:10B28000042C9942F1D15EE7032C6BDC4FF48673FA
:10B2900003FB05A3D3F89C04002800F0EC82C3F85C
:10B2A00094140131CAB283F89D250292542283F886
:10B2B0009C256B1C0268CAF824314479019214F071
:10B2C00085FBA84B864693F8513303939BF81030C7
:10B2D0000493C3B2022B00F2E18200F1010CA249F7
:10B2E000A24800234FFA8CFC019A0CEB4C0C4FEA5D
:10B2F0008C0C05E00133172B00F0D08251F82C0F95
:10B300009042F7D10879A042F4D151F80C000028FE
:10B31000F0D02C210EEB4E0EDFF8849201FB03F3EC
:10B3200093494C4603EB8E030B44D3F8C8124FF4F9
:10B33000867303FB05A3C3F8AC140021C3F8A8046B
:10B34000636898421DD0013124341029F8D1894B0B
:10B3500093F82C2052B90299542283F82D1083F8C7
:10B360002C2003E003237F4A82F85033824B83482A
:10B370008349844AC3E9B710C3F8E82217B0BDE88F
:10B38000F08F4B1C7B49DBB2013B03EBC30301EBAA
:10B39000830393F8501006910029E7D1029983F8AE
:10B3A00051104FF4867101FB05F08C2104465420A6
:10B3B00083F850002046A310734C0290504404FBC5
:10B3C00003F33468C0F88C15C0F8984403FB01F10E
:10B3D000059C03EB430304EB4101C0F888156B495E
:10B3E00001EB8313C0F840353023C0F84435684B77
:10B3F00002981C185B4BD3F81013039B062B00F02C
:10B400003582072BDFF89CC1624B634814BF4FF0B5
:10B41000710C1846614B04BF63464FF01C0CCAF810
:10B4200028C1B1FBF3F3B1FBF0F110465A1E4FF403
:10B430008673013992B203FB05A3A3F84815A3F85C
:10B4400000250193029B2266002203F15801504B14
:10B45000A4F8582019446266E26554F0C3FF019BCA
:10B46000D3F89C2410680192036843F080030360C2
:10B4700053790C2B08D8DFE803F06C070707640743
:10B4800007075B07070752004FF4867303FB05A30A
:10B49000D3F8A0144FF0600C026800234FF0020EA6
:10B4A000CDF838C04FF4807C22F001021093CDF823
:10B4B00050C04FF0010C1393CDF83CC04FF00A0C74
:10B4C0001593CDE911CE02600EAA54F049FE4FF457
:10B4D0008672019B02FB05A2D2F8A0141A68002311
:10B4E000012900F08E81042900F08B81102900F0E1
:10B4F000C981402900F08581B1F5807F54D0B1F534
:10B50000806F51D0B1F5805F00F0C481B1F5803F0C
:10B510004FF03C030CBF08214FF4006146E04FF4AC
:10B5200086734FF4805103FB05A3C3F8A014B1E761
:10B530004FF486734FF4807103FB05A3C3F8A01486
:10B54000A8E74FF48673102103FB05A3C3F8A014EA
:10B55000A0E74FF48673012103FB05A3C3F8A014F1
:10B5600098E700BFF81E0120485E06080000014071
:10B57000905B060800000120B811002011DB0108D3
:10B580000DDB010819DB01086B4CA40770150020C6
:10B59000540500201055220044950800D0DD060017
:10B5A0003400012040771B000821042302F1180019
:10B5B00050F803C041EA0C01C150019B18790028E2
:10B5C00040F025814FF48672002302FB05A2D2F8D9
:10B5D0009C04D2F8A8140068026842F001020260DC
:10B5E000D9F804200133914200F00D81102B09F1AC
:10B5F0002409F5D14FF0FF33AB4A03EBC30302EB51
:10B600008303586BA94B98420CBF9520962051F0AC
:10B61000C9F84FF4867303FB05A3D3F89C24537930
:10B6200010680C2B96BFA2494FF0000C01EB4303AE
:10B63000A04998BFB3F8D4C74FF4867303FB05A3A2
:10B64000A3F8A4C4002306E0904200F0198101335E
:10B65000042B00F0268151F83320002AF4D1DAF8C7
:10B66000C42D0132CAF8C42D0AEBC302DB00C2F8B4
:10B67000C80D1944069823469022B1F804E0DFF87B
:10B680004C924CEA0E0CA1F804C08B49FFF728FC41
:10B6900060694FF486734FF4804C03FB05A5036883
:10B6A00043F010030360036843F0140303600023B6
:10B6B000C4E91F33C4E92833C4F8A8300423D5F8FB
:10B6C000AC24C4F89C304FF48063C4F894204FF449
:10B6D0004032C4F88430C4F898204022A267D5F8DC
:10B6E0004425C4F89020C2B2D5F8981420F0FF0089
:10B6F000103A18312167A9FB0231029B4FF48052A6
:10B700000909C4F8882003F170026C4B1A44D5F87B
:10B710004035C4F88CC0636754F09CFFD5F8A8048A
:10B72000029B4FF40031D0F800E04FF4006C03F1BD
:10B73000B802624BC4F820E0D0F814E01A440023A9
:10B74000C4F824E0D0F804E0C4F828E0D0F808E019
:10B75000C4F82CE0D0F80CE0C4F8C830C4F830E0ED
:10B76000C4F8F030C4E93033C4E93A33D5F8AC3426
:10B7700001930423C4F8E4304FF48063C4F8CC3060
:10B78000019BC4E93731D5F88C35C4F8D830C3B241
:10B7900020F0FF00103BA9FB0331D5F89834C4F822
:10B7A000D0C010330909C4F8B830D5F888350193F2
:10B7B0004FF48043C4F8D430019BC4F8BC3054F03B
:10B7C00049FFD5F8A8245FFA88F3116861635169CD
:10B7D000A1635168E16391682164D1686164116873
:10B7E00041F010011160116841F014011160049AD8
:10B7F000CBF804708BF81020CBF80C60CBF8184015
:10B800005DE40821D2E6DBB20693013BF4E6039245
:10B8100014F06CF9039A20B30268254B02F13F4201
:10B82000079002F57E0203EB9222019B92F8CC076F
:10B830001A7A039250F0B6FF079B039A99880D92EB
:10B84000002218680C92089108A90393CDE90A22F6
:10B850000222099254F04AFE5422039BDA80019B93
:10B860001A68536C43F400435364ABE614484FF03A
:10B87000380C144BD3E50223134A82F8503375E594
:10B88000DB00F6E64FF4006190E64FF0FF373946F3
:10B89000FFF7F8BB4FF40061042387E600235B68E1
:10B8A000FFDE00239B88FFDE0000012000600240D5
:10B8B000905B0608880E0020518000085405002087
:10B8C000882A1100A0BB0D00F81E0120ABAAAAAA6D
:10B8D0002DE9F041834DC0EB001605EBC606D6F806
:10B8E0005433002B00F0BC800446070196F8C403D3
:10B8F00050F058FF96F8C433012203F01F015B0992
:10B90000013B8A40032B0AD8DFE813F0E000040073
:10B91000E600DA0074494B6A23EA02024A623B1BE2
:10B9200004F1010805EBC3035FFA88F893F85803A4
:10B9300014F0DCF818B1122380F8078083713B1BE8
:10B9400005EBC30393F8590314F0D0F8064618B179
:10B95000132380F8078083713B1B05EBC30393F827
:10B960005A0314F0C3F818B1142380F807808371C8
:10B970003C1B2E21304605EBC40494F85C2314F0E4
:10B9800001F994F85A0314F0B1F894F85D230E21EC
:10B9900014F0F8F894F8580314F0A8F894F85B231E
:10B9A0002E2114F0EFF8D4F8543350491A688B4222
:10B9B00022F040021A6055D04D4A934269D002F5F8
:10B9C0008062934258D1484A116A41F400411162A1
:10B9D000116A21F4004111625A6842F480525A609F
:10B9E0001A68520634D443491E68D1F88842D1F807
:10B9F0009402D1E99D25B0F5005F42EA0502D1F835
:10BA0000805242EA0502D1F8845242EA0502D1F896
:10BA10008C5242EA040242EA0502D1F8905242EA0C
:10BA20000502354D42EA000205EA060542EA050232
:10BA30001A60D1F87C225D6842EA14422F4C04EA75
:10BA4000050442EA04025A6002D1B1F898221A6150
:10BA5000DA6922F40062DA611A6842F040021A6080
:10BA6000BDE8F081204A516A41F480515162516A27
:10BA700021F480515162AFE7214A934213D11A4A0F
:10BA8000516A41F400515162516A21F400515162EE
:10BA9000A2E7154A116A41F480411162116A21F44A
:10BAA0008041116298E7174A934295D10E4A516A34
:10BAB00041F480115162516A21F4801151628BE787
:10BAC00009490B6923EA02020A6128E706494B6922
:10BAD00023EA02024A6122E703490B6A23EA0202CF
:10BAE0000A621CE7F81E01200038024000300140C5
:10BAF00000380040000001204000FFFFFBF0FFFF86
:10BB00000034014000500140027A124B0168134496
:10BB100093F8F03710B4CC58CA1824F00104CC5074
:10BB20001368DB07FCD4037D1F2B09D9203B20229F
:10BB30005DF8044B02FA03F343F01803CB6070473F
:10BB400020225DF8044B02FA03F343F018038B60E4
:10BB5000704700BF905B0608F8B583680546076824
:10BB60001BB19A88196812048A61D7E90464A56137
:10BB7000337D1F2B3ED9203B2022306802FA03F38D
:10BB800043F01803C360237D1F2B3DD92022203BA7
:10BB900002FA03F3226843F01803D36063680022BB
:10BBA00071680A601A601A6842F010021A60BA6975
:10BBB000317A54F04FFDFA69217A206854F04AFD39
:10BBC000327A154B29681A443668496892F8F0575A
:10BBD0002068725942F001027251227A134493F89C
:10BBE000F027835843F0010383504B6843F003036D
:10BBF0004B60F8BD2022306802FA03F343F01803CB
:10BC00008360237D1F2BC1D8202202FA03F3226810
:10BC100043F018039360C1E7905B06082DE9F04FED
:10BC20000746924B89B0924E3C68D4F804909945EF
:10BC300000F0FF80A3F57843994500F0708103F58B
:10BC40008063994540F06D81022297F888802162D7
:10BC50000121D9F80030B88823F0400384F824107B
:10BC6000C9F800302389834240F03C8197F80CA04A
:10BC7000A37A53453FD0C2EB02127E4B03EBC203C3
:10BC800093F858030193BAF1000F40F0F98013F0D4
:10BC90002DFF834608B3019B0225774993F85B2368
:10BCA000036801921944754B03EB912393F8CC0779
:10BCB00050F078FDBBF80430DBF8000002A90293D5
:10BCC0000323019ACDF814A00792CDE90353012371
:10BCD000069354F00BFC97F80CA0D9F8003043F011
:10BCE0000103C9F80030D9F8003043F00203C9F865
:10BCF000003084F80AA0D9F8003043F04003C9F8B6
:10BD00000030226A9368EBB10020844651689C445D
:10BD10001432013001EA060E0B4321B1BEF1005F7F
:10BD200001D0D9060ED19368002BEFD1237B4BB104
:10BD3000B8F1000F06D0012800F2F880BCF1080F1E
:10BD400000F2F480236A9B68002B5FD0BB681BB1B4
:10BD50009A88196812048A61256A6268216A206AD1
:10BD60005368D0F808E023F480532D68BEF1010F2A
:10BD70004868536014DD714693689B07FCD5002D1D
:10BD800037D035F8023B93819368DB07FCD5D36845
:10BD900008B120F8023B02390129EDDC0EF0010E5A
:10BDA000536843F480535360BEF1000F0CD0936886
:10BDB0009907FCD5002D57D02B7813739368DB07B8
:10BDC000FCD5D36800B10370236A1B7B002B44D1E0
:10BDD000236A1B699BB1236AD7F894001B699847B3
:10BDE000012809D002280AD10023236209B0BDE846
:10BDF000F08F4FF6FF73C6E7236A143B2362236A72
:10BE000014332362236A9B68002B9FD1236A1B682B
:10BE1000002B00F08980216A226A0F68236A51682A
:10BE200000223C681A60D4F80490104B99457FF4C6
:10BE300001AF002297F8888021620121D9F80030F3
:10BE400084F8241023F040032189C9F80030BB880E
:10BE500099423FF40BAF184646E0BB68002BB7D0C1
:10BE60001A689B889361B3E7FF23A6E7003001407F
:10BE70000000FFFFF81E01200000FEBF905B0608D7
:10BE800013F034FE834600B3019B2D4A93F85BA365
:10BE900003681A442B4B03EB922393F8CC0750F022
:10BEA00081FCBBF80430DBF800004FF0030C029378
:10BEB000022302A9CDF81CA0039306930023CDE929
:10BEC00004C354F013FB97F80CA0D9F8003023F00A
:10BED0000103C9F80030D9F8003023F00203C9F893
:10BEE000003006E7C0F34F03B3F5807FD9F80010A8
:10BEF000A8BF4FF4807321F03801022BB8BF022392
:10BF0000002B93FAA3F3B3FA83F308BF4FF0FF3388
:10BF1000013B41EAC303C9F800302081A6E60122B3
:10BF200093E64FF0FF3285E723625FE73868002130
:10BF300055F0B0FD384609B0BDE8F04F0CE600BF43
:10BF40000000FEBF905B0608014B43F820107047CD
:10BF5000502800401D4B1E48196C1E4A41F080516C
:10BF600030B4196482B0196CFF2401F08051019142
:10BF70000199016841F480710160CA20196C41F493
:10BF800080611964196C01F4806100915321009D56
:10BF90005462506251625B6FDB000DD40E4B002285
:10BFA0000E490F485A609A60DA601A615A61C1F806
:10BFB000500802B030BC7047084A094BD2F85028EC
:10BFC0009A42EBD102B030BC704700BF003802404B
:10BFD0000070004000280040502800400020004031
:10BFE00031666542800AA0F58010522809D8064BB8
:10BFF000184490F854220D2A03D8134493F9A80248
:10C0000070470020704700BF905B0608F0B50446FB
:10C01000D0F89400434B83B0A16804F1640204F1AA
:10C0200018070E68C1B220F0FF0001921039A3FB7F
:10C030000131090954F058FB616D0023019A01296F
:10C0400084F8583018D0042916D0102955D040292A
:10C0500012D0B1F5807F53D0B1F5806F50D0B1F5DB
:10C06000805F55D0B1F5803F4FF03C030CBF6FF0BF
:10C07000080C6FF4006C01E06FF0080C06F1180575
:10C080003046E95801EA0C01E950616D54F068F856
:10C09000636D012B16D0042B14D0102B0FD0402B26
:10C0A00010D0B3F5807F2FD0B3F5806F2CD0B3F5CF
:10C0B000805F31D0B3F5803F06F1540502D04FF4D4
:10C0C000006100E008212B683A46D4F894000B4345
:10C0D00040212B602162C1B2124B20F0FF001039C9
:10C0E000A3FB0131090954F0B5FAD4F89420136880
:10C0F00043F01003136003B0F0BD6FF4006CBDE7B4
:10C100006FF0080C0423B9E706F11C050821DAE7F3
:10C110006FF4006C0423B1E706F11C054FF40061D5
:10C12000D1E700BFABAAAAAA2DE9F04FDFF88CA295
:10C130009AF800402DED028B87B034B901242046D7
:10C1400007B0BDEC028BBDE8F08F954BDFF870B205
:10C15000D3F89C3208EE103A14F04CF89BF8443BAC
:10C160000390002B00F018810AF6C4070AF58263D9
:10C170000AF5987400263D4601930597DBF8C03216
:10C18000039AD31A03D4EA6D9A4200F3EE8006EBC9
:10C1900086030AEB431393F81C3903F0FF02029263
:10C1A000002B61D0D5F89410AB687E481A68CBB2EA
:10C1B00021F0FF01103BA0FB03037B481B09C35C7C
:10C1C00019444B68A9891FFA83FCD368CCF1160C7B
:10C1D00023EA0103BCF1070FD36045D9DAF818341C
:10C1E00000220121013396468946CAF81834D5F851
:10C1F0009C301F46049357F8048B40461CE0D7F848
:10C200000080BEF1140FA8EB0003404657DC13F189
:10C21000080848BF03F117084FEA28130EEB281E41
:10C2200003F1FF38013102FA03F3043709FA08F287
:10C230008C4542EA030242D38C45E0D8CEF1150387
:10C2400038684FF0150EEBE7DAF814340133CAF80A
:10C250001434002E00F0908000230293029918EE0F
:10C26000102A204612F052FC019B284601365C340D
:10C270000433A0350193FFF7C9FE9BF8443BB3425A
:10C280003FF77CAF0022059FCBF8C022002B3FF484
:10C2900055AF03EB830307EB43133A7CA03757F802
:10C2A0004C0C12F0020F57F8982C11680A6A14BF50
:10C2B00042EA80020243BB420A62EED13EE7BEF18F
:10C2C000150FC1D13949C2F38423C2F3441001EBE5
:10C2D000830301EB8000D3F8F837D0F8F8071B028E
:10C2E00043EA001302F01F00C2F3C43201EB8000E6
:10C2F00001EB8202D0F8F817D2F8F8270B4343EA93
:10C30000023383EA132282EA121202F00F020F2A8A
:10C310009AD140F6FF711A09B1EB131F39D0C2F35D
:10C3200008025B0B12FA03F38ED0214A4FF6FF711D
:10C3300002EB5302B2FBF3F39AB28A4284D0019922
:10C34000032E8A814FF001028A7387DC144A92F827
:10C35000A0222D2A82D1174A2046029922F81630AF
:10C3600018EE102A12F0D2FB7EE70024204607B018
:10C37000BDEC028BBDE8F08F049958220E4859F0AD
:10C3800023FA0296029918EE102A204612F0BEFBFC
:10C390006AE700231A46D2E7CBF8C032CFE600BFE7
:10C3A000F81E0120ABAAAAAA80630608905B0608C3
:10C3B000C02709009C210120FC040020C0000020AF
:10C3C000B8110020830AA3F58013522B45D8F0B58D
:10C3D0000446614885B0034493F854020D283AD8C6
:10C3E0005E4D860105EB8013D3F83475A74232D039
:10C3F0000139C3F8344589B2C3F84015D5F8101394
:10C40000B1FBF2F2013AC3F8382505F2345202EBDF
:10C4100080100022C3F84425C3F83C25C3F8482502
:10C4200049F072FB4E4B9C4218D0B4F1804F15D0AE
:10C43000A3F57C439C422CD003F580639C4228D01A
:10C44000484A03F57C439C4218BF944260D003F5F0
:10C4500070539C425CD005B0F0BD704700234FF490
:10C460008051AA19CDE9001392F870150129CDE980
:10C470000233F0D00221D2F83405012482F871157C
:10C48000394987683940816082F8714582F8703592
:10C4900019E000224FF48051AB19CDE9001293F856
:10C4A00070150129CDE90222D5D00221D3F8340537
:10C4B000012483F871152C4987683940816083F81D
:10C4C000714583F870250023AA19CDE90033029342
:10C4D00092F87035012BBED0D2F8343502212048B5
:10C4E00082F8711583425A68996832D000F58060ED
:10C4F00083422ED022F0700221F0800135440120C9
:10C500005A609960002385F8710585F87035A2E7B7
:10C5100000214FF48053CDE90031AB1993F8702519
:10C52000012ACDE9021196D0D3F83405022283F80E
:10C5300071250D4A87683A4082600C4A83F870156D
:10C540000121944283F87115BDD0064B9C4282D1E3
:10C55000B9E722F47002CDE7905B0608F81E0120CF
:10C5600000000140000C00408800FEFF0004014074
:10C5700070B504460068830AA3F58013522B05D8D2
:10C580002E4E334493F854520D2D00D970BDFFF751
:10C5900019FF2B4BA801022203EB8515D5F83415A2
:10C5A00085F87125274A8D682A40062A06D0B2F5FB
:10C5B000803F03D00A6842F001020A600344012070
:10C5C0002168214A83F871050023204801E050F8D2
:10C5D000332091420AD001330E2BF8D101210020E3
:10C5E00051F0A6FC1A4B01221A6070BD06EBC30382
:10C5F000012193F97D4893F87D68204651F098FC1D
:10C60000002CC3DB06F01F0301216409104D01FA61
:10C6100003F31B2E45F8243008D02E2EB6D12C2043
:10C6200051F086FC4FF480536B6070BD192051F0BF
:10C630007FFC4FF000732B6070BD00BF905B06085D
:10C64000F81E0120070001000000014008640608F0
:10C6500000E100E003689B0AA3F58013522B52D837
:10C6600070B5384C234493F854420D2C4AD8407985
:10C670008308002948D04FEA900C334804EB840526
:10C6800003EB450300EB8415D5F83465022505FA64
:10C690000CFCF5684CEA050500EB830CCCF8F418AB
:10C6A000CCF80429F560A601A5002B19D900274B69
:10C6B00001F1200C9C44EFF3118E502282F312887A
:10C6C00001F110021A4420330B4452F8041B19B133
:10C6D000CCF8001001F1040C9342F6D100235FFA6C
:10C6E0008EFECCF800308EF311882C4400EBC4048D
:10C6F0003044D4F81439D0F83425F3B1D36843F07A
:10C700000103D36070BD70470F48022505FA03FC92
:10C7100000EB8415D5F8346504EB840503EB450381
:10C72000F56825EA0C05F56000EB8305A601C5F860
:10C73000F418C5F80429A500B7E7D36823F001036E
:10C74000D36070BD905B0608F81E0120EC27012025
:10C7500001490248FCF71ABBEC2701200000014008
:10C7600010B5064C064804F6F401FCF70FFB04F67E
:10C770005C210448BDE81040FCF708BBF81E01200E
:10C78000000001400044014002494FF08040FCF7A6
:10C79000FDBA00BF1428012001490248FCF7F6BA8F
:10C7A0003C2801200004004001490248FCF7EEBA91
:10C7B000642801200008004001490248FCF7E6BA5D
:10C7C0008C280120000C004001490248FCF7DEBA29
:10C7D000042901200004014010B5064C064804F667
:10C7E0000C21FCF7D3FA04F6D4210448BDE810402C
:10C7F000FCF7CCBAF81E012000040140001C0040E8
:10C8000001490248FCF7C2BA2C290120004001402E
:10C8100001490248FCF7BABA7C29012000480140CE
:10C8200001490248FCF7B2BAA429012000180040CF
:10C830002DE9F04F4FF4167295B00021814859F060
:10C8400037F8814B814F4FF080415A6C07F120043B
:10C85000B94642F0010207F51E65A246DFF8F481F1
:10C860005A64A7F170065A6C02F001020092009A15
:10C870001A6C42F001021A641A6C02F00102019271
:10C88000019A1A6C42F002021A641A6C02F0020257
:10C890000292029A1A6C42F004021A641A6C02F0B4
:10C8A00004020392039A1A6C42F008021A641A6C8A
:10C8B00002F008020492049A1A6C42F010021A6400
:10C8C0001A6C02F010020592059A1A6C42F02002CE
:10C8D0001A641A6C02F020020692069A5A6C42F010
:10C8E00002025A645A6C02F002020792079A5A6CCA
:10C8F00042F480325A645A6C02F480320892089AE8
:10C900005A6C42F400325A645A6C02F400320992B2
:10C91000099A5A6C42F480225A645A6C02F48022BA
:10C920000A920A9A1A6C42F040021A641A6C02F0D7
:10C9300040020B920B9A1A6C42F080021A641A6C35
:10C9400002F080020C920C9A1A6C42F480721A6403
:10C950001B6C03F480730D930D9B4246002301E092
:10C9600056F833208A420CD001330E2BF8D10AF14D
:10C97000200A00204FF016FF55450DD05AF8201C14
:10C98000EBE7334A0AF1200A02EBC30393F87C0871
:10C990004FF008FF5545F1D107F51C67DFF8B0B03F
:10C9A000DFF8B8A009F120094F4526D099F80630E4
:10C9B000002BF7D099F8040013F098F806460028E9
:10C9C000F0D0036809F1200919F8188C53440BEBD7
:10C9D000932393F8CC074FF0E5FEB288306800232C
:10C9E0000E9202220EA9CDF84C80CDE90F23CDE99D
:10C9F000113353F07BFD4F45D8D14FF08041154F97
:10CA0000154E3A46002301E056F833208A420BD0F7
:10CA100001330E2BF8D1203400204FF0C3FEAC427E
:10CA20000CD054F8201CECE7094A203402EBC30375
:10CA300093F87C084FF0B6FEAC42F2D115B0BDE8D9
:10CA4000F08F00BFEC270120003802407864060810
:10CA5000905B060800000140086406080000FEBF65
:10CA600070B5032082B0FDF707FE01284DD0334C8E
:10CA70000025334A0523C4F89850C4F89C50C4F8E4
:10CA8000A020C4F89430BFF34F8FBFF36F8F4FF6E1
:10CA9000FF01E2682B4B0A402B4E13432B4AE36005
:10CAA000536FC6F84C3B48F095FD294B2949A3FB31
:10CAB0000023D4F8FC209B0C42F08072C4F8FC20C8
:10CAC000C6F8503BD6F81033234AA1FB0313234981
:10CAD0009B09C2F8B01F5560013B1168B3F1807F1C
:10CAE00041F00101116008D24FF0E022F0215361C2
:10CAF000072384F82310956113614FF0E022136936
:10CB000043F00403136102B070BD00210320FFF75E
:10CB10001BFA0E4B12485A6C124942F480425A6476
:10CB20005B6C03F480430193019A02680B68026016
:10CB300083F308884B689847FEE700BF00ED00E0EC
:10CB40001B0000060005FA05F81E0120003802400F
:10CB500083DE1B43D34D6210001000E055CEACC500
:10CB6000003801400000F01FD0F8201124220023DB
:10CB70002DE9F041C0F8942104460A68806804F564
:10CB8000907522F001020A600B604B608B6094F894
:10CB900005C0C4F834314FEA8C22C4F89C3184F8C3
:10CBA000903102F48052C4F89431C4F83831C4F89A
:10CBB00028214FEA0C32C4F8983102F40052C4F82C
:10CBC00040312379C4F82C214FEA0C22C4F8240107
:10CBD00013F0010002F48062C4F830211CBF04226B
:10CBE000C4F8342113F002031EBFD4F8342142F0FC
:10CBF0000802C4F834211CF0010F0DD048B1D4F85C
:10CC0000442142F00202C4F844214FF48032C4F8B7
:10CC10004C21002B40F0FF80A64B03F1200053F87D
:10CC2000042F944200F0BD809842F8D11CF0080F08
:10CC300040F0CD80D4F89431002B00F012812423F1
:10CC40002846C4F894310B6823F001030B6049F0C7
:10CC500049F8012815D0D4F84431002B40F0148154
:10CC6000D4F8203128465A6822F490425A609A68D3
:10CC700022F02A029A601A6842F001021A6053F008
:10CC800021FE2379DA0761D5D4F8FC20002A00F0D0
:10CC9000D5800023D4F8041104F13C06E263A364B8
:10CCA0004FF480623046E264C4E91013C4E91433DF
:10CCB000C4E91833C4E91A334FF48033E3654FF401
:10CCC0008073A36553F044FF304648F0FDF8D4F874
:10CCD0009881C4F88C61B8F1200F656731D1E368A1
:10CCE000626999B26AB3B1FA81F77F0949B394F8DE
:10CCF0009001012825D030460126C4F89C710B46CE
:10CD000084F890612226A4F87811C4F898616A4EDC
:10CD1000D4F82011A667694E2431C4F87421E6675F
:10CD2000674EC4F88C70C4F8886048F06BF900282E
:10CD300000F0AE80102384F89071C4F89C31C4F8E0
:10CD40009481E26B23795268C4F814219B0773D550
:10CD5000D4F80021002A69D00023D4F8081104F186
:10CD60009C06C4F89C20C4F8A8304022C4F8B8300F
:10CD70003046C4E92C33C4E93033C4E932334FF4CC
:10CD80008033C4F8BC304FF48063C4E92812C4F87F
:10CD9000AC3053F0DDFE304648F096F8002863D002
:10CDA000FEE7002C3FF442AF94F8B831002B3FF47B
:10CDB0003DAFD4F844311CF0080F43F00803C4F829
:10CDC00044314FF40043C4F854313FF433AFD4F846
:10CDD0009431002B51D024232846C4F894310B6899
:10CDE00023F001030B6048F07DFF01283FF449AFB9
:10CDF000D4F84431002B43D1D4F8203128465A6866
:10CE000022F490425A609A6822F022029A609A684C
:10CE100042F008022EE7D4F8443143F00103C4F88D
:10CE200044314FF40033C4F84831F5E6D4F8A0217A
:10CE3000136843F080031360BDE8F081D4F8A021AB
:10CE4000116841F480711160916841F001019160B5
:10CE5000116841F020011160116841F0100111606A
:10CE600074E784F89031EAE6D4F89C30C4F888611D
:10CE7000C4F8D4505860BDE8F08184F89031AAE736
:10CE8000284649F0E9F8B7E7284649F0E5F8E7E62B
:10CE9000D4F8203184F890011A6842F480721A6044
:10CEA0009A6842F001029A609A6842F040029A60E1
:10CEB00047E700BF041D00203D1B05086D1B05084A
:10CEC000711B0508F8B5EFF31185502383F3128821
:10CED000D0F800311B6813F0010303D0EDB285F3E5
:10CEE0001188F8BDD0F894210446D0F898110A436F
:10CEF00002F02102212AF1D0D0E90901884252D062
:10CF00009CBF22691846D4F894718CBF431A531AF7
:10CF10000022202FA0629BB284F8A421DED1A26956
:10CF20005118DBD0B3FA83F67609002BD6D094F8EB
:10CF30009021012AD2D00122D4F88801A4F87231BC
:10CF400084F890212122C4F89C61C4F86C11A4F8E3
:10CF50007031C4F89421D0B1DFF854C0D4F8202146
:10CF6000C0F83CC0DFF84CC028320665C0F840C0AD
:10CF7000DFF844C0C0F84CC048F044F838B1102382
:10CF800084F89061C4F89C31C4F89471A6E7D4F891
:10CF9000203100224021196284F890219A6842F0E1
:10CFA00080029A609AE7012384F8A43196E700BFD3
:10CFB000151B0508391B0508711B0508F8B5D0F8C5
:10CFC00020310446DA69910615D5586AE36AC0B281
:10CFD000002B00F0D580216B9847D4F820311A68D7
:10CFE00022F480721A609A6822F001029A609A69AB
:10CFF00042F008029A61DA69D20701D501221A6269
:10D00000DA69970701D502221A62DA69560701D553
:10D0100004221A62DA69150701D508221A62D4F8C7
:10D02000002152B3D96949060AD4DA69D20606D575
:10D03000626B12B19047D4F8203110221A62F8BD09
:10D04000D96904F590701E680F079D682DD18F0671
:10D0500002D5B50600F1C8800F0602D5350600F1ED
:10D06000B380480602D5710600F1A38012B12046B4
:10D07000FFF728FFD4F82031D7E7D9690806D1D5C2
:10D08000D4F894112129CDD0D4E90901814200F0CE
:10D09000A480A069405C0131C0B298622069B1FBF4
:10D0A000F0F500FB1511A162BCE705F0010506F4DF
:10D0B000907C5CEA0507CFD0CF0709D5F70507D5E7
:10D0C00001271F62D4F89C7147F00107C4F89C71D6
:10D0D0008F0761D44F0708D53DB104271F62D4F8EC
:10D0E0009C7147F00207C4F89C710F070CD506F03D
