:020000040800F2
:1000000000000120FD280608992906085518020855
:10001000AD16020899290608992906080000000073
:100020000000000000000000000000009929060800
:100030009929060800000000992906088DFE01088C
:100040009929060899290608992906089929060870
:100050009929060899290608B5F90108B9F901088E
:10006000BDF90108C1F90108C5F90108FDA800089A
:100070000DA900081DA900082DA9000841A9000824
:1000800055A9000869A900089929060899290608B0
:10009000992906089929060899290608C9F9010825
:1000A0005DC70008BDC600086DC70008ADC60008E2
:1000B000E5C60008F5C6000805C70008E5A4000865
:1000C000D9A4000815A5000809A500089929060863
:1000D00099290608D9FD0108E5FD0108F1FD01088F
:1000E000CDF9010899290608992906087DC7000855
:1000F00035C700089929060825C700087DA900080A
:100100009929060809E3000815C700089929060877
:10011000FDFD010809FE0108992906085D90050802
:1001200091A90008A5A90008B9A90008CDA900084F
:10013000E1A900080000000000000000000000002D
:10014000000000000000000000000000D985050844
:10015000F5A9000809AA00081DAA000815FE010853
:1001600049A500083DA5000899290608992906080F
:1001700099290608992906080000000000000000DF
:10018000992906089929060899290608992906082F
:1001900099290608992906080000000099290608EF
:1001A000000000000000000000000000992906087F
:1001B000992906089929060800000000000000009F
:1001C000000000000000000000000000000000002F
:1001D000000000000000000000000000992906084F
:0801E0004824060001000000A4
:1001E80014020100050000001C2B0120282E01200C
:1001F80000000000A0B907081F0208001000000056
:10020800742A0120302E012000000000255D01081D
:1002180006100100240000004C220120402E01207D
:1002280000000000455C0108FA010100030000001D
:100238004446012078450120000000002D5C01089B
:10024800FF210100050000001C3A01207C45012027
:1002580000000000155D0108052001000C000000E9
:100268009C4001208445012000000000A8B907082F
:100278001302010004000000EC3D0120904501201C
:1002880000000000B4B9070818300100340000006D
:10029800D43901209445012000000000B96101080B
:1002A8001E02010006000000C4370120C8450120D5
:1002B80000000000B8B907080D1201001400000082
:1002C800D0380120D045012000000000C0B907083F
:1002D800030101000A00000084390120E4450120DF
:1002E80000000000C9B1040812200100110000003C
:1002F800E4380120F045012000000000D4B90708C7
:100308000B2201003D000000302F0120044601208F
:1003180000000000E6B90708150010007000000092
:10032800047101208C77012000000000000000000B
:100338002A00080060000000A4700120FC7701205A
:10034800000000006139030821020100F0000000EC
:10035800B46F01205C7801200000000029440408E3
:100368002C00040010000000A46F01204C7901202B
:1003780000000000B93A030825201E002C010000E7
:10038800F86D01205C7901200000000000000000E9
:100398002B00120024000000B06D0120887A012093
:1003A80000000000D53A03081610010006000000FE
:1003B800386D0120AC7A01200000000024BA07083B
:1003C80027000100040000002C6D0120B47A0120F0
:1003D800000000002ABA07082052010008000000A7
:1003E8003C6B0120B87A0120000000002D39030879
:1003F8000C400600E400000054660120C07A012089
:1004080000000000FDE70208292014007800000021
:100418008C6A0120A47B012000000000000000007D
:10042800012001000C000000806A01201C7C0120D2
:10043800000000002EBA0708232001001000000069
:10044800706A0120287C012000000000E5410308B3
:1004580028300100160000003C6A0120387C012089
:1004680000000000F94103080B3001001A000000E9
:10047800206A0120507C0120000000003ABA0708D9
:100488000E300300BC010000386701206C7C01209D
:1004980000000000C94903081E000100090000000F
:1004A800A8690120287E01200000000054BA07082E
:1004B8000D1001007000000034690120347E012015
:1004C8000000000063250208220201001C01000050
:1004D800B06B0120A47E012000000000C96D010856
:1004E800160215003F00000000800120C07F012097
:1004F800000000006D5D01081B02010010000000F3
:10050800508001204080012000000000DD5C0108CF
:10051800280204000400000064800120608001209B
:1005280000000000D15C010827020400040000005C
:100538006C8001206880012000000000C55C010873
:100548001C0202001C000000546A01207080012077
:100558000000000001610108010201000B00000019
:10056800988001208C800120000000001D5C01089B
:10057800000201000B000000CC6C0120A4800120C7
:1005880000000000155C01081A0201003C00000090
:10059800B4710120B0800120000000004D61010805
:1005A8000400080080000000246F0120EC80012076
:1005B8000000000000000000190201001000000007
:1005C800186B01206C81012000000000055D010806
:1005D8000812040014000000F87301207C81012037
:1005E80000000000B15B01080A02010014000000CD
:1005F8005C740120908101200000000049E8020895
:100608000A90010024000000F4680120A481012060
:1006180000000000DDC50308031201003D000000D2
:1006280074710120C8810120000000005EBA07082B
:100638000C020100040000000C7401200882012053
:1006480000000000355C01081300010004000000F0
:10065800206901200C820120000000009CBA0708D4
:1006680002020100030000008477012010820120AB
:100678000000000000000000F59101006C0000007F
:10068800446B01201482012000000000414A040844
:10069800F62101000C000000306B0120808201204F
:1006A80000000000A0BA07081212010004000000B0
:1006B800A49B01208C82012000000000ACBA07082E
:1006C8001102010008000000A89B0120908201206F
:1006D80000000000B0BA0708340001001000000054
:1006E800B09B0120988201200000000045390308D2
:1006F800F83101000800000018690120A8820120D3
:1007080000000000B8BA0708020001000C00000051
:1007180088740120B0820120000000000000000061
:10072800FE01010014000000046B0120BC820120BE
:1007380000000000995B0108061204001800000080
:1007480044740120D082012000000000816001086B
:10075800F701010006000000286B0120E882012053
:1007680000000000C0BA0708FC01010009000000F1
:10077800C09B0120F082012000000000F15C01080C
:10078800FB01010001000000CC9B0120FC8201203C
:1007980000000000FD5C01081A0001000E000000C6
:1007A800E07301200083012000000000C6BA07089A
:1007B80014000100050000002C69012010830120AD
:1007C80000000000D4BA0708FD0101002400000061
:1007D800BA7301201883012000000000F3DA010831
:1007E8001D02020006000000B47301203C830120B2
:1007F8000000000000000000F901010004000000F2
:10080800D09B01204483012000000000ADDA0108DC
:100818000E02010002000000BC9D0120149E012070
:1008280000000000DABA07082F10010022000000BB
:10083800189E0120C09D012000000000DCBA0708B6
:100848001F50010024000000CCA1012010AA0120A3
:100858000000000000BB070838100100010000007C
:1008680048A0012034AA01200000000024BB07088A
:10087800261001000E0000002C9F012038AA01203C
:100888000000000045A704081B1001000C00000030
:10089800ECA9012048AA012000000000A93B040897
:1008A800101001000200000000A8012054AA012035
:1008B8000000000026BB07082902010040000000D4
:1008C800E0AC012048AD01200000000028BB07086B
:1008D800FD0701007C00000064AC012088AD012008
:1008E800000000008D43040801010100040000001D
:1008F80060AC012004AE01200000000000000000F0
:1009080000010100040000005CAC012008AE0120D9
:100918000000000068BB0708020101000300000096
:1009280058AC01200CAE012000000000EDE70208E1
:100938002A0201000800000070AB012010AE01205F
:10094800000000006CBB070819000100050000004A
:1009580068AB012018AE01200000000074BB070836
:10096800371001003000000034AB012020AE012018
:10097800000000007ABB07082322010010000000D5
:1009880054B4012020B7012000000000ACBB0708C8
:10099800030001000100000000B5012030B701206C
:1009A8000000000000000000050201000400000033
:1009B800A8B4012034B7012000000000BCBB070820
:1009C8001002010001000000541102205011022001
:0809D80000000000C0BB07088D
:08280000082800080040000850
:10800000084A03465268D0F8E400D3F8F010121A78
:10801000914201DAC3F8F0200122002083F8F42015
:10802000704700BF001000E090F8DB30052B03D84C
:1080300090F8F630012B01D00020704790F8FB300B
:1080400003F0FB03022B0CBF00200720704700BF8A
:10805000836930B45C6999682268096822F001027A
:1080600022601C8ACA6822EA0402CA60027D006893
:108070001F2A06D9203A082144689140214216D08F
:10808000FEE70821046891402142F9D1202101FA3C
:1080900002F28260204A12783AB11A7F012A0BD18B
:1080A000D3F804210132C3F8042130BC70472021E9
:1080B00001FA02F2C260EDE7D3F800210132C3F801
:1080C0000021EFF31181502282F312885868C9B25F
:1080D0009D6C0268DC6C22EA05022243026081F397
:1080E00011885A699968D3E90D4009681460506194
:1080F000D3E90F40546090605C6CB3F8B400D46076
:108100000124C8621068204310601A8A1C77CB686B
:10811000134330BCCB607047C000002070B50E4EDA
:108120007368002B16DD06F10804002503E0736870
:108130002034AB420EDD237F0135002BF7D0E06801
:1081400000220028F3D0217D203417F09FFC7368B3
:10815000AB42F0DC012070BDC0000020704700BFC2
:10816000024B03EB401090F825007047C000002040
:108170004368426D30B49A61EFF31182502383F368
:1081800012884168D2B2856C0B68046D23EA05033E
:1081900023430B6082F31188436981681A68096878
:1081A00022F00102D0E908541A60826A1D605C6105
:1081B0005A60D0E90B429C60DA600023B0F86C2072
:1081C00030BCCA62037770474FF400638381704705
:1081D000084A03465268D0F8E400D3F8F010121AA7
:1081E0008A4201DDC3F8F0200122002083F8F42048
:1081F000704700BF001000E04FF4006383817047B8
:108200004FF4006383817047012380F8E8307047A2
:108210004FF40063838170474FF40063838170479C
:108220004FF400638381704770470120704701203D
:1082300070472DE9F047DFF880810E460746D8F8F1
:108240000050B8F80420B8F80A90C2EB2513520089
:10825000C2EBE502B8F906506A4303FB03F5B8F92F
:1082600008302D135D43B8F90E30AD134FEAE37EAD
:1082700005EBE225A5F5FA31C8F81C5081FB010C8D
:1082800003FB0CF200FB0E22A3FB003E9644B8F960
:108290000C201B0A82FB014243EA0E63120342EAEE
:1082A000145224031B194FF0000442EB2E22A3FBAF
:1082B000093E02F5004209FB02EE4FEAEE734FEA77
:1082C0006E0253EA6E0E6BD0B8F914904FEAE97E55
:1082D00009FB0CFC00FB0ECCA9FB00908444B8F910
:1082E000120080FB01E148044FEA4E4140EADE30D3
:1082F00011EB0909D8F820104CEB0000C1F5801CE7
:1083000014EB0904B8F910100CF0004A40F6354996
:1083100000EBC1014AEA5C0A4FEACC7CBCEB0400EA
:108320006AEB010AA0FB090109FB0A115AF0CAF81D
:10833000B8F91A404FEA613E8146430B04FB0EF246
:108340004FEAE47C43EAC14303FB0C2CA4FB034249
:10835000624404FB0EFE03FB02EEB8F91820A4FBF6
:1083600003439E44640E02FB01F344EACE1414EB73
:10837000000C4FEAE274A2FB092941EB6E6E04FB8C
:108380000031D40CB8F91630494444EA41341CEBAE
:1083900004044EEBE141240A44EA016404EB0314B3
:1083A0000FB1240A3C6026B105EB850580352D12FE
:1083B0003560BDE8F08700BF201F0120704700BF77
:1083C00001207047012070473122F42159F0C4B8D0
:1083D00008B5006855F03AFFD8B90F4A0F4992F82E
:1083E000093192F808011B0143EA003392F80A01AF
:1083F00043EA101392F80B010B6292F80C3192F8D9
:108400000D211B0143EA0033012043EA12130B60E4
:1084100008BD0020FCE700BFC0000020201F012095
:10842000036810B41A78012A1CD0184C184901208E
:1084300091F8122191F811C191F8153112041B0421
:1084400042EA0C2291F814C143EA0C2391F810C1BE
:1084500091F8131142EA0C020B43C4E969235DF859
:10846000044B704793F90430084C03EB430304EBCF
:10847000431393F87920202A03D000205DF8044BA1
:1084800070479B6B9B691B04F7D4CFE7201F01202B
:10849000C00000202DE9F04FCC4C83B0B4F8AC31D3
:1084A000D4F8A821B4F8AE61A2EB032294F9B0513C
:1084B0000091A6FB02634FEAE57C9F04A2FB022326
:1084C00005FB03F347EA9637B60402FB0C33A5FB22
:1084D0000252AD191A4442EB0703002B02DA013DA8
:1084E00043F10003DF17C4E97237002800F01A8156
:1084F00003FB07FCD4F8A451A3FB032606EB4C06B0
:108500004FEA921E4FEAA6184EEA866E0EFB07FC53
:1085100003FB08CCAEFB03E81CEB080C00F1508118
:108520004FEA1E2E4FEA2C214EEA0C6E94F9B6C18A
:1085300001914FEAEC780CFB01FA0EFB08AAACFBA8
:108540000EC81AEB080A00F136814FEA5C1CB4F938
:10855000B3814CEACA6194F9B5C1A8F580484FEAE5
:10856000EC7B0CFB06F902FB0B99ACFB02CBD9446C
:10857000B4F9B1B14FEA8909ABF5804B49EA9C796E
:108580004FEA8B3B4FEA8C0C0BEB6A1A08FB07FB9C
:1085900011EB0C0C4AEB09094FEAE87A03FB0ABB22
:1085A000A8FB038ADA444FEA4A5A4AEAD82A4FEA31
:1085B00048581CEB080C49EB0A09B9F1000FC0F24E
:1085C000F3804FEA1C6B019994F9BCC14BEA092B6B
:1085D0000CFB01FA4FEAEC784FEA29690EFB08AA76
:1085E000ACFB0ECE1AEB0E0E00F1D9804FEA5C1CEC
:1085F0004CEACE6894F9BBC14FEAEC7A0CFB06F664
:1086000002FB0A66ACFB022CB444B4F8B7614FEA33
:108610000C1AF6034AEA127A120106EB6E1E18EBE8
:108620000202B4F8B981A8FB03C64EEB0A0A08FBA4
:1086300007684FEA885646EA9C264FEA8C5C12EBA4
:108640000C024AEB060ABAF1000FC0F2A28094F9BC
:10865000BFE14FEA920CABFB05864CEA8A7C0EFB2D
:1086600007F205FB09664FEAEE791CEB0808B4F93E
:10867000BDC103FB0922AEFB03E946EBAA064A444F
:108680004FEA0C491EEB090E42EBEC7CAEFB05E217
:1086900005FB0C22002A75DB4FEA5E3E4EEAC24E15
:1086A0005213AEFB05CE05FB02EEBEF1000F62DBFE
:1086B0004FEA5C2C94F9C0214CEACE5C18EB0C0C10
:1086C000A5FB054846EB6E264FEAE27E04FB0EFE54
:1086D00002FB08EEA4FB02421EEB020E45D4220C64
:1086E00042EA0E424FEA2E4EA2FB052405FB0E4E37
:1086F000BEF1000F35DBD20942EA4E6212EB0C02EA
:1087000046EBEE16941846EB060EA41846EB0E0E3A
:108710004FEACE0E4EEA547EE400A41846EB0E0655
:10872000360C0660009A9AB1DA1847EB0700D218A7
:1087300047EB0000C00040EA5270D200D31847EB6C
:108740000007002F07DB9B0B009A43EA8743136067
:1087500003B0BDE8F08F43F6FF729B1847F10007A6
:10876000F1E77F324EF1000EC5E74FF6FF72A41815
:108770004EF1000EB3E740F2FF121CEB020C4EF17B
:10878000000E95E741F6FF7C1EEB0C0E42F1000255
:1087900082E712F1030C62464AF1000A57E71CF126
:1087A0001F0C4EF1000E21E76FF07F4B1CEB0B0C02
:1087B00049F1000905E71CF11F0C4AF1000AC4E663
:1087C0001EF1FF0E4CF1000CAAE600BF201F012095
:1087D0003B4BDFED3C3A93F8D11193F8D0010902FD
:1087E00093F8D22193F8D3C101EB004193F8D4015F
:1087F00093ED786A0A4409024FEA002093F8D511F4
:1088000048BF02F17F42B8EEC66A00EB0C4007EEAB
:10881000902AB3F9EC210144000205EE902AB3F945
:10882000E821F8EEE77A48BF01F17F4104EE902A93
:10883000B3F9EA21F8EEE55A07EE101A67EEA37ACB
:1088400006EE902AF8EEE44AB3F9E621F8EEE66A7D
:10885000012005EE102AB3F9E421E7EEA54AB8EEAF
:10886000C55A04EE102AB8EEC77AB3F9DA21B8EE89
:10887000C44AA7EEA65AD3ED776A27EE237A05EE0F
:10888000902AA4EEA76AB3F9D821F8EEE66AF8EECA
:10889000E55A04EE902AF6EE003AE7EE046AF8EEA6
:1088A000E44AA5EE076A67EE255AB0EE667AE4EE72
:1088B000A35AA7EE867AC3ED7D5A83ED7C7A704782
:1088C000201F01200821843630B10A4BD3ED7C7A79
:1088D000FDEEE77AC0ED007A51B1064B9FED067AC6
:1088E000D3ED7D7A67EE877AFDEEE77AC1ED007A07
:1088F000704700BF201F01200000C842704700BF22
:108900000120704701207047704770470120704771
:1089100030B5002385B0E72105468DF807300DF10D
:1089200007020123154C16F0F1FA9DF8073013F0F9
:1089300003031FD0052302AAE821284616F0E6FA11
:108940009DF80A209DF80910130412F0800F43EAE5
:1089500001239DF8081014BF4FF07F4200220B4303
:108960001343C4F8F831BDF80B300120A4F8FC31F2
:1089700005B030BDC4F8F831F7E700BF201F012073
:108980000B4A642310B5D2F8F841634348BF03F69D
:10899000FF731B130360B2F8FC310A2253433022E9
:1089A000B3FBF2F303F584531A330B6010BD00BF21
:1089B000201F012008B5006855F048FC78B9094A25
:1089C000012092F8193192F818111B0292F81A211D
:1089D00043EA01431343044AC2F8003208BD0020B1
:1089E000FCE700BFC0000020201F012008B5006880
:1089F00055F02CFC78B9094A012092F8193192F807
:108A000018111B0292F81A2143EA01431343044A46
:108A1000C2F8043208BD0020FCE700BFC0000020FF
:108A2000201F01202DE9F74F544AB2F81232B2F854
:108A30000E621B02B2F81472CDE90001D2F80012E6
:108A4000C91AB2F810326EEB0E0EA3FB010403FB41
:108A50000E44C009B2F80C3240EA44601B04E41131
:108A6000C018A6FB013506FB0E554FEA1323B2F8DA
:108A70000A6244F1000443EA0563F6032D129B19D0
:108A8000A7FB012607FB0E664FEAD25245F100050F
:108A900042EA4622F61512F5FA6C46F1000BBCF5D7
:108AA000FA6F7BF100074CDAA2FB02784FF0050A5F
:108AB00002FB06F908EB4909A7FB0A780AFB0988BB
:108AC0004FEA5709BF0849EAC87947EA8877B0EB07
:108AD000090064EB6804DB1B294F65EBA805BC4566
:108AE0004FF0FF377BEB070720DA40F6AC57D2197F
:108AF00046F100065643A2FB027202EB4606FA005C
:108B00004FEAC608BA1A48EA577866EB0808101800
:108B100044EB08044FF00B08A7FB087208FB06267D
:108B20007F0847EAC677DB1B65EB660501FB0EFE97
:108B3000A1FB011202EB4E0EC90F41EA4E01BCEB44
:108B4000010C009A92B10D4AD2F80412A1FB032342
:108B500001FB0535520D009B42EAC5226D15121A24
:108B600065EB0404D20B42EA44421A60019B0BB14C
:108B7000C3F800C003B0BDE8F08F00BF201F012084
:108B800024FAFFFF7047012070470120704708B5A5
:108B9000006855F05BFBD8B90E4A0F4992F81D31B9
:108BA00092F81C011B0243EA004392F81E010343A2
:108BB00092F81F01C1F8183292F8203192F8212161
:108BC0001B0243EA004301201343C1F81C3208BDD5
:108BD0000020FCE7C0000020201F01202A4BD3F812
:108BE0001C2293ED8A6AA2F50002D3ED896AD3EDC7
:108BF000887A07EE102AD3ED8D5AD3ED8C4AB8EE61
:108C0000C77AD3F8182293ED914AA2F5000293EDAA
:108C10008F5AE7EE066A93ED8E6AE7EE267A06EE45
:108C2000902A93ED8B7AF8EEE66AE5EEA74AD3ED4B
:108C3000905AA4EE275A93ED924AA7EEA47AD3ED68
:108C4000934AA5EE276AE6EEA45AE4EE275AA5EE6B
:108C5000A66AA6EE867AB5EE407AF1EE10FA03D057
:108C6000BDEEC77A80ED007AF5EE407AF1EE10FAAB
:108C700008D0FDEEE77A17EE903A002BB8BFFF332D
:108C80001B120B60704700BF201F012070B5044607
:108C900090F8F90000B970BD16F0D2FE21460546E5
:108CA000A8B126220023C2800D4A41F80C2F1A4693
:108CB00055F076F9AB884FF00042B3FA83F332FAFD
:108CC00003F3E8D007490A6813430B6070BD044CF6
:108CD0000346024641F80C4FBDE8704055F060B9BC
:108CE0004DBA0008003C01400269C3682DE9F04715
:108CF00012EA03092AD005460E464FF000474FF00E
:108D00000008B9FA89F327FA03F21B3BD24309EAB8
:108D100002092A61042B16D8DFE803F0352C231A48
:108D20000300736A002B37D003F1FF3AC6F82480A2
:108D30001FFA8AFA346A34B12368204651469847AC
:108D40006468002CF8D1B9F1000FDAD1BDE8F087E2
:108D50003068696B036889B29847B9F1000FD0D1C8
:108D6000F4E77068A96B036889B29847B9F1000FFE
:108D7000C7D1EBE7B068E96B036889B29847B9F1EE
:108D8000000FBED1E2E7F068296C036889B298470A
:108D9000B9F1000FB5D1D9E7E96A1FFA81FAC9E73D
:108DA00010B5044682B0806906236A463B21103024
:108DB00016F0B8F858B1BDF80010BDF80220BDF8A3
:108DC000043049BA52BA5BBAE1812282638202B0AE
:108DD00010BD00BF10B582B00446062343216A4689
:108DE000103016F09FF870B1BDF80010BDF80220E9
:108DF000BDF8043049BA52BA5BBAA4F8D010A4F84E
:108E0000D220A4F8D43002B010BD00BF10B5044683
:108E100082B0806906236A462821103016F082F855
:108E2000BDF80010BDF802200120BDF80430E1813A
:108E30002282638202B010BD10B582B004460623C0
:108E400022216A46103016F06DF8BDF80010BDF80A
:108E500002200120BDF80430A4F8D010A4F8D220DC
:108E6000A4F8D43002B010BD13B5002304460B485B
:108E70008DF8073016F032FB0123A0800DF10702B8
:108E80000F21204616F04EF828B19DF807306C2BC4
:108E900014BF0020102002B010BD00BF80969800C3
:108EA00000B583B04FF0000C012311210DF1070232
:108EB00098388DF807C016F035F803B05DF804FB5C
:108EC000836910B5074C04EB8303D3F870024CF0B0
:108ED00089F80021B4F8900255F054F9002384F881
:108EE000923210BD201F012080699C304CF07AB86E
:108EF00010B5074C94F894320BB9002010BD17F050
:108F000023F9D4F89832C01AD0F5FA50F6D5F4E720
:108F1000201F012070B505460C46FFF7E9FF2B68BE
:108F20005D6808B117F03EF9064B0022284649213A
:108F300083F89422224693F89532BDE8704015F0EC
:108F4000E5BF00BF201F01202DE9F04FC24C2DEDE1
:108F5000028B237883B0009303BBD4F82431002B19
:108F600016DD0026BD4831464769D0F8AC303D6873
:108F700003F1C00225F001053D6059600C339A42AF
:108F8000FBD10136D4F8243100F58670B342EBDC16
:108F9000012003B0BDEC028BBDE8F08FB04BD3F8DD
:108FA0009C3208EE103A17F0CFF8D4F82831D4F8F4
:108FB0002C211433801AB0EB430FC0F21C8104F54E
:108FC000987904F5826A04F1080600256368AB42CB
:108FD000C3DDB3690121DFF8A4E25F69A14AD3E9E7
:108FE0003D0C73689940FBB227F0FF07103BAEFBC6
:108FF000033E9D4B4FEA1E1E13F80E301F440346DE
:109000007F68BFB2ACEB07073A4400EB42029A42DA
:1090100017D9B3F800C01CEA010F00F0E680B3F8DE
:1090200002C01CEA010F00F0E280B3F804C01CEAA1
:10903000010F00F0DE80B3F806C008331CEA010F10
:10904000E5D11A880A400192002A40F09580181A4A
:10905000A7EB6007452F28BF452703EB4707BB4217
:1090600080F08A80964690461846944616E0B3F8FB
:1090700002B00BEA010B5A4540F0A280B3F804B0ED
:109080000BEA010B5A4540F09D80DA8808330A400C
:10909000944506D19F4206D91A880A406245E6D017
:1090A00002339F4272D8B8F1110F65D9C8F1150388
:1090B000002BC0F2898000F0B1800EFA03FEC8F1E7
:1090C00014080123694A03FA08F848EA0E0ECEF3A1
:1090D000C43352F823100EF01F0352F8233043EA32
:1090E0000133CEF34411CEF3842E52F8211052F8FE
:1090F0002E2043EA011343EA022383EA132282EA81
:10910000121202F00F020F2A5ED1B3F5803F5BD23C
:1091100040F6FF711A09B1EB131F78D0C2F30802B1
:109120005B0B12FA03F34FD0514A02EB5302B2FB2E
:10913000F3F24FF6FE7301929A421DD0D4F8183420
:109140000133C4F818344FF6FF739A4241D0BDF88A
:109150000430AAF80C30032D4FF001038AF80E30CA
:1091600004DC3F4B93F8A0322D2B4AD0009918EE27
:10917000102A484615F0A4FC013509F15C090AF1F2
:10918000040A2036082D7FF421AFE6E6181A33F8DA
:1091900002CC421001EA0C0C501C364A82FB00B291
:1091A000A2EBE0720120012AB8BF01220EFA02FEF2
:1091B0009044013A00FA02F2184642EA0E0E6BE7BA
:1091C00004336EE706336CE7D4F818340133C4F87F
:1091D0001834D4F8143400210133C4F8143418EED0
:1091E000102A484615F06CFCC6E7023329E7043321
:1091F00027E7063325E7002003B0BDEC028BBDE86E
:10920000F08F1D4B019A009923F81520E7E7D4F859
:1092100018340133C4F8183400239AE7134BCEF303
:10922000C43253F822100EF01F0253F8222042EAF3
:109230000132CEF34411CEF3842E53F8210053F8BB
:109240002E1042EA001343EA012383EA132282EA42
:10925000121202F00F0256E7C00000205405002051
:10926000201F0120C7FFFF7F78620608D85A060832
:10927000C027090056555555C4210120ABAAAAAAFA
:10928000F8B5354C04EB401292F8243003B9F8BD20
:1092900000EB800C314B0026450104EB4C1C9CF884
:1092A000C6E88CF8C66882F80AE093F8ACE293F856
:1092B000AD2296450DD002EB420C560003EBCC0CD0
:1092C0009CF8B0C20CF1FF37012F39D9BCF1030F64
:1092D00031D0234B254403EB401029815CF0F8FB8F
:1092E00023782A6A93B1E9680124D2F8AC308C4023
:1092F00003F1C001420010F4004F90B202D15A684D
:1093000022435A600C338B42F4D1F8BDE968012442
:10931000D2F8AC3001F1100203F1C00194404200D8
:1093200010F4004F90B202D15A6822435A600C33B5
:109330009942F4D1F8BD571C07F003077745C8D010
:10934000324403EBC203034493F8BD120029C0D09A
:10935000631901229A72BCE7C0000020201F01207F
:10936000C8000020BCEEC00A10EE103A99B287E7A0
:10937000214B2DE9F04193F8AC2293F8AD329A429B
:1093800033D11E4ED6F82451002D12DD002437783B
:1093900006F29440A046013417B1037F012B1FD081
:1093A0004269AC4200F58670136843F00103136014
:1093B000F1D116F0C9FED6F8C44DC6F82C01002C28
:1093C0000CDD0F4B03EBC4041968083333F8042C8D
:1093D000C8689C4242EA0002CA60F5D1BDE8F0814B
:1093E00080F8FC80FEF7C4FEDAE752F02DFE00287C
:1093F000C7D1BDE8F08100BF201F0120C0000020C0
:10940000880E0020F8B50546FFF740FC95F8D830E7
:10941000072B5DD195F8F5300226002B5AD137463F
:1094200005F1100480226B21204615F017FC642002
:1094300017F058F807226821204615F00FFC642029
:1094400017F050F800226B21204615F007FC64202D
:1094500017F048F801226B21204615F0FFFB0F2082
:1094600017F040F81B21FA00204615F0F7FB0F20FB
:1094700017F038F81C21F200204615F0EFFB0F2002
:1094800017F030F82846FEF7CFFD1A210246204695
:1094900015F0E4FB0F2017F025F895F8F8201921B6
:1094A000204615F0DBFB642017F01CF81022372152
:1094B000204615F0D3FB0F2017F014F820460122A8
:1094C000382115F0CBFB0F20BDE8F84017F00AB8A3
:1094D0000326A4E70327A3E72DE9F34114469846A2
:1094E0000DF10702012306460F4615F01BFD88B15A
:1094F000022016F057FE9DF807503946304625EAFF
:10950000040444EA08028DF8072015F0A7FB089828
:1095100016F0E8FF02B0BDE8F081642373B500F1F6
:109520001005009301230446122128461A460126FD
:10953000FFF7D2FF02220D21284615F08FFB0120F4
:1095400016F0D0FF02220E21284615F087FB0120DD
:1095500016F0C8FF74221021284615F07FFB012069
:1095600016F0C0FFAC221121284615F077FB012030
:1095700016F0B8FF44237C22122128460096FFF7FC
:10958000ABFF0623132128461A460096FFF7A4FFD7
:1095900000231722152128460096FFF79DFF02237E
:1095A000284618211A460096FFF796FF94F8F9000E
:1095B000A0B116F045FA054608B12623C38021461E
:1095C000074B284641F80C3F00231A4654F0E8FCAC
:1095D000284602B0BDE8704052F0EABF02B070BD4C
:1095E000098200087B22F42115F038BB1D4B1E496F
:1095F000D3F81033B1EB930F10B5044682B02ED2DE
:109600009A08022352085B008A429BB201D9FF2BC1
:10961000F8D9A268A3801AB1938812681B049361D9
:10962000012016F05FFFA36813B11A689B8893614D
:109630000A2016F057FF236800201B6AADF80400CB
:109640005BB92046022301AA802115F039FC9DF860
:109650000530242B14BF00200F2002B010BD0223C0
:10966000D7E700BF201F01208096980038B5044638
:10967000FFF70CFB214804F1100515F02FFF012224
:109680006B21A082284615F0BFFA0F2016F02AFFA2
:1096900018221B21284615F0B7FA0F2016F022FFDA
:1096A00018221C21284615F0AFFA0F2016F01AFFD9
:1096B00020461A21FEF7B8FC0246284615F0A4FA07
:1096C0000F2016F00FFF94F8F8201921284615F006
:1096D0009BFA642016F006FF10223721284615F069
:1096E00093FA0F2016F0FEFE01223821284615F0CD
:1096F0008BFA034815F0F2FEA08238BD40420F00FD
:109700008096980038B50446FFF7C0FA384804F14F
:10971000100515F0E3FE03226B21A082284615F008
:1097200073FA0F2016F03EFD10226A21284615F02C
:109730006BFA0F2016F036FD00226C21284615F03A
:1097400063FA0F2016F02EFD94F8F8201921284610
:1097500015F05AFA0F2016F025FD18221B21284675
:1097600015F052FA0F2016F01DFD18221C21284674
:1097700015F04AFA0F2016F015FD10223721284661
:1097800015F042FA0F2016F00DFD0122382128466F
:1097900015F03AFA0F2016F005FD164815F09EFE5A
:1097A000A082012016F0FEFC114815F097FEA08261
:1097B00020461A21FEF738FC0246284615F024FA06
:1097C000012016F0EFFC0B4815F088FEA082204621
:1097D000FFF700FB94F9D230013308D194F9D0306F
:1097E000013304D10620BDE8384016F095BF38BDDE
:1097F00040420F00002D310110B504460D4815F010
:109800006DFEA082012016F0CDFC2046FFF7FAFD88
:1098100010226A21A01815F0F7F9642016F062FEF4
:10982000054815F05BFEA0820120BDE8104016F04F
:10983000B9BC00BF40420F00002D310170B500F1EE
:109840001004B6227E21054690F8F660204615F0F9
:10985000DBF9642016F046FEAB691BB11A689B88E1
:109860001B049361012016F03DFEAB6913B11A6829
:109870009B8893610A2016F035FE00227C21204649
:1098800015F0C2F9012016F02DFE002259212046C4
:1098900015F0BAF9012016F025FE4FF4A473764AAC
:1098A0005E21204615F0CAFD0A2016F01BFE01229B
:1098B0005921204615F0A8F9012016F013FE012EBB
:1098C00060D0AB224021204615F09EF9012016F011
:1098D00009FE03224121204615F096F9012016F0D9
:1098E00001FEED224221204615F08EF9012016F0EE
:1098F000F9FD08224321204615F086F9012016F0D3
:10990000F1FD04225821204615F07EF9012016F0C1
:10991000E9FD0A225321204615F076F9012016F0C0
:10992000E1FD02227C21204615F06EF9012016F09F
:10993000D9FD20460E227D2115F066F9012016F092
:10994000D1FD95F8F90000B970BD16F079F82946F7
:109950000446002800F0878026220023C280474A60
:1099600041F80C2F1A4654F01BFBA3884FF000421D
:10997000B3FA83F332FA03F3E6D041490A6813439A
:109980000B6070BD00224821204615F03DF930469D
:1099900016F0A8FD80224921204615F035F9304601
:1099A00016F0A0FD00224521204615F02DF9304685
:1099B00016F098FD06224621204615F025F930467E
:1099C00016F090FD00224721204615F01DF9304683
:1099D00016F088FDAB224021204615F015F93046DF
:1099E00016F080FD03224121204615F00DF9304686
:1099F00016F078FDED224221204615F005F930469B
:109A000016F070FD08224321204615F0FDF830467F
:109A100016F068FD02225821204615F0F5F8304670
:109A200016F060FD0A225321204615F0EDF830466D
:109A300016F058FD02227C21204615F0E5F830464C
:109A400016F050FD0E227D21204615F0DDF830463F
:109A500016F048FD2046B0227E2115F0D5F830469C
:109A600016F040FD6DE7054D0346024641F80C5FD8
:109A7000BDE8704054F094BA585B060839BC000841
:109A8000003C014038B51E4D044695F8143333B9F7
:109A90001C4815F023FD0123A08085F814331A48D3
:109AA00015F01CFD80226B21A080204615F0ACF83B
:109AB000642016F017FD03226821204615F0A4F853
:109AC000642016F00FFDF521204615F0DDFCAC28D2
:109AD00011D00BD8122810D0982814BF00250B25C0
:109AE000084815F0FBFCA080284638BDAF2814BFFD
:109AF00000250925F4E70725F2E70825F0E700BF70
:109B0000201F01208096980040420F0038B504467F
:109B10001B4815F0E3FC80226B21A080204615F045
:109B200073F8642016F0DEFC07226821204615F049
:109B30006BF8642016F0D6FCF521204615F0A4FC45
:109B40000546012016F02EFB682D17D18C212046EA
:109B500015F09AFC182809D8142834BF00250325CD
:109B6000084815F0BBFCA080284638BDA0F154037E
:109B7000DBB2072B34BF03250025F1E70025EFE713
:109B800040420F00002D310110B50446154815F074
:109B9000A5FCF521A080204615F076FC702818D091
:109BA00008D8422817D0472817D0122814BF002001
:109BB000082010BDAC2812D006D800F0FD00712896
:109BC00014BF00200620F4E7AF2814BF00200920AE
:109BD000EFE70520EDE70C20EBE70D20E9E7072094
:109BE000E7E700BF002D310110B50446006854F0CE
:109BF0002DFB38B920460623034AF72157F00AFC0B
:109C0000012010BD0020FCE7C801002008B5036852
:109C10001A78012A06D006230B4A042157F0FAFBD2
:109C2000012008BD93F90430084A03EB430302EB1B
:109C3000431393F87920202A01D0002008BD9B6BA4
:109C40009B691B04F9D4E6E7D0010020201F012006
:109C500008B503681A78012A06D006230B4A0021AA
:109C600057F0D8FB012008BD93F90430084A03EBF4
:109C7000430302EB431393F87920202A01D00020FC
:109C800008BD9B6B9B691B04F9D4E6E7F02001201B
:109C9000201F012010B50446006854F0D7FA014691
:109CA00090B923681A78022A08D1196A21B90323C6
:109CB000064A204615F004F9012006E00323034A72
:109CC000204657F0A7FBF7E7002010BDD801002081
:109CD000E0E710B50446006854F0B8FA38B92046F9
:109CE0000623044AF72157F095FB012010BD002000
:109CF000FCE700BFDC010020016803460A78012A66
:109D000004D0022A01D10B6A63B1704707484FF0B3
:109D1000130C19791B2280F815C31B6893F90400F2
:109D200054F0AEB913221B2114F06EBF201F012086
:109D3000582154F0A5BA482154F0A2BABFF34F8F6E
:109D40000549064BCA6802F4E0621343CB60BFF3D7
:109D50004F8F00BFFDE700BF00ED00E00400FA05F3
:109D60009E489F4A9F49121AF0B5A5B05BF0D0FCFF
:109D70009D489E4A9E49121A5BF0CAFC9D4B9B6807
:109D8000012B00F2BE8003EB43039B4A9B4D02EB89
:109D9000430032F8132041888388C5E90021AB6075
:109DA000974C984E984BB2FBF1F2984901FB02F2A6
:109DB0000021C6F81023D4F8882042F47002C4F8B9
:109DC00088201A6842F001021A609960904A186867
:109DD000024090481A60C0F308078F4A5A601A6818
:109DE00022F480221A60D96007B1FEE78B49A06097
:109DF0004FF6FF000A688A4B42F400720A60E2687C
:109E000002401343E36054F01BF9BFF34F8FBFF3DD
:109E10006F8FC4F85072BFF34F8FBFF36F8F6369BA
:109E200043F400336361BFF34F8FBFF36F8FC4F808
:109E30008470BFF34F8FD4F8803043F6E07CC3F3D7
:109E4000C90EC3F34E33580100EA0C01734641EAD0
:109E50008372013B5F1CC4F86022F8D1203810F1F6
:109E6000200FF1D1BFF34F8F636943F480336361F7
:109E7000BFF34F8FBFF36F8F6849634B0A6842F49B
:109E800080720A60196C674A41F080511964196C3C
:109E900001F0805102910299116841F44041116032
:109EA0001268286802F440426C68A9680192019A1D
:109EB0009A6802F00C02042A00F08D809A6802F081
:109EC0000C02082A00F083804F4A136843F4803361
:109ED0001360D6F8187304E0D6F81833DB1B642B34
:109EE00074D813689B03F7D5474A936803F00C03B3
:109EF000082B6BD0136823F080731360D6F81873A7
:109F000008E03E4DD5E900214AE7D6F81833DB1BBF
:109F1000022B5BD813689B01F7D40B06640843EA55
:109F20008013611E43EA01433F491943364B516098
:109F3000116841F080711160D6F8181304E0D6F86A
:109F40001823521A022A41D81A689201F7D5196CBF
:109F5000344A41F0805119641B6C03F08053039321
:109F6000039B136843F480331360D6F8181306E09C
:109F7000D6F818335B1AB3F57A7F00F2CB805368BA
:109F8000DF03F5D51368274943F400331360D6F88F
:109F9000182306E0D6F818339B1AB3F57A7F00F23F
:109FA000B9804B689C03F5D54FF400124FF0006365
:109FB00004A804924FF4C07221930723CDE908232B
:109FC00003230A934BF0E2FA80B3FEE7FEE75B68F7
:109FD0005A027FF579AF0C4B1B6885E70000000043
:109FE000203600008083070800000020C000002009
:109FF000E1DA070850280040A05C060800000120B4
:10A0000000ED00E0201F01200038024040420F0018
:10A01000FFFFF6FE0000000810300024003C024064
:10A020000003FA050070004008004020694A1368E8
:10A0300003F00F03062B0AD8136823F00F0343F035
:10A0400007031360136803F00F03072B63D1624B00
:10A050009A6842F4E0529A609A6842F460429A60C8
:10A060009A6822F0F0029A601A68900153D59A68B3
:10A0700041F2883122F0030242F002029A60D6F8DF
:10A08000180304E0D6F81823121A8A4243D89A68B3
:10A0900002F00C02082AF5D14E4A136819070AD5B6
:10A0A000136823F00F0343F007031360136803F0F2
:10A0B0000F03072B2FD1484C484FA36823F4E053DC
:10A0C00043F4A053A360A36823F4604343F4004324
:10A0D000A3604BF027FAA368C3F303133B4493F840
:10A0E000D431D840C6F8100353F0AAFF002304A8C7
:10A0F000CDE91333CDE91533CDE91733CDE9193364
:10A10000CDE91B33CDE91D33354B04934BF03EFABB
:10A1100010B1FEE7FEE7FEE702234FF0007204A84D
:10A12000CDE90633D823CDE9042301230B934BF06B
:10A130002DFA00B1FEE7D4F88C3023F08073C4F818
:10A140008C30D4F88C3043F08073C4F88C30A36822
:10A1500003F00C03042B36D0082B18D0214BC6F883
:10A1600010331D4AD5E90031B3FBF1F39168D6F8FD
:10A170001023C1F303110F4497F8D411CA401A49B0
:10A1800001FB03F3C6F81023934220D0FEE7636877
:10A19000626813F4800F636802F03F0218BF13492E
:10A1A000C3F3881308BF0F49B1FBF2F202FB03F3BC
:10A1B000094A5268C2F3014201325200B3FBF2F382
:10A1C000C6F81033CDE7094BC6F81033C9E725B000
:10A1D000F0BD00BF003C024000380240D85A0608DB
:10A1E000C0FF03000024F40040420F0000127A0078
:10A1F000014B53F8200070475028004002692DE9B8
:10A20000F043177885B004460D46012F18D10B791D
:10A210004FF0000900F11008013B8DF80590137113
:10A220000DF105024B7975214B4508BF6823037575
:10A230003B46404614F076FE0646002834D122699B
:10A2400002231370EB7823B90026304605B0BDE831
:10A25000F08304F11008A978404615F059F9064634
:10A260000028F1D0E87815F0EBFBA0612B780133E2
:10A27000DBB210B1C371222383710D21434F15F05E
:10A280004BFCA06915F03EF9414B02E057F8043F42
:10A290005BB34046984703460028F7D0206984F80E
:10A2A000D83057F0A3F8D0E7206957F09FF83B4625
:10A2B00049460DF10602404614F034FE9DF8063082
:10A2C00003F07E03682B8DF8063000D1A0B99DF80D
:10A2D000053003F07E03682B8DF805300FD0702B0E
:10A2E000B3D1042384F8D830AFE7E8781E4615F0E0
:10A2F000A7FB15F02FFCA8E784F8D870A5E7062384
:10A3000002224046194684F8D82002AA14F00AFE18
:10A310009DF80D309DF80B209B00520003F00403C4
:10A3200002F0020213439DF8092002F0010243EA01
:10A33000020113430CD058B1012B1FD0022B03D0C4
:10A3400001F0030103291DD1012384F8D9307CE7F2
:10A350000DF10702012340460C2114F0E3FD80F0CB
:10A3600001009DF80720C0B202F00F0250B9B2FA06
:10A3700082F35B0932B1042AE6D1E6E7002384F8D0
:10A38000D93062E7032016F0C7F95EE7BC5C060827
:10A390000D9B000830B490F8443000F10801474AA2
:10A3A000012BC2F81C136ED083684549DC68454D0B
:10A3B00024F46004AB42DC60DC6844F46004DC60DC
:10A3C0009C6B24F440149C639C6B44F480149C6349
:10A3D0009C6B24F4F8449C639C6B44F488449C6319
:10A3E0009C6824F470249C609C689C609C6824F4A5
:10A3F00040149C609C689C605C6824F480645C6091
:10A400005C6824F480545C605C6901EA0401596171
:10A410005969596145D0DC68294924F0E064DC6061
:10A42000DC6844F0E064DC609C6B24F440149C63C2
:10A430009C6B44F480149C639C6B24F478249C6390
:10A440009C6B44F410249C639C6824F470249C60EE
:10A450009C689C609C6824F440149C609C689C6090
:10A460005C6824F480645C605C6824F480545C6004
:10A470009C692140134C9961A3429969996116D056
:10A48000002380F844301048104B848DC18D408DDE
:10A49000091B93FBF1F3C2E9C804C2F8283330BCAE
:10A4A00070470B4C616841F400016160B3E70849F3
:10A4B0004B6843F400034B60E2E700BF201F01201C
:10A4C00000F0FFFF00200140007AF01F80380100FB
:10A4D00000230140704700BF01484AF093BF00BF0E
:10A4E000581F0120074810B4836BC46E99691A681D
:10A4F00024B1234638305DF8044B18475DF8044B0F
:10A50000704700BF201F012001484AF07BBF00BFF9
:10A51000B81F0120084810B4D0F89830D0F8CC40CB
:10A5200099691A6824B1234698305DF8044B18479E
:10A530005DF8044B704700BF201F012001484AF01E
:10A5400061BF00BF18200120084810B4D0F8F830CF
:10A55000D0F82C4199691A6824B12346F8305DF887
:10A56000044B18475DF8044B704700BF201F0120C3
:10A570002DE9F84FD44F6023044603FB00735D6A56
:10A58000002D00F09C81DE6A1EB1B379002B40F0F3
:10A590009681602303FB0473D3F83090B9F1000F68
:10A5A00004D099F80630002B40F08981631CDBB29F
:10A5B00016B11522F371B271B9F1000F04D0162251
:10A5C00089F8073089F80620287C4FF0090851F0F7
:10A5D000FFFF304614F096FF484614F093FF112118
:10A5E000304615F099FA1121484615F095FA4FF0CA
:10A5F000330A02E00A2015F0D5FD304615F0E8F9DF
:10A6000010B9BAF1010AF5D1304615F0EBF9052081
:10A6100015F0C8FD304614F075FF052015F0C2FD99
:10A62000B8F10108E3D130464FF0600B15F0DAF9CC
:10A63000052015F0B7FD484615F0D4F90BFB04FBD7
:10A64000052015F0AFFD304614F05CFF07EB0B0A58
:10A65000052015F0A7FD484614F054FF9AF8343051
:10A6600030460422002B994E14BF3E211E2115F0C6
:10A6700033FA9AF834305E444846002B4FF0040217
:10A68000C14614BF3E211E2115F026FA4C22414638
:10A6900030465BF0B1F8DAF824309FED8D7AB0EEF9
:10A6A000084A5B68F7EE003ABAF836B0CAF83830B4
:10A6B000884B9FED895A9A68884BC2F382221344D3
:10A6C00093F8FC21D7F81033D34007EE903AF8EE18
:10A6D000677AC7EE275A07EE90BA9FED817AF8EEB7
:10A6E000E77AC7EE274ADFED7F7AB0EE007AE5EE33
:10A6F000877AA5EE875A25EE844A37EE856A74EE8E
:10A70000E72ABBF5C87F40F2145309F1010ED7BF09
:10A710001946322364234FF49670C8BF782007EEA1
:10A7200090EAD4BF4FF4167C4FF4827C0344B8EE19
:10A73000E77AC8BF4FF4FA7107EE903A27EE257A10
:10A7400001EB0C03F8EEE76A86EE873A73EE636A74
:10A75000FCEEE67A17EE902A07EE90CAB8EEE73ADA
:10A7600007EE903AF8EEE77A23EE243AC3EE276A32
:10A7700036EEC53A72EEE66AC3EE077A77EEE37A12
:10A78000FCEEE77A17EE901AC6EE877A77EEE37A58
:10A79000FCEEE77A17EE903A03F1020C0CEB010A9B
:10A7A000F0EE466A07EE90AAF8EE677AE7EE276ABF
:10A7B000F4EEE64AF1EE10FA00F383805FFA82FCD1
:10A7C000BCF10F0F00F29480323807EE900AF8EED9
:10A7D000E77A77EEC47AC7EE876AFCEEE67A17EE80
:10A7E00090CA5FFA8CF00F2800F2828088B2FF28AE
:10A7F0007ED898B2FF287BD840EA097310054FEA4B
:10A800000C4200F07F6002F47F0203431343364A98
:10A8100002EA012143EA01086020012300FB0474DD
:10A8200000273046C4F83C80C4E91073C4E91277AD
:10A83000C4E9157756F0E2F894F87930202BD9B2B4
:10A8400019D194F87830012B15D0242384F879306D
:10A85000A36B1A6822F001021A601A6822F480526F
:10A860001A601A681A601A6842F001021A6084F8C5
:10A87000791084F87870002195F9120053F0FCFAF1
:10A8800095F91230AA7C002B07DB02F01F01012290
:10A890005B098A40154941F82320002195F91100F0
:10A8A00053F0EAFA95F911306A7C002B07DB02F0CD
:10A8B0001F0101225B098A400C4941F82320BDE8B1
:10A8C000F88F01316AE700BF201F0120581F0120C7
:10A8D000286B6E4E0038024000001643D85A060816
:10A8E000002474490000704200FFFF0000E100E016
:10A8F000BEF10F0F90D0F14603E700BF0248C369D5
:10A900000BB10C3018477047000001200248036C5F
:10A910000BB1303018477047000001200248436EE9
:10A920000BB1543018477047000001200348D0F89D
:10A9300088300BB178301847704700BF0000012005
:10A940000348D0F8AC300BB19C301847704700BFBB
:10A95000000001200348D0F8D0300BB1C0301847B8
:10A96000704700BF000001200348D0F8F4300BB15D
:10A97000E4301847704700BF000001200348D0F8BA
:10A98000183113B100F5847018477047000001209A
:10A990000348D0F83C3113B100F596701847704762
:10A9A000000001200348D0F8603113B100F5A87011
:10A9B00018477047000001200348D0F8843113B1D4
:10A9C00000F5BA7018477047000001200348D0F81E
:10A9D000A83113B100F5CC70184770470000012072
:10A9E0000348D0F8CC3113B100F5DE70184770473A
:10A9F000000001200348D0F8F03113B100F5F070E9
:10AA000018477047000001200348D0F8143213B1F2
:10AA100000F5017018477047000001200348D0F886
:10AA2000383213B100F50A70184770470000012052
:10AA30000138064B064A00EBC00003EB8000C068FB
:10AA400090420CBF9520962051F0C2BD000001201D
:10AA50000060024001382DE9E84100EBC000124DD2
:10AA60001E46124B05EB800590460F46E86898425B
:10AA70000CBF9520962051F0ABFD95F921004FEACF
:10AA80009811EF616E6253F0F7F995F92130002BC0
:10AA900007DB03F01F0001225B090549824041F8F2
:10AAA0002320BDE8E88100BF0000012000600240D3
:10AAB00000E100E02DE9F04FB94B97B0DFF8FC82E0
:10AAC000002593F83D73A8F25C7BB64B0093DFF84A
:10AAD000F092DFF8F0A24E46B30AA3F58013522B92
:10AAE00057D85B4493F804320D2B52D85B44012FA6
:10AAF00093F9584240F03F81012C41D14FF00009B9
:10AB00004946204616F03AFC16F0C0FC90F800C00A
:10AB1000BCF1000F18BFBCF1540F14BF4FF0010C73
:10AB20004FF0000C40F0238109F104091FFA89F964
:10AB3000B9F1100FE4D1002D00F0DB80994A00211B
:10AB40000FE05B4493F804320D2B11D85B4493F96A
:10AB50005832A3420FD0013102F58672A94280F229
:10AB6000C480906803689B0AA3F58013522BE8D930
:10AB70000023A342EFD143799AF805009842EAD125
:10AB8000D04510D05AF8206FB30AA3F58013522B8A
:10AB9000A7D9012FF4D001230024022FAED1002B1E
:10ABA000ACD0D045EED1009B013503F58673042D62
:10ABB00000938CD17C4B4FF00108DFF80CB200936E
:10ABC00003F57073ABF1080A059308F1FF33DAF867
:10ABD00004209A4240F38680DBF80C60002E00F0DF
:10ABE0000B843168B78801F13F41B7FA87F701F567
:10ABF0007E01C7F11F07890ADAF82451002D40F3BE
:10AC0000FF80684B002405E0013403F58673AC42F5
:10AC100000F0F4801A688A42F6D14FF48673614AD4
:10AC2000CBF8047003FB04245FFA88F3CBF81840D8
:10AC300016B1F3710323B3717B000322012102FAE1
:10AC400003F0A26C01FA03F30243A264226D1343E2
:10AC500023659AF80030002B00F09280636D01FAB2
:10AC600007F73B4363659EB13368B2889A614C4BEA
:10AC70003046002293F85213490141F0090101F0D6
:10AC8000E90114F003FF9AF80030002B00F0A080D7
:10AC9000D4F8AC30BDB200203F0403F1C0011A6803
:10ACA0000C3343F8080C3A4343F80C2C53F8042CAB
:10ACB0002A4343F8042C9942F1D1204608F10108B7
:10ACC000FDF756FA0123009AB8F1090F8BF81C30F2
:10ACD0000BF1200B0BF8033C537402F118030093A3
:10ACE0007FF473AF17B0BDE8F08FBCF1000F7FF4B5
:10ACF00047AF504614F022FE9AF80540C3B2022B2B
:10AD000000F28383431C294A5BB203EB43039800A0
:10AD1000274B03F5727104E0994200F0768353F8F3
:10AD20002C2FB242F8D11A79A242F5D11A58002A32
:10AD3000F2D0944600231F4A51680133614513D075
:10AD4000102B02F12402F7D14FF0FF3303EBC303C2
:10AD5000194A02EB830393F82830002B7FF410AFDD
:10AD6000009BC3F808A01EE7DBB2013BEEE7002D15
:10AD70007FF4E4AE04E7B4F1080318BF01230CE745
:10AD800007F1100301FA03F2636D13436365EEB13B
:10AD9000B38801FA07F732681B04936167E700BFC5
:10ADA000201F012054050020B014002000000140A5
:10ADB000405D06080C0001200000012034620608F6
:10ADC0000004014034610608C800002001FA07F7BA
:10ADD000D4F8AC30BDB200203F0403F1C0011A68C2
:10ADE0000C3343F8080C2A4343F80C2C53F8042C7A
:10ADF0003A4343F8042C9942F1D15EE7032C68DC16
:10AE00004FF4867303FB05A3D3F89C04002800F0DD
:10AE1000E982C3F894140131CAB283F89D250292E5
:10AE2000542283F89C256B1C0268CAF824314479AB
:10AE3000019214F083FDA64B864693F85133039399
:10AE40009BF810300493C3B2022B00F2DE8200F1B3
:10AE5000010CA049A04800234FFA8CFC019A0CEB8E
:10AE60004C0C4FEA8C0C05E00133172B00F0CD821F
:10AE700051F82C0F9042F7D10879A042F4D151F843
:10AE80000C000028F0D02C210EEB4E0EDFF87C9247
:10AE900001FB03F391494C4603EB8E030B44D3F8BB
:10AEA00078124FF4867303FB05A3C3F8AC1400219A
:10AEB000C3F8A804636898421AD0013124341029D9
:10AEC000F8D1874B1A7942B90299542259711A71F3
:10AED00003E003237E4A82F85033824B8248834941
:10AEE000834AC3E9B710C3F8E82217B0BDE8F08F72
:10AEF0004B1C7B49DBB2013B03EBC30301EB830338
:10AF000093F8281006910029E7D1029983F82910B7
:10AF10004FF4867101FB05F08C210446542083F820
:10AF200028002046A310734C0290504404FB03F306
:10AF30003468C0F88C15C0F8984403FB01F1059CF7
:10AF400003EB430304EB4101C0F888156A4901EBA8
:10AF50008313C0F840353023C0F84435674B02985E
:10AF60001C185B4BD3F81013039B062B00F03582A3
:10AF7000072BDFF89CC1624B624814BF4FF0710C85
:10AF80001846614B04BF63464FF01C0CCAF828C139
:10AF9000B1FBF3F3B1FBF0F110465A1E4FF4867388
:10AFA000013992B203FB05A3A3F84815A3F80025C5
:10AFB0000193029B2266002203F158014F4BA4F833
:10AFC000582019446266E26555F0B0F9019BD3F848
:10AFD0009C2410680192036843F080030360537956
:10AFE0000C2B08D8DFE803F06C0707076407070796
:10AFF0005B07070752004FF4867303FB05A3D3F8E2
:10B00000A0144FF0600C026800234FF0020ECDF840
:10B0100038C04FF4807C22F001021093CDF850C06C
:10B020004FF0010C1393CDF83CC04FF00A0C159370
:10B03000CDE911CE02600EAA55F036F84FF48672B3
:10B04000019B02FB05A2D2F8A0141A680023012973
:10B0500000F08B81042900F08881102900F0C7815D
:10B06000402900F08281B1F5807F53D0B1F5806F27
:10B0700050D0B1F5805F00F0C481B1F5803F4FF052
:10B080003C030CBF08214FF4006145E04FF4867388
:10B090004FF4805103FB05A3C3F8A014B1E74FF4AC
:10B0A00086734FF4807103FB05A3C3F8A014A8E7CF
:10B0B0004FF48673102103FB05A3C3F8A014A0E787
:10B0C0004FF48673012103FB05A3C3F8A01498E78E
:10B0D000201F0120405D060800000140D85A0608E4
:10B0E00000000120B8110020CDDA0108C9DA0108FA
:10B0F000D5DA01086B4CA407701500205405002018
:10B100001055220044950800D0DD06000C000120F7
:10B1100040771B000821042302F1180050F803C0F7
:10B1200041EA0C01C150019B1879002840F02681AA
:10B130004FF48672002302FB05A2D2F89C04D2F8D9
:10B14000A8140068026842F001020260D9F80420E5
:10B150000133914200F00E81102B09F12409F5D141
:10B160004FF0FF33AC4A03EBC30302EB8303D86811
:10B17000AA4B98420CBF9520962051F029FA4FF423
:10B18000867303FB05A3D3F89C2453790C2B00F2A0
:10B19000EE80A34901EB4303B3F884C74FF48673F1
:10B1A0001068A04903FB05A3A3F8A4C4002306E08C
:10B1B000904200F01F810133042B00F0298151F8E7
:10B1C0003320002AF4D1DAF8C42D0132CAF8C42D94
:10B1D0000AEBC302DB00C2F8C80D194406982346E7
:10B1E0009022B1F804E0DFF854924CEA0E0CA1F87A
:10B1F00004C08D49FFF72EFC60694FF486734FF44D
:10B20000804C03FB05A5036843F01003036003684B
:10B2100043F0140303600023C4E91F33C4E9283357
:10B22000C4F8A8300423D5F8AC24C4F89C304FF4FB
:10B230008063C4F894204FF44032C4F88430C4F8DA
:10B2400098204022A267D5F84425C4F89020C2B2C5
:10B25000D5F8981420F0FF00103A18312167A9FBA7
:10B260000231029B4FF480520909C4F8882003F18F
:10B2700070026E4B1A44D5F84035C4F88CC0636731
:10B2800055F08CF9D5F8A804029B4FF40031D0F8A2
:10B2900000E04FF4006C03F1B802644BC4F820E006
:10B2A000D0F814E01A440023C4F824E0D0F804E0F5
:10B2B000C4F828E0D0F808E0C4F82CE0D0F80CE09E
:10B2C000C4F8C830C4F830E0C4F8F030C4E9303312
:10B2D000C4E93A33D5F8AC3401930423C4F8E4301C
:10B2E0004FF48063C4F8CC30019BC4E93731D5F802
:10B2F0008C35C4F8D830C3B220F0FF00103BA9FB56
:10B300000331D5F89834C4F8D0C010330909C4F813
:10B31000B830D5F8883501934FF48043C4F8D43061
:10B32000019BC4F8BC3055F039F9D5F8A8245FFA70
:10B3300088F3116861635169A1635168E1639168A1
:10B340002164D1686164116841F0100111601168D5
:10B3500041F014011160049ACBF804708BF81020AE
:10B36000CBF80C60CBF8184063E40821D4E64FF02A
:10B37000000C13E7DBB20693013BF3E6039214F0F3
:10B380005FFB039A20B30268254B02F13F4207900E
:10B3900002F57E0203EB9222019B92F87C071A7A57
:10B3A000039251F015F9079B039A99880D92002298
:10B3B00018680C92089108A90393CDE90A22022289
:10B3C000099255F037F85422039BDA80019B1A68E2
:10B3D000536C43F400435364AAE615484FF0380C0D
:10B3E000144BD3E50223144A82F8503375E54FF429
:10B3F000006191E6DB00F0E64FF0FF373946FFF7DA
:10B40000FBBB4FF40061042386E600235B68FFDE8C
:10B4100000239B88FFDE00BF000001200060024087
:10B42000D85A0608880E00205180000854050020D4
:10B43000882A1100A0BB0D00201F0120ABAAAAAAD8
:10B440002DE9F041834DC0EB001605EBC606D6F89A
:10B450005433002B00F0BC800446070196F8C40367
:10B4600051F0B6F896F8C433012203F01F015B09CE
:10B47000013B8A40032B0AD8DFE813F0E000040008
:10B48000E600DA0074494B6A23EA02024A623B1B77
:10B4900004F1010805EBC3035FFA88F893F8580339
:10B4A00014F0CEFA18B1122380F8078083713B1B89
:10B4B00005EBC30393F8590314F0C2FA064618B11A
:10B4C000132380F8078083713B1B05EBC30393F8BC
:10B4D0005A0314F0B5FA18B1142380F80780837169
:10B4E0003C1B2E21304605EBC40494F85C2314F079
:10B4F000F3FA94F85A0314F0A3FA94F85D230E219A
:10B5000014F0EAFA94F8580314F09AFA94F85B23CA
:10B510002E2114F0E1FAD4F8543350491A688B42C2
:10B5200022F040021A6055D04D4A934269D002F58C
:10B530008062934258D1484A116A41F40041116235
:10B54000116A21F4004111625A6842F480525A6033
:10B550001A68520634D443491E68D1F86042D1F8C3
:10B560006C02D1E99325B0F5005F42EA0502D1F8FB
:10B57000585242EA0502D1F85C5242EA0502D1F87B
:10B58000645242EA040242EA0502D1F8685242EAF1
:10B590000502354D42EA000205EA060542EA0502C7
:10B5A0001A60D1F854225D6842EA14422F4C04EA32
:10B5B000050442EA04025A6002D1B1F870221A610D
:10B5C000DA6922F40062DA611A6842F040021A6015
:10B5D000BDE8F081204A516A41F480515162516ABC
:10B5E00021F480515162AFE7214A934213D11A4AA4
:10B5F000516A41F400515162516A21F40051516283
:10B60000A2E7154A116A41F480411162116A21F4DE
:10B610008041116298E7174A934295D10E4A516AC8
:10B6200041F480115162516A21F4801151628BE71B
:10B6300009490B6923EA02020A6128E706494B69B6
:10B6400023EA02024A6122E703490B6A23EA020263
:10B650000A621CE7201F0120003802400030014030
:10B6600000380040000001204000FFFFFBF0FFFF1A
:10B670000034014000500140027A124B016813442B
:10B6800093F8A03710B4CC58CA1824F00104CC5059
:10B690001368DB07FCD4037D1F2B09D9203B202234
:10B6A0005DF8044B02FA03F343F01803CB607047D4
:10B6B00020225DF8044B02FA03F343F018038B6079
:10B6C000704700BFD85A0608F8B583680546076872
:10B6D0001BB19A88196812048A61D7E90464A561CC
:10B6E000337D1F2B3ED9203B2022306802FA03F322
:10B6F00043F01803C360237D1F2B3DD92022203B3C
:10B7000002FA03F3226843F01803D360636800224F
:10B7100071680A601A601A6842F010021A60BA6909
:10B72000317A54F03BFFFA69217A206854F036FFF1
:10B73000327A154B29681A443668496892F8A0573E
:10B740002068725942F001027251227A134493F830
:10B75000A027835843F0010383504B6843F0030351
:10B760004B60F8BD2022306802FA03F343F018035F
:10B770008360237D1F2BC1D8202202FA03F32268A5
:10B7800043F018039360C1E7D85A06082DE9F04743
:10B79000056886B0A54B06466F689F4200F033816E
:10B7A000A3F578439F4200F04B8103F580639F42ED
:10B7B00040F04881022296F88840296201213B68C6
:10B7C000B08823F0400385F824103B602B89834226
:10B7D00040F0F38096F80C80AB7A434539D0C2EB49
:10B7E0000212934B03EBC20A9AF85803B8F1000F08
:10B7F00040F0B68014F024F9814600B303688D4A06
:10B800009AF85BA31A448C4B03EB922393F87C07C2
:10B8100050F0DEFEB9F804304FF0020CD9F8000009
:10B82000009303236946CDF80C80CDF814A0CDE930
:10B8300001C30123049354F0FDFD96F80C803B688E
:10B8400043F001033B603B6843F002033B6085F833
:10B850000A803B6843F040033B602A6A9368E3B187
:10B860000020764F844651689C441432013001EA2E
:10B87000070E0B4321B1BEF1005F01D0D9060CD1F8
:10B880009368002BEFD12B7B3BB134B1012800F240
:10B89000B180BCF1080F00F2AD802B6A9B68002BD1
:10B8A00048D0B3681BB19A88196812048A612C6A5F
:10B8B0006A68296A286A5368876823F48053246871
:10B8C000012F4868536014DD394693689B07FCD507
:10B8D000002C34D034F8023B93819368DB07FCD50D
:10B8E000D36808B120F8023B02390129EDDC07F0EA
:10B8F0000107536843F48053536067B19368990715
:10B90000FCD5002C74D0237813739368DB07FCD527
:10B91000D36800B103702B6A1B7BD3B92B6A1B69F8
:10B920009BB12B6AD6F894001B699847012809D06F
:10B9300002280AD100232B6206B0BDE8F0874FF63B
:10B94000FF73C9E72B6A143B2B622B6A14332B62FB
:10B95000A3E7B368002BE1D01A689B889361DDE709
:10B9600014F06EF88146F8B10368324A9AF85B83A6
:10B970001A44314B03EB922393F87C0750F028FED6
:10B98000B9F80430D9F800004FF0030E00930223F9
:10B990006946CDF81480019304930023CDE902E3B6
:10B9A00054F048FD96F80C803B6823F001033B609F
:10B9B0003B6823F002033B6049E7C0F34F03B3F554
:10B9C000807F3968A8BF4FF4807321F03801022BC3
:10B9D000B8BF0223002B93FAA3F3B3FA83F308BF93
:10B9E0004FF0FF33013B41EAC3033B602881F1E69E
:10B9F000FF2389E73068002155F0F0FF304606B09C
:10BA0000BDE8F04760E6002296F8884029620121EF
:10BA10003B6885F8241023F0400329893B60B388F4
:10BA200099423FF4D7AE1846C9E700BF0030014045
:10BA3000201F01200000FEBFD85A06080000FFFFAB
:10BA40000122B8E64FF0FF32DEE700BF174BD0F817
:10BA5000D8105B68D0F8E02010B50446581A82422E
:10BA600000DC22B9D4F8E4200A44C4F8DC2094F8BD
:10BA7000D020C4F8D830012A05D0D4F8D43001330E
:10BA8000C4F8D43010BD6268D4F894300849D4F8B2
:10BA900090000133126AC1E99D03002AEDD101F53E
:10BAA0001D71201DFFF772FEE7E700BF001000E0E8
:10BAB00000000120F0B5054680698BB090F8DC30BD
:10BAC000012B28D0023B012B30D81030194C13F039
:10BAD00055F8AB69BB22EC46D3F89C301A70AE69BE
:10BAE000D6F8A0305F1C0FCCACE80F00D6F89C3025
:10BAF000CDE900370FCCACE80F0094E803008CE8E8
:10BB0000030006F110006946FFF740FEA8690269CC
:10BB1000136A002BFCD1D0F8A0305A8852BAEA81BF
:10BB20009A8852BA2A82DB885BBA6B8201200BB0FA
:10BB3000F0BD00BF806206082DE9F04190F8DC30CE
:10BB40008AB00446D0F8A060012B4ED016D8D0F8A9
:10BB50009C304FF0FF3205211A605A609A60DA601B
:10BB6000D0F8E030C0F8F010B3F57A7F4DD8032359
:10BB700080F8DC3001200AB0BDE8F081023B012BE7
:10BB8000F8D800F110082B4D404612F0F7FFD4F81A
:10BB90009C30C322EC461A70D4F8A0305F1C0FCD45
:10BBA000ACE80F00D4F89C30CDE900370FCDACE8FD
:10BBB0000F0095E803008CE8030069464046FFF754
:10BBC000E5FD2269136A002BFCD1738801205BBA62
:10BBD000A4F8D030B3885BBAA4F8D230F3885BBA4B
:10BBE000A4F8D4300AB0BDE8F08173895BBAA0F83C
:10BBF000D030B3895BBAA0F8D230F3895BBAA0F831
:10BC0000D43001200AB0BDE8F08103691A7B6AB123
:10BC100090F8982052B1D0F89C100122BB205A73A2
:10BC200084F8DC20C4F8A4400870A3E7022384F859
:10BC3000DC309FE78062060810B5124B0446586856
:10BC4000D4F8E410D4F8D83094F8D0200B44C4F8D9
:10BC5000D800012AC4F8DC3005D0D4F8D430013340
:10BC6000C4F8D43010BD636807491B6AD4E92402C4
:10BC7000C1E9A702002BF0D101F52771201DFFF7C4
:10BC800085FDEAE7001000E00000012070B50546E0
:10BC900080698AB090F8DC30012B27D0023B012B61
:10BCA0002CD81030174C12F069FFAB698C22EC468F
:10BCB000D3F89C301A70AE690FCCACE80F00D6F800
:10BCC0009C300093D6F8A03001930FCCACE80F0065
:10BCD00094E803008CE8030006F110006946FFF7C2
:10BCE00055FDA8690269136A002BFCD1D0F8A03079
:10BCF0005A88EA819A882A82DB886B8201200AB0FE
:10BD000070BD00BFA86206082DE9F04190F8F6303A
:10BD10008AB00546012B58D090F8DC30D0F8A060EE
:10BD2000012B00F0978017D8D0F89C300022052115
:10BD30001A605A609A609A81D0F8E030C0F8F0102A
:10BD4000B3F57A7F00F294800323012480F8DC307D
:10BD500020460AB0BDE8F081023B012B30D800F14B
:10BD600010084E4F404612F009FFD5F89C30922241
:10BD7000EC461A70D5F8A0400FCFACE80F000FCFFB
:10BD8000ACE80F0097E80300D5F89C308CE803007E
:10BD90004046694600930194FFF7F8FC2A69136A4C
:10BDA000002BFCD173880124A5F8D0302046B3883D
:10BDB000A5F8D230F388A5F8D4300AB0BDE8F081F8
:10BDC000012420460AB0BDE8F081354E00F110078D
:10BDD0000A218DF80C3006F10C028DF8203000237A
:10BDE000384602910993CDE90062CDE90433CDE9EB
:10BDF000063312F0C3FE69463846FFF7C7FC2A69CE
:10BE0000146A002CFCD1F289052A18DD338AB6F9B0
:10BE10001240B6F9141014F5004F08BFB3F5004FE7
:10BE2000306914BF0123002311F5004418BF012419
:10BE30001C4303D0C5F8D000A5F8D410063A002A58
:10BE4000BFD03846B0227E2112F0DEFE20460AB076
:10BE5000BDE8F08132891C46A0F8D0207389A0F893
:10BE6000D230B389A0F8D43020460AB0BDE8F081C2
:10BE700003691A7B6AB190F8984054B10122D0F856
:10BE80009C105A738C2380F8DC20C5F8A4000B703A
:10BE900097E70223012485F8DC3092E7A8620608C0
:10BEA00000000020014B43F820107047502800404C
:10BEB0001D4B1E48196C1E4A41F0805130B4196464
:10BEC00082B0196CFF2401F0805101910199016841
:10BED00041F480710160CA20196C41F480611964D9
:10BEE000196C01F4806100915321009D54625062ED
:10BEF00051625B6FDB000DD40E4B00220E490F48E0
:10BF00005A609A60DA601A615A61C1F8500802B04A
:10BF100030BC7047084A094BD2F850289A42EBD1FE
:10BF200002B030BC704700BF0038024000700040D3
:10BF30000028004050280040002000403166654243
:10BF4000800AA0F58010522809D8064B184490F8B2
:10BF500004220D2A03D8134493F958027047002095
:10BF6000704700BFD85A0608F0B50446D0F89400D0
:10BF7000434B83B0A16804F1640204F118070E6812
:10BF8000C1B220F0FF0001921039A3FB0131090971
:10BF900054F04EFB616D0023019A012984F858305A
:10BFA00018D0042916D0102955D0402912D0B1F547
:10BFB000807F53D0B1F5806F50D0B1F5805F55D000
:10BFC000B1F5803F4FF03C030CBF6FF0080C6FF4ED
:10BFD000006C01E06FF0080C06F118053046E958D6
:10BFE00001EA0C01E950616D54F05EF8636D012BBC
:10BFF00016D0042B14D0102B0FD0402B10D0B3F53B
:10C00000807F2FD0B3F5806F2CD0B3F5805F31D017
:10C01000B3F5803F06F1540502D04FF4006100E013
:10C0200008212B683A46D4F894000B4340212B603A
:10C030002162C1B2124B20F0FF001039A3FB013185
:10C04000090954F0ABFAD4F89420136843F01003B4
:10C05000136003B0F0BD6FF4006CBDE76FF0080C27
:10C060000423B9E706F11C050821DAE76FF4006C38
:10C070000423B1E706F11C054FF40061D1E700BFCE
:10C08000ABAAAAAA2DE9F04FDFF88CA29AF80040DB
:10C090002DED028B87B034B90124204607B0BDECEA
:10C0A000028BBDE8F08F954BDFF870B2D3F89C326D
:10C0B00008EE103A14F048F89BF8443B0390002B2C
:10C0C00000F018810AF6C4070AF582630AF598742D
:10C0D00000263D4601930597DBF8C032039AD31A38
:10C0E00003D4EA6D9A4200F3EE8006EB86030AEB76
:10C0F000431393F81C3903F0FF020292002B61D026
:10C10000D5F89410AB687E481A68CBB221F0FF01D5
:10C11000103BA0FB03037B481B09C35C19444B681D
:10C12000A9891FFA83FCD368CCF1160C23EA01031A
:10C13000BCF1070FD36045D9DAF818340022012189
:10C14000013396468946CAF81834D5F89C301F4604
:10C15000049357F8048B40461CE0D7F80080BEF1EA
:10C16000140FA8EB0003404657DC13F1080848BF42
:10C1700003F117084FEA28130EEB281E03F1FF38CE
:10C18000013102FA03F3043709FA08F28C4542EA56
:10C19000030242D38C45E0D8CEF1150338684FF046
:10C1A000150EEBE7DAF814340133CAF81434002E14
:10C1B00000F0908000230293029918EE102A204686
:10C1C00012F07EFC019B284601365C340433A03516
:10C1D0000193FFF7C9FE9BF8443BB3423FF77CAFA6
:10C1E0000022059FCBF8C022002B3FF455AF03EB94
:10C1F000830307EB43133A7CA03757F84C0C12F03B
:10C20000020F57F8982C11680A6A14BF42EA80029C
:10C210000243BB420A62EED13EE7BEF1150FC1D127
:10C220003949C2F38423C2F3441001EB830301EBC9
:10C230008000D3F8F837D0F8F8071B0243EA001360
:10C2400002F01F00C2F3C43201EB800001EB820256
:10C25000D0F8F817D2F8F8270B4343EA023383EA01
:10C26000132282EA121202F00F020F2A9AD140F62C
:10C27000FF711A09B1EB131F39D0C2F308025B0B2F
:10C2800012FA03F38ED0214A4FF6FF7102EB5302EC
:10C29000B2FBF3F39AB28A4284D00199032E8A81C9
:10C2A0004FF001028A7387DC144A92F8A0222D2AEB
:10C2B00082D1174A2046029922F8163018EE102A29
:10C2C00012F0FEFB7EE70024204607B0BDEC028B97
:10C2D000BDE8F08F049958220E4859F019FA0296D9
:10C2E000029918EE102A204612F0EAFB6AE70023B2
:10C2F0001A46D2E7CBF8C032CFE600BF201F01209C
:10C30000ABAAAAAA78620608D85A0608C02709006C
:10C31000C4210120FC040020C0000020B81100202E
:10C32000830AA3F58013522B45D8F0B50446614823
:10C3300085B0034493F804020D283AD85E4D860177
:10C3400005EB8013D3F83475A74232D00139C3F816
:10C35000344589B2C3F84015D5F81013B1FBF2F299
:10C36000013AC3F8382505F2345202EB801000225E
:10C37000C3F84425C3F83C25C3F8482549F06CFBB5
:10C380004E4B9C4218D0B4F1804F15D0A3F57C439E
:10C390009C422CD003F580639C4228D0484A03F588
:10C3A0007C439C4218BF944260D003F570539C427A
:10C3B0005CD005B0F0BD704700234FF48051AA193E
:10C3C000CDE9001392F870150129CDE90233F0D0C0
:10C3D0000221D2F83405012482F8711539498768A1
:10C3E0003940816082F8714582F8703519E0002289
:10C3F0004FF48051AB19CDE9001293F87015012963
:10C40000CDE90222D5D00221D3F83405012483F8E6
:10C4100071152C4987683940816083F8714583F82C
:10C4200070250023AA19CDE90033029392F87035E4
:10C43000012BBED0D2F834350221204882F8711584
:10C4400083425A68996832D000F5806083422ED0CA
:10C4500022F0700221F08001354401205A60996079
:10C46000002385F8710585F87035A2E700214FF4A7
:10C470008053CDE90031AB1993F87025012ACDE93D
:10C48000021196D0D3F83405022283F871250D4AA3
:10C4900087683A4082600C4A83F870150121944203
:10C4A00083F87115BDD0064B9C4282D1B9E722F4C6
:10C4B0007002CDE7D85A0608201F01200000014075
:10C4C000000C00408800FEFF0004014070B50446E7
:10C4D0000068830AA3F58013522B05D82E4E3344EF
:10C4E00093F804520D2D00D970BDFFF719FF2B4BA7
:10C4F000A801022203EB8515D5F8341585F87125BE
:10C50000274A8D682A40062A06D0B2F5803F03D01C
:10C510000A6842F001020A60034401202168214AAE
:10C5200083F871050023204801E050F83320914240
:10C530000AD001330E2BF8D10121002051F09CFCD0
:10C540001A4B01221A6070BD06EBC303012193F957
:10C550007D4893F87D68204651F08EFC002CC3DBAB
:10C5600006F01F0301216409104D01FA03F31B2E8D
:10C5700045F8243008D02E2EB6D12C2051F07CFC6A
:10C580004FF480536B6070BD192051F075FC4FF073
:10C5900000732B6070BD00BFD85A0608201F012011
:10C5A00007000100000001405063060800E100E0C0
:10C5B00003689B0AA3F58013522B52D870B5384CF0
:10C5C000234493F804420D2C4AD84079830800296B
:10C5D00048D04FEA900C334804EB840503EB450345
:10C5E00000EB8415D5F83465022505FA0CFCF568D6
:10C5F0004CEA050500EB830CCCF8F418CCF80429C0
:10C60000F560A601A5002B19D900274B01F1200CDC
:10C610009C44EFF3118E502282F3128801F1100234
:10C620001A4420330B4452F8041B19B1CCF8001003
:10C6300001F1040C9342F6D100235FFA8EFECCF890
:10C6400000308EF311882C4400EBC4043044D4F83D
:10C650001439D0F83425F3B1D36843F00103D36023
:10C6600070BD70470F48022505FA03FC00EB8415E6
:10C67000D5F8346504EB840503EB4503F56825EA3A
:10C680000C05F56000EB8305A601C5F8F418C5F8A4
:10C690000429A500B7E7D36823F00103D36070BD78
:10C6A000D85A0608201F01201428012001490248F9
:10C6B000FCF71ABB142801200000014010B5064CFD
:10C6C000064804F6F401FCF70FFB04F65C2104486D
:10C6D000BDE81040FCF708BB201F0120000001400E
:10C6E0000044014002494FF08040FCF7FDBA00BF12
:10C6F0003C28012001490248FCF7F6BA64280120D1
:10C700000004004001490248FCF7EEBA8C280120E1
:10C710000008004001490248FCF7E6BAB4280120AD
:10C72000000C004001490248FCF7DEBA2C29012028
:10C730000004014010B5064C064804F60C21FCF735
:10C74000D3FA04F6D4210448BDE81040FCF7CCBA73
:10C75000201F012000040140001C00400149024844
:10C76000FCF7C2BA542901200040014001490248A7
:10C77000FCF7BABAA4290120004801400149024847
:10C78000FCF7B2BACC290120001800402DE9F04F87
:10C790004FF4167295B00021814859F02DF8814B65
:10C7A000814F4FF080415A6C07F12004B94642F0A6
:10C7B000010207F51E65A246DFF8F4815A64A7F16D
:10C7C00070065A6C02F001020092009A1A6C42F054
:10C7D00001021A641A6C02F001020192019A1A6CA9
:10C7E00042F002021A641A6C02F002020292029AE9
:10C7F0001A6C42F004021A641A6C02F004020392EA
:10C80000039A1A6C42F008021A641A6C02F00802C9
:10C810000492049A1A6C42F010021A641A6C02F024
:10C8200010020592059A1A6C42F020021A641A6CE2
:10C8300002F020020692069A5A6C42F002025A64F2
:10C840005A6C02F002020792079A5A6C42F4803244
:10C850005A645A6C02F480320892089A5A6C42F474
:10C8600000325A645A6C02F400320992099A5A6CE6
:10C8700042F480225A645A6C02F480220A920A9A84
:10C880001A6C42F040021A641A6C02F040020B92D9
:10C890000B9A1A6C42F080021A641A6C02F0800241
:10C8A0000C920C9A1A6C42F480721A641B6C03F49A
:10C8B00080730D930D9B4246002301E056F8332010
:10C8C0008A420CD001330E2BF8D10AF1200A002045
:10C8D0004FF07EFE55450DD05AF8201CEBE7334A49
:10C8E0000AF1200A02EBC30393F87C084FF070FEB4
:10C8F0005545F1D107F51C67DFF8B0B0DFF8B8A0F7
:10C9000009F120094F4526D099F80630002BF7D0C1
:10C9100099F8040013F094F806460028F0D0036854
:10C9200009F1200919F8188C53440BEB932393F861
:10C930007C074FF04DFEB288306800230E92022231
:10C940000EA9CDF84C80CDE90F23CDE9113353F07A
:10C9500071FD4F45D8D14FF08041154F154E3A46E5
:10C96000002301E056F833208A420BD001330E2B0E
:10C97000F8D1203400204FF02BFEAC420CD054F8FC
:10C98000201CECE7094A203402EBC30393F87C082F
:10C990004FF01EFEAC42F2D115B0BDE8F08F00BFE3
:10C9A0001428012000380240C0630608D85A06083F
:10C9B00000000140506306080000FEBF70B5032070
:10C9C00082B0FDF715FC01284DD0334C0025334AC9
:10C9D0000523C4F89850C4F89C50C4F8A020C4F8AB
:10C9E0009430BFF34F8FBFF36F8F4FF6FF01E268B4
:10C9F0002B4B0A402B4E13432B4AE360536FC6F870
:10CA00004C3B48F08FFD294B2949A3FB0023D4F868
:10CA1000FC209B0C42F08072C4F8FC20C6F8503B0E
:10CA2000D6F81033234AA1FB031323499B09C2F80C
:10CA3000B01F5560013B1168B3F1807F41F00101E7
:10CA4000116008D24FF0E022F0215361072384F8EF
:10CA50002310956113614FF0E022136943F0040342
:10CA6000136102B070BD00210320FFF71BFA0E4BCB
:10CA700012485A6C124942F480425A645B6C03F4C7
:10CA800080430193019A02680B68026083F308886F
:10CA90004B689847FEE700BF00ED00E01B00000672
:10CAA0000005FA05201F01200038024083DE1B43E9
:10CAB000D34D6210001000E055CEACC500380140E7
:10CAC0000000F01FD0F82011242200232DE9F041AE
:10CAD000C0F8942104460A68806804F5907522F035
:10CAE00001020A600B604B608B6094F805C0C4F8CB
:10CAF0009C314FEA8C22C4F8943184F8903102F4CE
:10CB00008052C4F89831C4F83831C4F828214FEA6B
:10CB10000C32C4F8403102F40052C4F834312379A5
:10CB2000C4F82C214FEA0C22C4F8240113F00100B0
:10CB300002F48062C4F8302102D00422C4F8342107
:10CB400013F0020305D0D4F8342142F00802C4F8EF
:10CB500034211CF0010F0DD048B1D4F8442142F02B
:10CB60000202C4F844214FF48032C4F84C21002B57
:10CB700040F0FF80A64B03F1200053F8042F9442AD
:10CB800000F0BD809842F8D11CF0080F40F0CD8035
:10CB9000D4F89431002B00F0128124232846C4F8E5
:10CBA00094310B6823F001030B6049F043F801282E
:10CBB00015D0D4F84431002B40F01481D4F8203142
:10CBC00028465A6822F490425A609A6822F02A0253
:10CBD0009A601A6842F001021A6053F017FE237936
:10CBE000DA0761D5D4F8FC20002A00F0D5800023B4
:10CBF000D4F8041104F13C06E263A3644FF48062AC
:10CC00003046E264C4E91013C4E91433C4E91833AC
:10CC1000C4E91A334FF48033E3654FF48073A3659E
:10CC200053F03AFF304648F0F7F8D4F89881C4F84A
:10CC30008C61B8F1200F656731D1E368626999B200
:10CC40006AB3B1FA81F77F0949B394F890010128DA
:10CC500025D030460126C4F89C710B4684F89061BB
:10CC60002226A4F87811C4F898616A4ED4F82011ED
:10CC7000A667694E2431C4F87421E667674EC4F88C
:10CC80008C70C4F8886048F065F9002800F0AE8028
:10CC9000102384F89071C4F89C31C4F89481E26B3D
:10CCA00023795268C4F814219B0773D5D4F8002166
:10CCB000002A69D00023D4F8081104F19C06C4F8B6
:10CCC0009C20C4F8A8304022C4F8B8303046C4E9EB
:10CCD0002C33C4E93033C4E932334FF48033C4F821
:10CCE000BC304FF48063C4E92812C4F8AC3053F070
:10CCF000D3FE304648F090F8002863D0FEE7002CC1
:10CD00003FF442AF94F8B831002B3FF43DAFD4F874
:10CD100044311CF0080F43F00803C4F844314FF4C9
:10CD20000043C4F854313FF433AFD4F89431002BAE
:10CD300051D024232846C4F894310B6823F0010312
:10CD40000B6048F077FF01283FF449AFD4F8443135
:10CD5000002B43D1D4F8203128465A6822F490425F
:10CD60005A609A6822F022029A609A6842F0080299
:10CD70002EE7D4F8443143F00103C4F844314FF4B2
:10CD80000033C4F84831F5E6D4F8A021136843F025
:10CD900080031360BDE8F081D4F8A021116841F44C
:10CDA00080711160916841F001019160116841F05A
:10CDB00020011160116841F01001116074E784F8DE
:10CDC0009031EAE6D4F89C30C4F88861C4F8D450B5
:10CDD0005860BDE8F08184F89031AAE7284649F010
:10CDE000E3F8B7E7284649F0DFF8E7E6D4F8203162
:10CDF00084F890011A6842F480721A609A6842F0CE
:10CE000001029A609A6842F040029A6047E700BFC8
:10CE1000041D00208D1A0508BD1A0508C11A050851
:10CE2000F8B5EFF31185502383F31288D0F8003161
:10CE30001B6813F0010303D0EDB285F31188F8BD30
:10CE4000D0F894210446D0F898110A4302F0210248
:10CE5000212AF1D0D0E90901884253D043D8226970
:10CE60001846531A9BB2D4F894710022A062202F66
:10CE700084F8A421E0D1A2695118DDD0B3FA83F679
:10CE80007609002BD8D094F89021012AD4D0012221
:10CE9000D4F88801A4F8723184F890212122C4F8D2
:10CEA0009C61C4F86C11A4F87031C4F89421E8B105
:10CEB000DFF858C0D4F82021C0F83CC0DFF850C0DB
:10CEC00028320665C0F840C0DFF848C0C0F84CC042
:10CED00048F040F850B1102384F89061C4F89C31B8
:10CEE000C4F89471A8E7431A9BB2BCE7D4F8203188
:10CEF00000224021196284F890219A6842F0800251
:10CF00009A6099E7012384F8A43195E7651A05082A
:10CF1000891A0508C11A0508F8B5D0F82031044669
:10CF2000DA69910615D5586AE36AC0B2002B00F0A1
:10CF3000D580216B9847D4F820311A6822F480728A
:10CF40001A609A6822F001029A609A6942F0080217
:10CF50009A61DA69D20701D501221A62DA69970764
:10CF600001D502221A62DA69560701D504221A6233
:10CF7000DA69150701D508221A62D4F8002152B3E4
:10CF8000D96949060AD4DA69D20606D5626B12B1AC
:10CF90009047D4F8203110221A62F8BDD96904F5FF
:10CFA00090701E680F079D682DD18F0602D5B506BB
:10CFB00000F1C8800F0602D5350600F1B38048069F
:10CFC00002D5710600F1A38012B12046FFF728FFB9
:10CFD000D4F82031D7E7D9690806D1D5D4F894110F
:10CFE0002129CDD0D4E90901814200F0A480A069B3
:10CFF000405C0131C0B298622069B1FBF0F500FBE2
:10D000001511A162BCE705F0010506F4907C5CEA0D
:10D010000507CFD0CF0709D5F70507D501271F6230
:10D02000D4F89C7147F00107C4F89C718F0761D454
:10D030004F0708D53DB104271F62D4F89C7147F013
:10D040000207C4F89C710F070CD506F0200C5CEAAF
:10D05000050507D008251D62D4F89C5145F0080548
:10D06000C4F89C51D4F89C51002DADD08D0607D545
:10D07000B10605D5D4F8802112B19047D4F82031FB
:10D08000D4F89C119A6801F0080102F040021143A3
:10D0900068D01A682020002122F490721A609A68E1
:10D0A00022F001029A60C4F898019A68C4F88011CD
:10D0B000520610D59A68D4F88C0122F040029A608A
:10D0C00048B190F835302A4A022B02653FD08023C0
:10D0D000436544F025FDD4F8002175E7E3696269F2
:10D0E000D054E369E2680133B3FBF2F102FB113380
