:020000040800F2
:10000000F0FF0010957A0708A5F30608499002084A
:10001000357B0708357B0708357B070800000000A3
:10002000000000000000000000000000A9F3060826
:10003000ADF3060800000000B1F306089D6E02084B
:10004000357B0708357B0708357B0708357B0708B4
:10005000357B0708357B0708055802082958020830
:1000600065580208A1580208DD58020879E700081F
:1000700089E7000899E70008A9E70008BDE700083C
:10008000D1E70008E5E70008357B0708357B07085E
:10009000357B0708357B0708357B070819590208A7
:1000A00085890208E588020895890208D588020832
:1000B0000D8902081D8902082D89020885AF0008F4
:1000C000A9B400088DAF0008ADB40008357B07085F
:1000D000357B0708ED690208A56A02085D6B020816
:1000E00055590208357B07082D0E0708A589020817
:1000F0005D890208B58902084D890208F9E7000800
:10010000357B0708491201083D890208357B07083D
:10011000156C0208CD6C0208F19D0308259E0308AA
:100120000DE8000821E8000835E8000849E8000863
:100130005DE80008357B0708357B0708357B070835
:10014000357B0708357B0708357B0708B5F30608BC
:1001500071E8000885E8000899E80008856D020844
:1001600095AF0008B1B40008357B0708357B070858
:10017000357B0708357B0708357B0708357B070883
:08018000357B0708357B0708F9
:0828000000C00F0800001008E1
:1080000082B01E4B002201920193019B1C4A043353
:108010000193019B1968936803F00C03042B06D0AD
:10802000082B08D0174B184A1A6002B07047154B3E
:10803000196002B070475368506813F4800F53689A
:108040000F4A08BF1049526814BFC3F38813C3F323
:108050008813C2F3014200F03F0002F1010214BF95
:10806000B1FBF0F1B1FBF0F101FB03F30549520064
:10807000B3FBF2F30B6002B0704700BF5028004022
:1080800000380240482300200024F400074BD0F8B9
:10809000E4105B68D0F8F0205B1A9A42B8BFC0F8D1
:1080A000F030012380F81C3100207047001000E000
:1080B00090F8DB30052B03D890F81E31012B01D04E
:1080C0000020704790F8233103F0FB03022B0CBF14
:1080D00000200720704700BFB74B00EB800103EB87
:1080E000C10170B54A685268B2F814E01EF0010F81
:1080F0004FEA800C6ED15FFA8EF4A60742D5BFF32B
:108100005F8F91F82040012CE5B200F0D080118BF8
:10811000BFF35F8F0CEB000103EBC10191F820402E
:10812000022C00F0E6800CEB000103EBC10191F89A
:108130002040032C07D191F8221021B193F87D1033
:10814000002940F0E680918889B241F480619180F5
:1081500093F97C100CEB000E03EBCE0E9EF820E0A2
:108160000EF1010E8E450CD1002183F87D1093F89D
:108170007E10002940F0B680604403EBC00300226B
:108180005A7770BD650750D414F0400400F0CA80DF
:10819000148A93F97C508E6AE4B274555FFA85FEB6
:1081A0000EF1010464B291F8206083F87C40E51C74
:1081B000AE42214600F023810CEB000503EBC50520
:1081C00095F82050AC42C5D10EF1020149B283F8B6
:1081D0007C10BFE7B2F800E02EF4006E4FEA0E4EBE
:1081E0004FEA1E4EA2F800E01488A4B244F4806462
:1081F000148091F82240002583F87C5034B193F824
:108200007D40002C35D1C97FFF2932D00CEB000115
:1082100003EBC1018C7F04F0FE041482CA7FFF2AA5
:108220003FD0FF2283F87C203BE091F822400125DB
:1082300083F87E50002C7CD093F87D40002C7DD1BB
:108240000CEB000103EBC10191F82110002900F0B3
:10825000B580118889B241F40071118093F87C10C7
:1082600001314CB283F87C401188CE05FCD4214604
:1082700070E7012183F87D100CEB000103EBC101D5
:1082800091F82010022901BF118889B241F40061E0
:1082900011800CEB000103EBC101897F41F001016A
:1082A0001182604403EBC00393F8203070BD91F855
:1082B000221000293FF42BAF93F87D1000293FF4E2
:1082C00026AF118821F480610904090C1180BFF3E5
:1082D0005F8F118B118883F87E5089B241F4007151
:1082E000118030E7918821F440710904090C9180D4
:1082F00042E791F8221000293FF415AF93F87D1062
:1083000000293FF410AF118821F480610904090CA1
:108310001180918821F480610904090C918093F9FE
:108320007C1017E71FFA8EF52D062DD493F97C10DB
:1083300010E793F87D10002982D08AE791F8204059
:10834000022C148845D924F480642404240C14805D
:10835000158A8E6A93F97C40EDB235558E6A118884
:1083600089B241F400711180E4B2158A611C49B2EE
:10837000EDB275549188023489B264B241F48061DF
:1083800083F87C4091806FE793F97C506E1C3DD060
:108390004C6A665D16826C1C91F8205064B2A5424E
:1083A00083F87C4021467FF4D5AE948824F4806421
:1083B0002404240C9480CDE648230020118893F9EE
:1083C0007C4089B241F480711180012183F87D10D5
:1083D0004AE7A4B244F400741480158A8E6A93F9B3
:1083E0007C40EDB23555E4B28E6A158A611C49B203
:1083F0000334EDB264B2755483F87C4034E7958859
:1084000025F480652D042D0C9580D5E683F87C40FD
:10841000CC7F148291F8224024B991F820100029D1
:108420007FF43FAF918821F480610904090C9180A9
:1084300037E700BF836930B41C699968226809680E
:1084400022F0010222608A899C8992B222EA040207
:108450008A81027D00681F2A06D94468203A0821D3
:108460009140214216D0FEE7046808219140214244
:10847000F9D1202101FA02F28260224A12783AB13F
:108480001A7E012A0BD1D3F8F8200132C3F8F82064
:1084900030BC7047202101FA02F2C260EDE7D3F848
:1084A000F4200132C3F8F420EFF31181502282F35B
:1084B000128858685C6C026822EA04029C6C2243B1
:1084C000C9B2026081F31188D3E90C401A69996836
:1084D0001D6C096814605061D3E90E4054609060CF
:1084E0000024B3F8A800D5604C62C862106801246B
:1084F000204310601C768A899B8913439BB230BC51
:108500008B81704708000010F0B5454C04EB401C0F
:108510009CF8202002B9F0BD424B4FF08C0E0EFBB0
:10852000003E93F8E06493F8E1249EF882708CF8A2
:10853000067096424FF0000C4FEA40158EF882C04C
:108540000ED002EB420C03EBCC0C57009CF8E4C4B9
:108550000CF1FF3EBEF1010F56D9BCF1030F4DD017
:1085600060198180EFF31182902383F3128883795D
:10857000818843EA41030021D2B29BB2817182F328
:1085800011881A09217882EA13225A40D1B1C469AC
:108590008168D4F8A040D2431B019BB202F00F02C5
:1085A00001208840134304F1C00113F4004F4FEA47
:1085B000430293B202BF6268024362600C348C4291
:1085C000F3D1F0BDC1698068D1F8A0401B0100F172
:1085D00010019BB202F00F0201208840134304F106
:1085E000C00113F4004F4FEA430293B202BF626826
:1085F000024362600C34A142F3D1F0BD02F1010CE0
:108600000CF0030CB445ABD03A4403EBC202131890
:1086100093F8F1140029A3D0631901229A719FE7FE
:108620000800001048230020BCEEC00A10EE103AEB
:1086300099B269E7704700BF024B03EB401090F816
:1086400021007047080000104368B0F8502010B4B3
:108650001A83EFF31182502383F312884168446C2C
:108660000B6823EA0403C46C2343D2B20B6082F389
:108670001188D0E907418268036912681C6059615A
:10868000D0E909415C60C46A9960B0F86010DC60B0
:108690000023D1625DF8044B03767047037D30B54B
:1086A00004681F2B4FF0200285BFA3F120056168ED
:1086B0002168AA4098BF9A400A4213D00A4A002172
:1086C00082F8441541680A681F2B22F001020A60F3
:1086D00088BF203B4FF020028BBF9A4002FA03F381
:1086E000E260A36030BD00BF48230020037D016825
:1086F0001F2B4FF0200210B589BF49680968A3F10C
:108700002004A24098BF9A400A4214D00A4A00218D
:1087100082F8451541680A681F2B22F001020A60A1
:1087200088BF203B4FF0200201688BBF9A4002FABD
:1087300003F3CA608B6010BD48230020F0B4037DB2
:1087400085691F2B63D90168A3F120024E6820249C
:108750009440264249D010239340CC60CB604B68B4
:10876000D340DE0767D4EFF31183502282F31288DF
:108770002A6C1168C9072FD4516889B271B9D5E93B
:108780000964A64225D0AF692744D76058D9341B65
:10879000A4B25460AE62002185F86410116841F003
:1087A0000101DBB2116083F31188037D1F2B19D8FF
:1087B00002681946106808238B40184200D0936065
:1087C0001068042303FA01F1014200D09160F0BC6B
:1087D0007047012285F86420DBB283F31188037DA2
:1087E0001F2BE5D90168A3F120024C6808209040B6
:1087F000044200D0C8604C68042000FA02F2224211
:10880000E5D0203B00FA03F3F0BCCB607047026870
:10881000202416689C4026421946CBD0102199404E
:10882000946091601168D940CC079CD5012101FA70
:1088300003F3936097E7012303FA02F2CA6092E719
:108840002E69341BA4B25460A962A4E7437D13B11E
:10885000012B04D070474FF48063838170474FF43D
:108860000063FAE74FF4006383817047074BD0F849
:10887000E4105B68D0F8F0205B1A9342C8BFC0F8E0
:10888000F030012380F81C3100207047001000E018
:108890004FF40063838170474FF400638381704716
:1088A000012380F81031704713B5002304468DF87A
:1088B00007306BF0E7F90123A0800DF107020F21CB
:1088C00020461BF089FC28B19DF807306C2B14BFA3
:1088D0000020102002B010BD4FF400638381704768
:1088E0004FF40063838170474FF4006383817047C6
:1088F000024B012283F84625704700BF4823002021
:10890000344AF0B5B2F85635B2F84855B2F9604578
:10891000B2F94E65B2F95AC5B2F96C75ED1AB2F8F2
:1089200054356B43B2F95E5504EBE334ED0295FB2D
:10893000F4F505EBE335A5F57A6E0EFB0EF4231383
:10894000B2F95045C2F868550EFB06F60EFB04FE60
:10895000B2F958455C4303FB0CFCF612241406EBF9
:10896000EC2C04EB6E34B2F94C65B2F8523502349B
:108970000CEB860CA410D2F8706504F500440CFAD8
:1089800007FC63430CF1020C4CF25032DC0BA6EBFB
:10899000AC0642FA07F3734355BF5B00B3FBF4F335
:1089A000B3FBF4F35B0070B11A1240F6DE345243AD
:1089B0006243094C12145C4302EB244202F6CF627C
:1089C00003EB2213036021B10A235D4308352D1107
:1089D0000D60F0BD4823002043E3FFFF70470120F6
:1089E0007047012070472DE9F047DFF88081D8F803
:1089F0007455B8F87825B8F87E95C2EB2513520067
:108A0000C2EBE502B8F97A556A4303FB03F5B8F9FE
:108A10007C352D135D43AD1305EBE225B8F98235A6
:108A2000C8F890550E46A5F5FA31074681FB010CB2
:108A30004FEAE37E03FB0CF200FB0E22A3FB003E99
:108A40009644B8F9802582FB01421B0A120343EACF
:108A50000E6342EA145224031B1942EB2E2202F544
:108A60000042A3FB093E09FB02EE4FEAEE734FEA18
:108A70006E0253EA6E0E4FF000046BD0B8F9889581
:108A80004FEAE97E09FB0CFC00FB0ECCA9FB009031
:108A90008444B8F9860580FB01E148044FEA4E4161
:108AA00011EB0909D8F8941540EADE304CEB0000D0
:108AB000C1F5801C0CF0004AB8F9841514EB0904C8
:108AC0004AEA5C0A4FEACC7C00EBC10140F635492A
:108AD000BCEB04006AEB010AA0FB090109FB0A11C7
:108AE0006EF0B4FDB8F98E454FEA613E430B43EAA0
:108AF000C14304FB0EF24FEAE47C03FB0C2CA4FB05
:108B00000342624404FB0EFE03FB02EEA4FB03439C
:108B1000B8F98C259E44640E44EACE1414EB000C84
:108B200002FB01F34FEAE274814641EB6E6EA2FB59
:108B3000092904FB00314944D40C44EA41341CEBBC
:108B40000404B8F98A354EEBE141240A44EA016491
:108B500004EB03140FB1240A3C6026B105EB850534
:108B600080352D123560BDE8F08700BF4823002016
:108B700000B583B04FF0000C01230DF10702112165
:108B800098388DF807C01BF027FB03B05DF804FB95
:108B9000704700BF0120704701207047034B00223F
:108BA00083F84625F4212E226CF052B94823002088
:108BB000064BB3F86C2592010021343283F8461538
:108BC00002F0FC02F4216CF043B900BF48230020FE
:108BD0003122F4216CF03CB908B500686CF0FEF865
:108BE00038B9054AB2F898355BBAA2F84835012081
:108BF00008BD0020FCE700BF4823002008B500683E
:108C00006CF0ECF898B90B4A92F8993592F89815EF
:108C10001B0243EA014392F89A150B43B2F96C1513
:108C2000C1F10801CB40C2F87035012008BD002019
:108C3000FCE700BF4823002008B500686CF0CEF8C0
:108C4000E0B90F4B93F89C2593F89B15120142EA6B
:108C5000013293F89D1542EA1112C3F8942593F856
:108C60009F2593F89E15120142EA013293F8A01550
:108C700042EA1112C3F87425012008BD0020FCE768
:108C80004823002003681A78012A1CD0144B00B531
:108C900093F8AA1593F8A9C593F8A80593F8AD25FC
:108CA00093F8ACE5090441EA0C210143120493F85E
:108CB000AB05C3F8A41542EA0E220243C3F8B0255F
:108CC00001205DF804FB93F90420054B02EB8202BE
:108CD00003EBC202527F002AD9D00020704700BFA8
:108CE000482300202DE9F04FC94C83B0B4F8B435C7
:108CF000D4F8B02594F9B855CDE90001B4F8B6150B
:108D0000A2EB0322A1FB02139E04A2FB0223EF1796
:108D100005FB03F302FB073346EA9136A5FB02523B
:108D200089046D181A4442EB0603002B02DA013D58
:108D300043F10003B74AC4F8D035DF175760009AF3
:108D4000002A00F0148103FB07F1A3FB032E0EEBB6
:108D5000410E4FEA921C4CEA8E6C0CFB07FB4FEA6B
:108D6000AE1103FB01BBACFB03C81BEB080BD4F833
:108D7000A45500F1488194F9BE154FEA1C2C4CEA29
:108D80000B6C4FEA2B2B4FEAE17801FB0BFA0CFB43
:108D900008AAA1FB0C181AEB080800F13081B4F9FD
:108DA000B965B4F9BB95490941EAC8610846A6F519
:108DB000804694F9BD15B60306EB681ACE1701FB81
:108DC0000EF802FB0688A1FB02164644B60046EAEE
:108DD00091768900A9F5804941184AEB060609FBFE
:108DE00007F84FEAE97A03FB0A88A9FB039AD04403
:108DF0004FEA485848EAD9284FEA495911EB090186
:108E000046EB0806002EC0F2F38094F9C49509FBE6
:108E10000BFB4FEAE9780CFB08BBA9FB0C98090E89
:108E20001BEB080841EA06214FEA266600F1DB80C9
:108E30004FEA591C94F9C395B4F8C1A509FB0EFE7D
:108E40004FEAE97B02FB0BEEA9FB0229CE444FEA75
:108E50000E1E4CEAC86C4EEA127E12011CEB020C8C
:108E6000B4F8BF254FEAC23202EB6818AAFB03929E
:108E70000AFB072A4FEA8A5A4AEA992A4FEA89598D
:108E800048EB0E081CEB090948EB0A08B8F1000F83
:108E9000C0F2A48094F9C7E5B4F9C5B54FEA9909C1
:108EA000A1FB051249EA887919EB010905FB0626A1
:108EB0004FEAEE710EFB07F24FEA0B4C03FB012267
:108EC000AEFB03E146EBA8060A441EEB0C0E42EB98
:108ED000EB7BAEFB05CE05FB0BEEBEF1000F76DBA8
:108EE0004FEA5C3C4CEACE4CACFB05C14FEA6E3E0F
:108EF00005FB0E1EBEF1000F62DB4FEA5C2C94F9FD
:108F0000C8254CEACE5C19EB0C0146EB6E264FEA05
:108F1000E27CA5FB054E04FB0CFC02FB0ECCA4FB83
:108F200002421CEB020C45D4220C42EA0C42A2FB8A
:108F300005244FEA2C4C05FB0C4CBCF1000F35DB33
:108F4000D20942EA4C62521846EBEC16941846EBF2
:108F5000060CA41846EB0C0C4FEACC0C4CEA547CE3
:108F6000E400A41846EB0C06009A360C1660019A31
:108F70009AB1DA1847EB0701D21847EB0101C90093
:108F800041EA5271D200D31847EB0107002F07DBEB
:108F9000019A9B0B43EA8743136003B0BDE8F08F4F
:108FA00043F6FF729B1847F10007F1E77F324CF15F
:108FB000000CC5E74FF6FF72A4184CF1000CB3E7A4
:108FC00040F2FF111CEB010C4EF1000E95E741F64B
:108FD000FF721CEB020C4EF1000E81E719F1030940
:108FE00048F1000856E719F11F0948F100081FE78A
:108FF0006FF07F4911EB090146F1000605E71F31CB
:1090000048F10008CBE61CF1FF0C4BF1000BB2E677
:1090100048230020182900203C4B9FED3D4A93F83F
:10902000D92593F8D80593F8DA1593F8DBC5120221
:1090300002EB00421144120248BF01F17F4107EEEA
:10904000901AB3F9F41593F8DC0593F8DD2506EED4
:10905000101AB3F9F01506EE901AB3F9F21505EEF1
:10906000101AB3F9EE15B8EEE77A05EE901A000281
:10907000D3F8E81500EB0C4027EE047A024407EE23
:10908000901A0002B8EEC66AF8EEE66A48BF02F12E
:109090007F42E7EE066A0120B8EEE76A07EE902A03
:1090A000B3F9EC25B8EEC55A04EE902AF8EEE55A6D
:1090B000B3F9E225E7EE055A05EE102AD3F8E425C8
:1090C000B3F9E035A6EE876AF8EEE77A06EE902A65
:1090D00067EE847AF8EEE44AF8EEE66AA5EEA76A4F
:1090E000E7EEA46A05EE903AB8EEC55AF8EEE55AF6
:1090F00067EE857AB6EE005AE7EE066A054BE5EEB6
:10910000857AC3ED066AC3ED077A704748230020CD
:10911000082184362829002030B10A4BD3ED067A85
:10912000FDEEE77AC0ED007A51B1064B9FED067A6D
:10913000D3ED077A67EE877AFDEEE77AC1ED007A24
:10914000704700BF282900200000C842704700BFB8
:109150000120704701207047704770470120704719
:1091600030B585B000238DF807300DF107020123DB
:10917000E72105461BF0A2F89DF80730134C13F0C9
:10918000030320D0052302AAE82128461BF096F805
:109190009DF80A209DF80910130443EA01239DF865
:1091A000081012F0800F43EA010314BF4FF07F4212
:1091B00000221343C4F80036BDF80B30A4F804367F
:1091C000012005B030BDC4F80036F7E74823002081
:1091D0000B4A10B5D2F800466423634348BF03F638
:1091E000FF731B130360B2F804360A225343302284
:1091F000B3FBF2F303F584531A330B6010BD00BFC9
:109200004823002008B500686BF0E8FD70B9084AF3
:1092100092F80D3692F80C161B0243EA014392F8BD
:109220000E160B43C2F80836012008BD0020FCE7EB
:109230004823002008B500686BF0D0FD70B9084ADB
:1092400092F80D3692F80C161B0243EA014392F88D
:109250000E160B43C2F81036012008BD0020FCE7B3
:10926000482300202DE9F74F564AB2F81E36B2F8CF
:109270001A66B2F82076CDE90001D2F808161B0272
:10928000C91AB2F81C366EEB0E0EA3FB010403FBE9
:109290000E44B2F81836C00940EA44601B04C018F6
:1092A000A6FB013506FB0E55B2F816664FEA1323EE
:1092B00043EA05634FEAC6364FEAE41444F100047A
:1092C0009B19A7FB012607FB0E664FEAD25242EA22
:1092D00046224FEA252545F10005F61512F5FA6CF0
:1092E00046F1000BBCF5FA6F7BF100074CDAA2FBEC
:1092F00002784FF0050A02FB06F908EB4909A7FBC3
:109300000A780AFB09884FEA570949EAC879BF0871
:10931000B0EB090047EA887764EB6804DB1B2A4F4F
:1093200065EBA805BC454FF0FF377BEB070720DA5C
:1093300040F6AC57D21946F100065643A2FB027222
:1093400002EB46064FEAC608FA00BA1A48EA57780E
:1093500066EB0808101844EB08044FF00B08A7FB55
:10936000087208FB06267F0847EAC677DB1B65EB19
:10937000660501FB0EFEA1FB011202EB4E0EC90FAA
:1093800041EA4E01BCEB010C009A9AB10D4AD2F8A9
:109390001016A1FB032301FB0535520D42EAC5223D
:1093A000121A4FEA6555009B65EB0404D20B42EAA2
:1093B00044421A60019B0BB1C3F800C003B0BDE882
:1093C000F08F00BF4823002024FAFFFF70470120E0
:1093D00070470120704708B500686BF0FFFCD0B9FA
:1093E0000E4B93F8292693F82816120242EA0142FE
:1093F00093F82A160A43C3F8242693F82C2693F8E8
:109400002B16120242EA014293F82D160A43C3F8C2
:109410003026012008BD0020FCE700BF48230020C3
:1094200010B52C4CD4F83026A2F5000207EE102A15
:1094300004F23463B8EEC77A93ED026AD3ED016AA1
:10944000D3ED007AD3ED055AD3ED044AD4F824269F
:1094500093ED094A93ED075AE7EE066AA2F500027A
:1094600093ED066AE7EE267A93ED037AE5EEA74AD6
:1094700006EE902AA7EEA47AF8EEE66AD3ED085A33
:10948000D3ED0B4AA4EE275AE6EEA45A93ED0A4A0E
:10949000A5EE276AE4EE275AA5EEA66AA6EE867A1E
:1094A000B5EE407AF1EE10FA18BFBDEEC77AF5EED0
:1094B000407A18BF80ED007AF1EE10FA08D0FDEE88
:1094C000E77A17EE903A002BB8BFFF331B120B6000
:1094D00010BD00BF4823002010B5074C94F8643637
:1094E0000BB9002010BD1DF025FDD4F86836C01A58
:1094F000D0F5FA50F6D5F4E74823002070B50546BC
:109500000C46FFF7E9FF2B685D6808B11DF088FD88
:10951000064B002283F864262846224693F86536D7
:10952000BDE8704049211AF0C9BE00BF48230020A1
:1095300070B5104ED6F80431002B18DD341D00250F
:1095400005E0D6F80431AB4204F120040FDD237F9F
:109550000135002BF5D0E0680028F2D0217D1CF009
:10956000FFFCD6F80431AB4204F12004EFDC01200B
:1095700070BD00BF080000102DE9F04FA54C94F815
:1095800000B089B0BBF1000F1ED1D4F87434002BA9
:1095900016DD0026A04831460769D0F8A0303D68A6
:1095A00025F0010503F1C0023D6059600C339A4279
:1095B000FBD1D4F874340136B34200F58070EBDC93
:1095C000012009B0BDE8F08F944ED6F86C561DF01E
:1095D000B1FCD4F80831D4F80C211433801AB0EB64
:1095E000430FC0F2A281D4F8043101938C4BA3FB4A
:1095F00005238C4A5B09A2FB032CD4F818210092A6
:109600004FEADC0C96F8702606920CEB8C0C06F2F6
:109610007462A3EB4C0C0792D4F81421049200233B
:109620005FFA8CF204F5CA7E059303920EEB8C0C64
:1096300004F5887A261D02931F46019BBB4240F326
:109640004181B16973680A6998005368D1F8EC20C8
:109650001FFA83F8A2EB0808D1F8E83000F10850AF
:1096600008F1806500EB4310393D00EB851501469C
:109670008D4240F21B810A6801F58073002A00F0D8
:1096800047810A6C002A00F04681D1F88020002A28
:1096900000F04481D1F8C0201946002AE8D19D424B
:1096A00040F20481181AA8EBA010452828BF4520D5
:1096B00003EB801100209946054680460CE01A6CA9
:1096C000002A77D1D3F88020002A40F0A180D3F877
:1096D000C02003F580732AB9994205D91A68002A77
:1096E000EDD04033994268D84046112840F2DE80E0
:1096F000C8F11503002BC0F29B8000F020810121EE
:10970000C8F1140201FA02F205FA03F313434648C2
:10971000C3F3C43250F8221003F01F0250F8222085
:1097200042EA0132C3F34411C3F3842350F82110F9
:1097300050F8233042EA011242EA032383EA13225B
:1097400082EA121202F00F020F2A71D1B3F5803FA4
:109750006ED240F6FF71B1EB131F4FEA131200F007
:10976000E880C2F308025B0B12FA03F360D05908D9
:1097700001F5122101F5F861B1FBF3F14FF6FE732B
:10978000994200F09380009B013300934FF6FF73E2
:10979000994250D08BB2AAF80C30032F4FF001033E
:1097A0008AF80E304DDC069B2D2B4AD1079B23F8FF
:1097B000171046E08033994296D9A3EB0902921123
:1097C000501C1A4A82FB0092A2EBE072012AB8BF39
:1097D0000122954001209044013A00FA02F215431B
:1097E00018460268002A7AD0026C002A00F099809C
:1097F000D0F88020002A00F09680D0F8C02000F534
:109800008070002A6CD08142EBD89946034663E70A
:10981000C03367E7080000108004001048230020D0
:109820001F85EB51CDCCCCCC24A2070856555555FD
:10983000009B01330093049B0133CDE9043B4FF6B9
:10984000FF719EF858300398834214D0DCF808204A
:10985000DEF800309B1ACEF80030DCF83020DEF85D
:1098600004309B1ACEF804300023CCF80830CCF832
:1098700030308EF85800DEF80030CDF808B00133F3
:10988000CEF80030DCF808300133CCF808304FF661
:10989000FF73994201BFDEF804300133CEF8043083
:1098A000DCF8303004BF0133CCF830300137082FFA
:1098B0000EF15C0E0CF15C0C0AF1040A06F12006B4
:1098C0007FF4BBAE029B13B1009BC4F81831059B1B
:1098D000002B3FF45AAE049BC4F8143155E64030D7
:1098E000814292D9C31A9B115A1C244B83FB0293C9
:1098F000A3EBE273012BB8BF01239D4098440122E2
:10990000013B02FA03F31D43034699460346E3E68F
:1099100001F14003C3E601F18003C0E601F1C00399
:10992000BDE68030DCE7C030DAE7002009B0BDE8F2
:10993000F08F009B01330093002319462BE7104959
:10994000C5F3C43351F8232005F01F0351F8233029
:1099500043EA0233C5F34412C5F3842551F82220AB
:1099600043EA021351F8252043EA022383EA132233
:1099700082EA121202F00F02E6E600BF5655555574
:1099800024A207082DE9F0411F4B93F8E02493F837
:10999000E1349A4232D11D4ED6F87454002D12DDB6
:1099A0000024377806F58F60A046013417B1037E96
:1099B000012B1ED002691368AC4243F0010300F58D
:1099C00080701360F1D11DF0B5FAD6F87848C6F86A
:1099D0000C01002C0BDD0E4A02EBC40411689388C5
:1099E0008889083203439BB2A2428B81F6D1BDE83D
:1099F000F08180F8F080FEF727FEDBE76AF074FB69
:109A00000028C8D1BDE8F0814823002008000010DC
:109A10008408001010B57D4C94F8E02494F8E134EB
:109A20009A4240F099817A4B93F89C28002A00F0E2
:109A3000EC8093F8A038002B40F0EC80D4F87C1632
:109A4000088820F080000004000C0880B4F880062C
:109A5000C862088880B240F0800008804B62B1F88C
:109A60000CC0B4F8900640EA0C0080B2012A88814C
:109A7000A4F8903600F0C980D4F89416088820F035
:109A800080000004000C0880B4F89806C8620888BA
:109A900080B240F0800008804B62B1F80CC0B4F88E
:109AA000A80640EA0C0080B2022A8881A4F8A836F1
:109AB00000F0AB80D4F8AC16088820F080000004D9
:109AC000000C0880B4F8B006C862088880B240F084
:109AD000800008804B62B1F80CC0B4F8C00640EAC0
:109AE0000C0080B2032A8881A4F8C03600F08D8073
:109AF000D4F8C416088820F080000004000C088008
:109B0000B4F8C806C862088880B240F080000880B7
:109B10004B62B1F80CC0B4F8D80640EA0C0080B231
:109B2000042A8881A4F8D8366FD0D4F8DC160888C7
:109B300020F080000004000C0880B4F8E006C86241
:109B4000088880B240F0800008804B62B1F80CC0F9
:109B5000B4F8F00640EA0C0080B2052A8881A4F827
:109B6000F03652D0D4F8F416088820F080000004B3
:109B7000000C0880B4F8F806C862088880B240F08B
:109B8000800008804B62B1F80CC0B4F8080740EAC6
:109B90000C0080B2062A8881A4F8083735D0D4F8A2
:109BA0000C17088820F080000004000C0880B4F82E
:109BB0001007C862088880B240F0800008804B62BD
:109BC000B1F80CC0B4F8200740EA0C0080B2072AB4
:109BD0008881A4F8203718D0D4F82427B4F82807AF
:109BE000118821F080010904090C1180D0621088CD
:109BF000B4F8381780B240F080001080536290892A
:109C0000014389B29181A4F8383710BD4823002060
:109C100008000010D4F88436B4F888165960196822
:109C2000D4F87C0641F00101196040F20D33A0F830
:109C30004830818989B241F48071012A8181E4D060
:109C4000D4F89C16B4F8A0064860086840F00100FB
:109C50000860D4F89406A0F84830818989B241F4AC
:109C60008071022A8181D0D0D4F8B416B4F8B80635
:109C70004860086840F001000860D4F8AC06A0F81D
:109C80004830818989B241F48071032A8181BCD036
:109C9000D4F8CC16B4F8D0064860086840F001004B
:109CA0000860D4F8C406A0F84830818989B241F42C
:109CB0008071042A8181A8D0D4F8E416B4F8E806AB
:109CC0004860086840F001000860D4F8DC06A0F89D
:109CD0004830818989B241F48071052A818194D00C
:109CE000D4F8FC16B4F800074860086840F001009A
:109CF0000860D4F8F406A0F84830818989B241F4AC
:109D00008071062A818180D0D4F81417B4F818071E
:109D10004860086840F001000860D4F80C07A0F81B
:109D20004830818989B241F48071072A81813FF4EA
:109D30006CAFD4F82C17B4F830274A600868D4F810
:109D4000242740F001000860A2F8483093899BB2B4
:109D500043F48073938110BD6AF0C6F900287FF444
:109D600062AE10BD2DE9F047037D01681F2B04464C
:109D700008D94868A3F120052022AA40024206D152
:109D8000BDE8F087086820229A400242F8D05E4A77
:109D90005E4E5268C6F8A42896F8A028A569DFF898
:109DA00078912ABB8C2202FB0592D2F88800D2F867
:109DB0000071D0F800803868B2F88CC020F0010043
:109DC0003860B8F80C2092B222EA0C02A8F80C20F5
:109DD000327822BB1F2B89BFA3F12002202220232F
:109DE000934096BF02FA03F3CB608B60BDE8F08727
:109DF0008C2202FB0592D2F888205069D2F80080AC
:109E0000026822F001020260B8F80C2022F480728D
:109E10001204120CA8F80C203278002ADAD04FF085
:109E20008C0A0AFB059ADAF80071384660F0C0FA2D
:109E3000D6F8AC3801228AF8D420002B5FD0B8F8CD
:109E4000003033499BB243F08003A8F800308C23E4
:109E500003FB05F54FF0FF332944C8F82C3040468A
:109E600060F010FD09EB05030022D3F8AC00C3F845
:109E7000A420D3F8982039680243D3F8B0000243F5
:109E8000D3F8B4000243D3F8B8000243D3F8BC00BF
:109E90000243D3F8C0000243D3F8CC000243D3F806
:109EA000D00002431B48084002433A60D3E9312006
:109EB0007969024321F007010A437A61D3F8A820A7
:109EC0007A60D3F89C20BA60D3F8A020FA60D3F867
:109ED000002116215160116841F001011160D3F891
:109EE0008820B3F88C30126891890B439BB20649E5
:109EF00093814B68C6F8A838237D21686AE71DF076
:109F000019F8C6F8AC089AE7001000E00800001045
:109F10003C2400203F801CF0482300202DE9F04F16
:109F2000DFF814B19BF8004089B024B90124204621
:109F300009B0BDE8F08F3D4ED6F86C561CF0FAFF24
:109F40009BF8DC380590002B00F0EC82384AA2FB2D
:109F50000532384B5209A3FB0213DB0803EB8303E2
:109F6000A2EB4303DAB206920BF5CA7202EB83034B
:109F700002930BF58873019206F1E00703934FF00B
:109F8000000ADBF8AC38059AD31A04D457F8082C29
:109F90009342C0F28982254A8C2303FB0A2393F85B
:109FA000D43003F0FF02049257F8589C3C6AD9F869
:109FB0000050002B40F09981204660F0F9F91B4ACF
:109FC0008C2303FB0A23002283F8D42099F8051080
:109FD0000C2914D8DFE811F07B01130013001300E3
:109FE0007401130013001300820113001300130007
:109FF0000D00AB8B23F400631B041B0CAB833A46B0
:10A0000028461EF06BFD99F805300C2B1ED8DFE8B2
:10A0100013F04E011D001D001D0045011D001D0017
:10A020001D003C011D001D001D00150048230020DF
:10A030001F85EB51CDCCCCCC08000010AB8B23F4AA
:10A0400000631B041B0C43F40063AB83019B57F8B4
:10A05000342C57F8101C5C330193029B5C33029341
:10A06000039B0433039357F8483C43F040031343E6
:10A0700057F8302C134357F82C2C134357F8282C3F
:10A08000134357F8242C134357F8202C1343402232
:10A0900047F83C2C57F8142C1343226822F07E62B8
:10A0A00022F45F3222F470720B431343236057E9AA
:10A0B000073162690B4322F007021343636157F8CB
:10A0C000383C636057F8443CA36057F8403CE36079
:10A0D000236843F0100323609BF8DC380AF1010A7F
:10A0E0009A4507F18C07FFF64CAF0022CBF8AC285D
:10A0F000002B3FF41BAF9E4991F89020920700F18E
:10A10000BC81D1F8882010685479018C012289B271
:10A11000A24092B221EA02010184018C89B20A4371
:10A12000012B02843FF402AF914991F81C2197075B
:10A1300000F1BF81D1F8142110685479018C0122FB
:10A1400089B2A24092B221EA02010184018C89B253
:10A150000A43022B02843FF4E9AE854991F8A82115
:10A16000960700F1AF81D1F8A02110685479018CD5
:10A17000012289B2A24092B221EA02010184018C3B
:10A1800089B20A43032B02843FF4D0AE784991F898
:10A190003422950700F19F81D1F82C221068547960
:10A1A000018C012289B2A24092B221EA020101840B
:10A1B000018C89B20A43042B02843FF4B7AE6C4988
:10A1C00091F8C022940700F18F81D1F8B82210686D
:10A1D0005479018C012289B2A24092B221EA020193
:10A1E0000184018C89B20A43052B02843FF49EAEA0
:10A1F0005F4991F84C23900700F17F81D1F8442307
:10A2000010685479018C012289B2A24092B221EAED
:10A2100002010184018C89B20A43062B02843FF4B7
:10A2200085AE534991F8D823920700F17281D1F895
:10A23000D02310685479018C012289B2A24092B2D5
:10A2400021EA02010184018C89B20A43082B0284AD
:10A250007FF46CAE464A92F864349B0756BF444B79
:10A26000D2F85C24D3F85C24116850790A8C4CBF76
:10A270000423012383409BB292B222EA03020A84A0
:10A280000A8C92B213430B8450E6AB8B23F0080385
:10A290001B041B0C43F00803AB83D7E62B8B23F482
:10A2A00000631B041B0C43F400632B83CEE62B8B53
:10A2B00023F008031B041B0C43F008032B83C5E6A3
:10A2C0002B8B23F400631B041B0C2B8397E62B8B37
:10A2D00023F008031B041B0C2B8390E6AB8B23F0AD
:10A2E00008031B041B0CAB8389E6636837F8542C06
:10A2F0001FFA83FEAB89CEF1160E9BB223EA02034E
:10A30000BEF1070FAB817FF657AEDBF81831013392
:10A31000CBF81831BB6A07939C4600225CF8046BAB
:10A32000012190461BE0DCF80000B8F1140FA0EB0F
:10A3300006031FDC13F1080648BF03F117063311AB
:10A3400008EB26180646581E013102FA03F30122D3
:10A3500082408E4542EA03020CF1040C0AD38E457A
:10A36000E1D8C8F11503DCF800604FF01508EAE702
:10A3700048230020B8F1150F74D16C48C2F3842330
:10A38000C2F3441100EB830300EB8101D3F880306A
:10A39000D1F880101B0243EA011302F01F0100EB09
:10A3A0008101C2F3C43200EB8202D1F88010D2F8EE
:10A3B00080200B4343EA023383EA132282EA12121B
:10A3C00002F00F020F2A4DD140F6FF71B1EB131FBF
:10A3D0004FEA131200F09A80C2F308025B0B12FAE4
:10A3E00003F33FD05A0802F5122202F5F8624FF645
:10A3F000FF71B2FBF3F293B28B4233D00399BAF1FF
:10A40000030F8B814FF001038B7304DC484B93F8EF
:10A4100070362D2B44D00199069E91F85830B342E6
:10A420000DD002980B6882689B1A0B60026B4B6818
:10A430009B1A4B6000238360036381F85860019A84
:10A4400002991368013313608B6801338B60049B9E
:10A45000002B7FF4B1AD5368013353600B6B0133B4
:10A460000B63A9E5DBF814310133CBF81431BAF1F1
:10A47000000F0BD000230493CDE72D4AD2F888209B
:10A4800010685479018C042289B241E60799294861
:10A4900058226FF011FED9F80050CDF810A0BAE79D
:10A4A000254B23F81A20B6E70024204609B0BDE862
:10A4B000F08F1F4AD2F8142110685479018C0422BD
:10A4C00089B23EE61A4AD2F8A02110685479018C6C
:10A4D000042289B24EE6164AD2F82C22106854792A
:10A4E000018C042289B25EE6114AD2F8B8221068C3
:10A4F0005479018C042289B26EE60D4AD2F84423C5
:10A5000010685479018C042289B27EE60022134639
:10A5100074E7074AD2F8D02310685479018C0422DA
:10A5200089B28BE6CBF8AC3801E500BF24A207085E
:10A530004823002044010010BC2900202DE9F341EC
:10A54000144698460DF10702012306460F4619F0FE
:10A5500043FE88B102201CF063FD9DF8075025EAF8
:10A56000040444EA0802394630468DF807201AF000
:10A5700067F808981CF046FF02B0BDE8F0817B2226
:10A58000F4211AF05DB8F7B5054690F821010028CE
:10A5900036D00609013E052E00F00F0000F2938030
:10A5A0004C4F07EB4603B3F8002142FA00F414F0D5
:10A5B00001040FD0012303FA00F0013810403E449B
:10A5C0006DF094F896F80C31434C184404EBC00439
:10A5D0002623E3802946414B41F80C3F002300939A
:10A5E000F02220461BF0DAFE54B1A388B3FA83F2BE
:10A5F0004FF00043D3401FBF39490A6813430B6033
:10A6000095F8D830072B60D195F81D310226002B24
:10A610005DD1374605F1100480226B2120461AF0E7
:10A620000FF864201CF0EEFE0722682120461AF085
:10A6300007F864201CF0E6FE00226B21204619F08A
:10A64000FFFF64201CF0DEFE01226B21204619F082
:10A65000F7FF0F201CF0D6FEFA001B21204619F050
:10A66000EFFF0F201CF0CEFEF2001C21204619F057
:10A67000E7FF0F201CF0C6FE2846FDF719FD1A2142
:10A680000246204619F0DCFF0F201CF0BBFE95F8B7
:10A6900020211921204619F0D3FF64201CF0B2FEBE
:10A6A00010223721204619F0CBFF0F201CF0AAFE04
:10A6B00001223821204619F0C3FF0F2003B0BDE866
:10A6C000F0401CF09FBE002484E70326A1E7032787
:10A6D000A0E700BF24A20708842A002045BB000889
:10A6E000003C0140F7B5054690F82101002835D01F
:10A6F0000609013E052E00F00F0066D8344F07EB27
:10A700004603B3F8002142FA00F414F001040FD01C
:10A71000012303FA00F0013810403E446CF0E6FFDC
:10A7200096F80C312B4C184404EBC0042623E3802C
:10A730002946294B41F80C3F00230093F022204684
:10A740001BF02CFE54B1A388B3FA83F24FF0004300
:10A75000D3401FBF21490A6813430B6005F1100461
:10A7600080226B21204619F06BFF64201CF04AFE0A
:10A7700003226B21204619F063FF95F8202119214F
:10A78000204619F05DFF0F201CF03CFE2846FDF727
:10A790008FFC1A210246204619F052FF18221B2175
:10A7A000204619F04DFF18221C21204619F048FFC1
:10A7B00002223721204619F043FF0122382120468A
:10A7C00003B0BDE8F04019F03BBF0024B0E700BF84
:10A7D00024A20708842A002045BB0008003C014051
:10A7E00073B5642300F11005009301231A46044653
:10A7F00012212846FFF7A2FE02220D21284619F059
:10A800001FFF01201CF0FEFD02220E21284619F038
:10A8100017FF01201CF0F6FD74221021284619F0C4
:10A820000FFF01201CF0EEFDAC221121284619F08B
:10A8300007FF012601201CF0E5FD44237C221221A4
:10A8400028460096FFF77AFE06231A46132128466B
:10A850000096FFF773FE0023172215212846009665
:10A86000FFF76CFE0223284600961A461821FFF7D0
:10A8700065FE94F82101A8B11BF02EFB054608B136
:10A880002623C3802146084B41F80C3F002328466D
:10A890000093F0221BF082FD284602B0BDE8704014
:10A8A00069F00CBF02B070BDA1880008F7B505467D
:10A8B00090F82101002835D00609013E052E00F050
:10A8C0000F0073D83A4F07EB4603B3F8002142FA62
:10A8D00000F414F001040FD0012303FA00F0013852
:10A8E00010403E446CF002FF96F80C31314C184495
:10A8F00004EBC0042623E38029462F4B41F80C3F8C
:10A9000000230093F02220461BF048FD54B1A38899
:10A91000B3FA83F24FF00043D3401FBF27490A68C0
:10A9200013430B60264819F05DFF05F11004A8825F
:10A9300001226B21204619F029FE0F201CF062FD38
:10A9400018221B21204619F021FE0F201CF05AFD71
:10A9500018221C21204619F019FE0F201CF052FD70
:10A960002846FDF7A5FB1A210246204619F00EFEE7
:10A970000F201CF047FD95F820211921204619F0E1
:10A9800005FE64201CF03EFD10223721204619F000
:10A99000FDFD0F201CF036FD01223821204619F064
:10A9A000F5FD69F06FF9A88203B0F0BD0024A3E7BC
:10A9B00024A20708842A002045BB0008003C01406F
:10A9C00040420F0010B504460D4819F00BFFA0825D
:10A9D00001201CF025FB2046FFF7D5FD1022A01812
:10A9E0006A2119F0D3FD64201CF00CFD054819F014
:10A9F000F9FEA082BDE8104001201CF011BB00BF91
:10AA000040420F00002D310101680B78012B0246F6
:10AA100004D0022B01D10B6A8BB170470A4B132172
:10AA200083F83C1A016891F90400411CF5D0032811
:10AA3000F3DC117903F63C231B2269F0EDBB1322F2
:10AA40001B2119F0A3BD00BF4823002038B51D4DC0
:10AA500095F83D3A04462BB969F014F90123A0801A
:10AA600085F83D3A184819F0BDFE80226B21A08080
:10AA7000204619F08BFD64201CF0C4FC03226821E1
:10AA8000204619F083FD64201CF0BCFCF521204613
:10AA900019F054FEAC2810D00AD812280FD09828EC
:10AAA00014BF00250B2569F0EDF8A080284638BDBD
:10AAB000AF2814BF00250925F5E70725F3E708258A
:10AAC000F1E700BF4823002040420F0038B504469C
:10AAD0001B4819F087FE80226B21A080204619F0C8
:10AAE00055FD64201CF08EFC07226821204619F0D9
:10AAF0004DFD64201CF086FCF521204619F01EFE59
:10AB0000054601201CF08CFA682D17D18C212046B7
:10AB100019F014FE182809D8142834BF002503257D
:10AB2000084819F05FFEA080284638BDA0F1540304
:10AB3000DBB2072B34BF03250025F1E70025EFE743
:10AB400040420F00002D310110B50446154819F0A0
:10AB500049FEF521A080204619F0F0FD702818D09C
:10AB600008D8422817D0472817D0122814BF002031
:10AB7000082010BDAC2812D006D800F0FD007128C6
:10AB800014BF00200620F4E7AF2814BF00200920DE
:10AB9000EFE70520EDE70C20EBE70D20E9E70720C4
:10ABA000E7E700BF002D310110B5044600686AF0E8
:10ABB00015F970B9084B93F83E2A12B193F846057F
:10ABC00030B12046054A0223F6216BF05FFD0120DB
:10ABD00010BD0020FCE700BF48230020E028002033
:10ABE00010B5044600686AF0F9F870B9084B93F89C
:10ABF0003E2A12B193F8460530B12046054A032398
:10AC0000F6216BF043FD012010BD0020FCE700BFE2
:10AC100048230020E028002010B5044600686AF0B0
:10AC2000DDF838B92046044A0623F7216BF02EFDE3
:10AC3000012010BD0020FCE7E328002008B50368D0
:10AC40001A78012A06D0094A062304216BF01EFD5A
:10AC5000012008BD93F90430054A03EB830302EB9E
:10AC6000C3035B7F002BEED0002008BDF02800203E
:10AC70004823002008B503681A78012A06D0094A3B
:10AC8000062300216BF002FD012008BD93F904307A
:10AC9000054A03EB830302EBC3035B7F002BEED07B
:10ACA000002008BD202900204823002010B50446BC
:10ACB00000686AF093F8014690B923681A78022A6E
:10ACC00008D1196A21B9074A0323204619F04EFB1F
:10ACD000012006E0034A032320466BF0D7FCF7E788
:10ACE000002010BD54290020E0E710B5044600689C
:10ACF0006AF074F838B92046044A0623F7216BF04D
:10AD0000C5FC012010BD0020FCE700BF7029002019
:10AD100058216AF075B848216AF072B8BFF34F8FB6
:10AD20000549064BCA6802F4E0621343CB60BFF3E7
:10AD30004F8F00BFFDE700BF00ED00E00400FA0503
:10AD40001648174A174938B5174C184D121A6FF0A4
:10AD5000B3F9D4F88820164B164842F47002C4F8B0
:10AD600088201A68002142F001021A6099601A686E
:10AD700022F0847222F480321A6058601A6822F439
:10AD800080221A600C4AD960521B28460B496FF08A
:10AD900093F9A560BDE83840FDF732B90000001016
:10ADA000080000108300090800ED00E0000000200A
:10ADB0000038024010300024880100200000000804
:10ADC0002DE9F04302691778012F85B004460D463E
:10ADD00018D10B79013B13714B79002B08BF682305
:10ADE00000F1100803754FF000093B460DF1050214
:10ADF000752140468DF8059019F0EEF906460028B9
:10AE000035D1226902231370EB7823B9002630462E
:10AE100005B0BDE8F08304F11009A978484619F09F
:10AE200011FD06460028F1D0E8781BF055F8A06126
:10AE30002B780133DBB210B1C37122238371092156
:10AE40001BF06EFAA069DFF800813E4F19F0F4FCA8
:10AE500002E058F8047F5FB34846B847034600282D
:10AE6000F7D0206984F8D8306BF0C2F8CFE72069BA
:10AE70006BF0BEF83B4649460DF10602404619F01C
:10AE8000ABF99DF8063003F07E038DF8063008B16B
:10AE9000682B14D09DF8053003F07E03682B8DF8E5
:10AEA00005300FD0702BB2D1042384F8D830AEE730
:10AEB000E8781BF011F81BF052FA3E46A7E784F839
:10AEC000D870A4E70222062384F8D820194602AAE3
:10AED000404619F081F9E0B19DF80D309DF80B2046
:10AEE0009B00520002F0020203F0040313439DF89A
:10AEF000092002F0010213430BD0012B1DD0022BBD
:10AF000017D003F00303032B13D003201CF0F8FD2C
:10AF10007DE701230DF1070240460C2119F05CF991
:10AF20000028F2D09DF8073013F00F03EDD0042B6A
:10AF300003D0012384F8D93069E7002384F8D9309D
:10AF400065E700BFCDAA000838A3070843680B4A8D
:10AF500023F0407323F4807343F480734360836869
:10AF60001A4042F002028260C36A0139CAB223F475
:10AF7000700141EA0251C162704700BFFDF7FFC096
:10AF8000704700BF0020FDF7A7B800BF0120FDF704
:10AF9000A3B800BF0220FDF79FB800BF431C00F01C
:10AFA00044812DE9F04FDFF8CCA300EB80030AEBDE
:10AFB000C30287B0D2F80480810005460191DB000E
:10AFC000B8F1000F05D0D468002C00F0FD80A17905
:10AFD00011B107B0BDE8F08FD2F81090B9F1000FB1
:10AFE00000F03B8199F80620002AF2D118330AF1CB
:10AFF0000406F018D8F80470F250691CC0E9012268
:10B000001523C260C9B2A3711623E17189F8071034
:10B0100089F8063098F8180069F058F9BB8822685A
:10B02000A18823F440731B041B0CBB80D9F80030AB
:10B030001183B9F804201A83112120461AF090FFD9
:10B04000112148461AF08CFF09264FF0330B05E01A
:10B05000BBF1010B00F0E3801BF0E2FF0A20002CA3
:10B06000F6D02268A18813691942F1D051830520D6
:10B070001BF0D6FF2368A2881A8305201BF0D0FF9F
:10B08000013EE2D1002C00F00D812368A2885A8392
:10B0900005201BF0C5FFB9F1000F00F02B81D9F896
:10B0A0000030B9F804205A8305201BF0B9FF23684B
:10B0B000A2881A8305201BF0B3FFD9F80030B9F835
:10B0C00004201A83019B20465C190AEBC404A37D6B
:10B0D000227D002B14BF3221122118F03DFEA37DEA
:10B0E000627D002B14BF32211221484618F034FE35
:10B0F0009A4B9F4200F0E880994B9F4200F0EF800E
:10B10000984B9F4200F00081019B2B440AEBC30A3D
:10B110004FF47A73BAF8184003FB04F4BB8823F4A5
:10B1200040731B041B0CBB803B889BB243F00103A4
:10B130003B80BD8802A85FF0D7F825F03F05049852
:10B14000894B2D04A3FB00232D0C45EA9345BD80BC
:10B150003A8822F001021204120C3A80834A990CB8
:10B1600094420B4662DC6200B0FBF2F292B2013311
:10B17000042A38BF04223B84BA833B889BB243F045
:10B1800001033B803B8823F4816323F002031B040B
:10B190001B0C4FF4804143F480633B8039813B8832
:10B1A00023F080031B041B0C00223B8098F81A003C
:10B1B000114667F089FA002298F81900114607B085
:10B1C000BDE8F04F67F080BAD2F81090B9F1000FE7
:10B1D00000F0A58099F80620002A7FF4FAAE183313
:10B1E0000AF10401CA18D8F80470CC50C2E901442D
:10B1F0001623D46089F806306B1C89F8073098F85C
:10B20000180069F063F8BB88B9F8042023F4407390
:10B210001B041B0CBB80D9F800301A8310E7002CEC
:10B220003DD105201BF0FCFE27E7704704EB4404EA
:10B23000B0FBF4F082B2C0F30B0008B942F0010297
:10B240004FF4967301FB03F34949A1FB03139B09D8
:10B25000013342F400423B848EE70AF104011833C3
:10B26000CA18D8F8047041F80390C2E9019915236F
:10B27000C2F80C90A371431CE37198F8180069F0B0
:10B2800025F8BB88A28823F440731B041B0CBB80E9
:10B29000236811211A8320461AF062FED4E6226840
:10B2A000A188E3E605201BF0BBFEB9F1000F4DD0ED
:10B2B000D9F80030B9F804205A8305201BF0B0FEFD
:10B2C00005201BF0ADFEF8E603F5F2331A6A42F4EE
:10B2D00000121A621A6A22F400121A6214E703F5C5
:10B2E000F0331A6A42F480021A621A6A22F4800267
:10B2F0001A6209E705201BF093FE2368A2881A83CF
:10B3000005201BF08DFEDDE603F5EE331A6A42F4EC
:10B3100000021A621A6A22F400021A62F4E6183372
:10B320000AF10401CA18D8F8047041F80390C2E980
:10B330000199C2F80C9098F8180068F0C7FFBB8814
:10B3400023F440731B041B0CBB807DE605201BF01F
:10B3500067FE05201BF064FEB4E600BF0054004009
:10B3600000580040005C004083DE1B43A0860100C3
:10B37000D34D6210482300202DE9F84307461BF007
:10B38000ADFDDFF84C8007EB8709044608EBC905E3
:10B3900042F20F7604E01BF0A1FD031BB3420ADC6E
:10B3A0006B7F002BF7D108EBC90898F81C0080F0E0
:10B3B0000100BDE8F883B8F8403A013338469BB243
:10B3C000A8F8403AFFF7EAFD0020BDE8F88300BF87
:10B3D0004823002010B582B08DF80730431C0CD0F4
:10B3E0000328044609DC0DF1070368F015FF20B1BE
:10B3F0002046FFF7C1FF02B010BD002002B010BD13
:10B4000070B5284D00EB800305EBC30384B05A6888
:10B410005468A28A92B20392039A12F4706F1CBF0E
:10B4200001221A77039B13F4E06F4FEA80060CD1D8
:10B43000A38A304423F4706305EBC0051B041B0C86
:10B440000022A3826A7704B070BD238BA38823F403
:10B4500080631B041B0CA380039B9A05E8D42388FC
:10B460009B05E5D42388D9050FD52388DA05FCD4BC
:10B4700023889BB243F40073238023889B05FCD46C
:10B480000190FFF78BFD0198D2E723889BB243F42C
:10B4900000732380A38823F440731B041B0CA38038
:10B4A000C6E700BF482300200020A9E70120A7E746
:10B4B0000220A5E72DE9F84F304F00EB800407EBA1
:10B4C000C404D4F80880B8F1000F04D09A46637F12
:10B4D00003F0FF0923B14FF000094846BDE8F88F9B
:10B4E0000E46934605461BF0F9FC0A9B7600F6B221
:10B4F000C4E909330123A67784F81FB084F82190AA
:10B5000084F8223084F820A0637784F81C90B8F87F
:10B5100004209105064622D4B8F80030DA0512D48A
:10B5200042F20F7404E01BF0D9FC831BA3421ADC27
:10B53000B8F800309B05F6D4B8F800309BB243F45D
:10B540008073A8F80030B8F804309BB24FF00109BE
:10B5500043F44073A8F804304846BDE8F88F994694
:10B560004846BDE8F88FB7F8403A01339BB2284609
:10B57000A7F8403AFFF712FDAFE700BF48230020CD
:10B58000F8B5724C04EB0016D6F8443A002B00F0E4
:10B590008A800546070196F84C0A68F097FE96F8EF
:10B5A0004C3A590903F01F0203294FF0010303FA33
:10B5B00002F300F08E8004297BD0022974D0E319B5
:10B5C000013593F8480A1AF087FCEDB2064610B12F
:10B5D00012238371C571E31993F8490A1AF07CFCB0
:10B5E00010B11323C5718371E31993F84A0A1AF055
:10B5F00073FC10B11423C57183713C444A2194F843
:10B600004B2A304618F0A8FB94F8490A1AF064FC5B
:10B6100094F84B2A2A2118F09FFB94F84A0A1AF052
:10B620005BFC94F84B2A0A2118F096FBD4F8442AC4
:10B63000474B9A4252D0474B9A423FD0464B9A4290
:10B6400057D0464B9A425FD0454B9A4267D0454B04
:10B650009A426FD0444990884C880B884D89234387
:10B660008C882343CC8820F0030023430C890004FA
:10B67000000C23438C8990802B4310882343CC8972
:10B68000098A00F44150234303439BB21380938BF8
:10B6900023F400631B041B0C9383118213889BB259
:10B6A00043F040031380F8BD304A516A0B435362A4
:10B6B00085E72E4A11690B43136180E703F50033D8
:10B6C000196A41F480411962196A21F480411962B2
:10B6D000C0E7264A116A0B43136270E703F584330F
:10B6E000596A41F480515962596A21F48051596272
:10B6F000B0E703F5FE33196A41F400411962196A93
:10B7000021F400411962A5E703F58233596A41F437
:10B7100000515962596A21F4005159629AE703F5C0
:10B720006843596A41F480115962596A21F48011C1
:10B7300059628FE703F56443596A41F40011596275
:10B74000596A21F40011596284E700BF48230020A0
:10B750000030014000380040003C0040003401400F
:10B760000050014000540140880100200038024090
:10B7700010B404698269E468416814604024D460AC
:10B78000446900230C31C2E90433C2E90633C2E93B
:10B790000833C2E90A33C2E90C3393609363516002
:10B7A00084B1C269E0689363C2E90233C2E9043339
:10B7B000C2E90633C2E90833C2E90A33C2E90C33ED
:10B7C000C2E900015DF8044B704700BF43680022E6
:10B7D0001A60037D1F2B08D9203B2022016802FA42
:10B7E00003F343F01803CB6070472022016802FA8C
:10B7F00003F343F018038B60704700BF0268136ABD
:10B8000011B1D96901B3143330B49C681D689169D2
:10B81000DDB14FF4806088618D60104640690C6135
:10B8200080B15968D369C9B10A464FF480619A6002
:10B830009961224312F0010F14BF00224FF400520D
:10B840001A621C6130BC704770478D61054D4FF026
:10B85000FF0C05F812CF00688D60DFE7024A9A609E
:10B860009961E6E788010020BC2D0020F8B58368C7
:10B87000044613B11A689B8853832168D1E90423D5
:10B880005568002B49D09C61107D5E681F2831D817
:10B890001768202202FA00F040F01800B8601A7D04
:10B8A0001F2A32D91868203A202303FA02F242F004
:10B8B0001802C26000232B6033603368896943F04B
:10B8C0001003336028465EF009FE23683046D969CC
:10B8D0005EF004FE2B68226843F001032B6033689E
:10B8E000526843F00103336093889BB243F0030333
:10B8F0009380F8BD17682038202202FA00F040F04B
:10B900001800F8601A7D1F2ACCD81868202303FA83
:10B9100002F242F018028260CCE7137D94611F2B83
:10B920001CD81068202202FA03F343F01803836046
:10B9300000232B602B68896943F010032B60284695
:10B940005EF0CCFD2B68226843F0010352682B6047
:10B9500093889BB243F002039380F8BD1068203BAC
:10B96000202202FA03F343F01803C360E0E700BFAC
:10B970002DE9F843DFF8C8916F4F0646356896F811
:10B9800088806B68B088012285F824201A8822F00C
:10B9900040021204120C1A802A89824223D019888C
:10B9A00021F0380109044B454FEA114100F0AC8009
:10B9B000624A934200F0A8800246B2F5807FA8BF99
:10B9C0004FF48072022AB8BF0222002A92FAA2F231
:10B9D000B2FA82F208BF4FF0FF32013A41EAC202E6
:10B9E00092B21A802881317BAA7A8A420BD01A88B7
:10B9F00022F003021204120C1A801A8892B2002953
:10BA00007FD01A80A9721A8892B242F040021A803E
:10BA10002A6A916841B34FF0000E1432F44652F88E
:10BA2000100C8C4400EA070120B1B1F1805F1BD0FB
:10BA30006969C9B152F8141C143201EA070011B146
:10BA4000B0F1805F10D052F80C1C0EF1010E0029ED
:10BA5000E5D12A7B42B1B8F1000F05D0BEF1010F4C
:10BA600060D8BCF1080F5DD82A6A9268002A4DD0D0
:10BA7000B26812B1116892884A83286A296A2A6AD0
:10BA8000046892684968501E9AB12CB3224612F895
:10BA900001CB14461A899207FCD5A3F80CC01A8969
:10BAA000D207FCD59A8992B209B101F8012B01386D
:10BAB000EBD22B6A1B7BEBB92B6A1B6993B12B6A08
:10BAC000D6F894001B699847012808D0022809D1AC
:10BAD00000232B62BDE8F8834FF0FF0CDAE72B6AF6
:10BAE000143B2B622B6A14332B622B6A9B686BB15D
:10BAF0006B68BDE7B368002BDED01A689B881383A0
:10BB0000DAE742F003027CE7420856E72B6A1B683B
:10BB100083B12A6A2B6A16685A682B6A2A62002245
:10BB20001A602BE730460021FFF768FE3046BDE87B
:10BB3000F8439BE62B62CDE70000FFFF003C00408E
:10BB40000038004038B5D0F8E0102B4B04465A6856
:10BB5000D0F8D80071B1131A99420BDC94F8D030A8
:10BB6000C4F8D820012B10D0D4F8D4300133C4F855
:10BB7000D43038BDD4F8E430C4F8D8200344C4F835
:10BB8000DC3094F8D030012BEED16168201D04F137
:10BB9000E805EFF3118C102383F3128863681B6AA6
:10BBA000ABB1D4F8F0302A461BB1D3691432002B64
:10BBB000FBD10B6A63B1996839B9934216D0196801
:10BBC00091B15B6899680029F7D01433F3E70D62EF
:10BBD0005FFA8CFC8CF31188FFF7CAFED4F8D430DE
:10BBE0000133C4F8D43038BDC3E900055FFA8CFCDA
:10BBF0008CF31188B8E700BF001000E0F0B585694C
:10BC00002A691378012B97B0044606D0022B01D184
:10BC1000136A33B3002017B0F0BD92F90460731CAF
:10BC2000F8D0032EF6DC04AB297D00933B220623DB
:10BC30003046FFF73FFC0028ECD03046FFF79CFB76
:10BC40000028E7D0BDF81010BDF81220BDF8143060
:10BC500049BA52BA5BBA0120E1812282638217B0ED
:10BC6000F0BDCDE90A3307938DF824300F9312937A
:10BC70001493012308938DF838308DF84C30BB2392
:10BC80009FED1F7B8DF80F300DF10F03069304AB72
:10BC90000C9306238DED107B05F110000D93EFF34F
:10BCA0001186102383F312882B691B6AABB1089BA2
:10BCB00006AF39461BB1CB691431002BFBD1136A97
:10BCC0006BB19A683AB9994215D01A688AB15B6823
:10BCD0009A68002AF7D01433F3E706AB1362F6B282
:10BCE00086F31188FFF744FE2A69136A002BFCD102
:10BCF000A8E7C3E90007F6B286F31188F4E700BFAE
:10BD0000000000000000000070B502691378012BEC
:10BD100096B0044606D0022B01D1136A4BB3002023
:10BD200016B070BD92F904506B1CF8D0032DF6DCF0
:10BD300004AB017D0093432206232846FFF7BAFB9C
:10BD40000028ECD02846FFF717FB0028E7D0BDF805
:10BD50001010BDF81220BDF8143049BA52BA5BBABF
:10BD60000120A4F8D010A4F8D220A4F8D43016B042
:10BD700070BD9FED277B0121CDE907310DF10F004B
:10BD8000CDE90A33C3258DF824308DF838108DF8AD
:10BD90004C100F931293149304A906230690CDE937
:10BDA0000C138DED107B04F110008DF80F50EFF3A4
:10BDB0001185102383F3128823691B6AABB1089B9A
:10BDC00006AE31461BB1CB691431002BFBD1136A8F
:10BDD0006BB19A683AB9994215D01A688AB15B6812
:10BDE0009A68002AF7D01433F3E706AB1362EDB27A
:10BDF00085F31188FFF7BCFD2269136A002BFCD183
:10BE0000A5E7C3E90006EDB285F31188F4E700BFAA
:10BE10000000000000000000F7B5044690F8210182
:10BE2000002836D00609013E052E00F00F0000F272
:10BE3000A280534F07EB4603B3F8002142FA00F506
:10BE400015F001050FD0012303FA00F0013810406E
:10BE50003E446BF04BFC96F80C314A4D184405EB10
:10BE6000C0052623EB802146474B41F80C3F0023B9
:10BE70000093F02228461AF091FA55B1AB88B3FA34
:10BE800083F24FF00043D3401FBF40490A68134379
:10BE90000B603F4818F0A6FC04F1100503226B214B
:10BEA000A082284618F072FB0F201BF0B9F8102270
:10BEB0006A21284618F06AFB0F201BF0B1F8002217
:10BEC0006C21284618F062FB0F201BF0A9F894F8AB
:10BED00020211921284618F059FB0F201BF0A0F84B
:10BEE00018221B21284618F051FB0F201BF098F850
:10BEF00018221C21284618F049FB0F201BF090F84F
:10BF000010223721284618F041FB0F201BF088F83B
:10BF100001223821284618F039FB0F201BF080F849
:10BF20001C4818F05FFCA08201201BF079F818482B
:10BF300018F058FCA0822046FCF7BAF81A210246F5
:10BF4000284618F023FB01201BF06AF8114818F06E
:10BF500049FCA0822046FFF7D7FE94F9D230013386
:10BF60000BD194F9D030013307D1062003B0BDE8DE
:10BF7000F0401BF0C5BD002575E703B0F0BD00BF64
:10BF800024A20708842A002045BB0008003C014089
:10BF900040420F00002D31012DE9F041826992F8F5
:10BFA000DC30012B8AB0054649D0023B012B51D829
:10BFB000D2F89C302D4CBB221A708669D6F8A0307E
:10BFC000D6F810805F1C0FCCEC46ACE80F00D6F81A
:10BFD0009C30CDE900370FCCACE80F0094E80300AB
:10BFE00006F1100E8CE80300EFF31180102383F3A9
:10BFF000128833691B6AABB1029B6A461BB1D369D5
:10C000001432002BFBD1D8F820306BB1996839B9C4
:10C01000934227D0196809B35B6899680029F7D063
:10C020001433F3E7C8F820D0C0B280F3118870460B
:10C03000FFF79EFCAA6911690B6A002BFCD1D2F8AC
:10C04000A0305A8852BAEA819A8852BA2A82DB888A
:10C050005BBA6B8201200AB0BDE8F081C3F800E052
:10C06000C3F804D0C0B280F31188E3E750A30708F7
:10C070002DE9F04190F8DC30D0F8A050012B8AB0C7
:10C08000044657D016D8D0F89C304FF0FF321A60D3
:10C090005A609A60DA60D0F8E0300522B3F57A7F12
:10C0A000C0F8F02056D8032380F8DC3001200AB015
:10C0B000BDE8F081023B012BF8D8D0F89C304B4E04
:10C0C000C3221A70D0F8A030D0F8108003F1010E0E
:10C0D00000F110070FCEEC46ACE80F00D4F89C300E
:10C0E000CDE9003E0FCEACE80F0096E803008CE8E7
:10C0F0000300EFF31180102383F3128823691B6A76
:10C10000002B4BD0029B6A461BB1D3691432002B23
:10C11000FBD1D8F82030002B42D0996841B9934226
:10C120005BD01968002955D05B6899680029F6D062
:10C130001433F2E76B895BBAA0F8D030AB895BBAF5
:10C14000A0F8D230EB895BBAA0F8D43001200AB055
:10C15000BDE8F08103691A7B002A42D05B69002B9D
:10C160003FD090F89830002B3BD0D0F89C30C4F8EA
:10C17000A400BB221A70D0F8A030D4F89C101C4840
:10C18000C4F8040101220F251344C4E93D13C4F887
:10C19000FC5084F8002184F8DC2087E7C8F820D020
:10C1A000C0B280F311883846FFF7E2FB2269136AB8
:10C1B000002BFCD16B885BBAA4F8D030AB885BBA9B
:10C1C000A4F8D230EB8801205BBAA4F8D4300AB0CE
:10C1D000BDE8F0811F60C3F804D0C0B280F31188BD
:10C1E000E4E7022384F8DC3060E700BF50A30708CF
:10C1F0008D8000082DE9F04FAA4BAB4A1968B2EBCD
:10C20000910F93B0054680F0AB81B2EBD10F80F077
:10C21000A581B2EB111F80F0A581B2EB511F80F018
:10C22000A781B2EB911F80F0A181B2EBD11F80F00A
:10C23000A181B2EB112F34BF4FF480728022A96824
:10C24000AA8011B10A6889885183984A5268C2F35A
:10C250000802002A40F00381EFF31182002A40F027
:10C26000FE804FF0E024D3F86C26A069D3F86C165A
:10C270008A42F8D1D3F8801A8142F4D3D3F87C6A89
:10C280004FF47A7404FB06F1091AB1FBF6F104FBD2
:10C290000211864E4FF0E0204FF47A744FF0100CEC
:10C2A00001277268C2F30802002A40F09F80EFF372
:10C2B0001182002A40F09A80D3F86C86D0F818E0FA
:10C2C000D3F86C269045F7D1D3F8802A9645F3D859
:10C2D000D3F87C9A04FB09F2A2EB0E02B2FBF9F24E
:10C2E00004FB0822521AB2F57A7FDAD3AA6812B197
:10C2F000116892880A836D480A2410264FF0E021C5
:10C300004FF47A7C4FF0010B4268C2F30802002A16
:10C3100040F08E80EFF31182002A40F08980D3F83C
:10C320006C26D1F81880D3F86C76BA42F7D1D3F8DE
:10C33000807AB845F3D8D3F87C9A0CFB09FEAEEBB3
:10C34000080EBEFBF9FE0CFB02EE4268C2F30802C7
:10C3500052BBEFF311823ABBD3F86C76D1F8189048
:10C36000D3F86C269742F7D1D3F8802A9145F3D8B9
:10C37000D3F87CAA0CFB0AF2A2EB0902B2FBFAF298
:10C380000CFB0722A2EB0E02B2F57A7FDDD3013C53
:10C39000BAD12B68ADF804401A6A002A00F08880F0
:10C3A000204613B0BDE8F08FEFF3118986F31288B1
:10C3B000D1F818A00A69D20344BFC3F878BAD1F8FB
:10C3C00018A0D3F86C26D3F8787A5FFA89F989F344
:10C3D000118807EB0208D3F87C7A0CFB07F2A2EB7A
:10C3E0000A02B2FBF7F20CFB0822CBE7EFF3118253
:10C3F0008CF31288D0F81880D0F810E01EF4803F3B
:10C4000003D0C3F8787AD0F81880D3F86C96D3F8B4
:10C4100078EAD2B282F31188CE44D3F87C9A04FB36
:10C4200009F2A2EB0802B2FBF9F204FB0E2259E773
:10C43000EFF3118E86F31288D1F818800A69D703BA
:10C4400044BFC3F878BAD1F81880D3F86C96D3F803
:10C45000782A5FFA8EFE8EF311884A446BE7EFF379
:10C460001181102282F312884FF0E0229069146942
:10C47000E40303D50120C3F8780A9069D3F86C4629
:10C48000D3F8782AC9B281F31188D3F87C6A1119DC
:10C490004FF47A7404FB06F2121AB2FBF6F204FBB4
:10C4A0000121F6E6482300208096980000ED00E088
:10C4B00080218DF803100DF10301029101A908916B
:10C4C00002210122099100200021CDE90342CDE99A
:10C4D0000644CDE90C018DF814408DF828208DF824
:10C4E0003C200B940E941094EFF31182102181F3F1
:10C4F00012882968096AB1B1049902A8002933D0C9
:10C500000146CC691431002CFBD11B6A6BB19C68CD
:10C510003CB999421ED01C68D4B15B689C68002C61
:10C52000F7D01433F3E702A91962D2B282F311886B
:10C530002846FFF71DFA2B681A6A002AFCD19DF8DD
:10C540000530242B14BF00200F2013B0BDE8F08F5E
:10C55000C3E90050D2B282F31188ECE704226EE600
:10C5600002226CE608226AE60146CEE7202266E651
:10C57000102264E6402262E638B504462449D0F829
:10C58000D83094F8D020D0F8E40049680344012A58
:10C59000C4E9361305D0D4F8D4300133C4F8D4300C
:10C5A00038BD6168201D04F1E805EFF3118C1023FC
:10C5B00083F3128863681B6AABB1D4F8F0302A4663
:10C5C0001BB1D3691432002BFBD10B6A63B199689C
:10C5D00039B99A4216D0196891B15B6899680029F7
:10C5E000F7D01433F3E70D625FFA8CFC8CF31188FB
:10C5F000FFF7BEF9D4F8D4300133C4F8D43038BDD5
:10C60000C3E900055FFA8CFC8CF31188C3E700BF17
:10C61000001000E0F0B5826992F8DC30012B8BB09D
:10C62000054648D0023B012B4DD8D2F89C302B4C0C
:10C630008C221A7086690FCCEC46D6F810E0ACE874
:10C640000F00D6F89C300093D6F8A03001930FCCA1
:10C65000ACE80F0094E8030006F110078CE8030033
:10C66000EFF31180102383F3128833691B6AABB197
:10C67000029B6A461BB1D3691432002BFBD1DEF852
:10C6800020306BB1996839B9934222D01968E9B169
:10C690005B6899680029F7D01433F3E7CEF820D00F
:10C6A000C0B280F311883846FFF762F9AA691169B0
:10C6B0000B6A002BFCD1D2F8A0305A88EA819A8804
:10C6C0002A82DB886B8201200BB0F0BD1F60C3F8AB
:10C6D00004D0C0B280F31188E8E700BF78A3070850
:10C6E0002DE9F04190F81E31012B8AB0044671D03B
:10C6F00090F8DC30D0F8A060012B00F09D8016D8B7
:10C70000D0F89C3000221A605A609A609A81D0F862
:10C71000E0300522B3F57A7FC0F8F0204DD803232E
:10C72000012580F8DC3028460AB0BDE8F081023BE4
:10C73000012B4AD8D0F89C30DFF828E292221A70F8
:10C74000D0F8108000F11007BEE80F006D46AC462F
:10C75000ACE80F00BEE80F00ACE80F009EE8030055
:10C76000D4F89C308CE803000093D4F8A0300193F7
:10C77000EFF31180102383F3128823691B6A002BC7
:10C7800000F09D80029B2A461BB1D3691432002B16
:10C79000FBD1D8F82030002B00F09380996851B974
:10C7A000934200F0A8801968002900F0A2805B681D
:10C7B00099680029F4D01433F0E703691A7B002A42
:10C7C00040F0A580022384F8DC30012528460AB019
:10C7D000BDE8F0815F4860498DF80C300022CDE95A
:10C7E00000010A210291CDE90422CDE90622216946
:10C7F0008DF8203004F110060992EFF31180102318
:10C8000083F3128823691B6A23B3029B6D462A4671
:10C810001BB1D3691432002BFBD10B6AE3B19968C9
:10C8200041B9934247D01968002942D05B689968A2
:10C830000029F6D01433F2E73289A0F8D0207289AB
:10C84000A0F8D220B289A0F8D4201D4628460AB00C
:10C85000BDE8F081C1F820D0C0B280F31188304625
:10C86000FFF786F82269136A002BFCD13B49B1F827
:10C87000862A052A1BDDB1F9880AD1F8885AB1F950
:10C880008A7AB1F98C1A10F5004F38D0C4F8D0501C
:10C89000A4F8D4100125063A002A97D03046B022D9
:10C8A0007E2117F073FE28460AB0BDE8F0811D46D0
:10C8B000F2E7C3E90065C0B280F31188D2E7C8F897
:10C8C0002050C0B280F311883846FFF751F8226932
:10C8D000136A002BFCD17388A4F8D030B388A4F875
:10C8E000D230F388A4F8D430012528460AB0BDE838
:10C8F000F081C3E90075C0B280F31188E7E717F54E
:10C90000004FC3D111F5004FC0D11D46C3E75B698D
:10C91000002B3FF457AF90F89850002D3FF452AFE2
:10C92000D0F89C30C4F8A4008C221A70D0F8A02053
:10C93000C0F8F8200E2201230949C0F8FC20D0F8E5
:10C940009C20C0F80411C0F8F42080F8003180F871
:10C95000DC303BE79C010020CC2D00204823002048
:10C960006D88000878A307082DE9F04F054697B0B9
:10C9700000F1100795F81E310393B62238467E2148
:10C9800017F004FEC54CC64807EE907A4FF0640AD3
:10C990004FF010084FF0E0224FF47A7E4FF001097B
:10C9A0004368C3F30803002B40F03487EFF311838F
:10C9B000002B40F02F87D4F86C369669D4F86C16AB
:10C9C0008B42F8D1D4F8801A8E42F4D8D4F87C7A0D
:10C9D0000EFB07F18E1BB6FBF7F60EFB03664368F2
:10C9E000C3F30803002B40F0CE85EFF31183002B37
:10C9F00040F0C985D4F86C769369D4F86C168F42F0
:10CA0000F8D1D4F8801A8B42F4D8D4F87C1A0EFBF3
:10CA100001FCACEB0303B3FBF1F30EFB07339B1BF1
:10CA2000B3F57A7FDBD3BAF1010AB9D1AB6917EE5E
:10CA3000907A13B11A689B885383994B5B68C3F350
:10CA40000803002B41F0B482EFF31183002B41F077
:10CA5000AF824FF0E026D4F86C26B069D4F86C367B
:10CA60009A42F8D1D4F8803A9842F4D8ACEB00035B
:10CA7000B3FBF1F34FF47A7101FB0233884E4FF0B0
:10CA8000E0214FF47A704FF0100E4FF0010C7268F5
:10CA9000C2F30802002A40F08B85EFF31182002ACE
:10CAA00040F08685D4F86C96D1F81880D4F86C26BE
:10CAB0009145F7D1D4F8802A9045F3D8D4F87CAAD0
:10CAC00000FB0AF2A2EB0802B2FBFAF200FB092219
:10CAD000D21AB2F57A7FDAD3AB6913B11A689B88A0
:10CAE0001383DFF8BC810A224FF010094FF0E021D8
:10CAF0004FF47A7C4FF0010ABB46D8F80430C3F3F8
:10CB00000803002B40F0A486EFF31183002B40F0C4
:10CB10009F86D4F86C368E69D4F86C068342F8D1BF
:10CB2000D4F8800A8642F4D8D4F87C7A0CFB07F05B
:10CB3000801BB0FBF7F00CFB0300D8F80430C3F304
:10CB40000803002B40F0FE84EFF31183002B40F02C
:10CB5000F984D4F86C668F69D4F86C369E42F8D1AB
:10CB6000D4F8803A9F42F4D8D4F87CEA0CFB0EF358
:10CB7000DB1BB3FBFEF30CFB06331B1AB3F57A7F0A
:10CB8000DBD3013AB9D17C21584617F0FFFC444B66
:10CB90005B68C3F308035F46002B41F0E581EFF3C8
:10CBA0001183002B41F0E0814FF0E020D4F86C3687
:10CBB0008169D4F86C269342F8D1D4F8802A914246
:10CBC000F4D8D4F87C6A4FF47A7000FB06F2521A5B
:10CBD000B2FBF6F200FB0322314E4FF0E0214FF49E
:10CBE0007A704FF0100E4FF0010C7368C3F3080316
:10CBF000002B40F0AB85EFF31183002B40F0A685AE
:10CC0000D4F86C96D1F81880D4F86C369945F7D1E1
:10CC1000D4F8803A9845F3D8D4F87CAA00FB0AF3FC
:10CC2000A3EB0803B3FBFAF300FB09339B1AB3F53C
:10CC30007A7FDAD300225921384617F0A7FC184B27
:10CC40005B68C3F30803002B41F06A81EFF31183A3
:10CC5000002B41F065814FF0E020D4F86C368169FB
:10CC6000D4F86C269342F8D1D4F8802A9142F4D8B3
:10CC7000D4F87C6A4FF47A7000FB06F2521AB2FBC9
:10CC8000F6F200FB0322064E4FF0E0214FF47A70DB
:10CC90004FF0100E4FF0010C04E000BF48230020BD
:10CCA00000ED00E07368C3F30803002B40F07185CA
:10CCB000EFF31183002B40F06C85D4F86C96D1F81B
:10CCC0001880D4F86C369945F7D1D4F8803A984555
:10CCD000F3D8D4F87CAA00FB0AF3A3EB0803B3FB58
:10CCE000FAF300FB09339B1AB3F57A7FDAD35E239C
:10CCF0008DF817300DF117030693002307938DF875
:10CD000024300A930C930F931293149301230893E6
:10CD10008DF838308DF84C30154B0B934FF4A473CD
:10CD20000D9300220023CDE910232869EFF311822F
:10CD3000102383F312882B691B6ADBB1089B06AEB4
:10CD400031461BB1CB691431002BFBD1036A9BB177
:10CD5000986850B98B4200F046861868002800F0A9
:10CD600040865B6898680028F4D01433F0E700BF71
:10CD7000A0A3070806AB0362D2B282F3118838463B
:10CD8000FEF7F6FD2A69136A002BFCD1DFF8E4E315
:10CD90004FF00A0A4FF010084FF0E0224FF47A7675
:10CDA0004FF00109BB46DEF80430C3F30803002B43
:10CDB00040F01285EFF31183002B40F00D85D4F87D
:10CDC0006C369069D4F86C168B42F8D1D4F8801A7E
:10CDD0008842F4D8D4F87C7A06FB07F1091AB1FB33
:10CDE000F7F106FB0311DEF80430C3F30803002B50
:10CDF00040F08883EFF31183002B40F08383D4F855
:10CE00006C069769D4F86C369842F8D1D4F8803A19
:10CE10009F42F4D8D4F87CCA06FB0CF3DB1BB3FBAF
:10CE2000FCF306FB00335B1AB3F57A7FDBD3BAF170
:10CE3000010AB8D101225921584617F0A7FBCD4B62
:10CE40005B68C3F308035F46002B41F04580EFF3B6
:10CE50001183002B41F040804FF0E020D4F86C3675
:10CE60008169D4F86C269342F8D1D4F8802A914293
:10CE7000F4D8D4F87C6A4FF47A7000FB06F2521AA8
:10CE8000B2FBF6F200FB0322BA4E4FF0E0214FF462
:10CE90007A704FF0100E4FF0010C7368C3F3080363
:10CEA000002B40F03084EFF31183002B40F02B84F3
:10CEB000D4F86C96D1F81880D4F86C369945F7D12F
:10CEC000D4F8803A9845F3D8D4F87CAA00FB0AF34A
:10CED000A3EB0803B3FBFAF300FB09339B1AB3F58A
:10CEE0007A7FDAD3039B012B00F02086AB2240210E
:10CEF000384617F04BFB9F4B5B68C3F30803002BCE
:10CF000041F0AB81EFF31183002B41F0A6814FF08C
:10CF1000E020D4F86C368169D4F86C269342F8D1BD
:10CF2000D4F8802A9142F4D8D4F87C6A4FF47A700D
:10CF300000FB06F2521AB2FBF6F200FB03228D4E02
:10CF40004FF0E0214FF47A704FF0100E4FF0010CCB
:10CF50007368C3F30803002B40F0B383EFF311832E
:10CF6000002B40F0AE83D4F86C96D1F81880D4F83A
:10CF70006C369945F7D1D4F8803A9845F3D8D4F86F
:10CF80007CAA00FB0AF3A3EB0803B3FBFAF300FB54
:10CF900009339B1AB3F57A7FDAD30322412138464D
:10CFA00017F0F4FA734B5B68C3F30803002B41F0EE
:10CFB0003081EFF31183002B41F02B814FF0E02003
:10CFC000D4F86C368169D4F86C269342F8D1D4F841
:10CFD000802A9142F4D8D4F87C6A4FF47A7000FB2E
:10CFE00006F2521AB2FBF6F200FB0322614E4FF03A
:10CFF000E0214FF47A704FF0100E4FF0010C73687F
:10D00000C3F30803002B40F03A83EFF31183002BA6
:10D0100040F03583D4F86C96D1F81880D4F86C368B
:10D020009945F7D1D4F8803A9845F3D8D4F87CAA3A
:10D0300000FB0AF3A3EB0803B3FBFAF300FB09338D
:10D040009B1AB3F57A7FDAD3ED224221384617F0E6
:10D050009DFA484B5B68C3F30803002B41F0B58091
:10D06000EFF31183002B41F0B0804FF0E020D4F8B3
:10D070006C368169D4F86C269342F8D1D4F8802AB2
:10D080009142F4D8D4F87C6A4FF47A7000FB06F22F
:10D09000521AB2FBF6F200FB0322364E4FF0E021AB
:10D0A0004FF47A704FF0100E4FF0010C7368C3F319
:10D0B0000803002B40F0C182EFF31183002B40F0F6
:10D0C000BC82D4F86C96D1F81880D4F86C369945A7
:10D0D000F7D1D4F8803A9845F3D8D4F87CAA00FB6D
:10D0E0000AF3A3EB0803B3FBFAF300FB09339B1A23
:10D0F000B3F57A7FDAD308224321384617F046FA8F
:10D100001C4B5B68C3F30803002B41F03A80EFF33C
:10D110001183002B41F035804FF0E020D4F86C26CD
:10D120008169D4F86C369342F8D1D4F8802A9142C0
:10D13000F4D8D4F87C6A4FF47A7000FB06F2521AE5
:10D14000B2FBF6F200FB03220A4E4FF0E0214FF44F
:10D150007A704FF0100E4FF0010C7368C3F30803A0
:10D16000002B40F04882EFF31183002B40F0438204
:10D1700002E000BF00ED00E0D4F86C36D1F8188072
:10D18000D4F86C969945F7D1D4F8803A4345F3D357
:10D19000D4F87CAA00FB0AF3A3EB0803B3FBFAF371
:10D1A00000FB09339B1AB3F57A7FD6D3039B012B7F
:10D1B00000F0228704225821384617F0E7F9CC4BBB
:10D1C0005B68C3F30803002B40F06083EFF3118327
:10D1D000002B40F05B834FF0E020D4F86C2681698F
:10D1E000D4F86C369342F8D1D4F8802A9142F4D81E
:10D1F000D4F87C6A4FF47A7000FB06F2521AB2FB44
:10D20000F6F200FB0322DFF8E8E24FF0E0204FF4F3
:10D210007A714FF0100C0126DEF80430C3F30803D6
:10D22000002B40F0BC83EFF31183002B40F0B78359
:10D23000D4F86C36D0F81880D4F86C969945F7D1AC
:10D24000D4F8803A9845F3D8D4F87CAA01FB0AF3C5
:10D25000A3EB0803B3FBFAF301FB09339B1AB3F505
:10D260007A7FD9D30A225321384617F08FF9A04B81
:10D270005B68C3F30803002B40F03184EFF31183A4
:10D28000002B40F02C844FF0E020D4F86C2681690C
:10D29000D4F86C369342F8D1D4F8802A8A42F4D379
:10D2A000D4F87C6A4FF47A7000FB06F2521AB2FB93
:10D2B000F6F200FB03228E4E4FF0E0214FF47A701D
:10D2C0004FF0100E4FF0010C7368C3F30803002BEE
:10D2D00040F02183EFF31183002B40F01C83D4F83E
:10D2E0006C96D1F81880D4F86C369945F7D1D4F8FB
:10D2F000803A9845F3D8D4F87CAA00FB0AF3A3EB54
:10D300000803B3FBFAF300FB09339B1AB3F57A7FEA
:10D31000DAD302227C21384617F038F9744B5B6867
:10D32000C3F30803002B40F0E486EFF31183002BD6
:10D3300040F0DF864FF0E020D4F86C268169D4F805
:10D340006C369342F8D1D4F8802A8A42F4D3D4F8C8
:10D350007C6A4FF47A7000FB06F2521AB2FBF6F2C6
:10D3600000FB0322624E4FF0E0214FF47A704FF041
:10D37000100E4FF0010C7368C3F30803002B40F04C
:10D38000A882EFF31183002B40F0A382D4F86C360F
:10D39000D1F81880D4F86C969945F7D1D4F8803A32
:10D3A0004345F3D3D4F87CAA00FB0AF3A3EB0803AC
:10D3B000B3FBFAF300FB09339B1AB3F57A7FDAD398
:10D3C0000E227D21384617F0E1F8494B5B68C3F324
:10D3D0000803002B40F0B186EFF31183002B40F0DF
:10D3E000AC864FF0E020D4F86C368169D4F86C2616
:10D3F0009342F8D1D4F8802A9142F4D8D4F87C6AC8
:10D400004FF47A7000FB06F2521AB2FBF6F200FB00
:10D410000322374E4FF0E0214FF47A704FF0100E98
:10D420004FF0010C7368C3F30803002B40F09582A2
:10D43000EFF31183002B40F09082D4F86C36D1F8D2
:10D440001880D4F86C969945F7D1D4F8803A98456D
:10D45000F3D8D4F87CAA00FB0AF3A3EB0803B3FBD0
:10D46000FAF300FB09339B1AB3F57A7FDAD3039BF7
:10D47000012B00F0BD8295F82131002B35D01E091B
:10D48000013E052E03F00F0300F2E187194C04EB77
:10D490004602B2F8000140FA03F2D20740F1D78702
:10D4A000012202FA03F3013B18406AF01FF9A319A5
:10D4B000114C93F80C31184404EBC00429460F4B6F
:10D4C0002622E28041F80C3F00230093F022204600
:10D4D00018F064FFA2884FF00043B2FA82F2D34002
:10D4E00003D007490A6813430B6017B0BDE8F08FFB
:10D4F00000ED00E024A20708842A002079C5000876
:10D50000003C0140EFF3118788F31288D2F818C06D
:10D510001369DB0344BFC4F8789AD2F818C0D4F872
:10D520006C36D4F8780AFFB287F31188D4F87C7A85
:10D53000184406FB07F3A3EB0C03B3FBF7F306FB5E
:10D54000003370E4EFF3118789F31288D1F818E003
:10D550000B69DB0344BFC4F878AAD1F818E0D4F80B
:10D560006C36D4F8786AFFB287F31188D4F87C7AE5
:10D570001E440CFB07F3A3EB0E03B3FBF7F30CFB0A
:10D580000633FFF7FABAEFF3118188F31288936933
:10D590001769FF0344BFC4F8789A9369D4F86C768E
:10D5A000D4F878CAC9B281F311886744FFF72DBA5D
:10D5B000EFF311828EF31288D1F81890D1F8108011
:10D5C00018F4803F03D0C4F878CAD1F81890D4F882
:10D5D0006C86D4F878AAD2B282F31188D044D4F8F9
:10D5E0007CAA00FB0AF2A2EB0902B2FBFAF200FBF2
:10D5F0000822FFF76DBAEFF311838EF31288D1F88A
:10D600001890D1F8108018F4803F03D0C4F878CA7D
:10D61000D1F81890D4F86C86D4F878AADBB283F3EA
:10D620001188D044D4F87CAA00FB0AF3A3EB0903C9
:10D63000B3FBFAF300FB0833B4E5EFF311838EF389
:10D640001288D1F81890D1F8108018F4803F03D0D8
:10D65000C4F878CAD1F81890D4F86C86D4F878AAAF
:10D66000DBB283F31188D044D4F87CAA00FB0AF320
:10D67000A3EB0903B3FBFAF300FB083337E5EFF341
:10D6800011838EF31288D1F81890D1F8108018F415
:10D69000803F03D0C4F878CAD1F81890D4F86C86CB
:10D6A000D4F878AADBB283F31188D044D4F87CAAEA
:10D6B00000FB0AF3A3EB0903B3FBFAF300FB083307
:10D6C000BEE4EFF311838EF31288D1F81890D1F8ED
:10D6D000108018F4803F03D0C4F878CAD1F81890AD
:10D6E000D4F86C86D4F878AADBB283F31188D044DE
:10D6F000D4F87CAA00FB0AF3A3EB0903B3FBFAF30B
:10D7000000FB083345E4EFF311838EF31288D1F860
:10D710001890D1F8108018F4803F03D0C4F878CA6C
:10D72000D1F81890D4F86C86D4F878AADBB283F3D9
:10D730001188D044D4F87CAA00FB0AF3A3EB0903B8
:10D74000B3FBFAF300FB0833FFF7C8BBEFF3118319
:10D750008EF31288D1F81890D1F8108018F4803F19
:10D7600003D0C4F878CAD1F81890D4F86C86D4F8ED
:10D7700078AADBB283F31188D044D4F87CAA00FBEA
:10D780000AF3A3EB0903B3FBFAF300FB0833FFF73B
:10D790004DBAEFF311838EF31288D1F81890D1F8B7
:10D7A000108018F4803F03D0C4F878CAD1F81890DC
:10D7B000D4F86C86D4F878AADBB283F31188D0440D
:10D7C000D4F87CAA00FB0AF3A3EB0903B3FBFAF33A
:10D7D00000FB0833FFF787BAEFF3118088F3128854
:10D7E00097691369D90344BFC4F8789A9769D4F844
:10D7F0006C36D4F8781AC0B280F31188D4F87C0A59
:10D800000B4406FB00F1C91BB1FBF0F106FB031151
:10D81000FFF7E9BAEFF3118188F31288976913696A
:10D82000DB0344BFC4F8789A9769D4F86C36D4F80F
:10D83000786AC9B281F31188D4F87C1A33440EFB9C
:10D8400001F6F61BB6FBF1F60EFB0366FFF7C7B851
:10D85000EFF3118689F312888F690B69D80344BFEF
:10D86000C4F878AA8F69D4F86C36D4F8780AF6B27E
:10D8700086F31188D4F87C6A03440CFB06F0C01BC5
:10D88000B0FBF6F00CFB0300FFF757B9EFF3118282
:10D89000102383F312884FF0E02399691869C003BD
:10D8A00003D50121C4F8781A9969D4F86C06D4F824
:10D8B000783AD2B282F31188D4F87C6A1A184FF4FD
:10D8C0007A7000FB06F35B1AB3FBF6F300FB02323F
:10D8D00099E4EFF311838EF31288D1F81890D1F800
:10D8E000108018F4803F03D0C4F878CAD1F818909B
:10D8F000D4F86C86D4F878AADBB283F31188D044CC
:10D90000D4F87CAA00FB0AF3A3EB0903B3FBFAF3F8
:10D9100000FB083350E5EFF311838EF31288D1F842
:10D920001890D1F8108018F4803F03D0C4F878CA5A
:10D93000D1F81890D4F86C86D4F878AADBB283F3C7
