:020000040800F2
:1000000000000120313F0608CD3F060865260208A2
:10001000BD240208CD3F0608CD3F060800000000C1
:10002000000000000000000000000000CD3F0608B6
:10003000CD3F060800000000CD3F06089D0C0208D9
:10004000CD3F0608CD3F0608CD3F0608CD3F060848
:10005000CD3F0608CD3F0608A9070208B1070208F0
:10006000B9070208C1070208C9070208C9A80008A1
:10007000D9A80008E9A80008F9A8000809A90008FB
:100080001DA9000831A90008CD3F0608CD3F06088C
:10009000CD3F0608CD3F0608CD3F0608D107020830
:1000A0001DCA000809C900082DCA0008F9C80008BF
:1000B00031C9000841C9000851C90008B1A40008AD
:1000C000A5A40008E1A40008D5A40008CD3F0608B7
:1000D000CD3F0608E90B0208F50B0208010C0208E7
:1000E000D9070208CD3F0608CD3F06083DCA0008E3
:1000F000F5C90008CD3F0608E5C9000845A9000874
:10010000CD3F0608C5E5000861C90008CD3F0608D7
:100110000D0C0208190C020871C9000831B005085D
:1001200059A900086DA9000881A9000895A900082F
:10013000A9A9000800000000000000000000000065
:10014000000000000000000000000000ADA5050850
:10015000BDA90008D1A90008E5A90008250C0208DE
:1001600015A5000809A50008CD3F0608CD3F0608E3
:10017000CD3F0608CD3F060800000000000000004B
:10018000CD3F0608CD3F0608CD3F0608CD3F060807
:10019000CD3F0608CD3F060800000000CD3F060811
:1001A000000000000000000000000000CD3F060835
:1001B000CD3F0608CD3F060800000000000000000B
:1001C000000000000000000000000000000000002F
:1001D000000000000000000000000000CD3F060805
:0801E0007C3A0600010000005A
:1001E8001402010005000000042C0120102F01203A
:1001F8000000000074B607081F0208001000000085
:10020800582B0120182F012000000000A96A0108BE
:100218000610010024000000F0220120282F0120F0
:1002280000000000C9690108FA010100030000008C
:10023800F84A0120304A012000000000B169010895
:10024800FF21010005000000AC3A0120344A0120DA
:1002580000000000996A0108052001000C00000058
:10026800544501203C4A0120000000007CB60708E4
:100278001302010004000000A4420120484A0120A2
:100288000000000088B6070818300100340000009C
:10029800683A01204C4A0120000000003D6F010827
:1002A8001E02010006000000E0390120804A0120FA
:1002B800000000008CB607080D12010014000000B1
:1002C80004420120884A01200000000094B6070873
:1002D800030101000A000000143A01209C4A012091
:1002E80000000000A52C05081230010010000000D5
:1002F800E0380120A84A012000000000A8B607083D
:100308000B2201003D00000018300120B84A0120EE
:1003180000000000B8B607081500100070000000C3
:1003280018750120A07B01200000000000000000DB
:100338002A00080060000000B8740120107C012029
:10034800000000004955030821020100F0000000E8
:10035800C8730120707C012000000000915B040834
:100368002C00040010000000B8730120607D0120FB
:1003780000000000A156030825201E002C010000E3
:100388000C720120707D01200000000000000000B8
:100398002B00120024000000C47101209C7E012063
:1003A80000000000BD5603081610010006000000FA
:1003B8004C710120C07E012000000000F8B607083B
:1003C800270001000400000040710120C87E0120C0
:1003D80000000000FEB607080C400600E40000001C
:1003E800706A0120CC7E01200000000065FD020833
:1003F8002920140078000000A86E0120B07F012099
:100408000000000000000000012001000C000000B6
:100418009C6E0120288001200000000002B7070818
:1004280023200100100000008C6E01203480012080
:1004380000000000CD5D0308283001001600000010
:10044800586E01204480012000000000E15D03088F
:100458000B3001001A0000003C6E01205C80012076
:10046800000000000EB707080E300300BC010000B2
:10047800546B01207880012000000000E954030833
:100488001E00010009000000C06D01203482012017
:100498000000000028B707080D10010070000000D8
:1004A8004C6D01204082012000000000C93502087F
:1004B800220201001C010000C46F0120B08201204B
:1004C800000000004D7B0108160215003F000000E7
:1004D8000C840120CC83012000000000F16A01088F
:1004E8001B020100100000005C8401204C840120E4
:1004F80000000000616A01082802040004000000EE
:10050800708401206C84012000000000556A0108F5
:10051800270204000400000078840120748401206C
:1005280000000000496A01081C0202001C000000CB
:10053800706E01207C84012000000000856E010897
:10054800010201000B000000A4840120988401200E
:1005580000000000A1690108000201000B00000072
:10056800E0700120B08401200000000099690108B2
:100578001A0201003C000000C8750120BC8401205B
:1005880000000000D16E010804000800800000008F
:1005980038730120F88401200000000000000000EA
:1005A8001902010010000000346F01207885012035
:1005B80000000000896A0108081204001400000005
:1005C8000C780120888501200000000035690108A9
:1005D8000A02010014000000707801209C850120A7
:1005E80000000000B1FD02080A900100240000008C
:1005F800106D0120B085012000000000D9E103083A
:10060800031201003D00000088750120D4850120F7
:100618000000000032B707080C02010004000000C7
:10062800207801201486012000000000B969010823
:100638001310010004000000386E01201886012004
:100648000000000070B70708020201000300000064
:10065800987B01201C86012000000000000000009B
:10066800F59101006C000000586F012020860120E0
:10067800000000000D720408F62101000C000000C3
:100688004C6F01208C8601200000000074B7070819
:100698001212010004000000B09F0120988601207A
:1006A8000000000080B707081102010008000000E0
:1006B800B49F01209C8601200000000084B7070831
:1006C8003400010010000000BC9F0120A486012016
:1006D800000000002D550308F83101000800000053
:1006E800346D0120B4860120000000008CB7070893
:1006F800020001000C0000009C780120BC8601204B
:100708000000000000000000FE01010014000000CD
:10071800206F0120C8860120000000001D69010823
:10072800061204001800000058780120DC86012019
:1007380000000000056E0108F70101000600000036
:10074800446F0120F48601200000000094B70708D8
:10075800FC01010009000000CC9F0120FC8601205B
:1007680000000000756A0108FB010100010000009B
:10077800D89F01200887012000000000816A010835
:100788001A0001000E000000F47701200C870120F8
:10079800000000009AB707081400010005000000D7
:1007A800446D01201C87012000000000A8B707083D
:1007B800FD01010024000000CE77012024870120DC
:1007C800000000006FE801081D020200060000009A
:1007D800C8770120488701200000000000000000C1
:1007E800F901010004000000DC9F0120508701206E
:1007F8000000000029E801080E02010002000000C4
:10080800C8A1012020A2012000000000AEB70708FF
:100818002F1001002200000024A20120CCA10120F9
:1008280000000000B0B707081F50010024000000B6
:10083800F4A5012058AD012000000000D4B7070836
:10084800381001000100000070A401207CAD0120D7
:1008580000000000F8B70708261001000E0000008D
:1008680038A3012080AD01200000000085BA0408EB
:100878001B2001000C00000000AD012090AD0120FC
:1008880000000000D9520408101001000200000006
:100898000CAB01209CAD012000000000FAB707084E
:1008A800FD0701007C00000064AF0120E0B00120DA
:1008B80000000000A55A040801010100040000001E
:1008C80060AF01205CB101200000000000000000C2
:1008D80000010100040000005CAF012060B10120AC
:1008E80000000000FCB70708020101000300000037
:1008F80058AF012064B101200000000055FD020836
:1009080029020100400000009CB0012068B10120CC
:100918000000000000B8070820520100080000008D
:1009280008AF0120A8B101200000000015550308F8
:100938002A0201000800000000AF0120B0B1012028
:100948000000000040B80708190001000500000079
:10095800F8AE0120B8B101200000000048B807082F
:100968003710010030000000C4AE0120C0B10120E2
:10097800000000004EB80708232201001000000004
:10098800F8B70120C4BB01200000000080B80708A8
:100998000300010001000000B8B90120D4BB012008
:1009A8000000000000000000050201000400000033
:1009B8004CB80120D8BB01200000000090B80708FF
:1009C80010020100010000007C17022078170220A5
:0809D8000000000094B80708BC
:08280000082800080040000850
:10800000084A0346D0F8E4005268D3F8F010121A78
:1080100000209142B8BFC3F8F020012283F81C2150
:10802000704700BF001000E090F8DB30052B03D84C
:1080300090F81E31012B01D00020704790F82331B9
:1080400003F0FB03022B0CBF00200720704700BF8A
:10805000836930B45C6999682268096822F001027A
:1080600022601C8ACA6822EA0402CA60027D006893
:108070001F2A06D9203A082144689140214216D08F
:10808000FEE70821046891402142F9D1202101FA3C
:1080900002F28260204A12783AB11A7F012A0BD18B
:1080A000D3F804210132C3F8042130BC70472021E9
:1080B00001FA02F2C260EDE7D3F800210132C3F801
:1080C0000021EFF31181502282F312885868C9B25F
:1080D0009D6C0268DC6C22EA05022243026081F397
:1080E00011885A699968D3E90D4009681460506194
:1080F000D3E90F40546090605C6CB3F8B400D46076
:108100000124C8621068204310601A8A1C77CB686B
:10811000134330BCCB607047E401002070B50E4EB5
:108120007368002B16DD06F10804002503E0736870
:108130002034AB420EDD237F0135002BF7D0E06801
:1081400000220028F3D0217D203418F0A7FB7368AB
:10815000AB42F0DC012070BDE4010020704700BF9D
:10816000024B03EB401090F825007047E40100201B
:108170004368426D30B49A61EFF31182502383F368
:1081800012884168D2B2856C0B68046D23EA05033E
:1081900023430B6082F31188436981681A68096878
:1081A00022F00102D0E908541A60826A1D605C6105
:1081B0005A60D0E90B429C60DA600023B0F86C2072
:1081C00030BCCA62037770474FF400638381704705
:1081D000084A0346D0F8E4005268D3F8F010121AA7
:1081E00000208A42C8BFC3F8F020012283F81C2176
:1081F000704700BF001000E04FF4006383817047B8
:108200004FF4006383817047012380F81031704779
:108210004FF40063838170474FF40063838170479C
:108220004FF400638381704770470120704701203D
:1082300070472DE9F047DFF880810E460746D8F8F1
:108240000050B8F80420B8F80A90C2EB2513520089
:10825000C2EBE502B8F906506A4303FB03F5B8F92F
:1082600008302D135D43B8F90E30AD134FEAE37EAD
:1082700005EBE225A5F5FA31C8F81C5081FB010C8D
:1082800003FB0CF200FB0E22A3FB003E9644B8F960
:108290000C201B0A82FB014243EA0E63120342EAEE
:1082A000145224031B194FF0000442EB2E22A3FBAF
:1082B000093E02F5004209FB02EE4FEAEE734FEA77
:1082C0006E0253EA6E0E6BD0B8F914904FEAE97E55
:1082D00009FB0CFC00FB0ECCA9FB00908444B8F910
:1082E000120080FB01E148044FEA4E4140EADE30D3
:1082F00011EB0909D8F820104CEB0000C1F5801CE7
:1083000014EB0904B8F910100CF0004A40F6354996
:1083100000EBC1014AEA5C0A4FEACC7CBCEB0400EA
:108320006AEB010AA0FB090109FB0A115BF01AFCC8
:10833000B8F91A404FEA613E8146430B04FB0EF246
:108340004FEAE47C43EAC14303FB0C2CA4FB034249
:10835000624404FB0EFE03FB02EEB8F91820A4FBF6
:1083600003439E44640E02FB01F344EACE1414EB73
:10837000000C4FEAE274A2FB092941EB6E6E04FB8C
:108380000031D40CB8F91630494444EA41341CEBAE
:1083900004044EEBE141240A44EA016404EB0314B3
:1083A0000FB1240A3C6026B105EB850580352D12FE
:1083B0003560BDE8F08700BFC81F0120704700BFCF
:1083C00001207047012070473122F4215BF0B8B8DA
:1083D00008B5006857F030FFD8B90F4A0F4992F836
:1083E000093192F808011B0143EA003392F80A01AF
:1083F00043EA101392F80B010B6292F80C3192F8D9
:108400000D211B0143EA0033012043EA12130B60E4
:1084100008BD0020FCE700BFE4010020C81F0120C8
:10842000036810B41A78012A1CD0184C184901208E
:1084300091F8122191F811C191F8153112041B0421
:1084400042EA0C2291F814C143EA0C2391F810C1BE
:1084500091F8131142EA0C020B43C4E969235DF859
:10846000044B704793F90430084C03EB430304EBCF
:10847000431393F87920202A03D000205DF8044BA1
:1084800070479B6B9B691B04F7D4CFE7C81F012083
:10849000E40100202DE9F04FCC4C83B0B4F8AC31AE
:1084A000D4F8A821B4F8AE61A2EB032294F9B0513C
:1084B0000091A6FB02634FEAE57C9F04A2FB022326
:1084C00005FB03F347EA9637B60402FB0C33A5FB22
:1084D0000252AD191A4442EB0703002B02DA013DA8
:1084E00043F10003DF17C4E97237002800F01A8156
:1084F00003FB07FCD4F8A451A3FB032606EB4C06B0
:108500004FEA921E4FEAA6184EEA866E0EFB07FC53
:1085100003FB08CCAEFB03E81CEB080C00F1508118
:108520004FEA1E2E4FEA2C214EEA0C6E94F9B6C18A
:1085300001914FEAEC780CFB01FA0EFB08AAACFBA8
:108540000EC81AEB080A00F136814FEA5C1CB4F938
:10855000B3814CEACA6194F9B5C1A8F580484FEAE5
:10856000EC7B0CFB06F902FB0B99ACFB02CBD9446C
:10857000B4F9B1B14FEA8909ABF5804B49EA9C796E
:108580004FEA8B3B4FEA8C0C0BEB6A1A08FB07FB9C
:1085900011EB0C0C4AEB09094FEAE87A03FB0ABB22
:1085A000A8FB038ADA444FEA4A5A4AEAD82A4FEA31
:1085B00048581CEB080C49EB0A09B9F1000FC0F24E
:1085C000F3804FEA1C6B019994F9BCC14BEA092B6B
:1085D0000CFB01FA4FEAEC784FEA29690EFB08AA76
:1085E000ACFB0ECE1AEB0E0E00F1D9804FEA5C1CEC
:1085F0004CEACE6894F9BBC14FEAEC7A0CFB06F664
:1086000002FB0A66ACFB022CB444B4F8B7614FEA33
:108610000C1AF6034AEA127A120106EB6E1E18EBE8
:108620000202B4F8B981A8FB03C64EEB0A0A08FBA4
:1086300007684FEA885646EA9C264FEA8C5C12EBA4
:108640000C024AEB060ABAF1000FC0F2A28094F9BC
:10865000BFE14FEA920CABFB05864CEA8A7C0EFB2D
:1086600007F205FB09664FEAEE791CEB0808B4F93E
:10867000BDC103FB0922AEFB03E946EBAA064A444F
:108680004FEA0C491EEB090E42EBEC7CAEFB05E217
:1086900005FB0C22002A75DB4FEA5E3E4EEAC24E15
:1086A0005213AEFB05CE05FB02EEBEF1000F62DBFE
:1086B0004FEA5C2C94F9C0214CEACE5C18EB0C0C10
:1086C000A5FB054846EB6E264FEAE27E04FB0EFE54
:1086D00002FB08EEA4FB02421EEB020E45D4220C64
:1086E00042EA0E424FEA2E4EA2FB052405FB0E4E37
:1086F000BEF1000F35DBD20942EA4E6212EB0C02EA
:1087000046EBEE16941846EB060EA41846EB0E0E3A
:108710004FEACE0E4EEA547EE400A41846EB0E0655
:10872000360C0660009A9AB1DA1847EB0700D218A7
:1087300047EB0000C00040EA5270D200D31847EB6C
:108740000007002F07DB9B0B009A43EA8743136067
:1087500003B0BDE8F08F43F6FF729B1847F10007A6
:10876000F1E77F324EF1000EC5E74FF6FF72A41815
:108770004EF1000EB3E740F2FF121CEB020C4EF17B
:10878000000E95E741F6FF7C1EEB0C0E42F1000255
:1087900082E712F1030C62464AF1000A57E71CF126
:1087A0001F0C4EF1000E21E76FF07F4B1CEB0B0C02
:1087B00049F1000905E71CF11F0C4AF1000AC4E663
:1087C0001EF1FF0E4CF1000CAAE600BFC81F0120ED
:1087D0003B4BDFED3C3A93F8D11193F8D0010902FD
:1087E00093F8D22193F8D3C101EB004193F8D4015F
:1087F00093ED786A0A4409024FEA002093F8D511F4
:1088000048BF02F17F42B8EEC66A00EB0C4007EEAB
:10881000902AB3F9EC210144000205EE902AB3F945
:10882000E821F8EEE77A48BF01F17F4104EE902A93
:10883000B3F9EA21F8EEE55A07EE101A67EEA37ACB
:1088400006EE902AF8EEE44AB3F9E621F8EEE66A7D
:10885000012005EE102AB3F9E421E7EEA54AB8EEAF
:10886000C55A04EE102AB8EEC77AB3F9DA21B8EE89
:10887000C44AA7EEA65AD3ED776A27EE237A05EE0F
:10888000902AA4EEA76AB3F9D821F8EEE66AF8EECA
:10889000E55A04EE902AF6EE003AE7EE046AF8EEA6
:1088A000E44AA5EE076A67EE255AB0EE667AE4EE72
:1088B000A35AA7EE867AC3ED7D5A83ED7C7A704782
:1088C000C81F01200821843630B10A4BD3ED7C7AD1
:1088D000FDEEE77AC0ED007A51B1064B9FED067AC6
:1088E000D3ED7D7A67EE877AFDEEE77AC1ED007A07
:1088F000704700BFC81F01200000C842704700BF7A
:108900000120704701207047704770470120704771
:1089100030B5002385B0E72105468DF807300DF10D
:1089200007020123154C17F06BFB9DF8073013F07D
:1089300003031FD0052302AAE821284617F060FB95
:108940009DF80A209DF80910130412F0800F43EAE5
:1089500001239DF8081014BF4FF07F4200220B4303
:108960001343C4F8F831BDF80B300120A4F8FC31F2
:1089700005B030BDC4F8F831F7E700BFC81F0120CB
:108980000B4A642310B5D2F8F841634348BF03F69D
:10899000FF731B130360B2F8FC310A2253433022E9
:1089A000B3FBF2F303F584531A330B6010BD00BF21
:1089B000C81F012008B5006857F03EFC78B9094A85
:1089C000012092F8193192F818111B0292F81A211D
:1089D00043EA01431343044AC2F8003208BD0020B1
:1089E000FCE700BFE4010020C81F012008B50068B3
:1089F00057F022FC78B9094A012092F8193192F80F
:108A000018111B0292F81A2143EA01431343044A46
:108A1000C2F8043208BD0020FCE700BFE4010020DA
:108A2000C81F01202DE9F74F544AB2F81232B2F8AC
:108A30000E621B02B2F81472CDE90001D2F80012E6
:108A4000C91AB2F810326EEB0E0EA3FB010403FB41
:108A50000E44C009B2F80C3240EA44601B04E41131
:108A6000C018A6FB013506FB0E554FEA1323B2F8DA
:108A70000A6244F1000443EA0563F6032D129B19D0
:108A8000A7FB012607FB0E664FEAD25245F100050F
:108A900042EA4622F61512F5FA6C46F1000BBCF5D7
:108AA000FA6F7BF100074CDAA2FB02784FF0050A5F
:108AB00002FB06F908EB4909A7FB0A780AFB0988BB
:108AC0004FEA5709BF0849EAC87947EA8877B0EB07
:108AD000090064EB6804DB1B294F65EBA805BC4566
:108AE0004FF0FF377BEB070720DA40F6AC57D2197F
:108AF00046F100065643A2FB027202EB4606FA005C
:108B00004FEAC608BA1A48EA577866EB0808101800
:108B100044EB08044FF00B08A7FB087208FB06267D
:108B20007F0847EAC677DB1B65EB660501FB0EFE97
:108B3000A1FB011202EB4E0EC90F41EA4E01BCEB44
:108B4000010C009A92B10D4AD2F80412A1FB032342
:108B500001FB0535520D009B42EAC5226D15121A24
:108B600065EB0404D20B42EA44421A60019B0BB14C
:108B7000C3F800C003B0BDE8F08F00BFC81F0120DC
:108B800024FAFFFF7047012070470120704708B5A5
:108B9000006857F051FBD8B90E4A0F4992F81D31C1
:108BA00092F81C011B0243EA004392F81E010343A2
:108BB00092F81F01C1F8183292F8203192F8212161
:108BC0001B0243EA004301201343C1F81C3208BDD5
:108BD0000020FCE7E4010020C81F01202A4BD3F845
:108BE0001C2293ED8A6AA2F50002D3ED896AD3EDC7
:108BF000887A07EE102AD3ED8D5AD3ED8C4AB8EE61
:108C0000C77AD3F8182293ED914AA2F5000293EDAA
:108C10008F5AE7EE066A93ED8E6AE7EE267A06EE45
:108C2000902A93ED8B7AF8EEE66AE5EEA74AD3ED4B
:108C3000905AA4EE275A93ED924AA7EEA47AD3ED68
:108C4000934AA5EE276AE6EEA45AE4EE275AA5EE6B
:108C5000A66AA6EE867AB5EE407AF1EE10FA03D057
:108C6000BDEEC77A80ED007AF5EE407AF1EE10FAAB
:108C700008D0FDEEE77A17EE903A002BB8BFFF332D
:108C80001B120B60704700BFC81F0120134BD0F8A8
:108C9000D8105B68D0F8E02010B50446581A82421C
:108CA00000DC22B9D4F8E4200A44C4F8DC2094F8AB
:108CB000D020C4F8D830012A05D0D4F8D4300133FC
:108CC000C4F8D43010BD04F1E801201D16F0E6FF11
:108CD000D4F8D4300133C4F8D43010BD001000E013
:108CE00010B5104B04465868D4F8E410D4F8D830C6
:108CF00094F8D0200B44C4F8D800012AC4F8DC3022
:108D000005D0D4F8D4300133C4F8D43010BD04F108
:108D1000E801201D16F0C2FFD4F8D4300133C4F8A6
:108D2000D43010BD001000E0826970B592F8DC30DC
:108D30008AB00546012B23D0023B012B28D8D2F85C
:108D40009C308C22144CEC461A7086690FCCACE82F
:108D50000F00D6F89C300093D6F8A03001930FCCCA
:108D6000ACE80F0094E803008CE80300694606F1C4
:108D7000100016F093FFAA6911690B6A002BFCD151
:108D8000D2F8A0305A88EA819A882A82DB886B82DE
:108D900001200AB070BD00BF5063060870B50446DC
:108DA00090F8210100B970BD17F052FD214605462B
:108DB000A8B126220023C2800D4A41F80C2F1A4682
:108DC00057F0E4F8AB884FF00042B3FA83F332FA7D
:108DD00003F3E8D007490A6813430B6070BD044CE5
:108DE0000346024641F80C4FBDE8704057F0CEB83C
:108DF0008D8C0008003C01400269C3682DE9F047F2
:108E000012EA03092AD005460E464FF000474FF0FC
:108E10000008B9FA89F327FA03F21B3BD24309EAA7
:108E200002092A61042B16D8DFE803F0352C231A37
:108E30000300B36A002B37D003F1FF3AC6F828804D
:108E40001FFA8AFA746A34B123682046514698475B
:108E50006468002CF8D1B9F1000FDAD1BDE8F087D1
:108E60007068696B036889B29847B9F1000FD0D177
:108E7000F4E7B068A96B036889B29847B9F1000FAD
:108E8000C7D1EBE7F068E96B036889B29847B9F19D
:108E9000000FBED1E2E73069296C036889B29847B8
:108EA000B9F1000FB5D1D9E7E96A1FFA81FAC9E72C
:108EB00010B5044682B0806906236A463B21103013
:108EC00017F0AAF858B1BDF80010BDF80220BDF89F
:108ED000043049BA52BA5BBAE1812282638202B09D
:108EE00010BD00BF10B582B00446062343216A4678
:108EF000103017F091F870B1BDF80010BDF80220E5
:108F0000BDF8043049BA52BA5BBAA4F8D010A4F83C
:108F1000D220A4F8D43002B010BD00BF10B5044672
:108F200082B0806906236A462821103017F074F851
:108F3000BDF80010BDF802200120BDF80430E18129
:108F40002282638202B010BD10B582B004460623AF
:108F500022216A46103017F05FF8BDF80010BDF806
:108F600002200120BDF80430A4F8D010A4F8D220CB
:108F7000A4F8D43002B010BD13B5002304460B484A
:108F80008DF8073016F0B8FC0123A0800DF1070220
:108F90000F21204617F040F828B19DF807306C2BC0
:108FA00014BF0020102002B010BD00BF80969800B2
:108FB00000B583B04FF0000C012311210DF1070221
:108FC00098388DF807C017F027F803B05DF804FB58
:108FD0008269F0B592F8DC308BB00546012B24D0C5
:108FE000023B012B2CD8D2F89C30BB22164CEC460D
:108FF0001A708669D6F8A0305F1C0FCCACE80F0061
:10900000D6F89C30CDE900370FCCACE80F0094E8DF
:1090100003008CE80300694606F1100016F03EFEDE
:10902000AA6911690B6A002BFCD1D2F8A0305A88CA
:1090300052BAEA819A8852BA2A82DB885BBA6B827A
:1090400001200BB0F0BD00BF78630608F0B590F8C2
:10905000DC308BB00446D0F8A060012B48D015D886
:10906000D0F89C304FF0FF3205211A605A609A60A8
:10907000DA60D0F8E030C0F8F010B3F57A7F46D867
:10908000032380F8DC3001200BB0F0BD023B012B44
:10909000F9D8D0F89C30C322304DEC461A70D0F885
:1090A000A0305F1C0FCDACE80F00D4F89C30CDE9A8
:1090B00000370FCDACE80F0095E803008CE8030003
:1090C000694604F1100016F0E9FD2269136A002BCD
:1090D000FCD1738801205BBAA4F8D030B3885BBAA6
:1090E000A4F8D230F3885BBAA4F8D4300BB0F0BD4A
:1090F00073895BBAA0F8D030B3895BBAA0F8D230DC
:10910000F3895BBAA0F8D43001200BB0F0BD03693D
:109110001A7BFAB15B69EBB190F89830D3B1D0F813
:109120009C30BB210122C4F8A40019700C49D0F86E
:10913000A0300F20C4F804111344D4F89C1084F814
:109140000021C4F8FC00C4F8F83084F8DC20C4F82E
:10915000F41098E7022384F8DC3094E7786306087B
:1091600001800008836910B5074C04EB8303D3F832
:1091700070024DF029FF0021B4F8900256F0F8FF7C
:10918000002384F8923210BDC81F012080699C30F2
:109190004DF01ABF10B5074C94F894320BB900206B
:1091A00010BD17F0D9FED4F89832C01AD0F5FA5095
:1091B000F6D5F4E7C81F012070B505460C46FFF749
:1091C000E9FF2B685D6808B117F0F4FE064B00223A
:1091D0002846492183F89422224693F89532BDE827
:1091E000704016F00DBF00BFC81F01202DE9F04FE1
:1091F000C64C2DED028B237883B0009303BBD4F8CB
:109200002431002B16DD0026C14831464769D0F8CD
:10921000AC303D6803F1C00225F001053D605960A6
:109220000C339A42FBD10136D4F8243100F5867014
:10923000B342EBDC012003B0BDEC028BBDE8F08F44
:10924000B44BD3F89C3208EE103A17F085FED4F8F0
:109250002831D4F82C211433801AB0EB430FC0F21C
:10926000208104F5987904F5826A04F10806002546
:109270006368AB42C3DDB3690121DFF8B4E25F6923
:10928000A54AD3E93D0C73689940FBB227F0FF076C
:10929000103BAEFB033EA14B4FEA1E1E13F80E30EF
:1092A0001F4403467F68BFB2ACEB07073A4400EBAC
:1092B00042029A4217D9B3F800C01CEA010F00F02D
:1092C000EA80B3F802C01CEA010F00F0E680B3F8B0
:1092D00004C01CEA010F00F0E280B3F806C00833B6
:1092E0001CEA010FE5D11A880A400192002A40F0D9
:1092F0009980181AA7EB6007452F28BF452703EB75
:109300004707BB4280F08E809646904618469446AA
:1093100016E0B3F802B00BEA010B5A4540F0A68004
:10932000B3F804B00BEA010B5A4540F0A180DA888B
:1093300008330A40944506D19F4206D91A880A404C
:109340006245E6D002339F4276D8B8F1110F69D951
:10935000C8F11503002BC0F28D8000F0B5800EFA25
:1093600003FEC8F1140801236D4A03FA08F848EA1D
:109370000E0ECEF3C433CEF3441002EB830302EBA4
:109380008000196D0EF01F0302EB83031B6D43EA8F
:109390000131CEF3842302EB8302036D126D41EAA7
:1093A000031343EA022383EA132282EA121202F031
:1093B0000F020F2A5ED1B3F5803F5BD240F6FF71FA
:1093C0001A09B1EB131F78D0C2F308025B0B12FA33
:1093D00003F34FD0534A02EB5302B2FBF3F24FF6C2
:1093E000FE7301929A421DD0D4F818340133C4F8A8
:1093F00018344FF6FF739A4241D0BDF80430AAF8F2
:109400000C30032D4FF001038AF80E3004DC414B81
:1094100093F8A0322D2B4AD0009918EE102A484616
:1094200016F00CFA013509F15C090AF1040A20363C
:10943000082D7FF41DAFE2E6181A33F802CC421073
:1094400001EA0C0C501C384A82FB00B2A2EBE0721D
:109450000120012AB8BF01220EFA02FE9044013A0F
:1094600000FA02F2184642EA0E0E67E704336AE792
:10947000063368E7D4F818340133C4F81834D4F844
:10948000143400210133C4F8143418EE102A48466D
:1094900016F0D4F9C6E7023325E7043323E7063391
:1094A00021E7002003B0BDEC028BBDE8F08F1F4B1D
:1094B000019A009923F81520E7E7D4F8183401330E
:1094C000C4F8183400239AE7154BCEF3C43203EBEB
:1094D0008202116D0EF01F0203EB8202126D42EA4E
:1094E0000132CEF34411CEF3842E03EB810103EB62
:1094F0008E03096D1B6D42EA011242EA032383EADF
:10950000132282EA121202F00F0252E7E401002055
:1095100078060020C81F0120C7FFFF7F24EC060843
:1095200050630608C0270900565555556C22012086
:10953000ABAAAAAAF8B5354C04EB401292F8243035
:1095400003B9F8BD00EB800C314B0026450104EB5C
:109550004C1C9CF8C6E88CF8C66882F80AE093F8C0
:10956000ACE293F8AD2296450DD002EB420C5600CA
:1095700003EBCC0C9CF8B0C20CF1FF37012F39D9AA
:10958000BCF1030F31D0234B254403EB401029815C
:109590005CF0D2FE23782A6A93B1E9680124D2F8FC
:1095A000AC308C4003F1C001420010F4004F90B287
:1095B00002D15A6822435A600C338B42F4D1F8BD71
:1095C000E9680124D2F8AC3001F1100203F1C001C6
:1095D0009440420010F4004F90B202D15A682243E6
:1095E0005A600C339942F4D1F8BD571C07F00307B9
:1095F0007745C8D0324403EBC203034493F8BD124D
:109600000029C0D0631901229A72BCE7E40100204E
:10961000C81F0120EC010020BCEEC00A10EE103A79
:1096200099B287E7214B2DE9F04193F8AC2293F8EA
:10963000AD329A4233D11E4ED6F82451002D12DDA0
:109640000024377806F29440A046013417B1037F16
:10965000012B1FD04269AC4200F58670136843F0BD
:1096600001031360F1D117F077FCD6F8C44DC6F8AA
:109670002C01002C0CDD0F4B03EBC40419680833DC
:1096800033F8042CC8689C4242EA0002CA60F5D153
:10969000BDE8F08180F8FC80FEF76AFDDAE754F05F
:1096A000A9FC0028C7D1BDE8F08100BFC81F012078
:1096B000E4010020AC0F0020F8B50546FFF76EFB73
:1096C00095F8D830072B5DD195F81D310226002B77
:1096D0005AD1374605F1100480226B21204616F03E
:1096E00037FB642017F006FE07226821204616F09B
:1096F0002FFB642017F0FEFD00226B21204616F0A0
:1097000027FB642017F0F6FD01226B21204616F09E
:109710001FFB0F2017F0EEFD1B21FA00204616F06C
:1097200017FB0F2017F0E6FD1C21F200204616F073
:109730000FFB0F2017F0DEFD2846FEF775FC1A21FF
:109740000246204616F004FB0F2017F0D3FD95F8D3
:1097500020211921204616F0FBFA642017F0CAFDDB
:1097600010223721204616F0F3FA0F2017F0C2FD21
:1097700020460122382116F0EBFA0F20BDE8F84010
:1097800017F0B8BD0326A4E70327A3E72DE9F341AB
:10979000144698460DF10702012306460F4616F0BF
:1097A0003BFC88B1022017F005FC9DF807503946B4
:1097B000304625EA040444EA08028DF8072016F032
:1097C000C7FA089817F096FD02B0BDE8F08164234F
:1097D00073B500F1100500930123044612212846B9
:1097E0001A460126FFF7D2FF02220D21284616F065
:1097F000AFFA012017F07EFD02220E21284616F056
:10980000A7FA012017F076FD74221021284616F0E1
:109810009FFA012017F06EFDAC221121284616F0A8
:1098200097FA012017F066FD44237C221221284676
:109830000096FFF7ABFF0623132128461A46009631
:10984000FFF7A4FF00231722152128460096FFF7F3
:109850009DFF0223284618211A460096FFF796FF1F
:1098600094F82101A0B116F0F3FF054608B12623B4
:10987000C3802146074B284641F80C3F00231A4677
:1098800056F084FB284602B0BDE8704054F066BE36
:1098900002B070BD098200087B22F42116F058BA8C
:1098A0001D4B1E49D3F81033B1EB930F10B504468E
:1098B00082B02ED29A08022352085B008A429BB2E1
:1098C00001D9FF2BF8D9A268A3801AB19388126836
:1098D0001B049361012017F00DFDA36813B11A68F2
:1098E0009B8893610A2017F005FD236800201B6AFE
:1098F000ADF804005BB92046022301AA802116F0CE
:1099000059FB9DF80530242B14BF00200F2002B016
:1099100010BD0223D7E700BFC81F01208096980022
:10992000F0B590F81E318DB00546012B52D090F85D
:10993000DC30D0F8A060012B00F08C8016D8D0F875
:109940009C30002205211A605A609A609A81D0F8F2
:10995000E030C0F8F010B3F57A7F00F2888003237E
:10996000012480F8DC3020460DB0F0BD023B012B15
:109970002CD8D0F89C309222504F0DF1080C1A7060
:10998000D0F8A0400FCFACE80F000FCFACE80F002D
:1099900097E80300D5F89C308CE8030002A905F194
:1099A0001000CDE9023416F079F92A69136A002B08
:1099B000FCD173880124A5F8D0302046B388A5F8DF
:1099C000D230F388A5F8D4300DB0F0BD0124204684
:1099D0000DB0F0BD3A4E0A2110308DF8143006F16A
:1099E0000C028DF828300023049102A901900B93FA
:1099F000CDE90262CDE90633CDE9083316F04EF920
:109A00002A690198146A002CFCD1F289052A18DD14
:109A1000338AB6F91240B6F9141014F5004F08BF96
:109A2000B3F5004F376914BF0123002311F500443B
:109A300018BF01241C4303D0C5F8D070A5F8D4107A
:109A4000063A002AC3D0B0227E2116F059F92046EA
:109A50000DB0F0BD32891C46A0F8D0207389A0F863
:109A6000D230B389A0F8D43020460DB0F0BD0369E0
:109A70001A7BF2B15B69E3B190F89840CCB1D0F8B1
:109A80009C1001230E228C20C5F8A45008700D49AB
:109A9000C5F8FC2085F80031D5F89C2085F8DC302D
:109AA000D5F8A030C5F80411C5F8F420C5F8F83091
:109AB0008DE70223012485F8DC3088E7506306082F
:109AC00000000020D181000838B50446FFF766F990
:109AD000214804F1100515F00FFF01226B21A0822F
:109AE000284616F00DF90F2017F004FC18221B2150
:109AF000284616F005F90F2017F0FCFB18221C2150
:109B0000284616F0FDF80F2017F0F4FB20461A2126
:109B1000FEF78AFA0246284616F0F2F80F2017F0F0
:109B2000E9FB94F820211921284616F0E9F8642071
:109B300017F0E0FB10223721284616F0E1F80F203D
:109B400017F0D8FB01223821284616F0D9F803482F
:109B500015F0D2FEA08238BD40420F0080969800DA
:109B600038B50446FFF71AF9384804F1100515F026
:109B7000C3FE03226B21A082284616F0C1F80F20F5
:109B800017F018FA10226A21284616F0B9F80F20AB
:109B900017F010FA00226C21284616F0B1F80F20B9
:109BA00017F008FA94F820211921284616F0A8F891
:109BB0000F2017F0FFF918221B21284616F0A0F8F5
:109BC0000F2017F0F7F918221C21284616F098F8F4
:109BD0000F2017F0EFF910223721284616F090F8E1
:109BE0000F2017F0E7F901223821284616F088F8EF
:109BF0000F2017F0DFF9164815F07EFEA082012035
:109C000017F0D8F9114815F077FEA08220461A21E6
:109C1000FEF70AFA0246284616F072F8012017F0FD
:109C2000C9F90B4815F068FEA0822046FFF75AF9E3
:109C300094F9D230013308D194F9D030013304D1F2
:109C40000620BDE8384017F06FBC38BD40420F0019
:109C5000002D310110B504460D4815F04DFEA082CF
:109C6000012017F0A7F92046FFF726FD10226A21F0
:109C7000A01816F045F8642017F03CFB054815F0D5
:109C80003BFEA0820120BDE8104017F093B900BF51
:109C900040420F00002D310170B500F11004B622D2
:109CA0007E21054690F81E61204616F029F86420B2
:109CB00017F020FBAB691BB11A689B881B049361EA
:109CC000012017F017FBAB6913B11A689B889361E9
:109CD0000A2017F00FFB00227C21204616F010F816
:109CE000012017F007FB00225921204616F008F842
:109CF000012017F0FFFA4FF4A473764A5E21204644
:109D000016F016FC0A2017F0F5FA01225921204618
:109D100015F0F6FF012017F0EDFA012E60D0AB220E
:109D20004021204615F0ECFF012017F0E3FA032252
:109D30004121204615F0E4FF012017F0DBFAED2267
:109D40004221204615F0DCFF012017F0D3FA08224B
:109D50004321204615F0D4FF012017F0CBFA04224E
:109D60005821204615F0CCFF012017F0C3FA0A2233
:109D70005321204615F0C4FF012017F0BBFA022240
:109D80007C21204615F0BCFF012017F0B3FA2046D5
:109D90000E227D2115F0B4FF012017F0ABFA95F8E3
:109DA000210100B970BD16F053FD29460446002874
:109DB00000F0878026220023C280474A41F80C2FFA
:109DC0001A4656F0E3F8A3884FF00042B3FA83F343
:109DD00032FA03F3E6D041490A6813430B6070BDC1
:109DE00000224821204615F08BFF304617F082FAFA
:109DF00080224921204615F083FF304617F07AFA79
:109E000000224521204615F07BFF304617F072FAFC
:109E100006224621204615F073FF304617F06AFAF5
:109E200000224721204615F06BFF304617F062FAFA
:109E3000AB224021204615F063FF304617F05AFA56
:109E400003224121204615F05BFF304617F052FAFD
:109E5000ED224221204615F053FF304617F04AFA12
:109E600008224321204615F04BFF304617F042FAF6
:109E700002225821204615F043FF304617F03AFAE7
:109E80000A225321204615F03BFF304617F032FAE4
:109E900002227C21204615F033FF304617F02AFAC3
:109EA0000E227D21204615F02BFF304617F022FAB6
:109EB0002046B0227E2115F023FF304617F01AFA13
:109EC0006DE7054D0346024641F80C5FBDE8704062
:109ED00056F05CB820640608E18C0008003C0140A4
:109EE00038B51E4D044695F8143333B91C4815F0A7
:109EF00003FD0123A08085F814331A4815F0FCFCFB
:109F000080226B21A080204615F0FAFE642017F015
:109F1000F1F903226821204615F0F2FE642017F0C3
:109F2000E9F9F521204616F029FBAC2811D00BD811
:109F3000122810D0982814BF00250B25084815F0CA
:109F4000DBFCA080284638BDAF2814BF00250925BA
:109F5000F4E70725F2E70825F0E700BFC81F012056
:109F60008096980040420F0038B504461B4815F013
:109F7000C3FC80226B21A080204615F0C1FE642026
:109F800017F0B8F907226821204615F0B9FE6420C1
:109F900017F0B0F9F521204616F0F0FA0546012039
:109FA00017F008F8682D17D18C21204616F0E6FA34
:109FB000182809D8142834BF00250325084815F0AF
:109FC0009BFCA080284638BDA0F15403DBB2072BD0
:109FD00034BF03250025F1E70025EFE740420F00DD
:109FE000002D310110B50446154815F085FCF5210A
:109FF000A080204616F0C2FA702818D008D842284F
:10A0000017D0472817D0122814BF0020082010BDF1
:10A01000AC2812D006D800F0FD00712814BF002033
:10A020000620F4E7AF2814BF00200920EFE7052041
:10A03000EDE70C20EBE70D20E9E70720E7E700BF9D
:10A04000002D310110B50446006856F0F5F838B916
:10A0500020460623034AF72159F0D0F9012010BD0C
:10A060000020FCE7EC02002008B503681A78012AFA
:10A0700006D006230B4A042159F0C0F9012008BD7F
:10A0800093F90430084A03EB430302EB431393F8BC
:10A090007920202A01D0002008BD9B6B9B691B04FE
:10A0A000F9D4E6E7F4020020C81F012008B50368D0
:10A0B0001A78012A06D006230B4A002159F09EF98E
:10A0C000012008BD93F90430084A03EB430302EB77
:10A0D000431393F87920202A01D0002008BD9B6B00
:10A0E0009B691B04F9D4E6E798210120C81F0120D1
:10A0F00010B50446006856F09FF8014690B92368F1
:10A100001A78022A08D1196A21B90323064A20467F
:10A1100015F050FF012006E00323034A204659F0C2
:10A120006DF9F7E7002010BDFC020020E0E710B554
:10A130000446006856F080F838B920460623044AE1
:10A14000F72159F05BF9012010BD0020FCE700BFAA
:10A1500000030020016803460A78012A04D0022A7D
:10A1600001D10B6A63B1704707484FF0130C19799E
:10A170001B2280F815C31B6893F9040055F076BFC5
:10A1800013221B2115F0BCBDC81F0120582156F019
:10A190006DB8482156F06AB8BFF34F8F0549064B9A
:10A1A000CA6802F4E0621343CB60BFF34F8F00BF75
:10A1B000FDE700BF00ED00E00400FA05014B53F895
:10A1C000200070475028004002692DE9F0431778BD
:10A1D00085B004460D46012F18D10B794FF00009C8
:10A1E00000F11008013B8DF8059013710DF1050287
:10A1F0004B7975214B4508BF682303753B464046A4
:10A2000015F00AFF0646002834D122690223137094
:10A21000EB7823B90026304605B0BDE8F08304F1A1
:10A220001008A978404615F081FB06460028F1D0B9
:10A23000E87816F00DFBA0612B780133DBB210B18A
:10A24000C371222383710D21434F16F06DFBA0696A
:10A2500015F066FB414B02E057F8043F5BB3404604
:10A26000984703460028F7D0206984F8D83059F081
:10A27000B1F8D0E7206959F0ADF83B4649460DF1F9
:10A280000602404615F0C8FE9DF8063003F07E0336
:10A29000682B8DF8063000D1A0B99DF8053003F089
:10A2A0007E03682B8DF805300FD0702BB3D10423BB
:10A2B00084F8D830AFE7E8781E4616F0C9FA16F0F1
:10A2C00052FBA8E784F8D870A5E70623022240468F
:10A2D000194684F8D82002AA15F09EFE9DF80D308C
:10A2E0009DF80B209B00520003F0040302F00202D1
:10A2F00013439DF8092002F0010243EA02011343CF
:10A300000CD058B1012B1FD0022B03D001F0030158
:10A3100003291DD1012384F8D9307CE70DF1070210
:10A32000012340460C2115F077FE80F001009DF8D6
:10A330000720C0B202F00F0250B9B2FA82F35B09F3
:10A3400032B1042AE6D1E6E7002384F8D93062E787
:10A35000032017F0E9F85EE768650608699F0008C2
:10A3600030B490F8443000F10801474A012BC2F89C
:10A3700018136ED083684549DC68454D24F46004A9
:10A38000AB42DC60DC6844F46004DC609C6B24F469
:10A3900040149C639C6B44F480149C639C6B24F479
:10A3A000F8449C639C6B44F488449C639C6824F44C
:10A3B00070249C609C689C609C6824F440149C60A1
:10A3C0009C689C605C6824F480645C605C6824F435
:10A3D00080545C605C6901EA040159615969596102
:10A3E00045D0DC68294924F0E064DC60DC6844F096
:10A3F000E064DC609C6B24F440149C639C6B44F42C
:10A4000080149C639C6B24F478249C639C6B44F4C0
:10A4100010249C639C6824F470249C609C689C605D
:10A420009C6824F440149C609C689C605C6824F4E4
:10A4300080645C605C6824F480545C609C692140AA
:10A44000134C9961A3429969996116D0002380F851
:10A4500044301048104B848DC18D408D091B93FBF7
:10A46000F1F3C2E9C704C2F8243330BC70470B4C87
:10A47000616841F400016160B3E708494B6843F447
:10A4800000034B60E2E700BFC81F012000F0FFFFA0
:10A4900000200140007AF01F8038010000230140B5
:10A4A000704700BF01484CF09FBF00BF0020012053
:10A4B000074810B4836BC46E99691A6824B12346A7
:10A4C00038305DF8044B18475DF8044B704700BF07
:10A4D000C81F012001484CF087BF00BF6020012049
:10A4E000084810B4D0F89830D0F8CC4099691A6870
:10A4F00024B1234698305DF8044B18475DF8044BAF
:10A50000704700BFC81F012001484CF06DBF00BF5D
:10A51000C0200120084810B4D0F8F830D0F82C4101
:10A5200099691A6824B12346F8305DF8044B18473E
:10A530005DF8044B704700BFC81F01202DE9F84F9C
:10A54000D44F6023044603FB00735D6A002D00F0C6
:10A550009C81DE6A1EB1B379002B40F096816023A6
:10A5600003FB0473D3F83090B9F1000F04D099F8CD
:10A570000630002B40F08981631CDBB216B1152236
:10A58000F371B271B9F1000F04D0162289F80730C7
:10A5900089F80620287C4FF0090854F07DF83046F1
:10A5A00015F0BEF9484615F0BBF91121304616F0FA
:10A5B000BBF91121484616F0B7F94FF0330A02E013
:10A5C0000A2016F0F7FC304616F00AF910B9BAF175
:10A5D000010AF5D1304616F00DF9052016F0EAFC17
:10A5E000304615F09DF9052016F0E4FCB8F101089D
:10A5F000E3D130464FF0600B16F0FCF8052016F062
:10A60000D9FC484616F0F6F80BFB04FB052016F0C3
:10A61000D1FC304615F084F907EB0B0A052016F043
:10A62000C9FC484615F07CF99AF8343030460422CB
:10A63000002B994E14BF3E211E2116F055F99AF8B1
:10A6400034305E444846002B4FF00402C14614BF2C
:10A650003E211E2116F048F94C22414630465BF05F
:10A6600005FDDAF824309FED8D7AB0EE084A5B687C
:10A67000F7EE003ABAF836B0CAF83830884B9FED9A
:10A68000895A9A68884BC2F38222134493F8302285
:10A69000D7F81033D34007EE903AF8EE677AC7EE5A
:10A6A000275A07EE90BA9FED817AF8EEE77AC7EE67
:10A6B000274ADFED7F7AB0EE007AE5EE877AA5EEE5
:10A6C000875A25EE844A37EE856A74EEE72ABBF591
:10A6D000C87F40F2145309F1010ED7BF1946322347
:10A6E00064234FF49670C8BF782007EE90EAD4BF79
:10A6F0004FF4167C4FF4827C0344B8EEE77AC8BF6F
:10A700004FF4FA7107EE903A27EE257A01EB0C032D
:10A71000F8EEE76A86EE873A73EE636AFCEEE67A55
:10A7200017EE902A07EE90CAB8EEE73A07EE903A95
:10A73000F8EEE77A23EE243AC3EE276A36EEC53AFE
:10A7400072EEE66AC3EE077A77EEE37AFCEEE77A1A
:10A7500017EE901AC6EE877A77EEE37AFCEEE77A88
:10A7600017EE903A03F1020C0CEB010AF0EE466A88
:10A7700007EE90AAF8EE677AE7EE276AF4EEE64A6B
:10A78000F1EE10FA00F383805FFA82FCBCF10F0F48
:10A7900000F29480323807EE900AF8EEE77A77EE0E
:10A7A000C47AC7EE876AFCEEE67A17EE90CA5FFAC3
:10A7B0008CF00F2800F2828088B2FF287ED898B2F1
:10A7C000FF287BD840EA097310054FEA0C4200F0DD
:10A7D0007F6002F47F0203431343364A02EA0121F9
:10A7E00043EA01086020012300FB0474002730467F
:10A7F000C4F83C80C4E91073C4E91277C4E9157742
:10A8000058F0EEF894F87930202BD9B219D194F899
:10A810007830012B15D0242384F87930A36B1A6883
:10A8200022F001021A601A6822F480521A601A6833
:10A830001A601A6842F001021A6084F8791084F8EC
:10A840007870002195F9120055F00CFB95F9123043
:10A85000AA7C002B07DB02F01F0101225B098A4062
:10A86000154941F82320002195F9110055F0FAFA15
:10A8700095F911306A7C002B07DB02F01F010122E1
:10A880005B098A400C4941F82320BDE8F88F01316B
:10A890006AE700BFC81F012000200120286B6E4E10
:10A8A0000038024000001643506306080024744933
:10A8B0000000704200FFFF0000E100E0BEF10F0F5A
:10A8C00090D0F14603E700BF0248036903B118477F
:10A8D000704700BF000001200248436B0BB12430D9
:10A8E00018477047000001200248836D0BB14830C3
:10A8F00018477047000001200248C36F0BB16C304D
:10A9000018477047000001200348D0F8A0300BB171
:10A9100090301847704700BF000001200348D0F86E
:10A92000C4300BB1B4301847704700BF000001209D
:10A930000348D0F8E8300BB1D8301847704700BF53
:10A94000000001200348D0F80C310BB1FC3018474F
:10A95000704700BF000001200348D0F8303113B128
:10A9600000F5907018477047000001200348D0F8A8
:10A97000543113B100F5A270184770470000012050
:10A980000348D0F8783113B100F5B4701847704718
:10A99000000001200348D0F89C3113B100F5C670C7
:10A9A00018477047000001200348D0F8C03113B1A8
:10A9B00000F5D87018477047000001200348D0F810
:10A9C000E43113B100F5EA70184770470000012028
:10A9D0000348D0F8083213B100F5FC7018477047EF
:10A9E000000001200348D0F82C3213B100F50770A5
:10A9F00018477047000001200138064A064B00EB5B
:10AA0000C00052F8200098420CBF9520962053F0C9
:10AA100043BE00BF0000012000600240013800EB8F
:10AA2000C000F8B54FEA800C104C1D46104B54F88E
:10AA30000C00174664440E4698420CBF95209620A1
:10AA400053F02AFE94F91500B9092661A56155F065
:10AA500009FA94F91530002B07DB03F01F000122DF
:10AA60005B090449824041F82320F8BD0000012021
:10AA70000060024000E100E0B24B2DE9F04F97B0DA
:10AA800093F83983B04B0025B04F0093B04BA3F53A
:10AA9000F06ADFF8D092DFF8D0B24E46B30AA3F5E1
:10AAA0008013522B55D8534493F838320D2B50D87D
:10AAB000B8F1010FFC5640F04081012C3FD14FF01E
:10AAC00000094946204617F061FB17F0E7FB90F8B4
:10AAD00000C0BCF1000F18BFBCF1540F14BF4FF001
:10AAE000010C4FF0000C40F0248109F104091FFA19
:10AAF00089F9B9F1100FE4D1002D00F0DD80924A00
:10AB000000210DE0534493F838320D2B0FD8FB563B
:10AB1000A3420FD0013102F58672A94280F2C880AB
:10AB2000906803689B0AA3F58013522BEAD900238F
:10AB3000A342EFD143799BF805009842EAD1844BB8
:10AB40005B4513D05BF8206FB30AA3F58013522B3B
:10AB5000A9D9B8F1010FF2D001230024B8F1020FF6
:10AB6000ADD1002BABD07A4B5B45EBD1009B0135CF
:10AB700003F58673042D00938BD1764B4FF00108BB
:10AB8000DFF8E8B1009303F57073ABF1080A0593A1
:10AB900008F1FF33DAF804209A4240F38680DBF8AC
:10ABA0000C60002E00F007843168B78801F13F4146
:10ABB000B7FA87F701F57E01C7F11F07890ADAF8AE
:10ABC0002451002D40F3FD805F4B002405E001344B
:10ABD00003F58673AC4200F0F2801A688A42F6D11F
:10ABE0004FF48673584ACBF8047003FB04245FFAD1
:10ABF00088F3CBF8184016B1F3710323B3717B00CF
:10AC00000322012102FA03F0A26C01FA03F30243CA
:10AC1000A264226D134323659AF80030002B00F0E4
:10AC2000A780636D01FA07F73B4363659EB1336804
:10AC3000B2889A61434B3046002293F84E13490183
:10AC400041F0090101F0E90115F028FE9AF8003001
:10AC5000002B00F09E80D4F8AC30BDB200203F0441
:10AC600003F1C0011A680C3343F8080C3A4343F867
:10AC70000C2C53F8042C2A4343F8042C9942F1D1AC
:10AC8000204608F10108FDF773FA0123009AB8F194
:10AC9000090F8BF81C300BF1200B0BF8033C53749D
:10ACA00002F1180300937FF473AF17B0BDE8F08F83
:10ACB000BCF1000F7FF443AF584615F039FD9BF807
:10ACC0000540C3B2022B00F27F83431C224A5BB2D1
:10ACD00003EB43039800214B03F5727104E09942A2
:10ACE00000F0728353F82C2FB242F8D11A79A242A5
:10ACF000F5D11A58002AF2D094460023184A516818
:10AD00000133614512D0102B02F12402F7D14FF02C
:10AD1000FF3303EBC303124A02EB83031B7F002BB9
:10AD20007FF40DAF009BC3F808B01FE7DBB2013B17
:10AD3000EFE7002D7FF4E3AE01E7B4F1080318BF9D
:10AD400001230BE7C81F01207806002014EC060839
:10AD5000D06A0608D415002000000140DC65060812
:10AD60000000012000040140D0690608EC01002029
:10AD700007F1100301FA03F2636D1343636536B103
:10AD8000B38801FA07F732681B04936152E701FAAE
:10AD900007F7D4F8AC30BDB200203F0403F1C00186
:10ADA0001A680C3343F8080C2A4343F80C2C53F868
:10ADB000042C3A4343F8042C9942F1D160E7032C68
:10ADC0006CDC4FF4867303FB05A3D3F89C040028C6
:10ADD00000F0E782C3F894140131CAB283F89D25CC
:10ADE0000292542283F89C256B1C0268CAF8243115
:10ADF0004479019215F09CFCA64B864693F84D339E
:10AE000003939BF810300493C3B2022B00F2DC8250
:10AE100000F1010CA049A14800234FFA8CFC019AD3
:10AE20000CEB4C0C4FEA8C0C05E00133172B00F0B7
:10AE3000CB8251F82C0F9042F7D10879A042F4D17F
:10AE400051F80C000028F0D02C210EEB4E0EDFF84C
:10AE5000549201FB03F392494C4603EB8E030B44DF
:10AE6000D3F89C124FF4867303FB05A3C3F8AC140C
:10AE70000021C3F8A804636898421ED0013124342D
:10AE80001029F8D1874B13F8083C5BB9854A542345
:10AE9000029902F8083C02F8071C03E003237D4AEC
:10AEA00082F84C33804B81488149824AC3E9B7100C
:10AEB000C3F8E82217B0BDE8F08F4B1C7949DBB22C
:10AEC000013B03EBC30301EB8303197F06910029C8
:10AED000E8D1029959774FF4867101FB05F08C2176
:10AEE0000446542018772046A310734C0290504417
:10AEF00004FB03F33468C0F88C15C0F8984403FBD6
:10AF000001F1059C03EB430304EB4101C0F88815F4
:10AF10006A4901EB8313C0F840353023C0F844354B
:10AF2000674B02981C185B4BD3F81013039B062B3E
:10AF300000F03282072BDFF898C1624B624814BFE1
:10AF40004FF0710C1846614B04BF63464FF01C0C68
:10AF5000CAF828C1B1FBF3F3B1FBF0F110465A1E59
:10AF60004FF48673013992B203FB05A3A3F8481589
:10AF7000A3F800250193029B2266002203F15801E9
:10AF80004F4BA4F8582019446266E26557F0C0F9A7
:10AF9000019BD3F89C2410680192036843F080035E
:10AFA000036053790C2B08D8DFE803F06C07070720
:10AFB000640707075B07070752004FF4867303FB1C
:10AFC00005A3D3F8A0144FF0600C026800234FF0E3
:10AFD000020ECDF838C04FF4807C22F001021093AD
:10AFE000CDF850C04FF0010C1393CDF83CC04FF09A
:10AFF0000A0C1593CDE911CE02600EAA57F046F85F
:10B000004FF48672019B02FB05A2D2F8A0141A68C5
:10B010000023012900F08881042900F0858110298E
:10B0200000F0C481402900F07F81B1F5807F51D0CC
:10B03000B1F5806F4ED0B1F5805F00F0C181B1F500
:10B04000803F4FF03C030CBF08214FF4006143E008
:10B050004FF486734FF4805103FB05A3C3F8A0148B
:10B06000B1E74FF486734FF4807103FB05A3C3F877
:10B07000A014A8E74FF48673102103FB05A3C3F8BF
:10B08000A014A0E74FF48673012103FB05A3C3F8C6
:10B09000A01498E7C81F0120DC65060800000140E5
:10B0A0005063060800000120DC12002049E8010876
:10B0B00045E8010851E801086B4CA40794160020EC
:10B0C000780600201055220044950800D0DD0600C7
:10B0D00040771B000821042302F1180050F803C038
:10B0E00041EA0C01C150019B1879002840F02581EC
:10B0F0004FF48672002302FB05A2D2F89C04D2F81A
:10B10000A8140068026842F001020260D9F8042025
:10B110000133914200F00D81102B09F12409F5D182
:10B120004FF0FF33AB4A03EBC30352F82300AA4BA3
:10B1300098420CBF9520962053F0AEFA4FF48673D8
:10B1400003FB05A3D3F89C2453790C2B00F2EE806B
:10B15000A24901EB4303B3F8A8C74FF48673106804
:10B160009F4903FB05A3A3F8A4C4002306E0904273
:10B1700000F01F810133042B00F0298151F83320A6
:10B18000002AF4D1DAF8C42D0132CAF8C42D0AEB32
:10B19000C302DB00C2F8C80D19440698234690226A
:10B1A000B1F804E0DFF850924CEA0E0CA1F804C0AC
:10B1B0008C49FFF733FC60694FF486734FF4804C81
:10B1C00003FB05A5036843F010030360036843F025
:10B1D000140303600023C4E91F33C4E92833C4F80F
:10B1E000A8300423D5F8AC24C4F89C304FF4806315
:10B1F000C4F894204FF44032C4F88430C4F8982046
:10B200004022A267D5F84425C4F89020C2B2D5F8F0
:10B21000981420F0FF00103A18312167A9FB023181
:10B22000029B4FF480520909C4F8882003F1700290
:10B230006D4B1A44D5F84035C4F88CC0636757F09D
:10B240009FF9D5F8A804029B4FF40031D0F800E034
:10B250004FF4006C03F1B802634BC4F820E0D0F85F
:10B2600014E01A440023C4F824E0D0F804E0C4F841
:10B2700028E0D0F808E0C4F82CE0D0F80CE0C4F8DE
:10B28000C830C4F830E0C4F8F030C4E93033C4E961
:10B290003A33D5F8AC3401930423C4F8E4304FF4C6
:10B2A0008063C4F8CC30019BC4E93731D5F88C35C4
:10B2B000C4F8D830C3B220F0FF00103BA9FB033123
:10B2C000D5F89834C4F8D0C010330909C4F8B830A0
:10B2D000D5F8883501934FF48043C4F8D430019BEE
:10B2E000C4F8BC3057F04CF9D5F8A8245FFA88F3BD
:10B2F000116861635169A1635168E16391682164D8
:10B30000D1686164116841F010011160116841F069
:10B3100014011160049ACBF804708BF81020CBF85C
:10B320000C60CBF8184067E40821D5E64FF0000C1C
:10B3300013E7DBB20693013BF4E6039215F088FABB
:10B34000039A20B30268254B02F13F42079002F5B1
:10B350007E0203EB9222019B92F8A0071A7A0392D5
:10B3600053F09AF9079B039A99880D920022186866
:10B370000C92089108A90393CDE90A2202220992AE
:10B3800057F04AF85422039BDA80019B1A68536CE9
:10B3900043F400435364ABE614484FF0380C144BAD
:10B3A000D6E50223134A82F84C337BE54FF4006163
:10B3B00092E6DB00F0E64FF0FF373946FFF7FFBBC0
:10B3C0004FF40061042387E600235B68FFDE00235F
:10B3D0009B88FFDE000001200060024050630608E9
:10B3E000AC0F00205180000878060020882A110048
:10B3F000A0BB0D00C81F0120ABAAAAAA2DE9F041ED
:10B40000834DC0EB001605EBC606D6F85033002B73
:10B4100000F0BC800446070196F8C00353F03CF9E5
:10B4200096F8C033012203F01F015B09013B8A40FB
:10B43000032B0AD8DFE813F0E0000400E600DA008E
:10B4400074494B6A23EA02024A623B1B04F1010879
:10B4500005EBC3035FFA88F893F8540315F0F8F985
:10B4600018B1122380F8078083713B1B05EBC303DF
:10B4700093F8550315F0ECF9064618B1132380F83C
:10B48000078083713B1B05EBC30393F8560315F04C
:10B49000DFF918B1142380F8078083713C1B2E213B
:10B4A000304605EBC40494F8582315F01DFA94F8BF
:10B4B000560315F0CDF994F859230E2115F014FA1E
:10B4C00094F8540315F0C4F994F857232E2115F07D
:10B4D0000BFAD4F8503350491A688B4222F04002DC
:10B4E0001A6055D04D4A934269D002F5806293426A
:10B4F00058D1484A116A41F400411162116A21F49D
:10B50000004111625A6842F480525A601A68520629
:10B5100034D443491E68D1F85442D1F86002D1E9CD
:10B520009025B0F5005F42EA0502D1F84C5242EA9C
:10B530000502D1F8505242EA0502D1F8585242EAC7
:10B54000040242EA0502D1F85C5242EA0502354D96
:10B5500042EA000205EA060542EA05021A60D1F84D
:10B5600048225D6842EA14422F4C04EA050442EA8C
:10B5700004025A6002D1B1F864221A61DA6922F435
:10B580000062DA611A6842F040021A60BDE8F08198
:10B59000204A516A41F480515162516A21F480512C
:10B5A0005162AFE7214A934213D11A4A516A41F4DA
:10B5B00000515162516A21F400515162A2E7154ACB
:10B5C000116A41F480411162116A21F480411162D3
:10B5D00098E7174A934295D10E4A516A41F4801177
:10B5E0005162516A21F4801151628BE709490B695C
:10B5F00023EA02020A6128E706494B6923EA0202AC
:10B600004A6122E703490B6A23EA02020A621CE745
:10B61000C81F0120003802400030014000380040BF
:10B62000000001204000FFFFFBF0FFFF003401405D
:10B630000050014030B40469002341684025E468AB
:10B6400082690C3154624469956053609363116060
:10B65000C2E90333C2E90533C2E90733C2E90A3359
:10B66000C2E90C3384B1C269E0689363506211602F
:10B67000C2E90133C2E90333C2E90533C2E9073342
:10B68000C2E90A33C2E90C3330BC7047114A037A6D
:10B690000168D35C10B4CC58CA1824F00104CC5013
:10B6A0001368DB07FCD4037D1F2B09D9203B202224
:10B6B0005DF8044B02FA03F343F01803CB607047C4
:10B6C00020225DF8044B02FA03F343F018038B6069
:10B6D000704700BF24EC0608F0B50668356A0029FB
:10B6E0005CD12F68AC68D6F818E0002F5FD0364BDD
:10B6F0003B40B3F1005F61D007F01F0104F11F036D
:10B7000027F01F02194421F01F01BFF34F8F0029BA
:10B710000BDD114402F12003DFF8B0C08B42CCF8FE
:10B7200068221A4603F12003F8D1BFF34F8FBFF30D
:10B730006F8F03684FF48062CEF80470CEF8142047
:10B740005B69CEF8204043B36868F669002837D0BB
:10B750001D4B0340B3F1005F1AD000F01F0220F030
:10B760001F011F32224422F01F02BFF34F8F002A15
:10B770000ADD0A4401F12003144D9A42C5F8701203
:10B78000194603F12003F8D1BFF34F8FBFF36F8F3A
:10B790004FF48063706073613462F0BDEC69002C1B
:10B7A000FBD06F691435D6F818E0002F9FD1084AF6
:10B7B0003346CEF81470CEF80420C1E73346B9E71B
:10B7C000044B70617360E7E70000FFFF00ED00E0ED
:10B7D000180000201C000020F8B5836806460768A2
:10B7E0001BB19A88196812048A61D7E90454002CA5
:10B7F00050D0A6612B7D1F2B39D82022286802FA51
:10B8000003F343F018038360237D1F2B3AD92022D2
:10B81000203B02FA03F3226843F01803D360636805
:10B82000002269680A601A601A6842F010021A6001
:10B83000BA69297A56F0A4FEFA69217A206856F08E
:10B840009FFE2A7A2A492F6833688D5C5A687B5993
:10B85000206843F001037B51237AC95C435843F0CD
:10B8600001034350536843F003035360F8BD203B8A
:10B870002022286802FA03F343F01803C360237DF3
:10B880001F2BC4D8202202FA03F3226843F01803C6
:10B890009360C4E72A7D6B681F2AAE611FD8202100
:10B8A000286801FA02F242F0180282600021BA69A7
:10B8B0001960196841F010011960297A56F060FE8C
:10B8C0002A7A0B4933682868895C5A68435843F0E0
:10B8D00001034350536843F002035360F8BD203A1C
:10B8E0002021286801FA02F242F01802C260DDE766
:10B8F00024EC06082DE9F04F0746944B89B0944E8E
:10B900003C68D4F80490994500F00281A3F578438F
:10B91000994500F0748103F58063994540F0718189
:10B920000222D9F800304FF0010CB888218923F0A9
:10B93000400397F88880814284F824C0C9F8003019
:10B9400040F0408197F80CA0A37A53453FD0C2EB5A
:10B950000212804B03EBC20393F854030193BAF134
:10B96000000F40F0FD8014F073FF834608B3019B85
:10B970000225794993F85723036801921944774BBC
:10B9800003EB912393F8A00752F086FEBBF8043036
:10B99000DBF8000002A902930323019ACDF814A05A
:10B9A0000792CDE903530123069356F035FD97F82E
:10B9B0000CA0D9F8003043F00103C9F80030D9F8E1
:10B9C000003043F00203C9F8003084F80AA0D9F827
:10B9D000003043F04003C9F80030226A9368FBB19D
:10B9E0000020844651689C441432013001EA060E5E
:10B9F0000B4331B1616999B1BEF1005F01D0D90645
:10BA00000ED19368002BEDD1237B4BB1B8F1000F21
:10BA100006D0012800F2FA80BCF1080F00F2F6808F
:10BA2000236A9B68002B5FD0BB681BB19A8819689A
:10BA300012048A61256A6268216A206A5368D0F814
:10BA400008E023F480532D68BEF1010F486853606D
:10BA500014DD714693689B07FCD5002D37D035F86F
:10BA6000023B93819368DB07FCD5D36808B120F8CB
:10BA7000023B02390129EDDC0EF0010E536843F45C
:10BA800080535360BEF1000F0CD093689907FCD52A
:10BA9000002D58D02B7813739368DB07FCD5D3683F
:10BAA00000B10370236A1B7B002B45D1236A1B69FD
:10BAB0009BB1236AD7F894001B699847012809D0E5
:10BAC00002280AD10023236209B0BDE8F08F4FF6A7
:10BAD000FF73C6E7236A143B2362236A143323628D
:10BAE000236A9B68002B9FD1236A1B68002B00F000
:10BAF0008B80236A226A1F685268236A22620022AE
:10BB00003C681A60D4F80490104B99457FF4FEAE5F
:10BB10000022D9F800104FF0010CBB88208921F0D9
:10BB2000400197F88880984284F824C0C9F8001032
:10BB30003FF408AF184647E0BB68002BB6D01A6840
:10BB40009B889361B2E7FF23A5E700BF0030014067
:10BB50000000FFFFC81F01200000FEBF5063060861
:10BB600014F076FE834600B3019B2D4A93F857A349
:10BB700003681A442B4B03EB922393F8A00752F06F
:10BB80008BFDBBF80430DBF800004FF0030C029390
:10BB9000022302A9CDF81CA0039306930023CDE94C
:10BBA00004C356F039FC97F80CA0D9F8003023F004
:10BBB0000103C9F80030D9F8003023F00203C9F8B6
:10BBC000003002E7C0F34F03B3F5807FD9F80010CF
:10BBD000A8BF4FF4807321F03801022BB8BF0223B5
:10BBE000002B93FAA3F3B3FA83F308BF4FF0FF33AC
:10BBF000013B41EAC303C9F800302081A2E60122DB
:10BC00008FE64FF0FF3284E723625DE7384600217C
:10BC1000FFF762FD384609B0BDE8F04FDCE500BF34
:10BC20000000FEBF50630608014B43F82010704728
:10BC300050280040F0B5A24CA5B0E368022B00F0FC
:10BC40003A82A048A04AA149121A5AF09BF9A0488A
:10BC5000A04AA149121A5AF095F9A368012B00F2E3
:10BC6000C28003EB43039D4A9D4D02EB430032F833
:10BC7000132041888388C5E99A21C5F87032994C10
:10BC8000994E9A4BB2FBF1F2994901FB02F2002165
:10BC9000C6F81023D4F8882042F47002C4F8882033
:10BCA0001A6842F001021A609960924A18680240CC
:10BCB00091481A60C0F30807904A5A601A6822F443
:10BCC00080221A60D96007B1FEE78D49A0604FF667
:10BCD000FF000A688B4B42F400720A60E26802407F
:10BCE0001343E36054F0A2F9BFF34F8FBFF36F8F9C
:10BCF000C4F85072BFF34F8FBFF36F8F636943F483
:10BD000000336361BFF34F8FBFF36F8FC4F884704C
:10BD1000BFF34F8FD4F8803043F6E07CC3F3C90EF5
:10BD2000C3F34E33580100EA0C01734641EA8372B3
:10BD3000013B5F1CC4F86022F8D1203810F1200FBD
:10BD4000F1D1BFF34F8F636943F480336361BFF375
:10BD50004F8FBFF36F8F6A49644B0A6842F4807259
:10BD60000A60196C684A41F080511964196C01F03D
:10BD7000805102910299116841F4404111601268AA
:10BD8000D5F8680202F44042D5F86C42D5F870123A
:10BD90000192019A9A6802F00C02042A00F08D8048
:10BDA0009A6802F00C02082A00F083804F4A136858
:10BDB00043F480331360D6F8307504E0D6F830359C
:10BDC000DB1B642B74D813689B03F7D5474A936831
:10BDD00003F00C03082B6BD0136823F080731360FF
:10BDE000D6F8307508E03E4DD5E99A2147E7D6F8F8
:10BDF0003035DB1B022B5BD813689B01F7D40B0695
:10BE0000640843EA8013611E43EA01433F49194332
:10BE1000364B5160116841F080711160D6F83015D1
:10BE200004E0D6F83025521A022A41D81A68920145
:10BE3000F7D5196C344A41F0805119641B6C03F03A
:10BE400080530393039B136843F480331360D6F845
:10BE5000301506E0D6F830355B1AB3F57A7F00F27C
:10BE6000CB805368DF03F5D51368274943F40033CB
:10BE70001360D6F8302506E0D6F830359B1AB3F5B6
:10BE80007A7F00F2B9804B689C03F5D54FF400121D
:10BE90004FF0006304A804924FF4C072219307236B
:10BEA000CDE9082303230A934BF062FB80B3FEE73E
:10BEB000FEE75B685A027FF579AF0C4B1B6885E79C
:10BEC0005028004000000000D0360000A47F070882
:10BED00000000020E401002059D80708146B060870
:10BEE0000000012000ED00E0C81F012000380240E2
:10BEF00040420F00FFFFF6FE000000081030002453
:10BF0000003C02400003FA05007000400800402099
:10BF10006C4A136803F00F03062B0AD8136823F04A
:10BF20000F0343F007031360136803F00F03072B9D
:10BF300063D1654B9A6842F4E0529A609A6842F481
:10BF400060429A609A6822F0F0029A601A68900142
:10BF500053D59A6841F2883122F0030242F002027E
:10BF60009A60D6F8300504E0D6F83025121A8A42D5
:10BF700043D89A6802F00C02082AF5D1514A136896
:10BF800019070AD5136823F00F0343F00703136062
:10BF9000136803F00F03072B2FD14B4C4B4FA368B3
:10BFA00023F4E05343F4A053A360A36823F4604355
:10BFB00043F40043A3604BF0A7FAA368C3F3031351
:10BFC0003B4493F8D037D840C6F8100354F02EF80D
:10BFD000002304A8CDE91333CDE91533CDE9173398
:10BFE000CDE91933CDE91B33CDE91D33384B04932B
:10BFF0004BF0BEFA10B1FEE7FEE7FEE702234FF07A
:10C00000007204A8CDE90633D823CDE90423012327
:10C010000B934BF0ADFA00B1FEE7D4F88C3023F06F
:10C020008073C4F88C30D4F88C3043F08073C4F83B
:10C030008C30A36803F00C03042B36D0082B18D0E7
:10C04000244BC6F81033204AD5E99A31B3FBF1F3FB
:10C050009168D6F81023C1F303110F4497F8D01755
:10C06000CA401D4901FB03F3C6F81023934220D0B8
:10C07000FEE76368626813F4800F636802F03F02B2
:10C0800018BF1649C3F3881308BF1249B1FBF2F277
:10C0900002FB03F30C4A5268C2F301420132520020
:10C0A000B3FBF2F3C6F81033CDE70C4BC6F81033F0
:10C0B000C9E725B0F0BD00210320FFF7B5FDFEF76D
:10C0C0006BF800BF003C0240003802405063060895
:10C0D000C0FF03000024F40040420F0000127A0069
:10C0E0001D4B1E48196C1E4A41F0805130B4196432
:10C0F00082B0196CFF2401F080510191019901680F
:10C1000041F480710160CA20196C41F480611964A6
:10C11000196C01F4806100915321009D54625062BA
:10C1200051625B6FDB000DD40E4B00220E490F48AD
:10C130005A609A60DA601A615A61C1F8500802B018
:10C1400030BC7047084A094BD2F850289A42EBD1CC
:10C1500002B030BC704700BF0038024000700040A1
:10C160000028004050280040002000403166654211
:10C17000800AA0F58010522808D8054B184490F882
:10C1800038320D2B02D8034AD05670470020704732
:10C190005063060814EC0608F0B50446D0F8940085
:10C1A000434B83B0A16804F1640204F118070E68E0
:10C1B000C1B220F0FF0001921039A3FB013109093F
:10C1C00056F028FA616D0023019A012984F858304D
:10C1D00018D0042916D0102955D0402912D0B1F515
:10C1E000807F53D0B1F5806F50D0B1F5805F55D0CE
:10C1F000B1F5803F4FF03C030CBF6FF0080C6FF4BB
:10C20000006C01E06FF0080C06F118053046E958A3
:10C2100001EA0C01E950616D55F038FF636D012BA7
:10C2200016D0042B14D0102B0FD0402B10D0B3F508
:10C23000807F2FD0B3F5806F2CD0B3F5805F31D0E5
:10C24000B3F5803F06F1540502D04FF4006100E0E1
:10C2500008212B683A46D4F894000B4340212B6008
:10C260002162C1B2124B20F0FF001039A3FB013153
:10C27000090956F085F9D4F89420136843F01003A7
:10C28000136003B0F0BD6FF4006CBDE76FF0080CF5
:10C290000423B9E706F11C050821DAE76FF4006C06
:10C2A0000423B1E706F11C054FF40061D1E700BF9C
:10C2B000ABAAAAAA2DE9F04FDFF88CA29AF80040A9
:10C2C0002DED028B87B034B90124204607B0BDECB8
:10C2D000028BBDE8F08F954BDFF870B2D3F89C323B
:10C2E00008EE103A14F038FE9BF8443B0390002B04
:10C2F00000F018810AF6C4070AF582630AF59874FB
:10C3000000263D4601930597DBF8C032039AD31A05
:10C3100003D4EA6D9A4200F3EE8006EB86030AEB43
:10C32000431393F81C3903F0FF020292002B61D0F3
:10C33000D5F89410AB687E481A68CBB221F0FF01A3
:10C34000103BA0FB03037B481B09C35C19444B68EB
:10C35000A9891FFA83FCD368CCF1160C23EA0103E8
:10C36000BCF1070FD36045D9DAF818340022012157
:10C37000013396468946CAF81834D5F89C301F46D2
:10C38000049357F8048B40461CE0D7F80080BEF1B8
:10C39000140FA8EB0003404657DC13F1080848BF10
:10C3A00003F117084FEA28130EEB281E03F1FF389C
:10C3B000013102FA03F3043709FA08F28C4542EA24
:10C3C000030242D38C45E0D8CEF1150338684FF014
:10C3D000150EEBE7DAF814340133CAF81434002EE2
:10C3E00000F0908000230293029918EE102A204654
:10C3F00013F024FA019B284601365C340433A0353F
:10C400000193FFF7C9FE9BF8443BB3423FF77CAF73
:10C410000022059FCBF8C022002B3FF455AF03EB61
:10C42000830307EB43133A7CA03757F84C0C12F008
:10C43000020F57F8982C11680A6A14BF42EA80026A
:10C440000243BB420A62EED13EE7BEF1150FC1D1F5
:10C450003949C2F38423C2F3441001EB830301EB97
:10C460008000D3F8E037D0F8E0071B0243EA00135E
:10C4700002F01F00C2F3C43201EB800001EB820224
:10C48000D0F8E017D2F8E0270B4343EA023383EAFF
:10C49000132282EA121202F00F020F2A9AD140F6FA
:10C4A000FF711A09B1EB131F39D0C2F308025B0BFD
:10C4B00012FA03F38ED0214A4FF6FF7102EB5302BA
:10C4C000B2FBF3F39AB28A4284D00199032E8A8197
:10C4D0004FF001028A7387DC144A92F8A0222D2AB9
:10C4E00082D1174A2046029922F8163018EE102AF7
:10C4F00013F0A4F97EE70024204607B0BDEC028BC0
:10C50000BDE8F08F049958220E4859F03BFD029681
:10C51000029918EE102A204613F090F96AE70023DA
:10C520001A46D2E7CBF8C032CFE600BFC81F0120C1
:10C53000ABAAAAAA24EC060850630608C027090083
:10C540006C22012020060020E4010020DC120020E3
:10C55000830AA3F58013522B45D8F0B504466248F0
:10C5600085B0034493F838020D283AD85F4D860110
:10C5700005EB8013D3F83475A74232D00139C3F8E4
:10C58000344589B2C3F84015D5F81013B1FBF2F267
:10C59000013AC3F8382505F2345202EB801000222C
:10C5A000C3F84425C3F83C25C3F848254BF046FAA8
:10C5B0004F4B9C4218D0B4F1804F15D0A3F57C436B
:10C5C0009C4272D003F580639C426ED0494A03F5C9
:10C5D0007C439C4218BF944246D003F570539C4262
:10C5E00042D005B0F0BD704700234FF48051AA1926
:10C5F000CDE9001392F870150129CDE90233F0D08E
:10C600000221D2F83405012482F871153A4987686D
:10C610003940816082F8714582F870350023AA198B
:10C62000CDE90033029392F87035012BD9D0D2F8BE
:10C63000343502212E4882F8711583425A68996870
:10C640004ED000F5806083424AD022F0700221F083
:10C650008001354401205A609960002385F87105F6
:10C6600085F8703505B0F0BD00214FF48053CDE959
:10C670000031AB1993F87025012ACDE90211B0D031
:10C68000D3F83405022283F871251B4A87683A40A3
:10C6900082601A4A83F870150121944283F871155B
:10C6A000BCD0144B9C429CD1B8E700224FF480517F
:10C6B000AB19CDE9001293F870150129CDE90222DA
:10C6C0008FD00221D3F83405012483F871150A496B
:10C6D00087683940816083F8714583F870259DE74C
:10C6E00022F47002B1E700BF50630608C81F0120A2
:10C6F00000000140000C00408800FEFF00040140E3
:10C7000070B504460068830AA3F58013522B05D840
:10C710002E4E334493F838520D2D00D970BDFFF7DB
:10C7200017FF2B4BA801022203EB8515D5F8341512
:10C7300085F87125274A8D682A40062A06D0B2F569
:10C74000803F03D00A6842F001020A6003440120DE
:10C750002168214A83F871050023204801E050F840
:10C76000332091420AD001330E2BF8D10121002051
:10C7700053F078FB1A4B01221A6070BD06EBC3031D
:10C78000012193F9654893F86568204653F06AFBE8
:10C79000002CC3DB06F01F0301216409104D01FAD0
:10C7A00003F31B2E45F8243008D02E2EB6D12C20B2
:10C7B00053F058FB4FF480536B6070BD192053F059
:10C7C00051FB4FF000732B6070BD00BF5063060833
:10C7D000C81F01200700010000000140B06B0608DF
:10C7E00000E100E003689B0AA3F58013522B58D8A0
:10C7F000F0B53D4C234493F838320D2B50D8447992
:10C80000A608002952D003EB8300384D4FF0020CEC
:10C81000A40803EB40000CFA04F4304405EB831643
:10C82000D6F8346505EB800CF768CCF8F8183C4373
:10C83000CCF80829F4609C01EFF3118C502282F3AC
:10C8400012882C2203FB02F2A818D0F8F41849B37E
:10C850000A1DC0F8181926492C20264E03FB00F0AB
:10C8600006EB000E1430014451F8040B18B11060AF
:10C8700051F8042C04328E45F6D100215FFA8CFC6D
:10C8800011608CF311882C222C4402FB0353D4F842
:10C890003425D3F8183913B3D36843F00103D360B8
:10C8A000F0BD7047243212490A44D5E703EB8300F8
:10C8B0000E4D344603EB4000304405EB8316D6F8AA
:10C8C00034750226A640FC6824EA0604FC6005EBE9
:10C8D0008004C4F8F818C4F808299C01ACE7D368B0
:10C8E00023F00103D360F0BD50630608C81F012088
:10C8F000BC280120E028012001490248FCF77CBA4D
:10C90000BC2801200000014010B5064C064804F682
:10C91000F401FCF771FA04F528610448BDE8104001
:10C92000FCF76ABAC81F0120000001400044014022
:10C9300002494FF08040FCF75FBA00BFE8280120B1
:10C9400001490248FCF758BA1429012000040040AC
:10C9500001490248FCF750BA402901200008004074
:10C9600001490248FCF748BA6C290120000C00403C
:10C970002DE9F843194E3569F3681D4010D04FF08A
:10C980000047DFF85C80B5FA85F227FA02F31F2A28
:10C990006FEA030305EA0305336103D0002DF2D1EA
:10C9A000BDE8F883D8F8F839A3B103F1FF390023C3
:10C9B0001FFA89F9C8F8F839D8F8F449002CEDD0F5
:10C9C00023682046494698476468002CF8D1002D1A
:10C9D000D9D1E5E7F16A1FFA81F9EDE700100040CF
:10C9E000C81F012001490248FCF706BAF0290120BE
:10C9F0000004014010B5064C064804F62821FCF757
:10CA0000FBF904F604310448BDE81040FCF7F4B922
:10CA1000C81F012000040140001C004001490248D9
:10CA2000FCF7EAB91C2A01200040014001490248F4
:10CA3000FCF7E2B9742A012000480140014902488C
:10CA4000FCF7DAB9A02A0120001800402DE9F04FC8
:10CA50004FF4257295B00021814859F007FB814BB6
:10CA6000814F4FF080415A6C07F12004B94642F0E3
:10CA7000010207F51E65A246DFF8F4815A64A7F1AA
:10CA800070065A6C02F001020092009A1A6C42F091
:10CA900001021A641A6C02F001020192019A1A6CE6
:10CAA00042F002021A641A6C02F002020292029A26
:10CAB0001A6C42F004021A641A6C02F00402039227
:10CAC000039A1A6C42F008021A641A6C02F0080207
:10CAD0000492049A1A6C42F010021A641A6C02F062
:10CAE00010020592059A1A6C42F020021A641A6C20
:10CAF00002F020020692069A5A6C42F002025A6430
:10CB00005A6C02F002020792079A5A6C42F4803281
:10CB10005A645A6C02F480320892089A5A6C42F4B1
:10CB200000325A645A6C02F400320992099A5A6C23
:10CB300042F480225A645A6C02F480220A920A9AC1
:10CB40001A6C42F040021A641A6C02F040020B9216
:10CB50000B9A1A6C42F080021A641A6C02F080027E
:10CB60000C920C9A1A6C42F480721A641B6C03F4D7
:10CB700080730D930D9B4246002301E056F833204D
:10CB80008A420CD001330E2BF8D10AF1200A002082
:10CB900051F082FD55450DD05AF8201CEBE7334A81
:10CBA0000AF1200A02EBC30393F8640851F074FD04
:10CBB0005545F1D107F51C67DFF8B0B0DFF8B8A034
:10CBC00009F120094F4526D099F80630002BF7D0FF
:10CBD00099F8040013F03CFE06460028F0D00368E4
:10CBE00009F1200919F8188C53440BEB932393F89F
:10CBF000A00751F051FDB288306800230E92022246
:10CC00000EA9CDF84C80CDE90F23CDE9113355F0B5
:10CC100003FC4F45D8D14FF08041154F154E3A4691
:10CC2000002301E056F833208A420BD001330E2B4B
:10CC3000F8D12034002051F02FFDAC420CD054F834
:10CC4000201CECE7094A203402EBC30393F8640884
:10CC500051F022FDAC42F2D115B0BDE8F08F00BF1B
:10CC6000BC28012000380240206C060850630608EA
:10CC700000000140B06B06080000FEBF70B5032045
:10CC800082B0FDF79BFA01284DD0334C0025334A82
:10CC90000523C4F89850C4F89C50C4F8A020C4F8E8
:10CCA0009430BFF34F8FBFF36F8F4FF6FF01E268F1
:10CCB0002B4B0A402B4E13432B4AE360536FC6F8AD
:10CCC000883B4AF021FC294B2949A3FB0023D4F8D7
:10CCD000FC209B0C42F08072C4F8FC20C6F88C3B10
:10CCE000D6F81033234AA1FB031323499B09C2F84A
:10CCF000B01F5560013B1168B3F1807F41F0010125
:10CD0000116008D24FF0E022F0215361072384F82C
:10CD10002310956113614FF0E022136943F004037F
:10CD2000136102B070BD02210320FEF77DFF0E4BA0
:10CD300012485A6C124942F480425A645B6C03F404
:10CD400080430193019A02680B68026083F30888AC
:10CD50004B689847FEE700BF00ED00E01B000006AF
:10CD60000005FA05C81F01200038024083DE1B437E
:10CD7000D34D6210001000E055CEACC50038014024
:10CD80000000F01FD0F82011242200232DE9F041EB
:10CD9000C0F8942104460A68806804F5907522F072
:10CDA00001020A600B604B608B6094F805C0C4F808
:10CDB0009C314FEA8C22C4F8943184F8903102F40B
:10CDC0008052C4F89831C4F83831C4F828214FEAA9
:10CDD0000C32C4F8403102F40052C4F834312379E3
:10CDE000C4F82C214FEA0C22C4F8240113F00100EE
:10CDF00002F48062C4F8302102D00422C4F8342145
:10CE000013F0020305D0D4F8342142F00802C4F82C
:10CE100034211CF0010F0DD048B1D4F8442142F068
:10CE20000202C4F844214FF48032C4F84C21002B94
:10CE300040F0FF80A64B03F1200053F8042F9442EA
:10CE400000F0BD809842F8D11CF0080F40F0CD8072
:10CE5000D4F89431002B00F0128124232846C4F822
:10CE600094310B6823F001030B604AF0D5FE0128D2
:10CE700015D0D4F84431002B40F01481D4F820317F
:10CE800028465A6822F490425A609A6822F02A0290
:10CE90009A601A6842F001021A6055F0A9FC2379E1
:10CEA000DA0761D5D4F8FC20002A00F0D5800023F1
:10CEB000D4F8041104F13C06E263A3644FF48062E9
:10CEC0003046E264C4E91013C4E91433C4E91833EA
:10CED000C4E91A334FF48033E3654FF48073A365DC
:10CEE00055F0CCFD304649F089FFD4F89881C4F85C
:10CEF0008C61B8F1200F656731D1E368626999B23E
:10CF00006AB3B1FA81F77F0949B394F89001012817
:10CF100025D030460126C4F89C710B4684F89061F8
:10CF20002226A4F87811C4F898616A4ED4F820112A
:10CF3000A667694E2431C4F87421E667674EC4F8C9
:10CF40008C70C4F8886049F0F7FF002800F0AE80CC
:10CF5000102384F89071C4F89C31C4F89481E26B7A
:10CF600023795268C4F814219B0773D5D4F80021A3
:10CF7000002A69D00023D4F8081104F19C06C4F8F3
:10CF80009C20C4F8A8304022C4F8B8303046C4E928
:10CF90002C33C4E93033C4E932334FF48033C4F85E
:10CFA000BC304FF48063C4E92812C4F8AC3055F0AB
:10CFB00065FD304649F022FF002863D0FEE7002CD3
:10CFC0003FF442AF94F8B831002B3FF43DAFD4F8B2
:10CFD00044311CF0080F43F00803C4F844314FF407
:10CFE0000043C4F854313FF433AFD4F89431002BEC
:10CFF00051D024232846C4F894310B6823F0010350
:10D000000B604AF009FE01283FF449AFD4F84431DF
:10D01000002B43D1D4F8203128465A6822F490429C
:10D020005A609A6822F022029A609A6842F00802D6
:10D030002EE7D4F8443143F00103C4F844314FF4EF
:10D040000033C4F84831F5E6D4F8A021136843F062
:10D0500080031360BDE8F081D4F8A021116841F489
:10D0600080711160916841F001019160116841F097
:10D0700020011160116841F01001116074E784F81B
:10D080009031EAE6D4F89C30C4F88861C4F8D450F2
:10D090005860BDE8F08184F89031AAE728464AF04C
:10D0A00075FFB7E728464AF071FFE7E6D4F820316C
:10D0B00084F890011A6842F480721A609A6842F00B
:10D0C00001029A609A6842F040029A6047E700BF06
:10D0D000281E0020C1360508F1360508F53605087A
:10D0E000F8B5EFF31185502383F31288D0F800319F
